:10000000000002209D650100C5650100C765010073
:10001000C9650100CB650100CD650100000000004D
:10002000000000000000000000000000CF6501009B
:10003000D165010000000000D3650100D565010015
:10004000D7650100FD5501003D6401000164010018
:1000500015640100D7650100094F0100ED6B010037
:10006000256001002D60010035600100D7650100A9
:10007000D7650100D7650100D7650100D76501008C
:10008000D7650100D7650100D7650100D76501007C
:10009000D7650100D7650100D7650100D76501006C
:1000A000D7650100D76501003D6001004560010092
:1000B000D7650100D76501000000000000000000C6
:1000C000D7650100D7650100D765010029640100EB
:1000D000D7650100D7650100D7650100D76501002C
:1000E0006564010000000000000000000000000046
:1000F00000000000D765010000000000516401000D
:1001000000000000000000000000000000000000EF
:1001100000000000000000000000000000000000DF
:1001200000000000000000000000000000000000CF
:1001300000000000000000000000000000000000BF
:1001400000000000000000000000000000000000AF
:10015000000000000000000000000000000000009F
:10016000000000000000000000000000000000008F
:10017000000000000000000000000000000000007F
:10018000000000000000000000000000000000006F
:10019000000000000000000000000000000000005F
:1001A000000000000000000000000000000000004F
:1001B000000000000000000000000000000000003F
:1001C000000000000000000000000000000000002F
:1001D000000000000000000000000000000000001F
:1001E000000000000000000000000000000000000F
:1001F00000000000000000000000000000000000FF
:100200007CB0EE877CB0EE87FF00FF00FF00FF00B0
:10021000FF00FF00FF00FF00FF00FF00FF00FF00E6
:10022000FF00FF00FF00FF00FF00FF00FF00FF00D6
:10023000FF00FF00FF00FF002DE9F04F85B00391A4
:100240000778A7F10903042B044607F07F0200F1A9
:100250000100F5D9202AF3D02B2F04BF677804467C
:100260002D2F72D09FED427B8DED007B4FF000086B
:100270004FF000098FB34FF0000E4FF0000ADFF887
:1002800000B1754619E019F0EFFA8046894630460C
:1002900019F084FA42464B4619F034F9524680462A
:1002A00089465B46DDE9000135B319F007FCCDE96D
:1002B0000001AE4614F8017F7FB1A7F13006092E88
:1002C00052465B4640464946DDD9C5B92E2F16D168
:1002D00014F8017F0125002FEFD142464B46DDE99E
:1002E000000119F0C1FA80468946039B4046494601
:1002F0001C6005B0BDE8F08F4FF0010EDAE7BEF1EB
:10030000000F29D042464B46DDE9000119F0ACFA56
:1003100007F0DF07452F80468946E6D10399601C28
:100320000A2219F0D3F816490246002019F0FCFD04
:1003300002460B464046494619F096FA80468946E1
:100340004046494605B0BDE8F08F9FED0B7B6778CE
:100350008DED007B013489E7DFF828904FF000082D
:100360004046494605B0BDE8F08F00BFAFF30080BE
:10037000000000000000F03F000000000000F0BF9F
:10038000000024400000F87F2DE9F84F16460023B6
:10039000002204460D4619F0D9FC002840F09D804B
:1003A000002200232046294619F0C6FC28B130223D
:1003B000002332707370BDE8F88F2046294617F08D
:1003C00055FD19F001FD7BA3D3E9002381462946A1
:1003D000204619F0BBFC002800F08680B9F1000F20
:1003E000C0F2BE804A4600206F4919F09DFD0246CA
:1003F0000B462046294619F061FB04460D4666A1CE
:10040000D1E9000101274FF0000822462B4619F0E0
:100410002BFA0022654B19F075F819F0C1FD002F79
:10042000CC464FF0FF3AC1464FF0000840F38580BC
:10043000DFF888E15E4C0122AEF1700945F6F32544
:100440004FF02E0BA94208BFA0424FF0300309D352
:10045000001B61EB0501A94208BFA04203F10103A3
:10046000F6D2DBB2337050EA010306F1010409D180
:10047000BA4210DACE4502F101020CD026467EE8DF
:100480000245DFE7BA4204BF86F801B0B41CCE458E
:1004900002F10102F2D1B8F1000F0DD02246302155
:1004A00002F8011BC2F1010353442344002BF7DC83
:1004B0002AEAEA7301331C44BCF1010F4CD06523D6
:1004C000BCF1000F2370C5BF2B236370611CA11CFE
:1004D0006046BDE8F84F0FF05FBF05F100431D46D1
:1004E0002D23337001365BE72DA3D3E9002320468B
:1004F000294619F049FC00287FF470AFB9F10E0FBE
:1005000009F101073DDDA9F10E0842460020264908
:1005100019F00AFD02460B462046294619F0CEFA8C
:100520000022224B18F0EEFF19F03AFD002FA9F13E
:100530000F0A4FF0010C3FF77BAF334630222E24D9
:1005400003F8022B74707FEA090618D01E4403F8E2
:10055000012BB342FBD16BE700232370BDE8F88F7A
:10056000C9F100020020104919F0DEFC02460B46DA
:100570002046294619F078F904460D463FE71E4605
:1005800056E7C9F10E0200200749C84619F0CCFC15
:100590004FF0010939E700BF0000901EC4BCD642ED
:1005A00050EFE2D6E41A4B44000024400000E03F44
:1005B00000407A108DEDB5A0F7C6B03EB8AA010094
:1005C00070B54FF0FF3006F035FA04466FF07F400B
:1005D00006F030FA0646204619F0D0F800220C4BFF
:1005E00019F042F9044630460D4619F0C7F806A343
:1005F000D3E9002319F062FA02460B462046294649
:1006000018F080FF70BD00BF0000E0DFFFFF6F4308
:100610000000F03D000000002DE9F04F2DED028BB1
:10062000044683B0C06819F0B9F88046206989464D
:1006300019F0B4F8824660698B4619F0AFF80246AB
:1006400001F1004306460F464046494617F0BAFA04
:1006500019F002FCE062054617F068F9019028469F
:1006600017F018F9019B0546184619F0A9F84246FB
:100670004B4619F0F9F880462846894619F0A0F84B
:1006800032463B4619F0F0F802460B4640464946D2
:1006900018F036FF02460B465046594617F092FABC
:1006A00019F0DAFB002208EE100A00233046394622
:1006B00019F06AFB28B3B5EEC08AF1EE10FA1CDD22
:1006C00011A7D7E9006718EE100A19F079F8024669
:1006D0000B463046394618F013FF32463B4618F0B9
:1006E00011FF19F0B9FBA062E38843F00203E38035
:1006F00003B0BDEC028BBDE8F08F05A7D7E900671A
:10070000E1E784ED0A8AEFE7EA2E4454FB21F93F42
:10071000EA2E4454FB21F9BF08B511F02BF9DFEDA7
:100720000C7A07EE100A67EE277A17EE900A19F096
:1007300047F805A3D3E9002319F0C0F919F044FBE9
:1007400008BD00BFAFF30080EA2E4454FB211940DE
:100750000000B4430000000008B511F01FF9DFED00
:100760000C7A07EE100A67EE277A17EE900A19F056
:1007700027F805A3D3E9002319F0A0F919F024FB09
:1007800008BD00BFAFF30080EA2E4454FB2119409E
:100790000000B44300000000494A21F000439342A6
:1007A0002DE9704304460D464BDC464A93420E4603
:1007B0000EDC3FA3D3E9002318F0A4FE0022424B35
:1007C00019F0E2FA00284CD020462946BDE8708393
:1007D0003E4A93423BDCB3F1804F42DD16F040FFCE
:1007E0002246804689462B462046294619F03CF889
:1007F0000022354B18F086FE17F0F6FD02460B4638
:100800004046494618F07EFE02460B4600202E491F
:1008100019F054F9424604460D464B4640464946B7
:1008200018F070FE02460B462046294618F06AFE74
:1008300002F06AF8002EC9DC01F100431946BDE858
:10084000708302460B4618F05DFEBDE8708316F01B
:1008500007FF02F059F818A3D3E9002318F052FE5D
:10086000E8E722462B462046294618F0FDFF804641
:1008700089462046294616F0F3FE002204460D461E
:10088000114B4046494618F03DFE17F0ADFD0022E1
:100890000D4B18F037FE02460B464046494619F00C
:1008A0000DF922462B4618F02DFE00F0C5FAC1E7DF
:1008B0009C7500883CE4377EEF39FAFE422EE63F15
:1008C000FFFFEF7FFFFF2F3E0000F03F0000B04131
:1008D0002DE9F84FC44B21F000469E4204460D46D8
:1008E0008A460EDDC14B9E4200F3AC8000F0A7802B
:1008F000BAF1000F40F3EA809FA1D1E90001BDE801
:10090000F88FBB4B9E4200F3B580A3F1DE739E428D
:1009100040F3A0804FF0FF3B22462B46204629465D
:1009200018F0A2FF02460B468046894618F09CFF4D
:1009300093A3D3E9002306460F4618F095FF92A330
:10094000D3E9002318F0DEFD32463B4618F08CFF59
:100950008FA3D3E9002318F0D5FD32463B4618F0AB
:1009600083FF8DA3D3E9002318F0CCFD32463B462C
:1009700018F07AFF8AA3D3E9002318F0C3FD3246AA
:100980003B4618F071FF88A3D3E9002318F0BAFDA5
:1009900042464B4618F068FF85A3D3E90023804602
:1009A00089463046394618F05FFF83A3D3E9002318
:1009B00018F0A6FD32463B4618F056FF80A3D3E957
:1009C000002318F09DFD32463B4618F04DFF7EA3F4
:1009D000D3E9002318F094FD32463B4618F044FF5B
:1009E0007BA3D3E9002318F08BFD32463B4618F079
:1009F0003BFFBBF1FF3F02460B466CD040464946E9
:100A000018F080FD22462B4618F02EFF794E7A4BC7
:100A10004FEACB0B5E449B44DBE9002318F070FDEA
:100A200022462B4618F06CFD02460B46D6E9000123
:100A300018F066FDBAF1000F43DBBDE8F88F00281F
:100A40003FF456AF22462B462046294618F05AFD61
:100A5000BDE8F88F60A3D3E9002318F053FD00220E
:100A6000664B19F091F900283FF454AF204629460F
:100A7000BDE8F88F16F0F4FD614B9E4204460D462A
:100A800039DCA3F550239E425EDC02460B4618F08B
:100A900039FD0022594B18F033FD002206460F465F
:100AA0004FF080432046294618F02CFD02460B46A5
:100AB0003046394619F002F84FF0000B04460D4657
:100AC0002AE701F100431946BDE8F88F44A1D1E9B6
:100AD0000001BDE8F88F4046494618F013FD224654
:100AE0002B4618F0C1FE02460B462046294618F058
:100AF00007FDBDE8F88F434B9E421ADC0022424BB3
:100B000018F0FEFC002206460F463F4B20462946C1
:100B100018F0AAFE0022394B18F0F4FC02460B46EE
:100B20003046394618F0CAFF4FF0020B04460D4616
:100B3000F2E602460B460020344918F0BFFF4FF0A2
:100B4000030B04460D46E7E600222C4B18F0D8FCB8
:100B5000002206460F46294B2046294618F0D2FCB3
:100B600002460B463046394618F0A8FF4FF0010BFD
:100B700004460D46D0E600BF182D4454FB21F93F32
:100B800011DA22E33AAD903FEB0D76244B7BA93F7F
:100B9000513DD0A0660DB13F6E204CC5CD45B73F4D
:100BA000FF8300922449C23F0D5555555555D53FF9
:100BB0002F6C6A2C44B4A2BF9AFDDE522DDEAD3FED
:100BC0006D9A74AFF2B0B33F711623FEC671BC3F8D
:100BD000C4EB98999999C93F9C7500883CE4377E8D
:100BE000182D4454FB21F9BFFFFF0F440000F07F94
:100BF000FFFFDB3FC8AA0100E8AA01000000F03FA8
:100C0000FFFFF23FFF7F03400000F83F0000F0BF0E
:100C10002DE9F843C1F30A59A9F2FF35132D024615
:100C20000B460C4606468846074622DC002D50DB64
:100C3000DFF8F09049FA05F901EA090E5EEA0606C6
:100C40001CD036A3D3E9002318F05CFC002200235B
:100C500019F09AF848B1002C04DD4FF4801343FAE0
:100C600005F5A84428EA0904002721463846BDE8CE
:100C7000F883332D06DDB5F5806F3DD0104619465B
:100C8000BDE8F883A9F213494FF0FF3E2EFA09F9A7
:100C900010EA090FF2D021A3D3E9002318F032FCA7
:100CA0000022002319F070F80028DED0002C09DDA6
:100CB000142D2BD00127C5F1340507FA05F5AE191F
:100CC00028BFB844444626EA090721463846BDE80D
:100CD000F88312A3D3E9002318F014FC00220023A8
:100CE00019F052F80028C0D0002C0BDB54EA06079C
:100CF00006D00027084CB8E718F004FCBDE8F883DC
:100D00003C46B2E700274FF00044AEE704F101088B
:100D1000D8E700BFAFF300800000F03F9C7500886B
:100D20003CE4377EFFFF0F002DE9F041C1F30A5785
:100D3000A7F2FF35132D02460B460C4688460646A1
:100D40001CDC002D3FDB3A4F2F41864601EA070CA1
:100D50005CEA0E0E17D034A3D3E9002318F0D2FBBF
:100D60000022002319F010F820B1002C3FDB28EA04
:100D70000704002621463046BDE8F081332D06DD0C
:100D8000B5F5806F2FD010461946BDE8F081A7F267
:100D900013474FF0FF3E2EFA07F73842F3D022A355
:100DA000D3E9002318F0AEFB0022002318F0ECFF7B
:100DB0000028DFD0002C20DB444626EA0706214627
:100DC0003046BDE8F08118A3D3E9002318F09AFB60
:100DD0000022002318F0D8FF0028CBD0002C17DB0E
:100DE00000263446C6E718F08DFBBDE8F0814FF4CD
:100DF000801343FA05F5A844B9E7142D10D0012358
:100E0000C5F1340503FA05F5AE1928BF9844D3E7B8
:100E100024F00042074B324318BF1C460026A9E7C6
:100E200004F10108C8E700BF9C7500883CE4377EE8
:100E3000FFFF0F000000F0BF2DE9F04FD84B9942A3
:100E400087B0804689460E4613DCD64B21F000441D
:100E50009C4218DD0022D44B18F06EFF002879D098
:100E6000002200230020D14918F028FE07B0BDE879
:100E7000F08FCF4B99422FDD42464B4618F042FB94
:100E800007B0BDE8F08FCB4B9C4270DDCA4B1E44CF
:100E90009E427ED80022C94B4046494618F032FB9C
:100EA0004FEA215AAAF2FF3ABAF1000F04460D4662
:100EB0000E4640F3DE8142464B4618F021FB0246C7
:100EC0000B460020BD4918F01BFB22462B4618F0AC
:100ED000F5FDCDE902010BE0B94B9E42DADD9FED55
:100EE0009A7B8DED027B4FEA265A4446AAF2FF3ADE
:100EF000B44BC6F313069E4246F07F5500F3E780DD
:100F000045F44015204629460022AC4B18F0F8FA6B
:100F1000002204460D46AC4B18F0A6FC22462B4698
:100F200018F0A2FCA046CDE90401A946CDE90001D4
:100F3000002E3AD1002200232046294618F0FCFE5C
:100F4000002800F0CE80BAF1000F40F0748100203C
:100F5000002195E742464B464046314618F0D0FA0C
:100F600002460B4618F0AAFD07B0BDE8F08F00223C
:100F7000964B18F0C7FA0022002318F005FF00284E
:100F800000F0CC80924B9C4200F3C880404649461A
:100F900076E700228C4B18F067FC42464B4618F06F
:100FA00063FCCDE900014FF0000A00224FF08043BE
:100FB0004046494618F0A6FA02460B4640464946C6
:100FC00018F07CFD02460B4606460F4618F04CFC16
:100FD0005FA3D3E9002304460D4618F045FC5EA349
:100FE000D3E9002318F08EFA22462B4618F03CFC79
:100FF0005BA3D3E9002318F085FA22462B4618F0AC
:1010000033FC59A3D3E9002318F07CFA22462B467F
:1010100018F02AFC56A3D3E9002318F073FA2246ED
:101020002B4618F021FC54A3D3E9002318F06AFAE8
:1010300022462B4618F018FC51A3D3E9002318F0E0
:1010400061FA22462B4618F00FFC04460D46BAF111
:10105000000F00F0BF80504618F0A0FB4AA3D3E970
:10106000002382468B4618F0FFFBDDE90023CDE923
:1010700004012046294618F045FA32463B4618F04E
:10108000F3FB43A3D3E9002304460D4650465946DB
:1010900018F0EAFBDDE9022318F034FA02460B46A9
:1010A0002046294618F02EFA02460B46DDE90001DB
:1010B00018F026FA42464B4618F022FA02460B4632
:1010C000DDE9040118F01CFA07B0BDE8F08F45F423
:1010D0000015C6F5801620462946B6100AF1010A09
:1010E00012E72DA3D3E900232046294618F0BCFBC4
:1010F00002460B460020314918F002FADDE90423CC
:1011000018F0B2FB06460F46BAF1000F73D1024643
:101110000B462046294618F0F3F9B1E642464B4605
:101120004046494618F0A0FB0022274B18F09CFBD4
:1011300002460B464046494618F0E2F907B0BDE8C2
:10114000F08F00BFAFF3008000000000000000003F
:1011500044523EDF12F1C23F9FC678D0099AC33F86
:10116000DE03CB966446C73FAF788E1DC571CC3F7A
:10117000599322942449D23F04FA97999999D93FD7
:10118000935555555555E53F0000E0FE422EE63F8C
:10119000763C7935EF39EA3D555555555555E53F7E
:1011A0007982DA3FFFFFEF3F0000F0BF000050C33D
:1011B000FFFFEF7FFFFF1F3E3C412D400000F03F4F
:1011C000FFFF3F439DA006000000E03F00005043AA
:1011D000FFFF8F3CDDE9004522462B4618F092F9CF
:1011E00032463B4618F040FB02460B462046294655
:1011F00018F086F99CE7504618F0D0FA23A3D3E9FB
:10120000002382468B4618F02FFB22A3D3E900234C
:10121000804689465046594618F026FBDDE90223F0
:1012200018F070F902460B463046394618F068F956
:1012300022462B46DCE7504618F0B0FA15A3D3E956
:10124000002306460F4618F00FFBDDE9022318F0D5
:1012500059F90EA3D3E9002304460D46304639461A
:1012600018F002FB02460B462046294618F04AF9C0
:1012700006E60022044B18F043F902460B464046AE
:10128000494618F03DF920E60000F03F0000E0FE7E
:10129000422EE63F763C7935EF39EA3D000000000A
:1012A00008B516F063FD04A3D3E9002318F006FC8B
:1012B00008BD00BFAFF30080EF39FAFE422EE63FD3
:1012C0002DE9F043DFF8B4808BB004460D4601F001
:1012D000F3F898F90030013306460F462BD022462A
:1012E0002B462046294618F059FD814618BB20465A
:1012F000294616F0B5F91FA3D3E9002318F044FDE1
:10130000C8B1194A98F90030CDF820900321CDE9F1
:101310000445CDE902458DE806008BB9134B4FF02B
:101320006042CDE90623684617F0ECFE70B1089BD9
:101330009BB9DDE90667304639460BB0BDE8F0835E
:101340000B490020022BCDE90601ECD118F066F81C
:1013500022230360089B002BEBD018F05FF8089B5A
:101360000360E6E7AFF30080CCBD0100FFFFEF476D
:101370000000F07F7DF8B98FCE338640FB0100205E
:101380002DE9F043DFF8E4808BB004460D4601F010
:1013900043F998F90030013306460F4633D0204612
:1013A000294617F0A9FE70B32CA3D3E900232046E9
:1013B000294618F0E9FC814650BB2AA3D3E9002353
:1013C0002046294618F0C2FCE8B198F90030204ABE
:1013D000CDF82090002600270421022BCDE90445FA
:1013E000CDE90245CDE906678DE8060029D06846BB
:1013F00017F088FE28B3089B1BB118F00FF8089B64
:101400000360DDE90667304639460BB0BDE8F0837E
:101410000F4A98F90030019203210022CDE90445DA
:10142000CDE90245009108922BB90A4B4FF060427A
:10143000CDE90623DBE708490020022BCDE90601B0
:10144000D5D117F0EBFF22230360D4E7AFF3008080
:10145000D4BD0100FFFFEF470000F07FEF39FAFE37
:10146000422E864051302DD5104987C0FB01002007
:101470002DE9F04FDFF80C938DB006460F46144669
:101480001D4601F0C5FC99F90080B8F1FF3FCDE998
:10149000000136D022462B462046294618F07EFC15
:1014A000834670BB32463B463046394618F076FCE0
:1014B0008246002840F0A2803046394600220023B0
:1014C00018F03AFC10B3002200232046294618F0F9
:1014D00033FC834600286AD09FEDA17B0122A44BF8
:1014E000CDF828A00292CDE90467CDE906458DED3F
:1014F000087B0393B8F1000F45D09FED9B7B8DEDEA
:10150000007BDDE900010DB0BDE8F08FDDE90001F1
:1015100017F0F2FD8046002800F08D804FF0000AA1
:101520004FF0000BDDE9000152465B4618F004FC69
:101530000028E6D03046394617F0DEFD0028E0D01E
:101540002046294617F0D8FD0028DAD099F9003056
:10155000874A039204210022022BCDE90467CDE9DA
:101560000645CDE908AB02910A9203D002A817F014
:10157000C9FD68B917F052FF2223036008E09FED10
:10158000787B8DED087B02A817F0BCFD002830D0D9
:101590000A9B1BB117F042FF0A9B03609DED087B7D
:1015A0008DED007BDDE900010DB0BDE8F08F204638
:1015B000294617F0A1FD0028A3D0002200232046D1
:1015C000294618F0C3FB00289BD099F90030684ADF
:1015D000CDF828B00121CDE90467CDE90645029197
:1015E0000392002BCBD063490020022BCDE90801E8
:1015F000C9D117F013FF21230360C9E7002200239C
:101600002046294618F098FB00283FF47AAF5A4B41
:101610005749CDF828B000220120B8F1020FCDE9DA
:1016200004670290CDE90645CDE908230391AAD1CC
:10163000CDE9002365E73046394617F05DFD002807
:101640003FF46CAF2046294617F056FD00283FF4C2
:1016500065AFDDE900231046194618F09FFB00280E
:101660005FD1032399F900800293414B0A90CDE9A1
:101670000467CDE906450393B8F1000F2BD1DFF8DD
:1016800008B14FF0604A0022002330463946CDE9C8
:1016900008AB18F05BFB00283FF468AF0022374B23
:1016A0002046294618F0E0F804460D4617F032FDB2
:1016B00002460B462046294618F03EFB70BB304BD5
:1016C00099F900804FF06042CDE90823B8F1020F8C
:1016D0007FF44CAF4EE7DFF8B4B04FF0000A0022C1
:1016E000002330463946CDE908AB18F02FFB00281F
:1016F000ECD00022214B2046294618F0B5F80446CC
:101700000D4617F007FD02460B462046294618F005
:1017100013FB18B9174B0022CDE9082399F9008073
:10172000D4E799F90090124BCDF828800122CDE939
:101730000467CDE9064502920393B9F1000F3FF427
:101740001EAF002200231046194618F0B7F9B9F170
:10175000020FCDE908013FF44CAF14E7AFF300806E
:101760000000000000000000000000000000F03F4A
:10177000ECBD01000000F0FF0000F03F0000E03F82
:10178000FFFFEFC7FB010020FFFFEF470000F07FE6
:101790002DE9F84FC44E21F00043B34204460D46F4
:1017A0000DDD03F1404303F58013034340F0B9809E
:1017B000002940F3408100200021BDE8F88FBB4E96
:1017C000B34240F3A6800029C0F2788102460B465E
:1017D0000020B74917F094FE0022B64B18F044F8E9
:1017E00004460D4616F000FE95A3D3E90023894672
:1017F00080462946204618F037F893A3D3E9002302
:1018000017F080FE22462B4618F02EF890A3D3E95D
:10181000002317F075FE22462B4618F025F88EA3FC
:10182000D3E9002317F06EFE22462B4618F01CF871
:101830008BA3D3E9002317F063FE22462B4618F052
:1018400013F889A3D3E9002317F05CFE22462B4648
:1018500018F00AF886A3D3E9002382468B46204677
:10186000294618F001F884A3D3E9002317F048FEB5
:1018700022462B4617F0F8FF81A3D3E9002317F087
:1018800041FE22462B4617F0EFFF7FA3D3E900234A
:1018900017F036FE22462B4617F0E6FF0022844B57
:1018A00017F030FE02460B465046594618F006F92E
:1018B00042464B4617F0D8FF002682468B463246FA
:1018C0004B463046494617F0CFFF02460B462046AE
:1018D000294617F015FE324604460D464B46404653
:1018E000494617F00FFE02460B462046294618F0DF
:1018F000E5F802460B465046594617F003FE3246BD
:101900004B4617F0FFFD02460B4617F0FBFDBDE806
:10191000F88F694A93420EDC5DA1D1E90001BDE870
:10192000F88F02460B4617F0EBFD02460B4618F007
:10193000C5F8BDE8F88F02460B4617F095FF40A3A7
:10194000D3E9002306460F4617F08EFF3EA3D3E9E6
:10195000002317F0D7FD32463B4617F085FF3CA326
:10196000D3E9002317F0CCFD32463B4617F07CFF4D
:1019700039A3D3E9002317F0C5FD32463B4617F0E3
:1019800073FF37A3D3E9002317F0BAFD32463B4675
:1019900017F06AFF34A3D3E9002317F0B3FD3246F2
:1019A0003B4617F061FF32A3D3E900238046894606
:1019B0003046394617F058FF2FA3D3E9002317F01C
:1019C0009FFD32463B4617F04FFF2DA3D3E900237E
:1019D00017F098FD32463B4617F046FF2AA3D3E99D
:1019E000002317F08DFD32463B4617F03DFF0022E5
:1019F0002F4B17F087FD02460B464046494618F02C
:101A00005DF822462B4617F02FFF02460B4622A117
:101A1000D1E9000117F074FD02460B462046294625
:101A200017F06EFD02460B4619A1D1E9000117F02F
:101A300067FDBDE8F88F1AA1D1E90001BDE8F88F74
:101A400009F7FD0DE13D023F88B20175E0EF493F26
:101A50003B8F68B52882A43F5544880E55C1C93FC5
:101A60007D6FEB0312D6D43F555555555555C53F9F
:101A700082922EB1C5B8B33F59018D1B6C06E63F6B
:101A8000C88A599CE52A00404B2D8A1C273A0340FE
:101A9000182D4454FB21F93F075C143326A6913CD2
:101AA000182D4454FB210940FFFFEF3FFFFFDF3FAC
:101AB0000000F03F0000E03F0000603C00225C4B73
:101AC00017F020FD00225B4B17F0CEFE40A3D3E9B8
:101AD000002304460D4617F0C7FE3FA3D3E90023B9
:101AE00017F010FD22462B4617F0BEFE3CA3D3E9AB
:101AF000002317F005FD22462B4617F0B5FE3AA34A
:101B0000D3E9002317F0FEFC22462B4617F0ACFE6B
:101B100037A3D3E9002317F0F3FC22462B4617F036
:101B2000A3FE35A3D3E9002317F0ECFC22462B4695
:101B300017F09AFE804689462046294616F054FC46
:101B40002FA3D3E9002306460F462046294617F067
:101B50008BFE2DA3D3E9002317F0D2FC22462B469F
:101B600017F082FE2AA3D3E9002317F0CBFC22460C
:101B70002B4617F079FE28A3D3E9002317F0C0FC09
:101B800022462B4617F070FE0022294B17F0BAFCB4
:101B900002460B464046494617F090FF32463B4608
:101BA00017F062FE1EA3D3E9002317F0A9FC32460A
:101BB0003B4617F0A7FC02460B4617F0A3FC024673
:101BC0000B4619A1D1E9000117F09AFCBDE8F88F86
:101BD00009F7FD0DE13D023F88B20175E0EF493F95
:101BE0003B8F68B52882A43F5544880E55C1C93F34
:101BF0007D6FEB0312D6D43F555555555555C53F0E
:101C000082922EB1C5B8B33F59018D1B6C06E63FD9
:101C1000C88A599CE52A00404B2D8A1C273A03406C
:101C2000075C143326A6913C182D4454FB2109402F
:101C30000000F03F0000E03F434A91422DE9F843A5
:101C400004460D4639DD414A914209DD02F17952DF
:101C5000914240DD02460B4617F054FCBDE8F88384
:101C600001F1404202F58012024330D0B1F1804FC1
:101C70003ADC0022364B17F043FC02460B46044682
:101C80000D4617F03FFC224606460F462B462046DF
:101C9000294617F0E9FD02460B463046394617F053
:101CA00031FC16F0A1FB0B4602462946204617F0F0
:101CB00029FCBDE8F843FFF7BFB802460B4617F012
:101CC0001FFC02460B4617F0F9FEBDE8F883002022
:101CD0000021BDE8F88300F017FE19A3D3E9002323
:101CE00017F010FCBDE8F88302460B4617F0BCFD68
:101CF0000022174B17F004FC16F076FB22468046B4
:101D000089462B462046294617F0FCFB42460646EC
:101D10000F464B462046294617F0F4FB02460B4679
:101D200000200B4917F0CAFE0B46024639463046E2
:101D300017F0E6FBBDE8F84300F0E6BDAFF3008026
:101D4000EF39FAFE422EE63FFFFFEF3FFFFFAF41C4
:101D50000000F03F000000002DE9F047BE4B21F0ED
:101D60000048984584B004460D4612DD08F140480D
:101D700008F58018034658EA030321D002460B46B3
:101D800017F0BEFB02460B4617F098FE04B0BDE804
:101D9000F087B24B98458A4629DCB8F1795F80F22A
:101DA000658191A3D3E9002317F0ACFB0022AC4B73
:101DB00017F0EAFFD8B12046294604B0BDE8F08705
:101DC0008BA3D3E9002317F04FFD8BA3D3E90023A6
:101DD00006460F462046294617F046FD02460B46AA
:101DE0003046394617F08EFB04B0BDE8F087204638
:101DF000294615F035FC02460B460020984917F09D
:101E00007FFB0022974B17F02FFD7DA3D3E9002322
:101E100004460D4617F028FD7BA3D3E9002317F0F5
:101E200071FB22462B4617F01FFD79A3D3E900234F
:101E300017F066FB22462B4617F016FD76A3D3E972
:101E4000002317F05FFB22462B4617F00DFD74A30D
:101E5000D3E9002317F054FB22462B4617F004FD6C
:101E600071A3D3E9002317F04DFB22462B4617F050
:101E7000FBFC6FA3D3E90023CDE9000120462946EE
:101E800017F0F2FC6CA3D3E9002317F039FB2246CC
:101E90002B4617F0E9FC6AA3D3E9002317F032FBC5
:101EA00022462B4617F0E0FC67A3D3E9002317F086
:101EB00027FB22462B4617F0D7FC694B002217F070
:101EC00021FBCDE902012046294616F08DFA664B2A
:101ED000984506460F4666DCDDE90223DDE9000190
:101EE00017F0ECFD3246CDE900013B46304639465D
:101EF00017F008FB02460B46DDE9000117F0B4FCC1
:101F00004FF00008CDE9000142463B4640463946C5
:101F100017F0AAFC02460B462046294617F0F0FAB5
:101F2000424604460D463B463046394617F0EAFA2B
:101F300002460B462046294617F0C0FD02460B46D6
:101F400017F0E0FA02460B462BA1D1E9000117F089
:101F5000D7FA02460B46DDE9000117F0D1FA4246F6
:101F600004460D463B464046394617F0CBFA02463A
:101F70000B4637A1D1E9000117F0C2FA02460B4621
:101F80002046294617F0BCFA02460B4630A1D1E99B
:101F9000000117F0B5FABAF1000F3FF7F7AE01F103
:101FA00000431946F2E6DDE90223DDE9000117F0FE
:101FB00085FD32463B4617F057FC32463B4617F04C
:101FC000A1FA02460B4617F09DFA0BA3D3E90023B2
:101FD00017F096FA02460B4605A1D1E9000117F069
:101FE0008FFAD8E7AFF300809C7500883CE4377E19
:101FF000182D4454FB21F93F075C143326A6913C6D
:1020000009F7FD0DE13D023F88B20175E0EF493F60
:102010003B8F68B52882A43F5544880E55C1C93FFF
:102020007D6FEB0312D6D43F555555555555C53FD9
:1020300082922EB1C5B8B33F59018D1B6C06E63FA5
:10204000C88A599CE52A00404B2D8A1C273A034038
:10205000182D4454FB21E93FFFFFEF3FFFFFDF3F17
:102060000000F03F0000E03F3233EF3F02460B46F6
:1020700017F0FAFB37A3D3E9002306460F4617F003
:10208000F3FB36A3D3E9002317F03CFA32463B4674
:1020900017F0EAFB33A3D3E9002317F031FA3246F5
:1020A0003B4617F0E1FB31A3D3E9002317F02AFAEE
:1020B00032463B4617F0D8FB2EA3D3E9002317F096
:1020C0001FFA32463B4617F0CFFB2CA3D3E900237F
:1020D00017F018FA32463B4617F0C6FB29A3D3E99E
:1020E0000023804689463046394617F0BDFB27A3BA
:1020F000D3E9002317F004FA32463B4617F0B4FB4D
:1021000024A3D3E9002317F0FDF932463B4617F02C
:10211000ABFB22A3D3E9002317F0F2F932463B468A
:1021200017F0A2FB00220A4B17F0ECF902460B460F
:102130004046494617F0C2FC22462B4617F094FB56
:1021400022462B4617F0DEF904B0BDE8F08700BF49
:102150000000F03F09F7FD0DE13D023F88B2017537
:10216000E0EF493F3B8F68B52882A43F5544880E75
:1021700055C1C93F7D6FEB0312D6D43F5555555518
:102180005555C53F82922EB1C5B8B33F59018D1B3D
:102190006C06E63FC88A599CE52A00404B2D8A1CF4
:1021A000273A0340000000002DE9F84F1D46534236
:1021B000134325F0004ADFF8E0E14AEAD3737345A0
:1021C000144606460F4647D8C0F1000848EA000802
:1021D00021F0004343EAD878F0458B463CD805F11E
:1021E000404808F5801858EA020850D04FEAA57810
:1021F00008F0020848EAD17850EA030134D052EAE4
:102200000A023CD0F24557D0734538D0A3EB0A03FD
:102210001B153C2B42DC002D70DB22462B46304642
:10222000394617F04BFC15F01BFAFEF751FBB8F1DD
:10223000010F5FD0B8F1020F4ED0B8F1000F62D09D
:1022400043A3D3E9002317F05BF943A3D3E90023A9
:1022500017F056F9BDE8F88F32463B46204629462E
:1022600017F050F9BDE8F88FB8F1020F1AD0B8F1A5
:10227000030F10D13AA1D1E90001BDE8F88FBBF1FD
:10228000000F14DB38A1D1E90001BDE8F88FBDE8EB
:10229000F84FFEF71DBB3946BDE8F88F32A1D1E9F2
:1022A0000001C4E72CA1D1E90001BDE8F88F30A1FD
:1022B000D1E90001BDE8F88F534526D0B8F1020FEF
:1022C000F0D0B8F1030FD5D0B8F1010F4FF00000F6
:1022D00029D00021BDE8F88F1DA3D3E9002317F012
:1022E0000FF902460B461CA1D1E9000117F008F9CD
:1022F000BDE8F88F01F10041BDE8F88F3C338CDA7E
:102300000020002193E7BDE8F88FB8F1020F18D044
:10231000B8F1030F10D0B8F1010F08D016A1D1E920
:102320000001BDE8F88F4FF00041BDE8F88F14A11F
:10233000D1E90001BDE8F88F13A1D1E90001BDE8A2
:10234000F88F13A1D1E90001BDE8F88FAFF3008049
:10235000075C143326A6A13C182D4454FB210940E8
:10236000182D4454FB2109C0182D4454FB21F93F7A
:10237000182D4454FB21F9BF182D4454FB21E93F8B
:10238000182D4454FB21E9BFD221337F7CD902C0F0
:10239000D221337F7CD902400000F07F0000000092
:1023A00043422DE9F047034321F000463E4A46EA06
:1023B000D373934204460D4613D896423DD03B4B0F
:1023C0009E428A4617DC36A3D3E9002317F09AF819
:1023D0000022002317F0D8FCA8B320462946BDE808
:1023E000F08702460B4617F08BF802460B4617F0B3
:1023F00065FBBDE8F0872E4B9E42354624DD334613
:102400000246314617F07EF8224606460F462B4616
:102410000020254917F074F802460B46304639462D
:1024200017F04CFBFEF708FD0022224B17F01CFAB8
:10243000BAF1000F2FDBBDE8F0870022002317F070
:102440003DFBBDE8F087354622462B46204629460F
:1024500017F058F822462B4606460F4617F004FAA6
:102460002246804689462B4600200F4917F048F83F
:1024700002460B464046494617F020FB32463B4693
:1024800017F040F8FEF7D8FC00220A4B17F0ECF9E1
:10249000BAF1000FCFDA01F100431946BDE8F08729
:1024A0009C7500883CE4377E0000F03FFFFF2F3E24
:1024B000FFFFDF3F0000E03F2DE9F8434E4B21F0E6
:1024C00000449C4206460F461BDC4C4B9C4222DDDE
:1024D0004B4B9C4263DD4B4B9C427BDD4A4B9C4209
:1024E00046DD01339C4240D041A3D3E9002310468E
:1024F000194617F0B9F906460F4630463946BDE889
:10250000F88302460B4617F0AFF906460F463046F1
:102510003946BDE8F88315F0A3F802F0B1FC0022BB
:102520003A4B8046894616F0EDFFB4F1725F0646DD
:102530000F46ECDB42464B464046494617F094F9BD
:1025400032463B4604460D463046394616F0DAFF21
:1025500002460B462046294617F0B0FA00222B4BC4
:1025600016F0D0FF06460F46D1E7294B9842BBD85C
:102570003046394615F074F80022264B17F074F9EE
:1025800000F04AF8002204460D46224B17F06CF981
:1025900022462B4617F068F906460F46B7E715F0B6
:1025A0005FF800F039F800221A4B06460F4617F084
:1025B0005BF932463B4604460D460020154917F0AC
:1025C0007DFA02460B462046294616F09BFF06463A
:1025D0000F469CE715F044F800F01EF800220D4B62
:1025E00017F042F906460F4691E700BFAFF30080AF
:1025F0009C7500883CE4377EFFFFEF7F422ED63F7C
:10260000FFFF3540412E8640CD3386400000F03F2D
:102610007DF8B98F0000E03F2DE9F04FB04E21F07A
:102620000042B24283B004460D464FEAD1770DD93D
:10263000AC4EB24225D9C1F31303034340F0EC8002
:102640000FB10020002103B0BDE8F08FA64B9A42E5
:1026500000F2CB80A54B9A4200F2DC808AA3D3E93A
:10266000002316F04FFF0022A14B17F08DFB00282E
:1026700000F006812046294600229D4B16F042FFBD
:10268000E1E783A3D3E9002317F07EFB002840F0A5
:10269000C88081A3D3E900232046294617F056FBC2
:1026A0000028CED1934E7EA3D3E9002306EBC706C4
:1026B0002046294617F0D8F8D6E9002316F022FF65
:1026C00017F082FB064617F069F877A3D3E90023D9
:1026D0008046894617F0C8F802460B462046294630
:1026E00016F00EFF72A3D3E90023CDE900014046A6
:1026F000494617F0B9F882468B4652465B46DDE9FB
:10270000000116F0FDFE04460D4622462B462046EB
:10271000294617F0A9F868A3D3E900238046894623
:1027200017F0A2F866A3D3E9002316F0E9FE4246AB
:102730004B4617F099F864A3D3E9002316F0E2FEA4
:1027400042464B4617F090F861A3D3E9002316F0F8
:10275000D7FE42464B4617F087F85FA3D3E9002324
:1027600016F0D0FE42464B4617F07EF802460B4666
:102770002046294616F0C4FE80468946002E58D0D1
:102780002046294642464B4617F06EF8424604461C
:102790000D464B4600204FF0804116F0B1FE024638
:1027A0000B462046294617F089F902460B4650464B
:1027B000594616F0A5FEDDE9002316F0A1FE0B46F2
:1027C00002464B49002016F09BFE6FF47F739E4239
:1027D00051DA06F57A7601EB065100224FF0B87314
:1027E00017F042F803B0BDE8F08F434B9A423FF632
:1027F00059AF424BFC002344D3E9002316F080FE7E
:102800003F4BC7F101062344CDE90001D3E900ABFA
:10281000F61B72E7002678E702460B4616F072FEBA
:1028200011E719A3D3E900231046194617F01CF845
:1028300009E702460B462046294617F015F8002204
:1028400006460F464FF080434046494616F058FE74
:1028500002460B463046394617F030F922462B46E1
:1028600016F04EFE02460B460020214916F048FEA7
:1028700003B0BDE8F08F01EB065103B0BDE8F08F67
:10288000064642E7AFF300809C7500883CE4377E43
:10289000EF39FAFE422E864051302DD5104987C0BF
:1028A000FE822B654715F73F0000E0FE422EE63F13
:1028B000763C7935EF39EA3DD0A4BE726937663E81
:1028C000F16BD2C541BDBB3E2CDE25AF6A56113F30
:1028D00093BDBE166CC1663F3E5555555555C53F17
:1028E000412E8640FFFFEF7F422ED63FFFFF2F3E57
:1028F0000000F03F08AB0100B1A2F03F18AB0100AF
:1029000028AB0100000000002DE9F04FB1F5801F59
:1029100085B006460F460B465ADA024621F00044BF
:10292000224300F0F8800029C0F27A810022D64BC1
:1029300016F09AFFD54A0B46934206460F466FF0B3
:10294000350C4ADCC3F3130505F5152E0EF6647E2F
:102950000EF4801E8EF07F5282F440121C1542EA63
:102960000507A4F2FF3464440022C94B30463946BF
:1029700004EB1E5416F0C4FDAB1CC3F31303022B6F
:1029800082468B464FF0000230DC002317F0D4F96A
:10299000002800F0C980002C00F04B81204616F082
:1029A000FDFEA5A3D3E9002306460F4616F05CFF03
:1029B000A3A3D3E9002304460D463046394616F05A
:1029C00053FF02460B462046294616F09BFD0AE0BF
:1029D000AE4A93424FF0000CB4DD32463B463046DF
:1029E000394616F08FFD05B0BDE8F08F4FF08043FB
:1029F00016F088FD02460B465046594617F05EF821
:102A0000064620460F4616F0C9FE3246CDE90001C3
:102A10003B4630463946CDE9026716F025FF0246AF
:102A20000B468046894616F01FFF87A3D3E9002393
:102A300006460F4616F018FF85A3D3E9002316F0CB
:102A400061FD32463B4616F00FFF83A3D3E9002316
:102A500016F058FD32463B4616F006FF80A3D3E938
:102A6000002316F04FFD42464B4616F0FDFE7EA3B6
:102A7000D3E90023804689463046394616F0F4FEF5
:102A80007BA3D3E9002316F03DFD32463B4616F00A
:102A9000EBFE79A3D3E9002316F034FD32463B4622
:102AA00016F0E2FE0B4602464946404616F02AFD65
:102AB000A5F5C223C5F5D725A3F27A4351351D43A9
:102AC000002D8046894656DD0022724B50465946FD
:102AD00016F0CAFE52465B4616F0C6FE06460F4684
:102AE000002C68D132463B464046494616F00AFD66
:102AF000DDE9022316F0B8FE02460B4630463946A1
:102B000016F0FEFC02460B465046594616F0F8FCFD
:102B100005B0BDE8F08F0022002300205E4916F0CA
:102B2000CDFF05B0BDE8F08F55A3D3E90023504693
:102B3000594616F099FE02460B460020554916F0FC
:102B4000DFFC524606460F465B465046594616F095
:102B50008BFE02460B463046394616F085FE064689
:102B60000F46002C40F09A8002460B4650465946CC
:102B700016F0C6FC37E7002C00F0A4802EA3D3E9A2
:102B80000023DDE9000116F06FFE42464B46044685
:102B90000D465046594616F0B3FCDDE9022316F007
:102BA00063FE27A3D3E9002306460F46DDE90001B3
:102BB00016F05AFE21E020A3D3E90023DDE900014D
:102BC00016F052FE32463B4604460D464046494604
:102BD00016F098FCDDE9022316F046FE18A3D3E9AF
:102BE000002380468946DDE9000116F03DFE0246DD
:102BF0000B464046494616F085FC02460B463046D9
:102C0000394616F07DFC52465B4616F079FC0246CA
:102C10000B462046294616F073FC05B0BDE8F08F40
:102C200002460B4616F06CFC0022002316F046FF0D
:102C3000D9E600200021D6E60000E0FE422EE63F65
:102C4000763C7935EF39EA3D44523EDF12F1C23F1E
:102C5000DE03CB966446C73F599322942449D23F62
:102C6000935555555555E53F9FC678D0099AC33FB2
:102C7000AF788E1DC571CC3F04FA97999999D93FC9
:102C8000555555555555D53F00005043FFFFEF7F33
:102C90000000F03F0000E03F000050C3204616F067
:102CA0007DFD0FA3D3E900238046894616F0DCFDA5
:102CB0000DA3D3E9002304460D464046494616F0CD
:102CC000D3FD9AE702460B465046594616F018FCCB
:102CD000DDE9022316F0C8FD14E700BFAFF3008062
:102CE0000000E0FE422EE63F763C7935EF39EA3DC2
:102CF000B1F5801F2DE9F84304460D460B461ADA5C
:102D0000024621F00046324359D000295FDB002201
:102D10003B4B16F0A9FD3B4A0D462B469342044619
:102D20006FF035010CDD22462B462046294616F071
:102D3000E9FBBDE8F883334A93424FF00001F2DC2F
:102D40001815A0F2FF3008444FEAD0794844C3F385
:102D5000130816F023FDC9F57F73033348EA0355C2
:102D600006460F4620462946FFF7CEFD1EA3D3E9AF
:102D70000023804689463046394616F075FD1CA36F
:102D8000D3E9002304460D464046494616F06CFD43
:102D900002460B462046294616F0B4FB16A3D3E99B
:102DA000002304460D463046394616F05DFD0246C6
:102DB0000B462046294616F0A5FBBDE8F883002205
:102DC00000230020104916F079FEBDE8F883024682
:102DD0000B4616F095FB0022002316F06FFEBDE8AF
:102DE000F88300BFAFF30080362BF111F3FE593D9D
:102DF0000EE526157BCBDB3F00609F501344D33F8D
:102E000000005043FFFFEF7F000050C300000000B0
:102E10002DE9F04F23F0004757EA020493B037D072
:102E2000674C21F00046A64283460D4629DC9A46AF
:102E3000964625D0A74224DC614CA74279D0002DCC
:102E400080468946CDE9002377DB0024BEF1000FE0
:102E50002CD15B4B9F4200F08B805A4B9F4261D03C
:102E6000BAF1804F00F0C383574B9A451ED1002D15
:102E70001CDB4046494613B0BDE8F04F15F0B4BA2C
:102E800058B106F1404606F5801656EA0B0306D106
:102E90004C49002013B0BDE8F08FB742CCDD4B4861
:102EA00013B0BDE8F04F16F02FB900244046494654
:102EB00014F0D6FBBBF1000F19D126B1414B25F020
:102EC00040429A4213D1BAF1000FC0F2CA83002DDA
:102ED000E0DA06F1404606F5801656EA040300F0F3
:102EE000A584012CD6D101F100431946D2E7ED0F9C
:102EF000013D54EA05034ED0354B9F426EDD03F190
:102F000004739F4240F3FE83324B9E424EDDBAF182
:102F1000000F4EDD28A3D3E900231046194616F012
:102F2000A3FCB7E7BAF1000FC0F25284404649460D
:102F3000B0E7BEF1000F82D0A3E7274B9F4228DC09
:102F4000A3F154739F4280DD3B15A3F2FF33142B92
:102F500040F35484C3F134032EFA03F202FA03F36C
:102F60009E457FF472AF02F00102C2F102046DE7E8
:102F700006F1404303F5801353EA0B0388D0154B49
:102F80009E4240F33B83BAF1000F12DBDDE9000102
:102F900080E702245AE742464B461046194616F08F
:102FA000AFFA02460B4616F089FD73E7BAF1000F3F
:102FB000B0DB002000216DE79C7500883CE4377E83
:102FC0000000F07F0000F03F0000E03F54B301003C
:102FD0000000E041FFFFEF3FFFFF3F43B6F5801FDA
:102FE0004FF0000205DAD84B16F03EFC6FF03402C9
:102FF0000E463315D54FC6F31306A3F2FF33134421
:1030000046F07F5ABE421A460D934AF4401A40F3E6
:103010002F83CF4B9E4240F30D849FEDB57B8DED0A
:10302000087B8DED0E7B9FEDB47B13468DED067B0B
:1030300001330D93AAF5801A0027DDE906235146D6
:10304000CDE90A0116F05CFADDE9062380468946DF
:10305000DDE90A0116F056FA02460B460020BD498A
:1030600016F02CFD0A460146CDE9101213464946DA
:103070000246404616F0F8FB4FEA6A0343F000535D
:103080008C46834603F50023CDE904BCDA468B4623
:10309000D9190023CDE902AB0293DDE902AB002090
:1030A00006460F4602460B465046594616F0DCFBD4
:1030B00002460B464046494616F022FADDE9062351
:1030C000804689463046394616F01AFA02460B46C3
:1030D000DDE90A0116F014FA52465B4616F0C4FB0D
:1030E00002460B464046494616F00AFADDE910232F
:1030F00016F0BAFBDDE90467CDE9060132463B462E
:103100003046394616F0B0FB7DA3D3E900230646CE
:103110000F4616F0A9FB7CA3D3E9002316F0F2F9C1
:1031200032463B4616F0A0FB79A3D3E9002316F004
:10313000E9F932463B4616F097FB77A3D3E9002323
:1031400016F0E0F932463B4616F08EFB74A3D3E945
:10315000002316F0D7F932463B4616F085FB72A3E2
:10316000D3E9002316F0CEF93246804689463B4625
:103170003046394616F078FB02460B464046494633
:1031800016F072FB524606460F465B46DDE9040127
:1031900016F0B8F9DDE9062316F066FB32463B4629
:1031A00016F0B0F95246804689465B46504659466D
:1031B00016F05AFB0022684BCDE90A0116F0A2F97D
:1031C00042464B4616F09EF902980F460646324696
:1031D0003B465046594616F047FB002282468B4636
:1031E0005D4B3046394616F08BF9DDE90A2316F0BF
:1031F00087F902460B464046494616F081F9DDE95B
:10320000042316F031FB3246804689463B46DDE911
:10321000060116F029FB02460B464046494616F0C9
:1032200071F98046894602460B4650465946CDE91B
:1032300004AB16F067F9DDE902AB3DA3D3E9002347
:1032400050460F4616F010FBDDE90423CDE90201DC
:103250003946504616F054F902460B464046494658
:1032600016F04EF934A3D3E9002316F0FDFA34A387
:10327000D3E90023804689465046394616F0F4FAD1
:1032800002460B464046494616F03CF9DDE90E235E
:1032900016F038F980460D98894616F07FFA4246B6
:1032A00006460F464B46DDE9020116F02BF9DDE933
:1032B000082316F027F932463B4616F023F932462A
:1032C0003B4650468B4616F01BF9DDE9082316F005
:1032D00017F9DDE9022316F013F902460B464046C2
:1032E000494616F00DF98046894637E0AFF3008075
:1032F0000000000000000000000000000000F03F9F
:10330000EF4E454A287ECA3F65DBC9934A86CD3FCA
:1033100001411DA96074D13F4D268F515555D53FB0
:10332000FFAB6FDBB66DDB3F033333333333E33F48
:10333000000000E009C7EE3FFD033ADC09C7EE3F9D
:10334000F5015B14E02F3EBE000040438E98030061
:1033500079B60B000000F03F00000840013C54EA41
:10336000050300F079819FEDC87B8DED047BDDE9DD
:1033700000120B461446CDE9023400230293DDE926
:10338000024508462B461146224616F0B9F8524629
:103390005B4616F069FADDE9002306460F46404613
:1033A000494616F061FA02460B463046394616F099
:1033B000A9F82246804689462B4650465946CDE913
:1033C000008916F051FA0B46024606460F46404663
:1033D000494616F097F8C64B994204460D468A4670
:1033E00040F3168101F13F4303F5E003034340F04E
:1033F000F781A7A3D3E90023DDE9000116F082F8E5
:103400003246804689463B462046294616F078F8E3
:1034100002460B464046494616F0B6FC002840F0EE
:10342000DF81A8464FEA28534FF48012A3F2FE33FF
:1034300042FA03F35344C3F30A52AE4DA2F2FF32F1
:103440001541C3F3130423EA05010020C2F1140B54
:1034500044F48014BAF1000F02460B4644FA0BFB09
:1034600030463946B8BFCBF1000B16F049F802469A
:103470000B4606460F46DDE9000116F043F84FEA19
:103480000B5A0D46002484A3D3E900232046294685
:1034900016F0EAF93246804689463B4620462946E0
:1034A00016F02EF802460B46DDE9000116F028F86A
:1034B0007BA3D3E9002316F0D7F97BA3D3E900233C
:1034C00006460F462046294616F0CEF902460B4620
:1034D0003046394616F016F806460F4602460B46A9
:1034E0004046494616F00EF842464B4604460D4605
:1034F00016F006F802460B463046394616F000F83C
:103500002246804689462B462046294616F0ACF9CD
:1035100067A3D3E9002306460F4616F0A5F966A374
:10352000D3E9002315F0ECFF32463B4616F09CF938
:1035300063A3D3E9002315F0E5FF32463B4616F0BE
:1035400093F961A3D3E9002315F0DAFF32463B4635
:1035500016F08AF95EA3D3E9002315F0D3FF3246B3
:103560003B4616F081F902460B462046294615F0E7
:10357000C7FF06460F4602460B462046294616F070
:1035800073F90022CDE900014FF0804330463946FF
:1035900015F0B6FF02460B46DDE9000116F08EFA83
:1035A000424606460F464B462046294616F05CF931
:1035B00042464B4615F0A6FF02460B4630463946BA
:1035C00015F09EFF22462B4615F09AFF02460B4649
:1035D0000020494915F094FF8A44BAF5801FC0F2D3
:1035E00039815146DDE9042316F03EF952E44246A2
:1035F0004B464046494616F037F94BE4BAF1000F06
:10360000BFF6D7ACDDE90034184604F1004141E4CF
:103610003A4B21F00048984540F3FF80384B0B446B
:1036200003430CD132463B4615F06AFF02460B4677
:10363000DDE9000116F094FB00283FF4F3AEDDE96C
:10364000040125A3D3E9002316F00EF922A3D3E940
:10365000002316F009F91DE49FED217B8DED047B1D
:1036600085E602460B460020234916F027FA2EE491
:103670009FED1D7B8DED087B8DED0E7B9FED027B1D
:1036800000278DED067BD8E4000000000000F03F2D
:10369000FE822B654715973C00000000432EE63F55
:1036A000EF39FAFE422EE63F396CA80C615C20BE71
:1036B000D0A4BE726937663EF16BD2C541BDBB3E38
:1036C0002CDE25AF6A56113F93BDBE166CC1663F16
:1036D0003E5555555555C53F59F3F8C21F6EA501C6
:1036E000000000000000F0BF00000000000000002B
:1036F000FFFF8F40FFFF0F000000F03FFFCB904027
:1037000000346F3F684B9E427FF750AC674B9E4240
:103710003FF7FDAB0022654B15F0F2FE52A3D3E953
:10372000002306460F4616F09FF851A3D3E9002365
:10373000804689463046394616F096F80022824681
:103740008B465B4B3046394616F08EF802460B46E8
:1037500049A1D1E9000115F0D3FE32463B4616F0EF
:1037600083F802460B460020524915F0C9FE324646
:10377000CDE902013B463046394616F075F802465F
:103780000B46DDE9020116F06FF83DA3D3E90023F3
:1037900016F06AF802460B465046594615F0B0FE40
:1037A00002460B4606460F464046494615F0AAFE1D
:1037B00042464B46002082468B4615F0A1FE02464B
:1037C0000B463046394615F09BFE80468946C5E5D6
:1037D00042464B460020354916F070F9FFF75ABBB8
:1037E000DDE9040128A3D3E9002316F03DF826A360
:1037F000D3E9002316F038F8FFF74CBBBEF1000FF9
:103800007FF453ABC3F1140347FA03F202FA03F354
:103810009F4223D07446FFF720BB264B98453FF7C5
:1038200001AEDDE90223924693462BE602460B46A3
:10383000FFF7B3BB9FED167B8DED087B9FED167BED
:103840008DED0E7B9FED167B4FF480278DED067B73
:10385000FFF7F3BB5A4601F04FFDC3E602F0010249
:10386000C2F10204FFF7F9BA000000604715F73F04
:1038700044DF5DF80BAE543E555555555555D53F73
:10388000FE822B654715F73F9C7500883CE4377E28
:103890000000004003B8E23F06D0CF43EBFD4C3EB2
:1038A000000000000000F83FFEFFEF3F0000F03F87
:1038B0000000D03F0000E03F2DE9F0479C4B21F095
:1038C00000479F4290B08046894640F38E80994BD6
:1038D0009F420C46924626DC00298BA3D3E90023A5
:1038E00040F3B08115F00CFE934B9F4204460D4609
:1038F00000F0908086A3D3E9002315F001FE024674
:103900000B46CAE900232046294615F0F9FD80A39D
:10391000D3E9002315F0F4FD0125CAE90201284688
:1039200010B0BDE8F087854B9F4240F39080844BF8
:103930009F4265DC3D15A5F21645A7EB05531946D8
:103940001F46064616F040FA15F028FF80468946C5
:1039500042464B4630463946CDE90A8915F0D0FD3E
:103960000022784B15F080FF8946804616F02CFA2D
:1039700015F014FF06460F4632463B464046494680
:10398000CDE90C6715F0BCFD00226E4B15F06CFF05
:1039900000220023CDE90E0116F0CEF9002800F038
:1039A0006F81002330463946002216F0C5F9002801
:1039B00014BF01230223644A019202212A46009186
:1039C0000AA8514600F08CFB002C054614DADAF800
:1039D0000420DAF80C3002F1004203F100434542C2
:1039E000CAF80420CAF80C3006E000200021C2E921
:1039F0000089C2E902010025284610B0BDE8F08721
:103A000002460B4615F07CFD0025CAE90201CAE911
:103A10000001F1E740A3D3E9002315F071FD40A3B5
:103A2000D3E900230D46044615F06AFD02460B4615
:103A3000CAE900232946204615F062FD38A3D3E9E0
:103A4000002315F05DFD0125CAE90201D4E713F05A
:103A500007FE35A3D3E900238046894615F004FF0D
:103A600000223A4B15F04EFD16F0AEF9054615F062
:103A700095FE25A3D3E90023CDE9060115F0F4FE58
:103A800002460B464046494615F03AFD20A3D3E9CD
:103A90000023CDE90201DDE9060115F0E5FE1F2D49
:103AA00080468946CDE9048954DC294B6A1E53F8C7
:103AB00022309F424ED002460B46DDE9020115F04E
:103AC0001FFD80468946CAE9008942464B46DDE92A
:103AD000020115F015FDDDE9042315F011FD002CA0
:103AE000CAE9020188DA09F1004401F100436D429C
:103AF000CAF80080CAF80440CAF80800CAF80C30B6
:103B00007AE700BFAFF3008000004054FB21F93F8B
:103B10003163621A61B4D03D0000601A61B4D03DD7
:103B20007370032E8A19A33B83C8C96D305FE43FCD
:103B3000FB21E93F7BD90240FB21F93FFB213941C1
:103B4000FFFFEF7F0000704188BE01000000E03FF2
:103B500008BE0100DDE90423DDE9020115F0D0FC17
:103B60003F15C1F30A53FB1A80468946102BCAE958
:103B70000089AADD58A3D3E90023DDE9060115F089
:103B800073FE8046894602460B46DDE9020115F0C8
:103B9000B7FC02460B46DDE90201CDE9082315F02A
:103BA000AFFC42464B4615F0ABFC4DA3D3E90023D6
:103BB00080468946DDE9060115F056FE42464B4631
:103BC00015F09EFC0B46CDE904010246DDE9080133
:103BD00015F096FCC1F30A53FF1A80468946312F2F
:103BE000CAE900896CDD41A3D3E90023DDE90601C0
:103BF00015F03AFEDDE9088906460F4602460B46F7
:103C00004046494615F07CFC02460B464046494674
:103C1000CDE9022315F074FC32463B4615F070FCEA
:103C200034A3D3E9002306460F46DDE9060115F06B
:103C30001BFE32463B4615F063FC02460B46CDE9BF
:103C400004233AE715F05EFC274B9F4204460D46DD
:103C500018D01FA3D3E9002315F054FC02460B46ED
:103C6000CAE900232946204615F04AFC18A3D3E9E7
:103C7000002315F047FC4FF0FF35CAE90201BBE60F
:103C8000032398E614A3D3E9002315F03BFC14A307
:103C9000D3E900230D46044615F034FC02460B46DA
:103CA000CAE900232946204615F02AFC0CA3D3E9D3
:103CB000002315F027FC4FF0FF35CAE902019BE60F
:103CC0009DED087B8DED027BFFE600BFAFF300802A
:103CD0003163621A61B4D03D0000601A61B4D03D16
:103CE0007370032E8A19A33BFB21F93F0000002EBD
:103CF0008A19A33BC14920259A837B390000000023
:103D0000594A2DE9F84F21F00048904506460F46E4
:103D10002BDC564B0029B4BF554D564D98454FF0FE
:103D2000000410DC544B984570DC4DA3D3E900230C
:103D300015F0E8FB0022514B16F026F8D8B13046BA
:103D40003946BDE8F88F4E4B98457CDD4D4B984584
:103D500044DD013398453ED03046394640A3D3E98F
:103D6000002315F081FDBDE8F88F02460B4615F0E3
:103D7000C9FBBDE8F88F3046394613F071FC01F0FD
:103D80007FF806460F4632463B463046394615F028
:103D9000B9FB324682468B463B463046394615F0E3
:103DA00063FD002280468946344B3046394615F083
:103DB000A9FB02460B464046494615F07FFE0246E7
:103DC0000B465046594615F09BFB22462B4615F0F4
:103DD0004BFDBDE8F88F2C4B9842BDD83046394694
:103DE00013F03EFC0022234B15F03EFDFEF714FCC1
:103DF00006460F4602460B462046294615F034FD7E
:103E000032463B4615F030FDBDE8F88F13F028FC34
:103E100001F036F81D4B984506460F46B3DD0022EB
:103E2000164B15F06FFB02460B463046394615F02F
:103E300045FE32463B4615F065FB22462B4615F003
:103E400013FDBDE8F88F13F00BFCFEF7E5FB02460F
:103E50000B462046294615F007FDBDE8F88F00BF48
:103E60003374AC3C1F7BAC7FFFFFEF7FFFFF35401F
:103E70000000E0BF0000E03FFFFF2F3E0000F03FEA
:103E8000412E8640CD3386407DF8B98FFFFFEF3F4E
:103E90002DE9F04F21F00048B8F1795F85B0064672
:103EA0000F4692469B466BDA15F08EFF002800F015
:103EB000EA8032463B463046394615F0D5FC74A3BD
:103EC000D3E9002304460D4615F0CEFC72A3D3E9D6
:103ED000002315F017FB22462B4615F0C5FC70A3F6
:103EE000D3E9002315F00CFB22462B4615F0BCFC51
:103EF0006DA3D3E9002315F005FB22462B4615F0F0
:103F0000B3FC6BA3D3E9002315F0FAFA22462B4643
:103F100015F0AAFC68A3D3E9002315F0F3FA2246B2
:103F20002B4615F0A1FCCDE900010022664B20468E
:103F3000294615F099FCDDE9002380468946204694
:103F4000294615F091FC524604460D465B46304624
:103F5000394615F089FC02460B462046294615F0E5
:103F6000CFFA02460B464046494615F0C9FA0246CA
:103F70000B460020554915F0C3FA05B0BDE8F08F97
:103F800002460B4615F070FC41A3D3E9002304461A
:103F90000D4615F069FC40A3D3E9002315F0B2FAF1
:103FA00022462B4615F060FC3DA3D3E9002315F013
:103FB000A7FA22462B4615F057FC3BA3D3E9002372
:103FC00015F0A0FA22462B4615F04EFC38A3D3E993
:103FD000002315F095FA22462B4615F045FC36A332
:103FE000D3E9002315F08EFA2B46224615F03CFC4F
:103FF000374B9845CDE9000197DD364B984539DCC4
:10400000A8F500130022002030499046994615F08B
:1040100077FACDE9020100222B4B2046294615F004
:1040200023FC42464B4615F06BFADDE9002380463F
:1040300089462046294615F017FC524604460D468F
:104040005B463046394615F00FFC02460B462046CB
:10405000294615F055FA02460B464046494615F0EA
:104060004FFA02460B46DDE9020115F049FA05B0A8
:10407000BDE8F08F9FED127B4FF000088DED027BC5
:10408000DFF85490C7E71149002005B0BDE8F08F74
:10409000D43888BEE9FAA8BDC4B1B4BD9EEE213EB5
:1040A000AD529C804F7E923E9015CB19A001FA3EF6
:1040B0007751C1166CC1563F4C5555555555A53FC6
:1040C000000000000000E73F0000E03F0000F03F7C
:1040D0003233D33F0000E93F0000D23F0000000030
:1040E0002DE9F04FADF51B7D9F4CA49E9F4D54F8DC
:1040F000264007942646D41E85FB0475E417C4EBBE
:10410000A50424EAE4741D460A93631CA3EB83030D
:10411000013D02EBC30306932B460B940395651BED
:10412000F418049008911AD42C4400260027013476
:104130000DF18808DDF8949208E059F8250015F093
:104140002DFB0135A542E8E8020108D0002DF4DA84
:10415000013530463946A542E8E80201F6D1079B11
:10416000002BC0F2DF83079B03F1010B0A9B22A9FE
:10417000DB001A4601EB03090093049B0DF5E47A7A
:1041800019460AEBCB0B01EB0208039B002BC0F294
:10419000F582049C4D460026002775E90223F4E8C9
:1041A000020115F061FB02460B463046394615F018
:1041B000A9F9444506460F46EFD1EAE80267DA4519
:1041C00009F10809E1D107990098049C009101F1D7
:1041D0008043013B9B0020441A1F83460EA80244E3
:1041E00003440C920D93009A9AA901EBC203002A92
:1041F00053E9284529DD0DF5E47A0AEBC2080DF1F3
:10420000340900225A4B2046294615F02DFB15F0A3
:10421000DBFD15F0C3FA0022564B06460F4615F09B
:1042200023FB02460B462046294615F069F915F096
:10423000CBFD78E9022349F8040F3946304615F0E2
:1042400061F9D04504460D46DBD1DDF818902046D3
:1042500029464A4601F050F800224FF07F530446A9
:104260000D4615F001FBFCF75FFD0022424B15F0F7
:10427000FBFA02460B462046294615F041F90D4649
:10428000044615F0A1FD804615F088FA0B4602465B
:104290002946204615F034F94B46002B06460F46BA
:1042A00040F3F980009A0EA9013AC9F1180351F8B8
:1042B000225045FA03F101FA03F30EA8EB1A40F875
:1042C0002230C9F11705884443FA05F5002D6DDD4C
:1042D000009B002B08F1010840F36F820E9C002C1C
:1042E00040F01683009B012B40F38F820EAA01231E
:1042F00052F8044F002C00F08382581C0EAAC4F11F
:10430000807442F82340009A824219DD0EAA0EAC56
:1043100052F820106FF07F42511A44F82010009993
:10432000023399420CDD1046009A0EA901EB83037B
:1043300001EB82011A68821A43F8042B8B42F9D1EF
:10434000069B002B1ADD069B012B4FF0010440F069
:104350003C82009B5A1E0EAB0EA953F82230C3F3C9
:10436000160341F822303CE228C30100ABAAAA2A76
:104370000000703E0000704100002040022D15D169
:1043800032463B460020924915F0BAF806460F46E1
:10439000069A8F49002000F0AFFF02460B463046D8
:1043A000394615F0ADF8022506460F4600220023D7
:1043B0003046394615F0C0FC002800F03782009ADC
:1043C000079B501E83420FDC02F18043013B0EAA83
:1043D0000D9C02EB8303002253F80419A34242EA26
:1043E0000102F9D1002A67D1079B0EAA013B52F8BE
:1043F0002330002B40F018820C9A012352F8041944
:1044000001330029FAD0009AD31802F1010A9A4523
:1044100009933DDC009B0A990B9A0B4409990AEB1E
:104420000208994622AB08F1804803EBC9098B18B2
:10443000A59A08F1FF3802EB880872AA02EBCA0AB3
:10444000A59A02EB8303009358F8040F15F0A6F920
:10445000039B002BE9E802014FF000064FF0000734
:1044600011DB049C4D4675E90223F4E8020115F0C6
:10447000FBF902460B463046394615F043F85C45D9
:1044800006460F46EFD1009B9845EAE80267DBD16C
:10449000099B0093A7E606D1009B0EAA013B52F8A8
:1044A0002350ED1512E700224A4B15F063FC00285B
:1044B00040F06E81054679E70EA9039551F820304A
:1044C0000699CDF8248018390246009006916BB900
:1044D00000F18043013B0EA800EB830353F804096D
:1044E000013A18390028F9D000920691069A384905
:1044F000002000F001FF009B002B04460D46C0F297
:10450000F781DA0072A901EB020B06920EAA02EB08
:104510008306DFF8C4904FF000080BF1080704365B
:1045200056F8040D15F03AF922462B4615F09CF981
:104530004B4667E9020142462046294615F094F9A8
:104540000EAB9E4204460D46EAD14AACDDF81C9003
:1045500004944FF0000AB9F1000FC0F22B81DFF88C
:104560007C805D4618A1D1E90001002600270024C7
:1045700003E0544510DCF8E80201F5E8022315F0E9
:1045800073F902460B463046394614F0BBFF01343E
:10459000A14506460F46ECDA049B03EBCA03ABF1D8
:1045A000080BC3E9006770AB9B450AF1010AD2D141
:1045B000A49B049C032B00F28980DFE803F0C58EE6
:1045C0008E1100BFAFF3008000000040FB21F93FD7
:1045D0000000F03F0000E03F0000703E50AB0100E3
:1045E000009B002B40F38181069A04EB020ADAE972
:1045F000008902F1080525440DF5987B1AED027B30
:1046000042464B4651EC170B8DED047B14F07AFFBC
:1046100006460F4602460B46DDE9040114F070FF22
:1046200042464B4614F06EFF65E902015D45B04617
:10463000B9466AE90267E1D1009B012B40F355813D
:10464000069BE518D5E9008903F1080B04EB0B0A7A
:1046500015ED027B42464B4651EC170B8DED007B6E
:1046600014F050FF06460F4602460B46DDE90001F6
:1046700014F046FF4B46424614F044FF6AE902013B
:104680004EAB5345B046B94665E90267E0D100201C
:10469000002104EB0B0575E9022314F033FFAA4552
:1046A000F9D1039B002B00F00A816268E368089F40
:1046B0002568A4683D6002F1004203F1004301F166
:1046C00000417A60FB60BC6038617961099B03F04E
:1046D00007000DF51B7DBDE8F08F069D08352544CC
:1046E0000020002175E9022314F00CFFA542F9D146
:1046F000039B002B00F0D280089E024601F100438C
:1047000086E80C000B460246D4E9000114F0F8FEDE
:10471000009B002B0BDD4CAD0124F5E8022314F0C7
:10472000F1FE009B0134A342F7DA039B13B101F1C0
:1047300000431946089BC3E90201099B03F00700E7
:104740000DF51B7DBDE8F08F069D0835002000218A
:10475000254475E9022314F0D5FEAC42F9D1039B40
:1047600013B101F100431946089BC3E90001099BFD
:1047700003F007000DF51B7DBDE8F08F0026002734
:10478000EAE80267DA4509F108097FF4FEAC1AE5A8
:10479000009B002B08F10108C8BF02253FF79EAD22
:1047A00032463B460020614914F0AAFE0225064627
:1047B0000F46FBE500260027EEE6069B002B27DDD3
:1047C0000024069B012B3FF4C4AD022B09D1009BB2
:1047D0005A1E0EAB0EA953F82230C3F3150341F84D
:1047E0002230022D7FF4E2AD32463B4600204F4995
:1047F00014F086FE06460F46002C3FF4D7ADC7E501
:104800000099013399427FF473AD069B002BD8DCED
:10481000022D7FF4CBAD32463B460020434914F0D5
:104820006FFE06460F46C1E50123ECE53946069FBB
:1048300003957A423046CDF8248000F05DFD0022D9
:104840003B4B04460D4615F095FA002843D0002254
:10485000384B2046294615F007F815F0B5FA0646FC
:1048600014F09CFF0022324B14F0FEFF02460B4670
:104870002046294614F044FE15F0A6FA00990B468E
:1048800001331A4600933B46183306930B460EA994
:1048900041F82300134641F8236027E6089B0246AF
:1048A000C3E900010B46D4E9000114F029FE009B86
:1048B000002B3FF730AF089BC3E902013DE7D4E985
:1048C0000067D4E90223089DC5E90401C5E9006732
:1048D000C5E90223FAE62946204615F075FA009A42
:1048E0000EA941F8220001E64AAC00200021D8E6DA
:1048F000A49B032B3FF6EAAE01A252F823F000BFBF
:104900001F4900001749000017490000E94800004E
:1049100001200023F2E4002000214AACE8E6002058
:1049200000211CE70A9BDB0000934CE40000F03FF1
:10493000000070410000703E2DE9F04F21F000466C
:10494000B6F1795F85B004460D469046994604DA83
:1049500015F03AFA002800F0858022462B462046C2
:10496000294614F081FF06460F4602460B462046B4
:10497000294614F079FF41A3D3E9002382468B46F0
:104980003046394614F070FF3EA3D3E9002314F0FB
:10499000B7FD32463B4614F067FF3CA3D3E9002342
:1049A00014F0B0FD32463B4614F05EFF39A3D3E964
:1049B000002314F0A5FD32463B4614F055FF37A303
:1049C000D3E9002314F09EFD0E9BCDE900019BB3BB
:1049D0000022294B4046494614F046FFDDE90023FA
:1049E000CDE902015046594614F03EFF02460B46FF
:1049F000DDE9020114F084FD32463B4614F034FF39
:104A000042464B4614F07CFD19A3D3E90023064629
:104A10000F465046594614F027FF02460B463046D3
:104A2000394614F06FFD02460B462046294614F025
:104A300067FD05B0BDE8F08F02460B4630463946AB
:104A400014F012FF0AA3D3E9002314F059FD5246D3
:104A50005B4614F009FF22462B4614F053FD05B0C7
:104A6000BDE8F08F2046294605B0BDE8F08F00BFB5
:104A7000495555555555C53F0000E03F7CD5CF5AA7
:104A80003AD9E53DEB9C2B8AE6E55A3E7DFEB157CF
:104A9000E31DC73ED561C119A0012A3FA6F8101138
:104AA0001111813F000000002DE9F04FBE4C21F0B4
:104AB000004687B0A64282468B460F46CDE90023CA
:104AC0001BDC15F081F9002837D153461E43109B9B
:104AD0000133334300F0B381109B012B00F0C881F8
:104AE00052465B460020B14914F0E8FF04460D46EB
:104AF0002046294607B0BDE8F08FAD4B9E421CDD35
:104B00000029C0F2A98152465B4687A1D1E9000184
:104B100014F0F6FCDDE9002304460D4684A1D1E93A
:104B2000000114F0EDFC9FED847B22462B468DEDB9
:104B3000007B14F0E7FC82468B4652465B465046AB
:104B4000594614F091FE02460B468046894614F001
:104B50008BFE424604460D464B465046594614F0DD
:104B600083FE77A3D3E90023CDE90201204629463D
:104B700014F07AFE74A3D3E9002314F0C3FC224698
:104B80002B4614F071FE72A3D3E9002314F0BAFC93
:104B900022462B4614F068FE6FA3D3E9002314F0DD
:104BA000B1FC22462B4614F05FFE6DA3D3E900232F
:104BB00014F0A8FC22462B4614F056FE6AA3D3E953
:104BC000002314F09FFC42464B4614F04DFE68A3B0
:104BD000D3E90023CDE904012046294614F044FE20
:104BE00065A3D3E9002314F08DFC22462B4614F074
:104BF0003BFE63A3D3E9002314F084FC22462B463A
:104C000014F032FE60A3D3E9002314F07BFC2246AB
:104C10002B4614F029FE5EA3D3E9002314F072FCA6
:104C200022462B4614F020FE5BA3D3E9002314F0A8
:104C300069FC02460B46DDE9040114F063FCDDE982
:104C4000022314F011FEDDE9004522462B4614F044
:104C500059FC42464B4614F007FE02460B462046DE
:104C6000294614F04FFC4EA3D3E9002304460D4619
:104C7000DDE9020114F0F8FD22462B4614F042FC57
:104C80000B460246804689465046594614F03AFC87
:104C9000474B9E4204460D4600F38E80109B012B2D
:104CA0003BD002460B460020404914F007FF002489
:104CB00006460F462046294652465B46CDE9006728
:104CC000CDE90201009414F01BFCDDE900AB0246C3
:104CD0000B464046494614F013FC52465B4614F01E
:104CE000C3FD524604460D465B46DDE9020114F061
:104CF000BBFD00222F4B14F005FC02460B4620465C
:104D0000294614F0FFFB32463B4614F0ADFD5246F7
:104D10005B4614F0F7FB04460D462046294607B0D3
:104D2000BDE8F08FAFF30080182D4454FB21E93F1C
:104D3000075C143326A6813C000000000000000040
:104D4000D47ABF74702AFB3EE9A7F0320FB8123F45
:104D500068108D1AF726303F1583E0FEC8DB573FF9
:104D600093846EE9E326823FFE41B31BBAA1AB3FB9
:104D7000735360DBCB75F3BEA69237A0887E143FD9
:104D80000165F2F2D844433F280356C9226D6D3FB6
:104D900037D60684F464963F7AFE10111111C13F94
:104DA000635555555555D53FFFFF2F3E0000F0BFC9
:104DB0002794E53F0000F03F109814F0EFFC2246E6
:104DC000CDE900012B462046294614F04DFDDDE9D2
:104DD0000023CDE902012046294614F093FB024648
:104DE0000B46DDE9020114F069FE42464B4614F021
:104DF00087FB02460B465046594614F081FB02469B
:104E00000B4614F07FFB02460B46DDE9000114F06F
:104E100077FB0446B81700F00200C0F101000D4610
:104E200014F0BCFC02460B462046294614F01CFD3B
:104E300004460D462046294607B0BDE8F08F50468F
:104E4000594612F00DFC02460B4600200A4914F0A8
:104E500035FE04460D4660E7DDE9004501F10041FD
:104E6000224605F1004382468B46CDE900234AE6FF
:104E700054465D4651E700BF0000F03F00000000CF
:104E80002DE9F04FD24A21F00043934285B082468B
:104E90008B460C462DD9CF4A93421AD8002C80F26B
:104EA0001681B5A3D3E900235046594614F02AFBD6
:104EB0000022002314F04AFFC0B9B1A3D3E90023B4
:104EC0005046594614F0D0FC02460B460020C24919
:104ED00008E1C24A934240F2D0800346C1F3130274
:104EE000134340F0F481002980F2C4800020BC49C3
:104EF000C0E0BC4A934200F22981BB4A934240F28F
:104F0000DE80002301930022B84B5046594614F02E
:104F1000ABFC06460F4602460B465046594614F077
:104F2000A3FC99A3D3E9002304460D4614F09CFC8E
:104F300097A3D3E9002314F0E5FA22462B4614F098
:104F400093FC95A3D3E9002314F0DAFA22462B460A
:104F500014F08AFC92A3D3E9002314F0D3FA22467A
:104F60002B4614F081FC90A3D3E9002314F0C8FA77
:104F700022462B4614F078FC00229D4B14F0C2FA16
:104F80008046894602460B463046394614F06CFC92
:104F900002460B460020974914F0B2FA0646024634
:104FA0000B460F464046494614F0AAFA3246804660
:104FB00089463B465046594614F056FC02460B467D
:104FC00000208D4914F09CFA02460B4640464946A3
:104FD00014F074FD22462B4614F046FC019E024656
:104FE0000B46002E38D0DDE9026732463B4614F00E
:104FF00087FA52465B4614F037FC32463B4614F0C3
:105000007FFA2B46224614F07BFA019B01330646B9
:105010000F4600F00F81019B012B00F0F180019BF6
:105020000133392B39D8019B132B40F31281019C9A
:10503000C4F57F75033500222B0514F063FA024690
:105040000B465046594614F05BFA0022684B14F0A8
:1050500059FA01EB04510DE05046594614F004FC96
:1050600022462B4614F04CFA02460B46504659464F
:1050700014F046FA05B0BDE8F08F4DA3D3E9002344
:1050800014F082FE00283FF409AF4BA3D3E90023BC
:105090001046194614F0E8FBECE752465B4614F064
:1050A0002FFA02460B460020514914F029FA019AC2
:1050B0004F4B01EB0251002214F022FADAE73EA333
:1050C000D3E9002314F01EFA02460B46CAE72CA3CC
:1050D000D3E900235046594614F0C6FB0B4643491A
:1050E0000246002014F00EFA14F06EFE019014F047
:1050F00055FB33A3D3E9002306460F4614F0B4FB57
:1051000002460B465046594614F0FAF92EA3D3E94D
:105110000023804689463046394614F0A5FB0646F2
:105120000F4632463B464046494614F0E9F90246EE
:105130000B4682468B464046494614F0E1F932461A
:105140003B4614F0DDF9CDE90201DCE62B4A93423F
:1051500000F2958000291AA3D3E90023C0F2AC80A5
:1051600014F0CEF9012380468946019316A7D7E9AA
:105170000067D6E7AFF3008059F3F8C21F6EA501B0
:10518000FE822B654715F73F2DC3096EB7FD8ABE1A
:105190003952E686CACFD03EB7DBAA9E19CE143F5D
:1051A0008555FE19A0015A3FF41011111111A13FAC
:1051B000EF39FAFE422E86409C7500883CE4377E2B
:1051C0000000E0FE422EE63F763C7935EF39EA3DBD
:1051D00079684340412E86400000E0BFFFFFEF7F2B
:1051E0000000F0BF422ED63FFFFF8F3C0000E03FA3
:1051F0000000F03F0000084000001840B1A2F03F5E
:105200000022394B5046594614F0A0FD002844D0E6
:10521000504659460022354B14F074F902460B46AD
:105220003046394614F06CF900224FF0404314F038
:105230001BFB1FE702460B465046594614F060F927
:1052400000222A4B14F010FB0022284B14F058F9CE
:1052500010E7019C4FF400132341C3F17F575246DE
:105260005B4614F04DF9002607F5401702460B4641
:105270003046394614F044F901EB0451FAE616A31E
:10528000D3E9002314F0F0FA002C02460B464FF04D
:105290000000FFF61CAE154924E732463B46504657
:1052A000594614F02DF902460B4614F02BF9002252
:1052B0000F4B14F027F9DDE614F024F94FF0FF331B
:1052C00080468946019306A7D7E9006729E7024689
:1052D0000B4614F017F9CDE6FE822B654715F73F14
:1052E000763C7935EF39EABD0000D0BF0000E03FE1
:1052F0000000F03F00000000F8B5C1F30A56044674
:105300000D460B4617460EBB21F00043034386466D
:1053100025D00022344B14F0A7FA344A97420446B1
:105320000D460B462ADBC1F30A56363E3E4440F298
:10533000FE72964228DC002E12DD23F0FF4323F498
:10534000E00343EA065520462946F8BD40F2FF72C5
:105350009642EBD102460B4614F0D4F8F8BDF8BDE6
:1053600016F1350F1DDA4CF250339F4222462B4680
:1053700025DC19A1D1E9000114F034F816A3D3E912
:10538000002314F071FAF8BD22462B4614A1D1E98E
:10539000000114F027F812A3D3E9002314F064FAF3
:1053A000F8BD23F0FF4323F4E003363643EA065505
:1053B0002046294600220E4B14F056FAF8BD08A1EB
:1053C000D1E9000114F00EF805A3D3E9002314F08D
:1053D0004BFAF8BDAFF3008059F3F8C21F6EA50178
:1053E0009C7500883CE4377E00005043B03CFFFFD2
:1053F0000000903C10B5054C237833B9044B13B131
:105400000448AFF300800123237010BD1005002075
:105410000000000080C401000C4B43B10C480D4952
:1054200010B5AFF300800C48036823B910BD0A48DB
:10543000036833B97047094B002BF7D0BDE8104023
:105440001847064B002BF5D0184700BF000000009E
:1054500080C401001405002010020020000000009C
:10546000154B002B08BF134B9D46A3F5803A002136
:105470008B460F461348144A121A08F055FE0F4B7C
:10548000002B00D098470E4B002B00D098470020EF
:10549000002104000D000D48002802D00C48AFF395
:1054A000008013F0D5FF2000290005F049F913F022
:1054B000BBFF00BF00000800000002200000000049
:1054C0000000000000040020AC0C002000000000E0
:1054D0000000000070B504460E4600F0D1F888B117
:1054E00003681B6B05469847082C0CD0A4F10903F0
:1054F000012B14D93246214610230D20BDE87040FF
:1055000004F0DEB870BD2B6828469B6A98470228D5
:10551000F0DC2B6828465B6A04219847EAE72B6891
:1055200028469B6A98470528E4DC2B6828465B6A76
:1055300008219847DEE700BF30B52DED028B83B020
:10554000054600F09DF8044640B103681B6B984780
:10555000032D50D8DFE805F0373F47080190019848
:1055600003B0BDEC028B30BD20460CF0D9F907EE3C
:10557000900A2046F8EEE78A0CF0E0F907EE900A70
:105580002046B8EEE78A0CF0E7F968EE087A07EEF5
:10559000100AE8EEA87AB8EEC77AE7EE077AF5EED9
:1055A000407AF1EE10FAB1EEE78A03D517EE900AD1
:1055B00012F0A2FDFDEEC87ACDED017A019803B09C
:1055C000BDEC028B30BD204603B0BDEC028BBDE8C4
:1055D00030400CF0A5B9204603B0BDEC028BBDE80D
:1055E00030400CF0ABB9204603B0BDEC028BBDE8F7
:1055F00030400CF0B1B900230193B0E738B505464F
:1056000000F03EF858B103681B6B0446984745B15B
:10561000012D04D12046BDE83840FBF79DB800209D
:1056200038BD2046BDE83840FBF776B810B50446D3
:1056300000F026F828B1036821465B6ABDE81040F7
:10564000184710BD0048704716FCFFFF704700BFA9
:1056500010B5034B036004460BF05EFF204610BDFF
:10566000F8B8010010B5054B036004460BF054FF79
:10567000204614F03BFE204610BD00BFF8B80100E4
:105680002DE9F043C04C236885B01BB1986805B084
:10569000BDE8F0834FF0FF31012001F0FFFCC0B204
:1056A00004F000FB002800F0ED800C2014F020FE38
:1056B00003210646512001F0F1FCDFF8FCE2B34B78
:1056C000054605F00F07C5F3031815F4807518BFDC
:1056D0007346AF48394642460BF0BEF82A1C18BF45
:1056E00001223946434630460EF008F90023A94806
:1056F000B3600BF0B1F84FF0FF31032001F0CEFCA6
:10570000C0B204F0CFFA4FF0FF310546022001F09D
:10571000C5FCC0B204F0C6FA002D00F09A80002843
:1057200000F097800146284604F0ACF807460028B0
:1057300000F0A4804FF0FF31462001F0AFFC32288A
:1057400080462BD028DD382869D068283FD14FF01B
:10575000FF31012001F0A2FCC0B204F0A3FA81469F
:105760005C2014F0C5FD0523054601934A46CDF89B
:105770000080394633460DF093F82846B060036840
:10578000DB6A9847B06803681B6B984782480BF048
:1057900063F82660B0687AE7302818D14FF0FF31FF
:1057A000012001F07BFCC0B204F07CFA814650205D
:1057B00014F09EFD1FFA88F1054605234A46009124
:1057C0000193394633460CF03DFE2846D6E73A6849
:1057D0000125002301950095D2F82480B3600F22A3
:1057E0000DF10F0332213846C047002856D14FF043
:1057F0003208414669480BF02FF84FF0FF31012085
:1058000001F04CFCC0B204F04DFA8146502014F077
:105810006FFD052305464A46CDF80080D0E74FF0DE
:10582000FF31012001F03AFCC0B204F03BFA81469E
:10583000502014F05DFD052305464A46CDF8008052
:105840003946019333460CF007FF554B2B60284631
:1058500094E754480BF000F84FF0FF31192001F0A5
:105860001DFCC0B204F01EFA4FF0FF3105461820AF
:1058700001F014FCC0B204F015FA53E74A480AF0EC
:10588000EBFF86E74FF0FF31032001F007FCC0B2C9
:1058900004F008FA00287FF408AFF8E63B680195A9
:1058A0000095D3F824800F220DF10F0330213846E4
:1058B000C04718B94FF0300841469BE73B68019557
:1058C0000095D3F824800D220DF10F0338213846BE
:1058D000C047C0B9382131480AF0BEFF4FF0FF3150
:1058E000284601F0DBFBC0B204F0DCF98046502012
:1058F00014F0FEFC4FF0050E3823054642463946AB
:105900008DE808409EE73A6801950095D2F824801A
:105910000DF10F03752268213846C047E0B96821B0
:105920001E480AF099FF4FF0FF31284601F0B6FB00
:10593000C0B204F0B7F980465C2014F0D9FC4FF0F7
:10594000050E682305468DE8084042463946334631
:105950000CF0A6FF284611E714480AF07DFFB06856
:1059600000287FF40CAF4FF0FF31032001F096FBCD
:10597000C0B204F097F918B10D480AF06DFF08E7BE
:105980000C480AF069FF04E72C050020E0AB010099
:10599000E8AB010008AC0100A0AC0100C4AC010000
:1059A000A0AB010018AC01002CAC0100B0AC0100B0
:1059B00044AC010080AC0100D8AB010008B501F097
:1059C0009FFCFBF76DFCBDE8084001F0FDB900BF8E
:1059D00008B501F095FCFBF7D3FCBDE8084001F0E9
:1059E000F3B900BF08B501F08BFC11F0AFFEBDE8C4
:1059F000084001F0E9B900BF08B501F081FC12F0E0
:105A0000B7FABDE8084001F0DFB900BF08B501F002
:105A100077FCFBF755FCBDE8084001F0D5B900BFA5
:105A200008B501F06DFC12F0CFF8BDE8084001F0B8
:105A3000CBB900BF08B501F063FCFAF7ADFEBDE8D5
:105A4000084001F0C1B900BF08B501F059FC12F0DF
:105A50000FF8BDE8084001F0B7B900BF70B5049E6B
:105A600096420C4628DB15466BB1002A00EB02017A
:105A700007DD2046A21811F8013D00F8013B9042D5
:105A8000F9D1002070BD042A0FD0022A02D110F0F3
:105A9000010306D001462A46204607F055F90020AA
:105AA00070BD02880A80184670BD10F00303F1D162
:105AB00002680A60184670BD0846002108F034FBF1
:105AC0004FF0FF3070BD00BF0830704740B1002973
:105AD00005DB4368994202DA0844007A70470020E7
