:1000000000000220756201009D6201009F620100F4
:10001000A1620100A3620100A562010000000000CE
:10002000000000000000000000000000A7620100C6
:10003000A962010000000000AB620100AD62010096
:10004000AF6201009952010015610100D960010001
:10005000ED600100AF620100B54B0100CD68010009
:10006000B15C0100B95C0100C15C0100AF6201003C
:10007000AF620100AF620100AF620100AF62010038
:10008000AF620100AF620100AF620100AF62010028
:10009000AF620100AF620100AF620100AF62010018
:1000A000AF620100AF620100C95C0100D15C0100D8
:1000B000AF620100AF62010000000000000000001C
:1000C000AF620100AF620100AF6201000161010097
:1000D000AF620100AF620100AF620100AF620100D8
:1000E0003D61010000000000000000000000000071
:1000F00000000000AF620100000000002961010063
:1001000000000000000000000000000000000000EF
:1001100000000000000000000000000000000000DF
:1001200000000000000000000000000000000000CF
:1001300000000000000000000000000000000000BF
:1001400000000000000000000000000000000000AF
:10015000000000000000000000000000000000009F
:10016000000000000000000000000000000000008F
:10017000000000000000000000000000000000007F
:10018000000000000000000000000000000000006F
:10019000000000000000000000000000000000005F
:1001A000000000000000000000000000000000004F
:1001B000000000000000000000000000000000003F
:1001C000000000000000000000000000000000002F
:1001D000000000000000000000000000000000001F
:1001E000000000000000000000000000000000000F
:1001F00000000000000000000000000000000000FF
:100200007CB0EE877CB0EE87FF00FF00FF00FF00B0
:10021000FF00FF00FF00FF00FF00FF00FF00FF00E6
:10022000FF00FF00FF00FF00FF00FF00FF00FF00D6
:10023000FF00FF00FF00FF002DE9F04F85B00391A4
:100240000778A7F10903042B044607F07F0200F1A9
:100250000100F5D9202AF3D02B2F04BF677804467C
:100260002D2F75D09FED427B8DED007B4FF0000868
:100270004FF000099FB34FF0000C25464FF0000AE5
:10028000DFF8FCB0644619E019F0E0F880468946D2
:10029000304619F071F842464B4618F021FF52469D
:1002A000804689465B46DDE900013CB319F0F8F968
:1002B000CDE90001A44615F8017F7FB1A7F1300612
:1002C000092E52465B4640464946DDD9CCB92E2F11
:1002D00017D115F8017F0124002FEFD12C4642469B
:1002E0004B46DDE9000119F0B1F880468946039BD1
:1002F000404649461C6005B0BDE8F08F4FF0010C48
:10030000D9E72C46BCF1000F29D042464B46DDE927
:10031000000119F09BF807F0DF07452F804689465A
:10032000E5D10399681C0A2218F0BEFE1449024662
:10033000002019F0EBFB02460B464046494619F0F7
:1003400085F8804689464046494605B0BDE8F08FAD
:100350009FED097B67788DED007B013486E7DFF840
:1003600024904FF000084046494605B0BDE8F08FA4
:10037000000000000000F03F000000000000F0BF9F
:10038000000024400000F87F2DE9F04700231446C8
:1003900000228046894619F0CBFA28B109F10043C2
:1003A00099462D23237001340022002340464946FC
:1003B00019F0B4FA28B13022002322706370BDE82E
:1003C000F0874046494617F0B3FB19F0EFFA73A3E4
:1003D000D3E9002307464946404619F0A9FA002808
:1003E0004ED170A3D3E900234046494619F0BEFA26
:1003F000002845D10E2F07F1010540F3B980A7F180
:100400000E0632460020624919F080FB02460B4678
:100410004046494619F044F900225E4B18F060FE50
:1004200019F0B0FB002DA7F10F0E4FF0010C4DDDC0
:10043000594FDFF87881012245F6F3294FF02E0A53
:10044000494508BF40454FF030030AD3B0EB0800E0
:1004500061EB0901494508BF404503F10103F5D2AD
:10046000DBB2237050EA010304F101084AD195423E
:1004700052DD0132102A4FD0444677E90289DFE786
:10048000002F33DB3A460020414919F03FFB02467A
:100490000B464046494619F003F93BA3D3E9002334
:1004A00080468946012500264046494618F0CEFF81
:1004B0000022384B18F014FE19F064FB002DBC46E6
:1004C0004FF0FF3E37464FF00006B1DC23463022A6
:1004D0004FF02E0803F8022B84F80180FC4345D02E
:1004E0001C4403F8012BA342FBD1A1E77A42002070
:1004F000274919F00BFB02460B464046494618F0C7
:10050000A5FFCAE7954202F1010204BF84F801A0E9
:1005100004F10208102AAFD16EB14246302102F830
:10052000011BC2F1010373444344002BF7DC2EEAA4
:10053000EE7301339844BCF1010F12D0BCF1000FEF
:100540004FF0650388F80030C5BF2B2388F80130D1
:1005500008F1010108F102016046BDE8F0470FF023
:1005600063BD002388F80030BDE8F0871C465FE7D4
:10057000C7F10E020020064919F0C8FA3E460246AD
:100580000B46012790E700BF0000901EC4BCD64276
:10059000000024400000E03FC0A601008DEDB5A0A2
:1005A000F7C6B03E50EFE2D6E41A4B4400407A1052
:1005B00070B54FF0FF3006F05BF904466FF07F40F6
:1005C00006F056F90646204618F0C6FE00220C4BEF
:1005D00018F03CFF044630460D4618F0BDFE06A359
:1005E000D3E9002319F05CF802460B462046294661
:1005F00018F076FD70BD00BF0000E0DFFFFF6F4325
:100600000000F03D000000002DE9F04F2DED028BC1
:10061000044683B0C06818F0AFFE80462069894662
:1006200018F0AAFE824660698B4618F0A5FE0246C5
:1006300001F1004306460F464046494617F02CF9A3
:1006400019F0FCF9E062054616F0DEFF019028463D
:1006500016F08EFF019B0546184618F09FFE424695
:100660004B4618F0F3FE80462846894618F096FE61
:1006700032463B4618F0EAFE02460B4640464946E3
:1006800018F02CFD02460B465046594617F004F967
:1006900019F0D4F9002208EE100A0023304639463A
:1006A00019F064F928B3B5EEC08AF1EE10FA1CDD3A
:1006B00011A7D7E9006718EE100A18F06FFE02467E
:1006C0000B463046394618F009FD32463B4618F0D5
:1006D00007FD19F0B3F9A062E38843F00203E38059
:1006E00003B0BDEC028BBDE8F08F05A7D7E900672A
:1006F000E1E784ED0A8AEFE7EA2E4454FB21F93F53
:10070000EA2E4454FB21F9BF08B510F081FFDFED5C
:100710000C7A07EE100A67EE277A17EE900A18F0A7
:100720003DFE05A3D3E9002318F0BAFF19F03EF906
:1007300008BD00BFAFF30080EA2E4454FB211940EE
:100740000000B4430000000008B510F075FFDFEDB5
:100750000C7A07EE100A67EE277A17EE900A18F067
:100760001DFE05A3D3E9002318F09AFF19F01EF926
:1007700008BD00BFAFF30080EA2E4454FB211940AE
:100780000000B44300000000494A21F000439342B6
:100790002DE9704304460D4649DC464A93420E4615
:1007A0000EDC3FA3D3E9002318F09AFC0022424B51
:1007B00019F0DCF800284AD020462946BDE87083AD
:1007C0003E4A934239DCB3F1804F40DD16F0BEFD66
:1007D0002246804689462B462046294618F036FE9A
:1007E0000022354B18F07CFC17F04CFC42464B467F
:1007F00018F076FC02460B4600202F4918F050FFF7
:10080000424604460D464B464046494618F068FCB1
:1008100002460B462046294618F062FC02F040F8DA
:10082000002E08DC01F100431946BDE87083024642
:100830000B4618F055FCBDE8708316F087FD02F0FA
:100840002FF819A3D3E9002318F04AFCE8E7224661
:100850002B462046294618F0F9FD80468946204659
:10086000294616F073FD002204460D46124B404601
:10087000494618F035FC17F005FC00220E4B18F025
:100880002FFC02460B464046494618F009FF224617
:100890002B4618F025FC00F0A7FAC1E7AFF3008063
:1008A0009C7500883CE4377EEF39FAFE422EE63F25
:1008B000FFFFEF7FFFFF2F3E0000F03F0000B04141
:1008C0002DE9F84FBE4B21F000469E4204460D46EE
:1008D0008A460EDDBB4B9E4200F3B18000F0AC8037
:1008E000BAF1000F40F3EA8099A1D1E90001BDE817
:1008F000F88FB54B9E4200F3BA80A3F1DE739E429F
:1009000040F3A5804FF0FF3B22462B462046294668
:1009100018F09CFD02460B468046894618F096FD6D
:100920008DA3D3E9002306460F4618F08FFD8CA354
:10093000D3E9002318F0D4FB32463B4618F086FD7D
:1009400089A3D3E9002318F0CBFB32463B4618F0CD
:100950007DFD87A3D3E9002318F0C2FB32463B4656
:1009600018F074FD84A3D3E9002318F0B9FB3246D4
:100970003B4618F06BFD82A3D3E9002318F0B0FBCF
:1009800042464B4618F062FD7FA3D3E90023804620
:1009900089463046394618F059FD7DA3D3E9002336
:1009A00018F09CFB32463B4618F050FD7AA3D3E981
:1009B000002318F093FB32463B4618F047FD78A31E
:1009C000D3E9002318F08AFB32463B4618F03EFD7F
:1009D00075A3D3E9002318F081FB32463B4618F09B
:1009E00035FD02460B464046494618F079FB224643
:1009F0002B4618F02BFDBBF1FF3F02460B4661D0A2
:100A0000724B734E4FEACB0B5B44D3E9002318F0D3
:100A100065FB22462B4618F061FBB34402460B46A9
:100A2000DBE9000118F05AFBBAF1000F0DDA01F111
:100A300000431946BDE8F88F00283FF451AF224625
:100A40002B462046294618F04BFBBDE8F88F58A3EB
:100A5000D3E9002318F044FB00225E4B18F086FF18
:100A600000283FF44FAF20462946BDE8F88F16F026
:100A70006DFC594B9E4204460D4629DCA3F55023DC
:100A80009E424EDC02460B4618F02AFB0022514BD8
:100A900018F024FB002206460F464FF08043204604
:100AA000294618F01DFB02460B463046394618F021
:100AB000F7FD4FF0000B04460D4625E73EA1D1E9B6
:100AC0000001C2E72046294618F008FBBDE8F88F70
:100AD000424B9E421ADC0022414B18F0FFFA0022E2
:100AE00006460F463E4B2046294618F0AFFC002232
:100AF000384B18F0F5FA02460B463046394618F0E6
:100B0000CFFD4FF0020B04460D46FDE602460B46B4
:100B10000020344918F0C4FD4FF0030B04460D4685
:100B2000F2E600222B4B18F0D9FA002206460F46B7
:100B3000284B2046294618F0D3FA02460B46304689
:100B4000394618F0ADFD4FF0010B04460D46DBE6CB
:100B5000182D4454FB21F93F11DA22E33AAD903FBE
:100B6000EB0D76244B7BA93F513DD0A0660DB13FE4
:100B70006E204CC5CD45B73FFF8300922449C23F4C
:100B80000D5555555555D53F2F6C6A2C44B4A2BF11
:100B90009AFDDE522DDEAD3F6D9A74AFF2B0B33FD9
:100BA000711623FEC671BC3FC4EB98999999C93F51
:100BB0009C7500883CE4377E182D4454FB21F9BF16
:100BC000FFFF0F440000F07FFFFFDB3FE8A60100BE
:100BD000C8A601000000F03FFFFFF23FFF7F034087
:100BE0000000F83F0000F0BF2DE9F041C1F30A57C3
:100BF000A7F2FF35132D02460B460C4688460646E3
:100C000020DC002D4ADB364F2F4101EA070C5CEA5D
:100C1000000C1CD030A3D3E9002318F061FA0022A5
:100C2000002318F0A3FE48B1002C04DD4FF480131C
:100C300043FA05F5A84428EA070400262146304671
:100C4000BDE8F081332D06DDB5F5806F38D0104654
:100C50001946BDE8F081A7F213474FF0FF3C2CFA8C
:100C600007F70742F3D01CA3D3E9002318F038FAA2
:100C70000022002318F07AFE0028DFD0002C09DDC6
:100C8000142D22D00123C5F1340503FA05F5AE1960
:100C900028BF984426EA07064446CFE70EA3D3E9C7
:100CA000002318F01DFA0022002318F05FFE002830
:100CB000C4D0002C0CDB264305D00026094CBDE730
:100CC00018F00EFAC5E73446B8E704F10108E1E789
:100CD00000264FF00044B1E79C7500883CE4377E65
:100CE000FFFF0F000000F03F2DE9F041C1F30A576C
:100CF000A7F2FF35132D02460B460C4688460646E2
:100D00001DDC002D3CDB364F2F4101EA070C5CEA6D
:100D1000000C19D030A3D3E9002318F0E1F9002228
:100D2000002318F023FEC8B3002C04DA4FF480131C
:100D300043FA05F5A84428EA070400262EE0332DDF
:100D400006DDB5F5806F2DD010461946BDE8F0815F
:100D5000A7F213474FF0FF3C2CFA07F70742F3D0F6
:100D60001DA3D3E9002318F0BBF90022002318F0DB
:100D7000FDFD98B1002C21DB26EA070644460DE074
:100D800015A3D3E9002318F0ABF90022002318F0D3
:100D9000EDFD18B1002C08DB002634462146304614
:100DA000BDE8F08118F09CF9D0E724F000430D4A2B
:100DB0001E43002E18BF14460026EFE7142D08D05E
:100DC0000123C5F1340503FA05F5AE1928BF98448F
:100DD000D2E704F10108CFE79C7500883CE4377E38
:100DE000FFFF0F000000F0BF2DE9F04FD84B9942F4
:100DF00087B08046894643DDD64B99420E4600F3C4
:100E0000F480D54B994240F32D819FEDBB7B8DED56
:100E1000047B4FEA215A0446AAF2FF3ACF4BC6F3AD
:100E200013069E4246F07F5500F3128145F44015AB
:100E3000204629460022CA4B18F050F900220446E9
:100E40000D46C84B18F002FB22462B4618F0FEFA5E
:100E5000A046CDE90201A946CDE90001002E3AD114
:100E6000002200232046294618F058FD002800F0F3
:100E70001B81BAF1000F40F0858100200021B8E00D
:100E8000B94B21F000449C420A460FDD0022B74BCB
:100E900018F044FD002800F0AF800022002300205D
:100EA000B34918F0FDFB07B0BDE8F08FB14B9C4291
:100EB00040F3AF80B04B1A449A4240F2D3800022F4
:100EC000A84B18F0C3FA42464B4618F0BFFACDE9DA
:100ED00000014FF0000A00224FF08043404649468F
:100EE00018F0FEF802460B464046494618F0D8FB7B
:100EF00002460B4606460F4618F0A8FA80A3D3E92F
:100F0000002304460D4618F0A1FA7FA3D3E900237D
:100F100018F0E6F822462B4618F098FA7CA3D3E99D
:100F2000002318F0DDF822462B4618F08FFA7AA33A
:100F3000D3E9002318F0D4F822462B4618F086FA9D
:100F400077A3D3E9002318F0CBF822462B4618F0FC
:100F50007DFA75A3D3E9002318F0C2F822462B4688
:100F600018F074FA72A3D3E9002318F0B9F82246F6
:100F70002B4618F06BFADDE9002318F0B1F8324681
:100F80003B4618F063FA04460D46BAF1000F00F034
:100F9000A880504618F0F0F967A3D3E900238246F1
:100FA0008B4618F053FA66A3D3E9002306460F4692
:100FB0005046594618F04AFADDE9042318F090F833
:100FC00022462B4618F08CF802460B46DDE900015C
:100FD00018F084F842464B4618F080F802460B465B
:100FE0003046394618F07AF803E002460B4618F00E
:100FF00077F807B0BDE8F08F42464B464046494679
:1010000018F06CF802460B4618F04AFB07B0BDE832
:10101000F08F0022594B18F063F80022002318F0DB
:10102000A5FC10B1564B9C4262DD42464B46404601
:10103000494618F00BFA00224A4B18F007FA02460C
:101040000B464046494618F049F807B0BDE8F08F16
:1010500045F40015C6F5801620462946B6100AF15B
:10106000010AE7E600223E4B4046494618F038F8B0
:101070004FEA215AAAF2FF3ABAF1000F04460D4690
:101080000E4640F3BD8042464B4618F027F8024614
:101090000B460020324918F021F822462B4618F062
:1010A000FFFACDE90401B9E627A3D3E900232046DE
:1010B000294618F0CBF902460B460020284918F0C3
:1010C0000DF8DDE9022318F0C1F906460F46BAF122
:1010D000000F75D102460B462046294617F0FEFF49
:1010E00087E702460B46DDE9000117F0F7FFA6E7A8
:1010F000404649467DE700BF0000000000000000B8
:1011000044523EDF12F1C23F9FC678D0099AC33FD6
:10111000DE03CB966446C73FAF788E1DC571CC3FCA
:10112000599322942449D23F04FA97999999D93F27
:10113000935555555555E53F0000E0FE422EE63FDC
:10114000763C7935EF39EA3D555555555555E53FCE
:101150007982DA3FFFFFEF7FFFFF3F439DA006004C
:101160000000F03F0000E03FFFFFEF3F0000F0BF56
:10117000000050C3FFFF1F3E3C412D400000504384
:10118000FFFF8F3C504618F0F7F824A3D3E9002363
:1011900006460F4618F05AF9DDE9042317F0A0FFC0
:1011A00020A3D3E9002304460D463046394618F003
:1011B0004DF902460B462046294617F091FF18E7E5
:1011C000504618F0D9F817A3D3E9002382468B467E
:1011D00018F03CF911A3D3E9002380468946504614
:1011E000594618F033F9DDE9042317F079FF024678
:1011F0000B463046394617F071FF22462B4674E7FE
:101200000022054B17F06AFF02460B46404649464E
:1012100017F064FF41E700BF0000F03F763C7935EE
:10122000EF39EA3D0000E0FE422EE63F00000000FC
:1012300008B516F0FFFB04A3D3E9002318F030FA39
:1012400008BD00BFAFF30080EF39FAFE422EE63F43
:101250002DE9F043DFF8B4808BB004460D4601F071
:10126000F7F898F90030013306460F462CD0224695
:101270002B462046294618F083FB814620BB20469A
:10128000294616F063F81FA3D3E9002318F06EFB7C
:10129000D0B1194A98F90030CDF820900321CDE95A
:1012A0000445CDE90245CDE9001293B11349002070
:1012B000022BCDE9060111D117F09EFE2223036017
:1012C000089B9BB9DDE90667304639460BB0BDE89F
:1012D000F0830B4B4FF06042CDE90623684617F0D0
:1012E00007FD0028E8D0089B002BEBD017F084FE08
:1012F000089B0360E6E700BFCCB901000000F07F67
:10130000FFFFEF477DF8B98FCE338640FB01002009
:101310002DE9F043DFF8E4808BB004460D4601F080
:1013200047F998F90030013306460F4633D020467E
:10133000294617F0D7FC70B32CA3D3E9002320462D
:10134000294618F013FB814650BB2AA3D3E900239A
:101350002046294618F0ECFAE8B198F90030204A06
:10136000CDF82090002000210426022BCDE9044571
:10137000CDE902450096CDE90601019229D06846E3
:1013800017F0B6FC28B3089B1BB117F035FE089B7D
:101390000360DDE90667304639460BB0BDE8F083EF
:1013A0000F4A98F90030019203210022CDE904454B
:1013B000CDE90245009108922BB90A4B4FF06042EB
:1013C000CDE90623DBE708490020022BCDE9060121
:1013D000D5D117F011FE22230360D4E7AFF30080CC
:1013E000D4B90100FFFFEF470000F07FEF39FAFEAC
:1013F000422E864051302DD5104987C0FB01002078
:101400002DE9F04FDFF82C938DB006460F461446B9
:101410001D4601F09DFC99F90080B8F1FF3FCDE930
:10142000000136D022462B462046294618F0A8FA5D
:10143000834670BB32463B463046394618F0A0FA28
:101440008246002840F0A280304639460022002320
:1014500018F064FA10B3002200232046294618F041
:101460005DFA8346002867D09FEDA77B0122AC4B35
:10147000CDF828A00292CDE90467CDE906458DEDAF
:10148000087B0393B8F1000F41D09FEDA17B8DED58
:10149000007BDDE900010DB0BDE8F08FDDE9000162
:1014A00017F020FC8046002800F08D804FF0000AE5
:1014B0004FF0000BDDE9000152465B4618F02EFAB2
:1014C0000028E6D03046394617F00CFC0028E0D062
:1014D0002046294617F006FC0028DAD099F900309A
:1014E0008F4A039204210022022BCDE90467CDE943
:1014F0000645CDE908AB02910A9203D002A817F085
:10150000F7FB50B917F078FD2223036005E002A82D
:1015100017F0EEFB002800F09B800A9B1BB117F030
:101520006BFD0A9B03609DED087B8DED007BDDE983
:1015300000010DB0BDE8F08F2046294617F0D2FB20
:101540000028A6D0002200232046294618F0F0F9F2
:1015500000289ED0724A99F90030CDF828B00121B8
:10156000CDE90467CDE90645CDE90212002B74D020
:101570006C490020022BCDE9080172D117F03CFD27
:10158000212303600A9B002BCDD0C8E70022002353
:101590002046294618F0C2F900283FF47AAF624B82
:1015A0005F49CDF828B000220120B8F1020FCDE943
:1015B00004670290CDE90645CDE908230391A6D141
:1015C000CDE9002365E73046394617F08BFB00284C
:1015D0003FF46CAF2046294617F084FB00283FF407
:1015E00065AFDDE900231046194618F0C9F999F9ED
:1015F00000A000286BD10323DFF824C10A902946FC
:10160000204602930022494BCDF80CC0CDE9064597
:10161000CDE9046717F01AFF04460D46BAF1000F32
:1016200025D1DFF814B14FF0604A00220023304684
:101630003946CDE908AB18F07BF938BB02A817F0A2
:1016400057FB00289ED117F0D7FC2223036099E7AF
:1016500017F0D2FC212303605FE79FED2B7B8DED1C
:10166000087B02A817F044FB00288BD186E79FED8A
:101670002A7B00220023304639468DED087B18F086
:1016800057F9A0B9BAF1020FDDD0D7E720462946B5
:1016900017F036FB22462B4618F040F9A0B9244B30
:1016A00099F900A04FF06042CDE90823EAE720460F
:1016B000294617F025FB22462B4618F02FF918B9BA
:1016C000184B0022CDE9082399F900A0DAE701229E
:1016D000134BCDF828800292CDE90467CDE9064589
:1016E0000393BAF1000FB8D0002200231046194628
:1016F00017F0D6FFBAF1020FCDE908013FF43EAF73
:10170000AFE700BFAFF30080000000000000000062
:10171000000000000000F03F000000000000F07F2B
:10172000ECB901000000F0FF0000F03F0000E03FD6
:10173000FFFFEFC7FB010020FFFFEF4700000000A5
:101740002DE9F84FC44E21F00043B34204460D4644
:101750000DDD03F1404303F58013034340F0B980EE
:10176000002940F3408100200021BDE8F88FBB4EE6
:10177000B34208DCBA4A934200F3B5809CA1D1E998
:101780000001BDE8F88F0029C0F2708102460B46C7
:101790000020B44917F0A2FC0022B34B17F056FE0C
:1017A00004460D4616F06EFC93A3D3E90023894648
:1017B00080462946204617F049FE91A3D3E900232D
:1017C00017F08EFC22462B4617F040FE8EA3D3E97D
:1017D000002317F083FC22462B4617F037FE8CA31C
:1017E000D3E9002317F07CFC22462B4617F02EFE8F
:1017F00089A3D3E9002317F071FC22462B4617F08A
:1018000025FE87A3D3E9002317F06AFC22462B4666
:1018100017F01CFE84A3D3E9002382468B462046A2
:10182000294617F013FE82A3D3E9002317F056FCD4
:1018300022462B4617F00AFE7FA3D3E9002317F0B8
:101840004FFC22462B4617F001FE7DA3D3E900236F
:1018500017F044FC22462B4617F0F8FD0022814B7E
:1018600017F03EFC02460B465046594617F018FF4B
:1018700042464B4617F0EAFD002682468B4632462A
:101880004B463046494617F0E1FD02460B462046DE
:10189000294617F023FC324604460D464B46404687
:1018A000494617F01DFC02460B462046294617F014
:1018B000F7FE02460B465046594617F011FC3246D9
:1018C0004B4617F00DFC02460B4617F009FCBDE82D
:1018D000F88F02460B4617F001FC02460B4617F044
:1018E000DFFEBDE8F88F02460B4617F0AFFD42A3BE
:1018F000D3E9002306460F4617F0A8FD40A3D3E91D
:10190000002317F0EDFB32463B4617F09FFD3EA348
:10191000D3E9002317F0E2FB32463B4617F096FD71
:101920003BA3D3E9002317F0DBFB32463B4617F01D
:101930008DFD39A3D3E9002317F0D0FB32463B4697
:1019400017F084FD36A3D3E9002317F0C9FB324614
:101950003B4617F07BFD34A3D3E90023804689463C
:101960003046394617F072FD31A3D3E9002317F052
:10197000B5FB32463B4617F069FD2FA3D3E90023A0
:1019800017F0AEFB32463B4617F060FD2CA3D3E9BF
:10199000002317F0A3FB32463B4617F057FD002209
:1019A000304B17F09DFB02460B464046494617F068
:1019B00077FE22462B4617F049FD02460B4622A130
:1019C000D1E9000117F08AFB02460B462046294662
:1019D00017F084FB02460B4605A1D1E9000117F080
:1019E0007DFBBDE8F88F1AA1D1E9000179E700BFBE
:1019F000182D4454FB21F93F09F7FD0DE13D023F4D
:101A000088B20175E0EF493F3B8F68B52882A43F5B
:101A10005544880E55C1C93F7D6FEB0312D6D43FA4
:101A2000555555555555C53F82922EB1C5B8B33F52
:101A300059018D1B6C06E63FC88A599CE52A004077
:101A40004B2D8A1C273A0340075C143326A6913C91
:101A5000182D4454FB210940FFFFEF3FFFFFDF3FFC
:101A60000000603C0000F03F0000E03F00225C4BC3
:101A700017F036FB00225B4B17F0E8FC40A3D3E9DC
:101A8000002304460D4617F0E1FC3FA3D3E90023F1
:101A900017F026FB22462B4617F0D8FC3CA3D3E9CF
:101AA000002317F01BFB22462B4617F0CFFC3AA36E
:101AB000D3E9002317F014FB22462B4617F0C6FC8F
:101AC00037A3D3E9002317F009FB22462B4617F072
:101AD000BDFC35A3D3E9002317F002FB22462B46B9
:101AE00017F0B4FC804689462046294616F0CAFA0B
:101AF0002FA3D3E9002306460F462046294617F0B8
:101B0000A5FC2DA3D3E9002317F0E8FA22462B46C3
:101B100017F09CFC2AA3D3E9002317F0E1FA224630
:101B20002B4617F093FC28A3D3E9002317F0D6FA2D
:101B300022462B4617F08AFC0022294B17F0D0FAD8
:101B400002460B464046494617F0AAFD32463B4640
:101B500017F07CFC1EA3D3E9002317F0BFFA32462E
:101B60003B4617F0BDFA02460B4617F0B9FA02469B
:101B70000B4619A1D1E9000117F0B0FAB1E600BF98
:101B800009F7FD0DE13D023F88B20175E0EF493FE5
:101B90003B8F68B52882A43F5544880E55C1C93F84
:101BA0007D6FEB0312D6D43F555555555555C53F5E
:101BB00082922EB1C5B8B33F59018D1B6C06E63F2A
:101BC000C88A599CE52A00404B2D8A1C273A0340BD
:101BD000075C143326A6913C182D4454FB21094080
:101BE0000000F03F0000E03F414A91422DE9F843F8
:101BF00004460D4637DD3F4A91420B4608DD02F1AF
:101C0000795291423DDD024617F06AFABDE8F88349
:101C100001F1404202F5801202432ED0B1F1804F13
:101C200037DC0022344B17F059FA02460B460446C3
:101C30000D4617F055FA224606460F462B4620461B
:101C4000294617F003FC02460B463046394617F08A
:101C500047FA16F017FA22462B4617F041FABDE86C
:101C6000F843FFF7C1B802460B4617F037FA0246B1
:101C70000B4617F015FDBDE8F88300200021BDE8F4
:101C8000F88300F00DFE18A3D3E9002317F028FA1B
:101C9000F1E7024617F0DAFB0022174B17F01EFAA5
:101CA00016F0F0F92246804689462B462046294602
:101CB00017F016FA224606460F462B46404649467E
:101CC00017F00EFA02460B4600200B4917F0E8FC0D
:101CD0000B4602463946304617F000FABDE8F84395
:101CE00000F0DEBDAFF30080EF39FAFE422EE63F92
:101CF000FFFFEF3FFFFFAF410000F03F000000009B
:101D00002DE9F04FAE4B21F000479F4287B00446CB
:101D10000D4611DD07F1404707F5801703463B43A9
:101D200021D002460B4617F0D9F902460B4617F0B0
:101D3000B7FC07B0BDE8F08FA24B9F420E4629DCEE
:101D4000B7F1795F80F2468181A3D3E9002317F0D0
:101D5000C7F900229C4B17F009FED8B1204629464E
:101D600007B0BDE8F08F7CA3D3E9002317F06EFB2A
:101D70007BA3D3E9002306460F462046294617F0E9
:101D800065FB02460B463046394617F0A9F907B005
:101D9000BDE8F08F2046294615F0D8FA02460B46DA
:101DA0000020894917F09AF90022884B17F04EFB62
:101DB0006DA3D3E9002304460D4617F047FB6CA33F
:101DC000D3E9002317F08CF922462B4617F03EFB8F
:101DD00069A3D3E9002317F081F922462B4617F0B7
:101DE00035FB67A3D3E9002317F07AF922462B4687
:101DF00017F02CFB64A3D3E9002317F06FF92246F8
:101E00002B4617F023FB62A3D3E9002317F068F9F0
:101E100022462B4617F01AFB5FA3D3E90023CDE936
:101E200000012046294617F011FB5DA3D3E90023EA
:101E300017F054F922462B4617F008FB5AA3D3E9B2
:101E4000002317F04DF922462B4617F0FFFA58A34E
:101E5000D3E9002317F042F922462B4617F0F6FA91
:101E6000594B002217F03CF982468B462046294602
:101E7000CDE902AB16F006F9554B9F4280468946E4
:101E800000F3198102460B4617F02AF9DDE9022317
:101E9000CDE90401DDE9000117F002FC02460B4622
:101EA000DDE9040117F0D2FA4FF0000ACDE9000194
:101EB00052464B465046494617F0C8FA02460B4672
:101EC0002046294617F00AF9524604460D464B466D
:101ED0004046494617F004F902460B46204629467B
:101EE00017F0DEFB02460B4617F0FAF802460B46E7
:101EF0001BA1D1E9000117F0F1F802460B46DDE91C
:101F0000000117F0EBF8524604460D464B4650468A
:101F1000494617F0E5F802460B4627A1D1E9000132
:101F200017F0DCF802460B462046294617F0D6F893
:101F300002460B4620A1D1E9000117F0CFF8002E90
:101F40003FF7F7AE01F100431946F2E6AFF3008028
:101F50009C7500883CE4377E182D4454FB21F93FE2
:101F6000075C143326A6913C09F7FD0DE13D023FC5
:101F700088B20175E0EF493F3B8F68B52882A43FE6
:101F80005544880E55C1C93F7D6FEB0312D6D43F2F
:101F9000555555555555C53F82922EB1C5B8B33FDD
:101FA00059018D1B6C06E63FC88A599CE52A004002
:101FB0004B2D8A1C273A0340182D4454FB21E93F3E
:101FC000FFFFEF3FFFFFDF3F0000F03F0000E03F7B
:101FD0003233EF3F02460B4617F038FA4BA3D3E9F2
:101FE000002306460F4617F031FA4AA3D3E900232F
:101FF00017F076F832463B4617F028FA47A3D3E9A4
:10200000002317F06BF832463B4617F01FFA45A342
:10201000D3E9002317F064F832463B4617F016FA6E
:1020200042A3D3E9002317F059F832463B4617F094
:102030000DFA40A3D3E9002317F052F832463B468D
:1020400017F004FA3DA3D3E90023804689463046C1
:10205000394617F0FBF93BA3D3E9002317F03EF80C
:1020600032463B4617F0F2F938A3D3E9002317F0C4
:1020700037F832463B4617F0E9F936A3D3E9002397
:1020800017F02CF832463B4617F0E0F900221E4BC1
:1020900017F026F802460B464046494617F000FB6B
:1020A00022462B4617F0D2F922462B4617F018F895
:1020B00007B0BDE8F08F52465B46DDE9000117F03E
:1020C000EFFA42464B4617F0C1F942464B4617F02D
:1020D00007F802460B4617F003F807A3D3E90023DD
:1020E00016F0FCFF02460B4605A1D1E9000116F0EF
:1020F000F5FF24E7AFF30080075C143326A6913C7C
:10210000182D4454FB21F93F0000F03F09F7FD0D65
:10211000E13D023F88B20175E0EF493F3B8F68B572
:102120002882A43F5544880E55C1C93F7D6FEB03FB
:1021300012D6D43F555555555555C53F82922EB1AF
:10214000C5B8B33F59018D1B6C06E63FC88A599C40
:10215000E52A00404B2D8A1C273A0340000000006E
:102160002DE9F84F1D465342134325F00049DFF88F
:10217000C8C149EAD3736345144606460F4626D8BC
:10218000C0F1000848EA000821F0004A4AEAD8787D
:10219000E04503468B461AD805F1404808F58018FB
:1021A00058EA0208AE4643D04FEAA57808F0020884
:1021B0005AEA030348EAD17811D1B8F1020F55D099
:1021C000B8F1030F09D14AA1D1E9000105E0324677
:1021D0003B462046294616F083FFBDE8F88F59EAB2
:1021E000020329D0E1452ED0E24525D0AAEB09090A
:1021F0004FEA2959B9F13C0F3CDC002D3EDA19F1C8
:102200003C0F3BDA00200021B8F1010F4ED0B8F1AD
:10221000020F3ED0B8F1000FDFD037A3D3E900237F
:1022200016F05CFF36A3D3E9002316F057FFD4E77E
:10223000BDE8F84FFEF744BBBBF1000F12DB32A143
:10224000D1E90001C9E7CA4534D0B8F1020F0DD079
:10225000B8F1030FB7D0B8F1010F4FF0000036D03E
:102260000021BAE72AA1D1E90001B6E724A1D1E90A
:102270000001B2E724A1D1E90001C5E722462B46BF
:102280003046394617F00CFA15F060F8FEF718FBE7
:10229000BAE719A3D3E9002316F020FF02460B4644
:1022A00017A1D1E9000116F019FF96E701F10043EB
:1022B000194692E7B8F1020F14D0B8F1030F0DD010
:1022C000B8F1010F06D014A1D1E9000185E74FF064
:1022D000004182E712A1D1E900017EE712A1D1E914
:1022E00000017AE712A1D1E9000176E7AFF300809F
:1022F000182D4454FB2109C0075C143326A6A13CC9
:10230000182D4454FB210940182D4454FB21F93F5A
:10231000182D4454FB21F9BF182D4454FB21E93FEB
:10232000182D4454FB21E9BFD221337F7CD902C050
:10233000D221337F7CD902400000F07F00000000F2
:1023400043422DE9F047034321F000463C4A46EA68
:10235000D373934204460D462AD8964240D0394B57
:102360009E428A462EDD384B9E4235463FDD33463F
:102370000246314616F0B4FE224606460F462B466C
:1023800000202F4916F0AAFE02460B463046394679
:1023900017F086F9FEF728FD00222C4B17F056F8AF
:1023A000BAF1000F0CDA01F100431946BDE8F087DD
:1023B00002460B4616F092FE02460B4617F070F9E5
:1023C000BDE8F0871CA3D3E9002316F089FE0022A4
:1023D000002317F0CBFA48B120462946BDE8F08724
:1023E0000022002317F05CF9BDE8F087354622464D
:1023F0002B462046294616F073FE22462B460646FB
:102400000F4617F023F82246804689462B460020C7
:102410000B4916F063FE02460B464046494617F04C
:102420003FF932463B4616F05BFEFEF7DDFC00222C
:10243000064B17F00BF8B3E79C7500883CE4377E39
:102440000000F03FFFFF2F3EFFFFDF3F0000E03FB7
:102450002DE9F8434E4B21F000449C4206460F46BE
:102460001BDC4C4B9C4222DD4B4B9C4254DD4B4BC6
:102470009C4246DD4A4B9C426FDD01339C4269D051
:1024800041A3D3E900231046194616F0DFFF0646A4
:102490000F4630463946BDE8F88302460B4616F033
:1024A000D5FF06460F4630463946BDE8F88314F09E
:1024B0004DFF02F04DFC00223A4B8046894616F053
:1024C0000FFEB4F1725F06460F46ECDB42464B4608
:1024D0004046494616F0BAFF32463B4604460D4692
:1024E0003046394616F0FCFD02460B46204629468A
:1024F00017F0D6F800222B4B16F0F2FD06460F46D9
:10250000D1E714F023FF00F053F80022264B16F019
:102510009DFF06460F46C6E714F018FF00F048F886
:102520000022214B06460F4616F090FF3246044625
:102530000D463B4600201C4917F0B2F802460B46F8
:102540002046294616F0CCFD06460F463046394651
:10255000BDE8F883154B984292D83046394614F0BE
:10256000F5FE0022104B16F071FF00F021F800225A
:1025700004460D460C4B16F069FF22462B4616F01A
:1025800065FF06460F468EE79C7500883CE4377E63
:10259000FFFFEF7F422ED63FFFFF3540412E8640A2
:1025A000CD3386400000F03F0000E03F7DF8B98F5A
:1025B0002DE9F047B04F21F00042BA4284B0044602
:1025C0000D464FEAD17610D9AC4FBA4240F28A801C
:1025D000C1F313030343024640F0F180002E7ED086
:1025E0000020002104B0BDE8F087A54B9A4200F21C
:1025F000B680A44B9A4240F2D1804FF0000A2246A6
:102600002B462046294616F021FF85A3D3E9002357
:1026100006460F4616F01AFF83A3D3E9002316F0EF
:102620005DFD32463B4616F011FF81A3D3E900233E
:1026300016F056FD32463B4616F008FF7EA3D3E95E
:10264000002316F04BFD32463B4616F0FFFE7CA3FE
:10265000D3E9002316F044FD32463B4616F0F6FE61
:1026600002460B462046294616F038FD02460B4628
:1026700006460F462046294616F0E8FE8046894663
:10268000BAF1000F00F0AB8032463B4600204FF01D
:10269000804116F023FD02460B464046494616F09F
:1026A000FFFF02460B46DDE9020116F017FDDDE9EA
:1026B000002316F013FD0B4602467349002016F066
:1026C0000DFD6FF47F739A4580F2A3800AF57A7A44
:1026D00001EB0A5100224FF0B87316F0B7FE04B0B8
:1026E000BDE8F08758A3D3E9002317F03FF900288D
:1026F0006BD157A3D3E900232046294617F018F9D8
:1027000000287FF46DAF614953A3D3E9002301EBA7
:10271000C6062046294616F099FED6E9002316F093
:10272000DFFC17F043F9824616F026FE4CA3D3E9EE
:10273000002306460F4616F089FE02460B46204649
:10274000294616F0CBFC48A3D3E90023CDE90001CC
:102750003046394616F07AFECDE9020115E04C4BC1
:102760009A42D0D84B4BF4002344D3E9002316F00F
:10277000B5FC494B234493ED007BCDE900018DED81
:10278000027BC6F1010AAAEB060ADDE90223DDE9B4
:10279000000116F0A3FC04460D4630E734A3D3E94C
:1027A000002316F09DFC0022374B17F0DFF8A8B38A
:1027B000204629460022344B16F092FC8FE70B4648
:1027C00016F08EFC04B0BDE8F08729A3D3E90023FE
:1027D0001046194616F03AFE04B0BDE8F0873046C0
:1027E000394600224FF0804316F078FC02460B4633
:1027F0004046494616F054FF22462B4616F06EFC22
:1028000002460B460020204916F068FC04B0BDE8E3
:10281000F08701EB0A5104B0BDE8F0878246EEE68E
:10282000D0A4BE726937663EF16BD2C541BDBB3ED6
:102830002CDE25AF6A56113F93BDBE166CC1663FB4
:102840003E5555555555C53FEF39FAFE422E864047
:1028500051302DD5104987C0FE822B654715F73FB3
:102860000000E0FE422EE63F763C7935EF39EA3D46
:102870009C7500883CE4377E412E8640FFFFEF7F49
:10288000422ED63FFFFF2F3E0000F03F08A7010079
:10289000B1A2F03F18A7010028A701000000000026
:1028A0002DE9F04FB1F5801F85B006460F460B4667
:1028B00080F2D08021F00042024300F0DA8000294B
:1028C000C0F2E9800022D64B16F0C0FDD54A0B4677
:1028D000934206460F466FF0350E00F3C180C3F3F6
:1028E000130505F5152C0CF6647C0CF4801C8CF09B
:1028F0007F5282F440121C1542EA0507A4F2FF340D
:1029000074440022C84B3046394604EB1C5416F080
:10291000E5FBAB1CC3F31303022B82468B464FF03F
:10292000000240F3AF804FF0804316F0D9FB02461F
:102930000B465046594616F0B3FE064620460F4653
:1029400016F01AFD3246CDE902013B4630463946C3
:10295000CDE9006716F07AFD02460B4680468946AF
:1029600016F074FD9AA3D3E9002306460F4616F02D
:102970006DFD99A3D3E9002316F0B2FB32463B4626
:1029800016F064FD96A3D3E9002316F0A9FB3246A6
:102990003B4616F05BFD94A3D3E9002316F0A0FBA1
:1029A00042464B4616F052FD91A3D3E900238046E0
:1029B00089463046394616F049FD8FA3D3E90023F6
:1029C00016F08EFB32463B4616F040FD8CA3D3E951
:1029D000002316F085FB32463B4616F037FD0B46CA
:1029E00002464946404616F07BFBA5F5C223C5F5D5
:1029F000D725A3F27A4351351D43002D06460F46D5
:102A000040F387800022894B5046594616F01EFD40
:102A100052465B4616F01AFD02460B468046894632
:102A20003046394616F05CFBDDE9002316F00EFD5A
:102A300006460F46002C40F0818002460B46404679
:102A4000494616F04BFB02460B465046594616F0D7
:102A500045FB0BE0734A93424FF0000E7FF73FAF08
:102A600032463B463046394616F03AFB05B0BDE8E3
:102A7000F08F0022002300206D4916F011FE05B0F2
:102A8000BDE8F08F002316F049FF60B1002C7CD127
:102A900000200021EAE7024616F020FB0022002376
:102AA00016F0FEFDE2E758A3D3E90023504659464D
:102AB00016F0CCFC02460B4600205C4916F00EFBDB
:102AC000524606460F465B465046594616F0BEFC37
:102AD00002460B463046394616F0B8FC06460F460D
:102AE0002CB3204616F048FC49A3D3E900238046C6
:102AF000894616F0ABFC48A3D3E9002304460D46F3
:102B00004046494616F0A2FC02460B46304639467E
:102B10002CE002460B465046594616F0DFFADDE936
:102B2000002316F093FC06460F46002C47D1324690
:102B30003B465046594616F0D1FA97E734A3D3E9FD
:102B40000023DDE9020116F081FC33A3D3E9002361
:102B500004460D46DDE9020116F078FC32463B469C
:102B600016F0BEFA02460B464046494616F0B6FA43
:102B700052465B4616F0B2FA02460B4620462946FC
:102B800016F0ACFA05B0BDE8F08F204616F0F4FB65
:102B90001FA3D3E9002306460F4616F057FC1EA3D9
:102BA000D3E9002304460D463046394616F04EFC64
:102BB00002460B462046294616F092FA56E7DDE912
:102BC000028913A3D3E900234046494691E700BF99
:102BD00044523EDF12F1C23FDE03CB966446C73F4C
:102BE000599322942449D23F935555555555E53F65
:102BF0009FC678D0099AC33FAF788E1DC571CC3F70
:102C000004FA97999999D93F555555555555D53F3A
:102C10000000E0FE422EE63F763C7935EF39EA3D92
:102C200000005043FFFFEF7F0000F03F0000E03F57
:102C3000000050C300000000B1F5801F2DE9F843EB
:102C400004460D460B4619DA21F00042024359D0E2
:102C500000295FDB00223A4B16F0F8FB394A0D469B
:102C60002B46934204466FF035010CDD22462B467D
:102C70002046294616F034FABDE8F883314A9342DB
:102C80004FF00001F2DC1815A0F2FF3008444FEAC3
:102C9000D0794844C3F3130816F06EFBC9F57F736F
:102CA000033348EA035506460F4620462946FFF7F8
:102CB000F7FD1DA3D3E900238046894630463946F7
:102CC00016F0C4FB1AA3D3E9002304460D46404680
:102CD000494616F0BBFB02460B462046294616F035
:102CE000FFF915A3D3E9002304460D4630463946C3
:102CF00016F0ACFB02460B462046294616F0F0F9CA
:102D0000BDE8F8830022002300200F4916F0C8FC1C
:102D1000BDE8F883024616F0E1F90022002316F020
:102D2000BFFCA9E7AFF30080362BF111F3FE593D4C
:102D30000EE526157BCBDB3F00609F501344D33F4D
:102D400000005043FFFFEF7F000050C30000000071
:102D50002DE9F04F23F0004555EA020493B00DD061
:102D60006B4E21F00044B4420F4682460BDD04F165
:102D7000404404F5801454EA0A0350D16549002008
:102D800013B0BDE8F08F9B46944647D0B542EEDCC9
:102D90005F4EB5425DD0002F80468946CDE90023C5
:102DA0005BDB0026BCF1000F0ED1594B9D423FD09A
:102DB000584B9D4200F08880BBF1804F00F09C8012
:102DC000554B9B4500F0B8834046494614F0BEFA87
:102DD000BAF1000F06D1002C59D04E4B27F04042DB
:102DE0009A4254D0FF0F013F56EA070373D04B4B72
:102DF0009D4240F39B8003F104739D4240F33E8467
:102E0000474B9C4272DDBBF1000F72DD3EA3D3E95C
:102E100000231046194616F019FBB1E728B14148C6
:102E200013B0BDE8F04F15F065BFA542F7DCAFE782
:102E300004F1404303F5801353EA0A039ED0384B54
:102E40009C4240F38383BBF1000F52DBDDE90001BC
:102E500096E7BCF1000F9ED089E7334B9D4231DCF1
:102E6000A3F154739D429CDD2B15A3F2FF33142B69
:102E700040F3A583C3F134032CFA03F202FA03F3FF
:102E800063458ED102F00102C2F102068AE7BBF16E
:102E9000000F05DA02460B4600201E4916F000FC22
:102EA000002FBFF66DAF04F1404404F5801454EADE
:102EB000060300F03F84012E7FF462AF01F100436E
:102EC00019465DE702266DE7BBF1000FC0F24883AB
:102ED0004046494654E742464B461046194616F0CE
:102EE000FDF802460B4616F0DBFB49E7BBF1000F8D
:102EF0008CDB0020002143E742464B4640464946D2
:102F000016F0A4FA3CE700BF9C7500883CE4377ECD
:102F10000000F07F0000F03F0000E03F0000E041D3
:102F2000FFFFEF3F54AF0100FFFF3F43B4F5801FA9
:102F300080F261830022D24B16F088FA6FF0340CD5
:102F40000C462315CF4DC4F31302A3F2FF3342F016
:102F50007F546344AA420B9344F4401440F33F83EC
:102F6000C94B9A4240F304849FEDAF7B8DED087B03
:102F70008DED107B9FEDAE7B0B9B8DED067B0133C2
:102F80000B93A4F580140025DDE906232146824633
:102F900016F0A4F8A346DDE906238046894650468C
:102FA0002146CDE90CAB16F09BF802460B460020FB
:102FB000B64916F075FB0A460146CDE90E121346D6
:102FC00049460246404616F041FA631043F000536A
:102FD00082468B4603F500238C46CDE904AB591994
:102FE000D3460023CDE902BC0293DDE902AB002009
:102FF00004460D4602460B465046594616F026FA40
:1030000002460B464046494616F068F8DDE90623BD
:10301000804689462046294616F060F802460B464F
:10302000DDE90C0116F05AF852465B4616F00EFA2E
:1030300002460B464046494616F050F8DDE90E239D
:1030400016F004FADDE90445CDE9060122462B46D7
:103050002046294616F0FAF977A3D3E9002304465F
:103060000D4616F0F3F976A3D3E9002316F038F8ED
:1030700022462B4616F0EAF973A3D3E9002316F093
:103080002FF822462B4616F0E1F971A3D3E900236D
:1030900016F026F822462B4616F0D8F96EA3D3E98F
:1030A000002316F01DF822462B4616F0CFF96CA32C
:1030B000D3E9002316F014F82246804689462B46B1
:1030C0002046294616F0C2F902460B4640464946BC
:1030D00016F0BCF9524604460D465B46DDE9040194
:1030E00015F0FEFFDDE9062316F0B0F922462B4667
:1030F00015F0F6FF5246804689465B4650465946D3
:1031000016F0A4F90022624BCDE90C0115F0E8FF9E
:1031100042464B4615F0E4FF02980D46044622460F
:103120002B465046594616F091F9002282468B46AE
:10313000574B2046294615F0D1FFDDE90C2315F049
:10314000CDFF02460B464046494615F0C7FFDDE974
:10315000042316F07BF92246804689462B46DDE99A
:10316000060116F073F902460B464046494615F033
:10317000B7FF8046894602460B465046594615F031
:10318000AFFF029838A3D3E9002304460D4616F09A
:103190005DF95246CDE904015B462046294615F00B
:1031A0009DFF02460B464046494615F097FF30A367
:1031B000D3E9002316F04AF92FA3D3E90023804670
:1031C00089462046294616F041F902460B464046FC
:1031D000494615F085FFDDE9102315F081FF804693
:1031E0000B98894616F0C8F8424682468B464B46F5
:1031F000DDE9040115F074FFDDE9082315F070FF27
:1032000052465B4615F06CFF029852465B460446F8
:103210000D4615F063FFDDE9082315F05FFFDDE9DA
:10322000042337E0AFF3008000000000000000003E
:10323000000000000000F03FEF4E454A287ECA3FE4
:1032400065DBC9934A86CD3F01411DA96074D13F1A
:103250004D268F515555D53FFFAB6FDBB66DDB3F2C
:10326000033333333333E33F000000E009C7EE3F5D
:10327000FD033ADC09C7EE3FF5015B14E02F3EBECB
:10328000000040438E98030079B60B000000F03F29
:103290000000084015F022FF0B4602464946404612
:1032A00015F01CFF013E56EA070382468B4600F0EC
:1032B0005E819FEDD37B8DED047BDDE90012002361
:1032C0000E461746CDE902670293DDE9026708461C
:1032D0003B461146324615F001FF22462B4616F0BA
:1032E000B5F8DDE90023804689465046594616F078
:1032F000ADF802460B464046494615F0F1FE32460F
:10330000804689463B4620462946CDE9008916F08D
:103310009DF80B46024606460F464046494615F0C4
:10332000DFFED14B994204460D468A4640F3248184
:1033300001F13F4303F5E003034340F0FF81B2A3F3
:10334000D3E90023DDE9000115F0CAFE32468046CC
:1033500089463B462046294615F0C0FE02460B46EC
:103360004046494616F002FB002840F0E781A84697
:103370004FEA2853A3F2FE324FF480131341534413
:10338000C3F30A52B94DA2F2FF321541C3F313043D
:1033900023EA05010020C2F1140B44F48014BAF1B1
:1033A000000F02460B4644FA0BFB30463946B8BFC5
:1033B000CBF1000B15F092FE06460F463246DDE9D2
:1033C00000013B4615F08CFE4FEA0B5A0D460024D7
:1033D0008FA3D3E900232046294616F037F832465A
:1033E000804689463B462046294615F077FE024630
:1033F0000B46DDE9000115F071FE87A3D3E9002338
:1034000016F024F886A3D3E9002306460F4620468B
:10341000294616F01BF802460B463046394615F091
:103420005FFE06460F4602460B464046494615F0EB
:1034300057FE42464B4604460D4615F04FFE0246E7
:103440000B463046394615F049FE224680468946ED
:103450002B462046294615F0F9FF73A3D3E9002334
:1034600006460F4615F0F2FF71A3D3E9002315F0CD
:1034700035FE32463B4615F0E9FF6FA3D3E9002342
:1034800015F02EFE32463B4615F0E0FF6CA3D3E963
:10349000002315F023FE32463B4615F0D7FF6AA302
:1034A000D3E9002315F01CFE32463B4615F0CEFF53
:1034B00002460B462046294615F010FE06460F46EA
:1034C00002460B462046294615F0C0FF0022CDE9F2
:1034D00000014FF080433046394615F0FFFD0246AB
:1034E0000B46DDE9000116F0DBF8424606460F46C2
:1034F0004B462046294615F0A9FF42464B4615F09B
:10350000EFFD02460B463046394615F0E7FD2246F0
:103510002B4615F0E3FD02460B460020544915F0FA
:10352000DDFD8A44BAF5801FC0F232815146DDE9E3
:10353000042315F08BFF23E4002FFFF645AC404633
:10354000494613B0BDE8F04F14F09CBDBBF1000F2D
:10355000BFF6CFACDDE90034184604F100410FE4BA
:1035600042464B460020424916F09AF808E49FED87
:10357000387B8DED047BA0E63E4B21F0004898455A
:1035800040F3EA803C4B0B4403430AD132463B46AE
:1035900015F0A4FDDDE9002316F0DEF900283FF464
:1035A000E7AEDDE904012CA3D3E9002315F04EFFBB
:1035B00029A3D3E9002315F049FFFFF7E1BBBCF1D4
:1035C000000F40F0D280C3F1140345FA03F202FA6F
:1035D00003F3AB4200F0E0806646FFF7E9BB9FEDE6
:1035E000207B8DED087B8DED107B9FED057B00250D
:1035F0008DED067BC8E44FF0000CA2E4AFF3008031
:10360000000000000000F03FFE822B654715973C4C
:1036100000000000432EE63FEF39FAFE422EE63F5F
:10362000396CA80C615C20BED0A4BE726937663EBE
:10363000F16BD2C541BDBB3E2CDE25AF6A56113FB2
:1036400093BDBE166CC1663F3E5555555555C53F99
:10365000000000000000F0BF59F3F8C21F6EA50182
:103660000000000000000000FFFF8F40FFFF0F0080
:103670000000F03FFFCB904000346F3F5A4B9C421C
:103680007FF734AC594B9C423FF7BDAB0022574B00
:1036900015F024FD44A3D3E9002304460D4615F09C
:1036A000D5FE43A3D3E9002382468B462046294614
:1036B00015F0CCFE0022CDE902014D4B20462946F3
:1036C00015F0C4FE02460B463BA1D1E9000115F0FE
:1036D00005FD22462B4615F0B9FE02460B4600209A
:1036E000444915F0FBFC2246804689462B4620467D
:1036F000294615F0ABFE02460B464046494615F0FA
:10370000A5FE2FA3D3E9002315F0A0FE02460B4629
:10371000DDE9020115F0E2FC02460B4680468946CF
:103720005046594615F0DCFC002004460D46524632
:103730005B46AFE502460B46FFF7CFBBDDE9040170
:1037400021A3D3E9002315F081FE1FA3D3E90023B1
:1037500015F07CFEFFF714BB264B98453FF708AEEB
:10376000DDE902239246934631E60026FFF72CBBA3
:103770009FED177B8DED087B9FED177B8DED107B0B
:103780009FED177B4FF480258DED067BFFF7FCBB8B
:103790005A4601F029FDCAE602F00102C2F1020612
:1037A000FFF706BBAFF30080000000604715F73F4E
:1037B00044DF5DF80BAE543E555555555555D53F34
:1037C000FE822B654715F73F9C7500883CE4377EE9
:1037D0000000004003B8E23F06D0CF43EBFD4C3E73
:1037E000000000000000F83FFEFFEF3F0000F03F48
:1037F0000000D03F0000E03F2DE9F047CA4B21F028
:1038000000479F4290B08046894640F38F80C74B67
:103810009F420C46924626DC0029B9A3D3E9002337
:1038200040F38F8015F05AFCC14B9F4204460D4671
:1038300000F04781B4A3D3E9002315F04FFC024602
:103840000B46CAE900232046294615F047FCAEA3E3
:10385000D3E9002315F042FC0125CAE902012846FC
:1038600010B0BDE8F087B34B9F4240F38980B24B64
:103870009F4200F31C813D15A5F21645A7EB0553A9
:1038800019461F46064616F091F815F075FD80465C
:10389000894642464B4630463946CDE90A8915F0FD
:1038A0001DFC0022A54B15F0D1FD8946804616F07F
:1038B0007DF815F061FD06460F4632463B46404610
:1038C0004946CDE90C6715F009FC00229B4B15F029
:1038D000BDFD00220023CDE90E0116F01FF80028DF
:1038E00000F06081002330463946002216F016F8B9
:1038F000002814BF01230223914A019202212A4683
:1039000000910AA8514600F087FB002C054614DA06
:10391000DAF80420DAF80C3002F1004203F1004337
:103920004542CAF80420CAF80C3006E00020002105
:10393000C2E90089C2E902010025284610B0BDE8AD
:10394000F08715F0CDFB7A4B9F4204460D4600F000
:103950000B816DA3D3E9002315F0C2FB02460B4691
:10396000CAE900232946204615F0B8FB66A3D3E92F
:10397000002315F0B5FB4FF0FF35CAE90201DCE783
:1039800013F0E4FC62A3D3E900238046894615F0D6
:103990005DFD00226B4B15F0A3FB16F007F8054602
:1039A00015F0EAFC56A3D3E90023CDE9060115F092
:1039B0004DFD02460B464046494615F08FFB52A38B
:1039C000D3E9002380468946DDE90601CDE9028975
:1039D00015F03CFD1F2D02460B46CDE9042340F3B4
:1039E000B380DDE90423DDE9020115F077FB8046B1
:1039F00089463F15C9F30A53FB1A102B40F3B180D7
:103A000045A3D3E90023DDE9060115F01FFD80463B
:103A1000894602460B46DDE9020115F05FFB0246CE
:103A20000B46DDE90201CDE9082315F057FB4246BC
:103A30004B4615F053FB3AA3D3E900238046894651
:103A4000DDE9060115F002FD42464B4615F046FB46
:103A50000B46CDE904010246DDE9080115F03EFB05
:103A6000C1F30A53FF1A312F8046894600F39C8028
:103A70009DED087BCAE900898DED027B42464B46ED
:103A8000DDE9020115F02AFBDDE9042315F026FB30
:103A9000002CCAE90201BFF650AF09F1004401F160
:103AA00000436D42CAE90084CAE9020345E70246C1
:103AB0000B4615F013FB0025CAE90201CAE9000113
:103AC0003BE715A3D3E9002315F008FB14A3D3E9C2
:103AD00000230D46044615F001FB02460B46CAE9D9
:103AE00000232946204615F0F9FA0DA3D3E9002357
:103AF00015F0F4FA0125CAE902011EE7AFF30080D0
:103B000000004054FB21F93F3163621A61B4D03D9B
:103B100083C8C96D305FE43F0000601A61B4D03DD6
:103B20007370032E8A19A33BFB21E93F7BD9024026
:103B3000FB21F93FFB213941FFFFEF7F000070417E
:103B400088BA01000000E03F4046494615F0C6FA39
:103B5000394B6A1E804653F82230BB4289463FF4F7
:103B600048AFCAE9008989E72BA3D3E9002315F000
:103B7000B7FA2BA3D3E900230D46044615F0B0FA9B
:103B800002460B46CAE900232946204615F0A6FA4C
:103B900023A3D3E9002315F0A3FA4FF0FF35CAE9B8
:103BA0000201CAE60323A7E61FA3D3E90023DDE948
:103BB000060115F04BFC06460F4602460B46DDE9B2
:103BC000080115F08BFA8046894602460B46DDE96E
:103BD0000801CDE9028915F081FA32463B4615F01D
:103BE0007DFA13A3D3E9002306460F46DDE906015B
:103BF00015F02CFC32463B4615F070FA02460B4697
:103C000040464946CDE9042315F068FA80468946C6
:103C1000A7E700BFAFF300800000601A61B4D03D99
:103C20007370032E8A19A33B0000002E8A19A33B50
:103C3000C14920259A837B3908BA010000000000A1
:103C4000574A2DE9F84F21F00048904506460F46A7
:103C50002CDC544B0029B4BF534D544D98454FF0C4
:103C6000000411DC524B984526DC4BA3D3E900231A
:103C700015F036FA00224F4B15F078FE002840D0A0
:103C800030463946BDE8F88F4B4B984530DD4B4BFD
:103C9000984568DD0133984562D0304639463EA3E9
:103CA000D3E9002315F0D2FBBDE8F88F02460B469E
:103CB00015F016FABDE8F88F13F048FB01F048F84C
:103CC0003F4B984506460F4623DD0022394B15F041
:103CD00007FA02460B463046394615F0E1FC3246FB
:103CE0003B4615F0FDF922462B4615F0AFFBE1E708
:103CF00013F02CFBFEF75CFC22462B4615F0A6FBCE
:103D0000D8E73046394613F021FB01F021F806468A
:103D10000F4632463B463046394615F0E1F9324609
:103D200082468B463B463046394615F08FFB0022D3
:103D3000804689461F4B3046394615F0D1F9024678
:103D40000B464046494615F0ABFC02460B46504632
:103D5000594615F0C3F922462B4615F077FBA9E723
:103D6000184B984299D83046394613F0EFFA0022A2
:103D70000E4B15F06BFBFEF71BFC06460F4602468A
:103D80000B462046294615F061FB32463B4615F0AE
:103D90005DFB8FE7AFF300803374AC3C1F7BAC7FDF
:103DA000FFFFEF7FFFFF35400000E0BF0000E03F76
:103DB000FFFF2F3E0000F03F412E8640CD3386406E
:103DC000FFFFEF3F7DF8B98F2DE9F04F21F000485C
:103DD000B8F1795F85B006460F4692469B466BDA8E
:103DE00015F0E4FD002800F0E18032463B46304605
:103DF000394615F02BFB74A3D3E9002304460D4686
:103E000015F024FB72A3D3E9002315F069F92246CB
:103E10002B4615F01BFB70A3D3E9002315F05EF9C8
:103E200022462B4615F012FB6DA3D3E9002315F0B3
:103E300057F922462B4615F009FB6BA3D3E9002363
:103E400015F04CF922462B4615F000FB68A3D3E988
:103E5000002315F045F922462B4615F0F7FACDE977
:103E600000010022664B2046294615F0EFFADDE9F5
:103E70000023804689462046294615F0E7FA524637
:103E800004460D465B463046394615F0DFFA0246D9
:103E90000B462046294615F021F902460B464046BE
:103EA000494615F01BF902460B460020554915F00E
:103EB00015F905B0BDE8F08F02460B4615F0C6FABD
:103EC00041A3D3E9002304460D4615F0BFFA40A3F1
:103ED000D3E9002315F004F922462B4615F0B6FA73
:103EE0003DA3D3E9002315F0F9F822462B4615F03F
:103EF000ADFA3BA3D3E9002315F0F2F822462B4696
:103F000015F0A4FA38A3D3E9002315F0E7F8224608
:103F10002B4615F09BFA36A3D3E9002315F0E0F801
:103F20002B46224615F092FA374B9845CDE9000111
:103F300097DD364B98453EDCA8F5001300220020A3
:103F400030499046994615F0C9F8CDE902010022A2
:103F50002B4B2046294615F079FA42464B4615F080
:103F6000BDF8DDE90023804689462046294615F044
:103F70006DFA524604460D465B463046394615F00A
:103F800065FA02460B462046294615F0A7F8024678
:103F90000B464046494615F0A1F802460B46DDE9BE
:103FA000020115F09BF805B0BDE8F08F154900201F
:103FB00005B0BDE8F08F9FED107B4FF000088DED50
:103FC000027BDFF84C90C2E7D43888BEE9FAA8BD7E
:103FD000C4B1B4BD9EEE213EAD529C804F7E923E58
:103FE0009015CB19A001FA3E7751C1166CC1563F0E
:103FF0004C5555555555A53F000000000000E73FC2
:104000000000E03F0000F03F3233D33F0000E93FC3
:104010000000D23F000000002DE9F04FADF5197D02
:10402000BE4CA29EBE4D54F826600793D41E85FB5D
:104030000475E417C4EBA50424EAE4741D46631C6C
:10404000A3EB8303013D02EBC303059373190496AD
:104050000994019503900B91A4EB05071AD43B44F6
:10406000002400255E1C0DF18008DDF88C9208E02C
:1040700059F8270015F080F90137B742E8E8020146
:1040800008D0002FF4DA013720462946B742E8E885
:104090000201F6D1049B002B079B4FEAC303029356
:1040A0002ADB039A20A902EB030801EB0309049B16
:1040B00072AA02EBC30B0DF5E07A019B002B4FF0C7
:1040C00000064FF0000711DB039C4D4675E9022303
:1040D000F4E8020115F0BAF902460B4630463946BB
:1040E00014F0FEFF444506460F46EFD1EAE80267AA
:1040F000DA4509F10809E0D1DDE902040499204418
:104100008B0082460BA8A3F10802C31808930CABDE
:1041100013440A938B4698AB03EBCB03BBF1000F20
:1041200053E9284529DD70AB03EBCB080DF13009CD
:1041300000227C4B2046294615F088F915F036FC04
:1041400015F01AF90022784B06460F4615F07EF955
:1041500002460B462046294614F0C0FF15F026FC07
:1041600078E9022349F8040B3946304614F0B8FFC9
:1041700070AB984504460D46DAD1DDF81490204620
:1041800029464A4601F030F800224FF07F5304469A
:104190000D4615F05BF9FCF7A7FD0022634B15F007
:1041A00055F902460B462046294614F097FF0D4666
:1041B000044615F0FBFB804615F0DEF80B46024680
:1041C0002946204614F08AFF4B46002B06460F4630
:1041D00040F3E1800BF1FF320CA9C9F1180351F84B
:1041E000225045FA03F101FA03F30CA8EB1A40F848
:1041F0002230C9F11705884443FA05F5002D2CDD5E
:10420000BBF1000F08F1010840F381820C9C002CE7
:1042100040F0A780BBF1010F0AD00CA9012251F890
:10422000044F531C002C40F09E809B451A46F6D14B
:10423000059B002B0EDD012B00F0D980022B09D14C
:104240000BF1FF320CAB0CA953F82230C3F315036A
:1042500041F82230022D00F0AF80002200233046CA
:10426000394615F05BFB002800F05382049B0BF1EC
:10427000FF394B4510DC0BF180430CAA013B089839
:1042800002EB8303002253F80419834242EA01023D
:10429000F9D1002A40F0B680049B0CAA013B52F8E9
:1042A0002330002B40F0A1800A9A012352F8041910
:1042B00001330029FAD05B440BF1010999450693BB
:1042C0004CDC099A079909EB020801EB0B0508F190
:1042D000804802EB030BA39B08F1FF3803EB88082F
:1042E00070AB03EBC909A39B20A903EB8B0301EB84
:1042F000C505029358F8040F15F03EF80B460199D6
:104300000246002905F1080BC5E900234FF000061D
:104310004FF000071CDB039C0CE000BF28BF01002E
:10432000ABAAAA2A0000703E0000704100002040A5
:1043300075E90223F4E8020115F088F802460B46FD
:104340003046394614F0CCFE544506460F46EFD1B0
:10435000029B9845E9E802675D46CBD1DDF818B0CD
:10436000D9E6012300220CA9C4F180749B4541F8D1
:1043700022400EDD51F8232001EB8B0001EB83037B
:104380006FF07F4100E01A688A1A43F8042B8342D9
:10439000F9D101244CE706D10BF1FF330CAA52F8F6
:1043A0002350ED152AE700227B4B15F0D5FA0028A3
:1043B00040F0A381054650E732463B46002077494E
:1043C00014F08CFE06460F46002C3FF446AF059ACB
:1043D0007249002000F008FF02460B46304639467D
:1043E00014F07CFE06460F4637E7012363E70BF126
:1043F000FF320CAB0CA953F82230C3F3160341F87B
:10440000223027E70CAB059A53F82930183ACDE94A
:10441000068505926BB909F18043013B0CA901EBBC
:10442000830353F8041909F1FF39183A0029F8D029
:104430000592059A5949002000F0D6FEB9F1000F07
:1044400004460D46C0F2C0814FEAC90370AA02EBD0
:10445000030808930CAB03EB8906DFF844B14FF077
:10446000000A08F10807043656F8040D14F084FF1A
:1044700022462B4614F0EAFF5B4667E902015246EA
:104480002046294614F0E2FF0CAB9E4204460D463E
:10449000EAD148AB03930193CDF8149009F10103DD
:1044A000DDF810900293C3464FF0000AB9F1000FF7
:1044B000C0F22A81DFF8EC805D4635A3D3E9002302
:1044C00000260027002403E0544510DCF8E802230E
:1044D000F5E8020114F0BAFF02460B4630463946B1
:1044E00014F0FEFD0134A14506460F46ECDA019BAF
:1044F000E3E802670193029B0AF1010A9A45ABF1D6
:10450000080BD3D1A29BDDF81490032B39D8DFE838
:1045100013F0D900060006004D0048AB0393B9F133
:10452000000F4FF000004FF0000109DB039D05EB89
:10453000C904083474E9022314F0D2FDA542F9D16C
:10454000079B002B40F01E810B9BC3E900010B462B
:1045500003990246D1E9000114F0C0FDB9F1000F42
:104560000CDD4AAD01240134F5E8022314F0B8FD56
:10457000A145F8DA079B002B40F014810B9BC3E99F
:104580000201069B03F007000DF5197DBDE8F08FD1
:1045900000000040FB21F93F0000E03F0000F03F39
:1045A0000000703E50A7010048AB0393B9F1000F23
:1045B00040F32781039ACDF810904FEAC903019385
:1045C000D318D3E900AB09F10053013B02EBC90852
:1045D0000293914678E9026752465B463046394677
:1045E00014F07EFD04460D4602460B463046394621
:1045F00014F074FD52465B4614F072FDC145A246AC
:10460000AB46C8E90201C8E90045E3D1DDF81090E6
:10461000B9F1010F40F3F580019B039A029913440D
:10462000C900D3E9006701F1080A019192440DF530
:10463000947B7AE9028932463B464046494614F06B
:104640004FFD04460D4602460B464046494614F0CF
:1046500045FD32463B4614F043FDD34526462F46E2
:10466000CAE90201CAE90045E3D1019C039B103469
:10467000002000211C4403F1100574E9022314F00A
:104680002FFDA542F9D1039C079ED4E90023D4E96C
:104690000245002E00F08A8003F1004701F100433B
:1046A0000B99C1E90403069B2646944605F1004494
:1046B00003F00700C1E900C7C1E902640DF5197DE7
:1046C000BDE8F08F089C039D0834002000212C4495
:1046D00074E9022314F004FDA542F9D1079B13B13C
:1046E00001F1004319460B9BC3E90001069B03F04F
:1046F00007000DF5197DBDE8F08FBBF1000F08F143
:10470000010874DD022581E500260027EFE600247C
:104710008EE5CDE90685059D304639466A4200F0B2
:1047200063FD0022384B06460F4615F015F900B31D
:104730000022364B3046394614F088FE15F036F923
:10474000044614F019FE00222F4B14F07FFE0B4696
:1047500002463946304614F0C1FC15F027F90BF13A
:1047600001090CAB183543F82B00059543F8294097
:104770005FE63046394615F019F90CABD94643F8D7
:104780002B0056E60B9C01F10043C4E900030B46E5
:1047900003990246D1E9000114F0A0FCB9F1000F21
:1047A0003FF7DFAE01F100431946E7E60B9EC6E98D
:1047B0000023069BC6E9040103F00700C6E9024591
:1047C0000DF5197DBDE8F08FA29B032B3FF6D9AE06
:1047D00001A252F823F000BFE94700001B4500008A
:1047E0001B450000A94500000020002176E7324665
:1047F0003B460020064914F071FC022506460F4690
:104800002BE5002000213EE7000070410000703ED3
:104810000000F03F000000002DE9F04F21F00046BD
:10482000B6F1795F85B004460D469046994604DAA4
:1048300015F0BCF8002800F0858022462B46204663
:10484000294614F003FE06460F4602460B46204654
:10485000294614F0FBFD41A3D3E9002382468B4691
:104860003046394614F0F2FD3EA3D3E9002314F09C
:1048700035FC32463B4614F0E9FD3CA3D3E9002366
:1048800014F02EFC32463B4614F0E0FD39A3D3E988
:10489000002314F023FC32463B4614F0D7FD37A327
:1048A000D3E9002314F01CFC0E9BCDE900019BB35F
:1048B0000022294B4046494614F0C8FDDDE900239B
:1048C000CDE902015046594614F0C0FD02460B46A0
:1048D000DDE9020114F002FC32463B4614F0B6FD5D
:1048E00042464B4614F0FAFB19A3D3E900230646CF
:1048F0000F465046594614F0A9FD02460B46304675
:10490000394614F0EDFB02460B462046294614F0CA
:10491000E5FB05B0BDE8F08F02460B463046394650
:1049200014F094FD0AA3D3E9002314F0D7FB5246F8
:104930005B4614F08BFD22462B4614F0D1FB05B0EC
:10494000BDE8F08F2046294605B0BDE8F08F00BFD6
:10495000495555555555C53F0000E03F7CD5CF5AC8
:104960003AD9E53DEB9C2B8AE6E55A3E7DFEB157F0
:10497000E31DC73ED561C119A0012A3FA6F8101159
:104980001111813F000000002DE9F04FC04C21F0D3
:10499000004687B0A64282468B460F46CDE90023EB
:1049A0001ADC15F003F800283FD1109B5246013362
:1049B0001343334300F0B781109B012B00F0C081FB
:1049C0005B460020B34914F06BFE04460D462046BA
:1049D000294607B0BDE8F08FAF4B9E4225DD002988
:1049E00009DADDE90045224605F10043CDE900235F
:1049F0000BF100418B4652465B4685A1D1E900018F
:104A000014F06CFBDDE9002304460D4682A1D1E9D8
:104A1000000114F063FB9FED827B22462B468DED57
:104A2000007B14F05DFB82468B4652465B46504647
:104A3000594614F00BFD02460B468046894614F099
:104A400005FD424604460D464B465046594614F075
:104A5000FDFC75A3D3E90023CDE9020120462946D8
:104A600014F0F4FC72A3D3E9002314F039FB2246BE
:104A70002B4614F0EBFC70A3D3E9002314F030FBB9
:104A800022462B4614F0E2FC6DA3D3E9002314F078
:104A900027FB22462B4614F0D9FC6BA3D3E9002355
:104AA00014F01EFB22462B4614F0D0FC68A3D3E979
:104AB000002314F015FB42464B4614F0C7FC66A3D6
:104AC000D3E90023CDE904012046294614F0BEFCB9
:104AD00063A3D3E9002314F003FB22462B4614F012
:104AE000B5FC61A3D3E9002314F0FAFA22462B4661
:104AF00014F0ACFC5EA3D3E9002314F0F1FA2246D3
:104B00002B4614F0A3FC5CA3D3E9002314F0E8FACD
:104B100022462B4614F09AFC59A3D3E9002314F043
:104B2000DFFA02460B46DDE9040114F0D9FADDE9AB
:104B3000022314F08BFCDDE9004522462B4614F0DD
:104B4000CFFA42464B4614F081FC22462B4614F025
:104B5000C7FA4DA3D3E9002304460D46DDE902015F
:104B600014F074FC22462B4614F0BAFA0B460246A7
:104B7000804689465046594614F0B2FA464B9E424A
:104B800004460D4600F38C80109B012B3BD002465F
:104B90000B4600203F4914F083FD002406460F46D3
:104BA0002046294652465B46CDE90067CDE9020121
:104BB000009414F093FADDE900AB02460B46404640
:104BC000494614F08BFA52465B4614F03FFC5246BD
:104BD00004460D465B46DDE9020114F037FC002275
:104BE0002E4B14F07DFA02460B462046294614F05F
:104BF00077FA32463B4614F029FC52465B4614F0E5
:104C00006FFA04460D462046294607B0BDE8F08FEE
:104C1000182D4454FB21E93F075C143326A6813C40
:104C20000000000000000000D47ABF74702AFB3E30
:104C3000E9A7F0320FB8123F68108D1AF726303FFF
:104C40001583E0FEC8DB573F93846EE9E326823F7D
:104C5000FE41B31BBAA1AB3F735360DBCB75F3BE10
:104C6000A69237A0887E143F0165F2F2D844433FF4
:104C7000280356C9226D6D3F37D60684F464963FEB
:104C80007AFE10111111C13F635555555555D53F49
:104C9000FFFF2F3E0000F0BF2794E53F0000F03FEC
:104CA000109814F069FB2246CDE900012B462046FE
:104CB000294614F0CBFBDDE90023CDE902012046B3
:104CC000294614F00DFA02460B46DDE9020114F004
:104CD000E7FC42464B4614F001FA02460B465046AA
:104CE000594614F0FBF902460B4614F0F9F9024656
:104CF0000B46DDE9000114F0F1F90446B81700F0A5
:104D00000200C0F101000D4614F036FB02460B46CE
:104D10002046294614F09AFB04460D4620462946B3
:104D200007B0BDE8F08F5046594612F00FFB02461F
:104D30000B460020044914F0B3FC04460D4662E71C
:104D400054465D465FE700BF0000F03F00000000F2
:104D50002DE9F04FCC4A21F00043934285B08246C2
:104D60008B460C4620D9C94A934200F2D780002CCA
:104D700080F2A481ACA3D3E900235046594614F035
:104D8000AFF90022002314F0D3FD002840F0D180B9
:104D9000A7A3D3E900235046594614F057FB024617
:104DA0000B460020BA4994E1BA4A934200F2E580EA
:104DB000B94A934240F22E81002301930022B74B5F
:104DC0005046594614F042FB06460F4602460B4633
:104DD0005046594614F03AFB97A3D3E90023044602
:104DE0000D4614F033FB96A3D3E9002314F078F9B1
:104DF00022462B4614F02AFB93A3D3E9002314F098
:104E00006DF922462B4614F021FB91A3D3E9002330
:104E100014F066F922462B4614F018FB8EA3D3E952
:104E2000002314F05BF922462B4614F00FFB0022FE
:104E30009B4B14F055F98046894602460B46304696
:104E4000394614F003FB02460B460020954914F046
:104E500045F9064602460B460F464046494614F0C1
:104E60003DF93246804689463B465046594614F045
:104E7000EDFA02460B4600208B4914F02FF902464A
:104E80000B464046494614F00BFC22462B4614F0D4
:104E9000DDFA019E02460B46002E4DD0DDE9026789
:104EA00032463B4614F01AF952465B4614F0CEFAED
:104EB00032463B4614F012F92B46224614F00EF906
:104EC000019B013306460F4600F02381019B012B15
:104ED0007BD0019A531C392B4FEA025500F22881EE
:104EE000019A132A40F35581019BC3F57F74033463
:104EF0000022230514F0F4F802460B4650465946AA
:104F000014F0ECF80022664B14F0EAF8824605EB48
:104F1000010B5046594605B0BDE8F08F634A9342F5
:104F20001BD9C1F313030343024640F01281002949
:104F3000EFDA00205E490DE05046594614F086FA3B
:104F400022462B4614F0CAF802460B4650465946F4
:104F500014F0C4F805B0BDE8F08F41A3D3E90023F5
:104F600014F004FD00283FF402AF3FA3D3E900236F
:104F70001046194614F06AFAECE74E4A934200F2E2
:104F8000EC8000293AA3D3E9002339DA14F0A8F819
:104F900039A7D7E900674FF0FF3380468946019370
:104FA00032463B464046494614F098F802460B46C6
:104FB00082468B464046494614F090F832463B46BE
:104FC00014F08CF8CDE90201F8E600223A4B504685
:104FD000594614F0ADFC002800F0CC8050465946EC
:104FE00000222E4B14F07CF802460B463046394620
:104FF00014F074F800224FF0404314F027FAA9E7A8
:1050000014F06CF801238046894601931CA7D7E968
:105010000067C5E714A3D3E9002314F061F8024642
:105020000B468FE7AFF3008059F3F8C21F6EA5015E
:10503000FE822B654715F73F2DC3096EB7FD8ABE6B
:105040003952E686CACFD03EB7DBAA9E19CE143FAE
:105050008555FE19A0015A3FF41011111111A13FFD
:10506000EF39FAFE422E86409C7500883CE4377E7C
:105070000000E0FE422EE63F763C7935EF39EABD8E
:10508000763C7935EF39EA3D79684340412E8640D8
:105090000000E0BF422ED63FFFFF8F3C0000E03F04
:1050A0000000F03F0000084000001840FFFFEF7FC5
:1050B0000000F0BFB1A2F03F0000D0BF44A3D3E98D
:1050C00000235046594614F0C1F902460B46002011
:1050D000414914F005F814F069FC019014F04CF902
:1050E00037A3D3E9002306460F4614F0AFF9024672
:1050F0000B465046594613F0F1FF33A3D3E9002382
:10510000804689463046394614F0A0F906460F46D7
:1051100046E702460B465046594613F0DFFF002291
:105120002D4B14F093F900222B4B13F0D7FF11E70E
:1051300052465B4613F0D2FF02460B460020274939
:1051400013F0CCFF6B1819460022244B13F0C6FF56
:1051500000E70B4613F0C4FFFCE61DA3D3E90023D0
:1051600014F074F9002C02460B464FF00000AFDA41
:105170001B49AEE732463B465046594613F0AEFF58
:1051800002460B4613F0ACFF0022144B13F0A8FFAD
:10519000E0E64FF4001343FA02F452465B4613F084
:1051A0009DFFC4F17F57002607F5401702460B46C6
:1051B0003046394613F092FFA8E600BFAFF30080F7
:1051C0000000E0FE422EE63F763C7935EF39EA3DBD
:1051D000FE822B654715F73F0000E03F0000F03FDF
:1051E0000000E0BF00000000F8B5C1F30A53044618
:1051F0000D460E4617460BBB21F0004603463343CF
:105200001BD0354B002214F021F9344B9F42044649
:105210000D4635DBC1F30A530E46363B3B4440F2A4
:10522000FE72934232DC002B11DD26F0FF4626F49D
:10523000E00646EA035520462946F8BD40F2FF72D3
:105240009342EBD102460B4613F04AFFF8BD13F12F
:10525000350F28DA4CF250339F4222462B460ADDA6
:1052600019A1D1E9000113F0ABFE17A3D3E9002384
:1052700014F0ECF8F8BD16A1D1E9000113F0A0FE7E
:1052800013A3D3E9002314F0E1F8F8BD22462B461E
:105290000DA1D1E9000113F093FE0BA3D3E9002384
:1052A00014F0D4F8F8BD26F0FF4626F4E0063633B5
:1052B00046EA0355204629460022094B14F0C6F859
:1052C000F8BD00BFAFF300809C7500883CE4377EDA
:1052D00059F3F8C21F6EA50100005043B03CFFFF18
:1052E0000000903C10B5054C237833B9044B13B142
:1052F0000448AFF300800123237010BD1005002087
:105300000000000080C0010008B5034B1BB1034939
:105310000348AFF3008008BD000000001405002022
:1053200080C00100154B002B08BF134B9D46A3F511
:10533000803A00218B460F461348144A121A08F08F
:1053400053FD0F4B002B00D098470E4B002B00D085
:1053500098470020002104000D000D48002802D0CD
:105360000C48AFF3008013F061FE2000290005F027
:10537000F3F813F047FE00BF000008000000022011
:10538000000000000000000000040020AC0C002021
:10539000000000000000000070B504460E4600F05A
:1053A00047FA88B103681B6B05469847082C0CD058
:1053B000A4F10903012B14D93246214610230D20F4
:1053C000BDE8704004F07AB870BD2B6828469B6A2F
:1053D00098470228F0DC2B6828465B6A042198472E
:1053E000EAE72B6828469B6A98470528E4DC2B6887
:1053F00028465B6A08219847DEE700BF38B52DEDE7
:10540000028B054600F014FA044640B103681B6B9A
:105410009847032D03D8DFE805F02F363D06BDEC95
:10542000028B002038BD20460CF0C8F807EE900A29
:105430002046F8EEE78A0CF0CFF807EE900A2046F7
:10544000B8EEE78A0CF0D6F868EE087A07EE100A94
:10545000E8EEA87AB8EEC77AE7EE077AF5EE407A7A
:10546000F1EE10FAB1EEE78A1BD4FDEEC87ABDEC7E
:10547000028B17EE900A38BDBDEC028B2046BDE8CA
:1054800038400CF09BB8BDEC028B2046BDE838409C
:105490000CF0A2B8BDEC028B2046BDE838400CF001
:1054A000A9B817EE900A12F087FCDEE738B504467B
:1054B00000F0BEF958B103681B6B0546984744B12C
:1054C000012C04D12846BDE83840FBF73DB9002047
:1054D00038BD2846BDE83840FBF716B910B504467C
:1054E00000F0A6F928B1036821465B6ABDE81040C8
:1054F000184710BD0048704716FCFFFF704700BFFB
:1055000010B5034B036004460BF054FE204610BD5B
:10551000F8B4010010B5054B036004460BF04AFED9
:10552000204614F0CBFC204610BD00BFF8B40100AB
:105530002DE9F041032184B00546512001F0DAFC49
:10554000DFF8E8C2AE4B044604F00F06C4F30317BD
:1055500014F4807408BF6346AA4831463A460AF0FC
:10556000B3FF221C18BF012231463B4628460EF0ED
:1055700003F80023AB60A4480AF0A6FF4FF0FF3108
:10558000032001F0B7FCC0B204F08CFA4FF0FF31F9
:105590000446022001F0AEFCC0B204F083FA002CF5
:1055A0003BD0002839D00146204604F063F8064677
:1055B00000284DD04FF0FF31462001F09BFC3228EF
:1055C00004464ED04BDD382800F0B18068285FD10A
:1055D0004FF0FF31012001F08DFCC0B204F062FAFF
:1055E00080465C2014F073FC05230193424600942E
:1055F00031462B4607460CF0C1FFAF603B6838468A
:10560000DB6A9847A86803681B6B98477F480AF0D5
:105610005BFF284604B0BDE8F0817D480AF054FFE6
:105620004FF0FF31192001F065FCC0B204F03AFAE6
:105630004FF0FF310446182001F05CFCC0B204F0CA
:1056400031FA0146204604F015F806460028B1D18B
:1056500070480AF039FF284604B0BDE8F0813028D0
:1056600016D14FF0FF31012001F044FCC0B204F02C
:1056700019FA8046502014F02AFCA4B207460523EC
:1056800001934246009431462B460CF021FDB4E7CD
:1056900001243268CDE900440023576AAB600F2231
:1056A0000DF10F0332213046B847002800F0858005
:1056B0003368CDE900440F225F6A30210DF10F03FA
:1056C0003046B84700284AD03368CDE900440D225F
:1056D0005F6A38210DF10F033046B847002872D0B9
:1056E0003268CDE900440DF10F03576A6821752235
:1056F0003046B847002845D1682147480AF0E4FE03
:105700004FF0FF31204601F0F5FBC0B204F0CAF9BA
:1057100080465C2014F0DBFB05246823CDE90034CF
:10572000424631462B4607460CF028FF65E74FF00E
:10573000FF31012001F0DEFBC0B204F0B3F9804676
:10574000502014F0C4FB05230746019342462B4624
:10575000009431460CF0F2FD304B3B604DE73021B8
:105760002D480AF0B1FE30244FF0FF31012001F046
:10577000C1FBC0B204F096F98046502014F0A7FB9C
:1057800007467CE726480AF09FFEAF68002F7FF4AB
:1057900035AF4FF0FF31032001F0ACFBC0B204F095
:1057A00081F930B11F480AF08FFE284604B0BDE8E9
:1057B000F0811D480AF088FE4DE7322116480AF0B4
:1057C00083FE3224D0E7382113480AF07DFE4FF0E3
:1057D000FF31204601F08EFBC0B204F063F9804631
:1057E000502014F074FB052438230746CDE900341B
:1057F00042462B4631460CF0A1FD084B3B60FCE6CF
:10580000D8A70100E8A7010008A80100C8A8010066
:1058100018A801002CA8010058A80100A0A70100A9
:1058200044A801006CA80100A8A80100E0A701009D
:1058300038B5114C23680BB1986838BD4FF0FF3173
:10584000012001F057FBC0B204F02CF940B10C204C
:1058500014F03DFB0546FFF76BFE2560A86838BDD8
:105860004FF0FF31032001F045FBC0B204F01AF9FC
:105870000028ECD138BD00BF2C05002008B501F090
:105880006BFCFBF7D5FCBDE8084001F0C5B900BFD3
:1058900008B501F061FCFBF73BFDBDE8084001F0F5
:1058A000BBB900BF08B501F057FC11F0C5FDBDE85C
:1058B000084001F0B1B900BF08B501F04DFC12F08D
:1058C000B7F9BDE8084001F0A7B900BF08B501F07D
:1058D00043FCFBF7BDFCBDE8084001F09DB900BFEB
:1058E00008B501F039FC11F0D9FFBDE8084001F01E
:1058F00093B900BF08B501F02FFCFAF745FFBDE8EA
:10590000084001F089B900BF08B501F025FC11F08D
:105910001BFFBDE8084001F07FB900BF70B5049ED1
:1059200096420C4624DB15466BB9042A19D0022A8C
:1059300002D110F0010310D001462A46204607F09C
:10594000C1F8002070BD10440D4410F8013D01F86D
:10595000013B8D42F9D1002070BD02880A801846B3
:1059600070BD10F00303E7D102680A60184670BDED
:105970000846002108F038FA4FF0FF3070BD00BF34
:105980000830704740B1002905DB43688B4202DDD7
:105990000844007A70470020704700BF30B10029EA
:1059A00004DB43688B42C4BF40180272704700BFDB
:1059B00040B1002905DB4368994202DA0844007AC5
:1059C00070470020704700BF830704D1030F0CBF4E
:1059D0000120002070470120704700BF30B100292E
:1059E00004DB43689942BCBF40180272704700BF95
:1059F000F8B5002B20DB00291EDB46688E421BDB3E
:105A00005468761AE51AB542A8BF3546002D13DB57
:105A1000824202F108070C4600F108062A4605D02A
:105A2000F918301907F04EF80020F8BDF1183819B0
:105A300014F074FA0020F8BD4FF0FF30F8BD00BF3D
:105A40004068704710B4141E10DB4268A2420DDBA0
:105A500033EA230328BF1346121B08309A4220441E
:105A6000A8BF1A465DF8044B08F0BEB95DF8044BB8
:105A7000704700BF10B443688B4200F10804184619
:105A8000A8BF084632EA220128BF19461B1A9942CC
:105A90002044A8BF19465DF8044B00F0B5BE00BF16
:105AA00070B5002BBCBF43689B1A002A0E4620DB52
:105AB00044689918A1421CDC91421ADBCBB136F044
:105AC000004116D05942B14214DAB34212DD083017
:105AD000002E00EB020515DB9C1B2246A919284667
