:1000000000000220E1620100096301000B630100AE
:100010000D6301000F630100116301000000000087
:100020000000000000000000000000001363010059
:10003000156301000000000017630100196301004F
:100040001B6301000553010081610100456101004E
:10005000596101001B630100214C01003969010055
:100060001D5D0100255D01002D5D01001B63010088
:100070001B6301001B6301001B6301001B63010084
:100080001B6301001B6301001B6301001B63010074
:100090001B6301001B6301001B6301001B63010064
:1000A0001B6301001B630100355D01003D5D010024
:1000B0001B6301001B630100000000000000000042
:1000C0001B6301001B6301001B6301006D610100E4
:1000D0001B6301001B6301001B6301001B63010024
:1000E000A961010000000000000000000000000005
:1000F000000000001B63010000000000956101008A
:1001000000000000000000000000000000000000EF
:1001100000000000000000000000000000000000DF
:1001200000000000000000000000000000000000CF
:1001300000000000000000000000000000000000BF
:1001400000000000000000000000000000000000AF
:10015000000000000000000000000000000000009F
:10016000000000000000000000000000000000008F
:10017000000000000000000000000000000000007F
:10018000000000000000000000000000000000006F
:10019000000000000000000000000000000000005F
:1001A000000000000000000000000000000000004F
:1001B000000000000000000000000000000000003F
:1001C000000000000000000000000000000000002F
:1001D000000000000000000000000000000000001F
:1001E000000000000000000000000000000000000F
:1001F00000000000000000000000000000000000FF
:100200007CB0EE877CB0EE87FF00FF00FF00FF00B0
:10021000FF00FF00FF00FF00FF00FF00FF00FF00E6
:10022000FF00FF00FF00FF00FF00FF00FF00FF00D6
:10023000FF00FF00FF00FF002DE9F04F85B00391A4
:100240000778A7F10903042B044607F07F0200F1A9
:100250000100F5D9202AF3D02B2F04BF677804467C
:100260002D2F75D09FED427B8DED007B4FF0000868
:100270004FF000099FB34FF0000C25464FF0000AE5
:10028000DFF8FCB0644619E019F016F9804689469B
:10029000304619F0A7F842464B4618F057FF524631
:1002A000804689465B46DDE900013CB319F02EFA31
:1002B000CDE90001A44615F8017F7FB1A7F1300612
:1002C000092E52465B4640464946DDD9CCB92E2F11
:1002D00017D115F8017F0124002FEFD12C4642469B
:1002E0004B46DDE9000119F0E7F880468946039B9B
:1002F000404649461C6005B0BDE8F08F4FF0010C48
:10030000D9E72C46BCF1000F29D042464B46DDE927
:10031000000119F0D1F807F0DF07452F8046894624
:10032000E5D10399681C0A2218F0F4FE144902462C
:10033000002019F021FC02460B464046494619F0C0
:10034000BBF8804689464046494605B0BDE8F08F77
:100350009FED097B67788DED007B013486E7DFF840
:1003600024904FF000084046494605B0BDE8F08FA4
:10037000000000000000F03F000000000000F0BF9F
:10038000000024400000F87F2DE9F04700231446C8
:1003900000228046894619F001FB28B109F100438B
:1003A00099462D23237001340022002340464946FC
:1003B00019F0EAFA28B13022002322706370BDE8F8
:1003C000F0874046494617F0E9FB19F025FB73A377
:1003D000D3E9002307464946404619F0DFFA0028D2
:1003E0004ED170A3D3E900234046494619F0F4FAF0
:1003F000002845D10E2F07F1010540F3B980A7F180
:100400000E0632460020624919F0B6FB02460B4642
:100410004046494619F07AF900225E4B18F096FEE4
:1004200019F0E6FB002DA7F10F0E4FF0010C4DDD8A
:10043000594FDFF87881012245F6F3294FF02E0A53
:10044000494508BF40454FF030030AD3B0EB0800E0
:1004500061EB0901494508BF404503F10103F5D2AD
:10046000DBB2237050EA010304F101084AD195423E
:1004700052DD0132102A4FD0444677E90289DFE786
:10048000002F33DB3A460020414919F075FB024644
:100490000B464046494619F039F93BA3D3E90023FE
:1004A00080468946012500264046494619F004F851
:1004B0000022384B18F04AFE19F09AFB002DBC467A
:1004C0004FF0FF3E37464FF00006B1DC23463022A6
:1004D0004FF02E0803F8022B84F80180FC4345D02E
:1004E0001C4403F8012BA342FBD1A1E77A42002070
:1004F000274919F041FB02460B464046494618F091
:10050000DBFFCAE7954202F1010204BF84F801A0B3
:1005100004F10208102AAFD16EB14246302102F830
:10052000011BC2F1010373444344002BF7DC2EEAA4
:10053000EE7301339844BCF1010F12D0BCF1000FEF
:100540004FF0650388F80030C5BF2B2388F80130D1
:1005500008F1010108F102016046BDE8F0470FF023
:1005600099BD002388F80030BDE8F0871C465FE79E
:10057000C7F10E020020064919F0FEFA3E46024677
:100580000B46012790E700BF0000901EC4BCD64276
:10059000000024400000E03F58A701008DEDB5A009
:1005A000F7C6B03E50EFE2D6E41A4B4400407A1052
:1005B00070B54FF0FF3006F05BF904466FF07F40F6
:1005C00006F056F90646204618F0FCFE00220C4BB9
:1005D00018F072FF044630460D4618F0F3FE06A3ED
:1005E000D3E9002319F092F802460B46204629462B
:1005F00018F0ACFD70BD00BF0000E0DFFFFF6F43EF
:100600000000F03D000000002DE9F04F2DED028BC1
:10061000044683B0C06818F0E5FE8046206989462C
:1006200018F0E0FE824660698B4618F0DBFE024659
:1006300001F1004306460F464046494617F062F96D
:1006400019F032FAE062054617F014F801902846D6
:1006500016F0C4FF019B0546184618F0D5FE424629
:100660004B4618F029FF80462846894618F0CCFEF4
:1006700032463B4618F020FF02460B4640464946AC
:1006800018F062FD02460B465046594617F03AF9FB
:1006900019F00AFA002208EE100A00233046394603
:1006A00019F09AF928B3B5EEC08AF1EE10FA1CDD04
:1006B00011A7D7E9006718EE100A18F0A5FE024648
:1006C0000B463046394618F03FFD32463B4618F09F
:1006D0003DFD19F0E9F9A062E38843F00203E380ED
:1006E00003B0BDEC028BBDE8F08F05A7D7E900672A
:1006F000E1E784ED0A8AEFE7EA2E4454FB21F93F53
:10070000EA2E4454FB21F9BF08B510F0B7FFDFED26
:100710000C7A07EE100A67EE277A17EE900A18F0A7
:1007200073FE05A3D3E9002318F0F0FF19F074F964
:1007300008BD00BFAFF30080EA2E4454FB211940EE
:100740000000B4430000000008B510F0ABFFDFED7F
:100750000C7A07EE100A67EE277A17EE900A18F067
:1007600053FE05A3D3E9002318F0D0FF19F054F984
:1007700008BD00BFAFF30080EA2E4454FB211940AE
:100780000000B44300000000494A21F000439342B6
:100790002DE9704304460D4649DC464A93420E4615
:1007A0000EDC3FA3D3E9002318F0D0FC0022424B1B
:1007B00019F012F900284AD020462946BDE8708376
:1007C0003E4A934239DCB3F1804F40DD16F0F4FD30
:1007D0002246804689462B462046294618F06CFE64
:1007E0000022354B18F0B2FC17F082FC42464B4613
:1007F00018F0ACFC02460B4600202F4918F086FF8B
:10080000424604460D464B464046494618F09EFC7B
:1008100002460B462046294618F098FC02F040F8A4
:10082000002E08DC01F100431946BDE87083024642
:100830000B4618F08BFCBDE8708316F0BDFD02F08E
:100840002FF819A3D3E9002318F080FCE8E722462B
:100850002B462046294618F02FFE80468946204622
:10086000294616F0A9FD002204460D46124B4046CB
:10087000494618F06BFC17F03BFC00220E4B18F0B9
:1008800065FC02460B464046494618F03FFF2246AB
:100890002B4618F05BFC00F0A7FAC1E7AFF300802D
:1008A0009C7500883CE4377EEF39FAFE422EE63F25
:1008B000FFFFEF7FFFFF2F3E0000F03F0000B04141
:1008C0002DE9F84FBE4B21F000469E4204460D46EE
:1008D0008A460EDDBB4B9E4200F3B18000F0AC8037
:1008E000BAF1000F40F3EA8099A1D1E90001BDE817
:1008F000F88FB54B9E4200F3BA80A3F1DE739E429F
:1009000040F3A5804FF0FF3B22462B462046294668
:1009100018F0D2FD02460B468046894618F0CCFD01
:100920008DA3D3E9002306460F4618F0C5FD8CA31E
:10093000D3E9002318F00AFC32463B4618F0BCFD10
:1009400089A3D3E9002318F001FC32463B4618F096
:10095000B3FD87A3D3E9002318F0F8FB32463B46EA
:1009600018F0AAFD84A3D3E9002318F0EFFB324668
:100970003B4618F0A1FD82A3D3E9002318F0E6FB63
:1009800042464B4618F098FD7FA3D3E900238046EA
:1009900089463046394618F08FFD7DA3D3E9002300
:1009A00018F0D2FB32463B4618F086FD7AA3D3E915
:1009B000002318F0C9FB32463B4618F07DFD78A3B2
:1009C000D3E9002318F0C0FB32463B4618F074FD13
:1009D00075A3D3E9002318F0B7FB32463B4618F065
:1009E0006BFD02460B464046494618F0AFFB2246D7
:1009F0002B4618F061FDBBF1FF3F02460B4661D06C
:100A0000724B734E4FEACB0B5B44D3E9002318F0D3
:100A10009BFB22462B4618F097FBB34402460B463D
:100A2000DBE9000118F090FBBAF1000F0DDA01F1DB
:100A300000431946BDE8F88F00283FF451AF224625
:100A40002B462046294618F081FBBDE8F88F58A3B5
:100A5000D3E9002318F07AFB00225E4B18F0BCFFAC
:100A600000283FF44FAF20462946BDE8F88F16F026
:100A7000A3FC594B9E4204460D4629DCA3F55023A6
:100A80009E424EDC02460B4618F060FB0022514BA2
:100A900018F05AFB002206460F464FF080432046CE
:100AA000294618F053FB02460B463046394618F0EB
:100AB0002DFE4FF0000B04460D4625E73EA1D1E97F
:100AC0000001C2E72046294618F03EFBBDE8F88F3A
:100AD000424B9E421ADC0022414B18F035FB0022AB
:100AE00006460F463E4B2046294618F0E5FC0022FC
:100AF000384B18F02BFB02460B463046394618F0AF
:100B000005FE4FF0020B04460D46FDE602460B467D
:100B10000020344918F0FAFD4FF0030B04460D464F
:100B2000F2E600222B4B18F00FFB002206460F4680
:100B3000284B2046294618F009FB02460B46304652
:100B4000394618F0E3FD4FF0010B04460D46DBE695
:100B5000182D4454FB21F93F11DA22E33AAD903FBE
:100B6000EB0D76244B7BA93F513DD0A0660DB13FE4
:100B70006E204CC5CD45B73FFF8300922449C23F4C
:100B80000D5555555555D53F2F6C6A2C44B4A2BF11
:100B90009AFDDE522DDEAD3F6D9A74AFF2B0B33FD9
:100BA000711623FEC671BC3FC4EB98999999C93F51
:100BB0009C7500883CE4377E182D4454FB21F9BF16
:100BC000FFFF0F440000F07FFFFFDB3F80A7010025
:100BD00060A701000000F03FFFFFF23FFF7F0340EE
:100BE0000000F83F0000F0BF2DE9F041C1F30A57C3
:100BF000A7F2FF35132D02460B460C4688460646E3
:100C000020DC002D4ADB364F2F4101EA070C5CEA5D
:100C1000000C1CD030A3D3E9002318F097FA00226F
:100C2000002318F0D9FE48B1002C04DD4FF48013E6
:100C300043FA05F5A84428EA070400262146304671
:100C4000BDE8F081332D06DDB5F5806F38D0104654
:100C50001946BDE8F081A7F213474FF0FF3C2CFA8C
:100C600007F70742F3D01CA3D3E9002318F06EFA6C
:100C70000022002318F0B0FE0028DFD0002C09DD90
:100C8000142D22D00123C5F1340503FA05F5AE1960
:100C900028BF984426EA07064446CFE70EA3D3E9C7
:100CA000002318F053FA0022002318F095FE0028C4
:100CB000C4D0002C0CDB264305D00026094CBDE730
:100CC00018F044FAC5E73446B8E704F10108E1E753
:100CD00000264FF00044B1E79C7500883CE4377E65
:100CE000FFFF0F000000F03F2DE9F041C1F30A576C
:100CF000A7F2FF35132D02460B460C4688460646E2
:100D00001DDC002D3CDB364F2F4101EA070C5CEA6D
:100D1000000C19D030A3D3E9002318F017FA0022F1
:100D2000002318F059FEC8B3002C04DA4FF48013E6
:100D300043FA05F5A84428EA070400262EE0332DDF
:100D400006DDB5F5806F2DD010461946BDE8F0815F
:100D5000A7F213474FF0FF3C2CFA07F70742F3D0F6
:100D60001DA3D3E9002318F0F1F90022002318F0A5
:100D700033FE98B1002C21DB26EA070644460DE03D
:100D800015A3D3E9002318F0E1F90022002318F09D
:100D900023FE18B1002C08DB0026344621463046DD
:100DA000BDE8F08118F0D2F9D0E724F000430D4AF5
:100DB0001E43002E18BF14460026EFE7142D08D05E
:100DC0000123C5F1340503FA05F5AE1928BF98448F
:100DD000D2E704F10108CFE79C7500883CE4377E38
:100DE000FFFF0F000000F0BF2DE9F04FD84B9942F4
:100DF00087B08046894643DDD64B99420E4600F3C4
:100E0000F480D54B994240F32D819FEDBB7B8DED56
:100E1000047B4FEA215A0446AAF2FF3ACF4BC6F3AD
:100E200013069E4246F07F5500F3128145F44015AB
:100E3000204629460022CA4B18F086F900220446B3
:100E40000D46C84B18F038FB22462B4618F034FBF1
:100E5000A046CDE90201A946CDE90001002E3AD114
:100E6000002200232046294618F08EFD002800F0BD
:100E70001B81BAF1000F40F0858100200021B8E00D
:100E8000B94B21F000449C420A460FDD0022B74BCB
:100E900018F07AFD002800F0AF8000220023002027
:100EA000B34918F033FC07B0BDE8F08FB14B9C425A
:100EB00040F3AF80B04B1A449A4240F2D3800022F4
:100EC000A84B18F0F9FA42464B4618F0F5FACDE96E
:100ED00000014FF0000A00224FF08043404649468F
:100EE00018F034F902460B464046494618F00EFC0D
:100EF00002460B4606460F4618F0DEFA80A3D3E9F9
:100F0000002304460D4618F0D7FA7FA3D3E9002347
:100F100018F01CF922462B4618F0CEFA7CA3D3E930
:100F2000002318F013F922462B4618F0C5FA7AA3CD
:100F3000D3E9002318F00AF922462B4618F0BCFA30
:100F400077A3D3E9002318F001F922462B4618F0C5
:100F5000B3FA75A3D3E9002318F0F8F822462B461C
:100F600018F0AAFA72A3D3E9002318F0EFF822468A
:100F70002B4618F0A1FADDE9002318F0E7F8324615
:100F80003B4618F099FA04460D46BAF1000F00F0FE
:100F9000A880504618F026FA67A3D3E900238246BA
:100FA0008B4618F089FA66A3D3E9002306460F465C
:100FB0005046594618F080FADDE9042318F0C6F8C7
:100FC00022462B4618F0C2F802460B46DDE9000126
:100FD00018F0BAF842464B4618F0B6F802460B46EF
:100FE0003046394618F0B0F803E002460B4618F0D8
:100FF000ADF807B0BDE8F08F42464B464046494643
:1010000018F0A2F802460B4618F080FB07B0BDE8C6
:10101000F08F0022594B18F099F80022002318F0A5
:10102000DBFC10B1564B9C4262DD42464B464046CB
:10103000494618F041FA00224A4B18F03DFA0246A0
:101040000B464046494618F07FF807B0BDE8F08FE0
:1010500045F40015C6F5801620462946B6100AF15B
:10106000010AE7E600223E4B4046494618F06EF87A
:101070004FEA215AAAF2FF3ABAF1000F04460D4690
:101080000E4640F3BD8042464B4618F05DF80246DE
:101090000B460020324918F057F822462B4618F02C
:1010A00035FBCDE90401B9E627A3D3E900232046A7
:1010B000294618F001FA02460B460020284918F08C
:1010C00043F8DDE9022318F0F7F906460F46BAF1B6
:1010D000000F75D102460B462046294618F034F819
:1010E00087E702460B46DDE9000118F02DF8A6E778
:1010F000404649467DE700BF0000000000000000B8
:1011000044523EDF12F1C23F9FC678D0099AC33FD6
:10111000DE03CB966446C73FAF788E1DC571CC3FCA
:10112000599322942449D23F04FA97999999D93F27
:10113000935555555555E53F0000E0FE422EE63FDC
:10114000763C7935EF39EA3D555555555555E53FCE
:101150007982DA3FFFFFEF7FFFFF3F439DA006004C
:101160000000F03F0000E03FFFFFEF3F0000F0BF56
:10117000000050C3FFFF1F3E3C412D400000504384
:10118000FFFF8F3C504618F02DF924A3D3E900232C
:1011900006460F4618F090F9DDE9042317F0D6FF54
:1011A00020A3D3E9002304460D463046394618F003
:1011B00083F902460B462046294617F0C7FF18E779
:1011C000504618F00FF917A3D3E9002382468B4647
:1011D00018F072F911A3D3E90023804689465046DE
:1011E000594618F069F9DDE9042317F0AFFF02460C
:1011F0000B463046394617F0A7FF22462B4674E7C8
:101200000022054B17F0A0FF02460B464046494618
:1012100017F09AFF41E700BF0000F03F763C7935B8
:10122000EF39EA3D0000E0FE422EE63F00000000FC
:1012300008B516F035FC04A3D3E9002318F066FACC
:1012400008BD00BFAFF30080EF39FAFE422EE63F43
:101250002DE9F043DFF8B4808BB004460D4601F071
:10126000F7F898F90030013306460F462CD0224695
:101270002B462046294618F0B9FB814620BB204664
:10128000294616F099F81FA3D3E9002318F0A4FB10
:10129000D0B1194A98F90030CDF820900321CDE95A
:1012A0000445CDE90245CDE9001293B11349002070
:1012B000022BCDE9060111D117F0D4FE22230360E1
:1012C000089B9BB9DDE90667304639460BB0BDE89F
:1012D000F0830B4B4FF06042CDE90623684617F0D0
:1012E0003DFD0028E8D0089B002BEBD017F0BAFE9C
:1012F000089B0360E6E700BF64BA01000000F07FCE
:10130000FFFFEF477DF8B98FCE338640FB01002009
:101310002DE9F043DFF8E4808BB004460D4601F080
:1013200047F998F90030013306460F4633D020467E
:10133000294617F00DFD70B32CA3D3E900232046F6
:10134000294618F049FB814650BB2AA3D3E9002364
:101350002046294618F022FBE8B198F90030204ACF
:10136000CDF82090002000210426022BCDE9044571
:10137000CDE902450096CDE90601019229D06846E3
:1013800017F0ECFC28B3089B1BB117F06BFE089B11
:101390000360DDE90667304639460BB0BDE8F083EF
:1013A0000F4A98F90030019203210022CDE904454B
:1013B000CDE90245009108922BB90A4B4FF06042EB
:1013C000CDE90623DBE708490020022BCDE9060121
:1013D000D5D117F047FE22230360D4E7AFF3008096
:1013E0006CBA0100FFFFEF470000F07FEF39FAFE13
:1013F000422E864051302DD5104987C0FB01002078
:101400002DE9F04FDFF82C938DB006460F461446B9
:101410001D4601F09DFC99F90080B8F1FF3FCDE930
:10142000000136D022462B462046294618F0DEFA27
:10143000834670BB32463B463046394618F0D6FAF2
:101440008246002840F0A280304639460022002320
:1014500018F09AFA10B3002200232046294618F00B
:1014600093FA8346002867D09FEDA77B0122AC4BFF
:10147000CDF828A00292CDE90467CDE906458DEDAF
:10148000087B0393B8F1000F41D09FEDA17B8DED58
:10149000007BDDE900010DB0BDE8F08FDDE9000162
:1014A00017F056FC8046002800F08D804FF0000AAF
:1014B0004FF0000BDDE9000152465B4618F064FA7C
:1014C0000028E6D03046394617F042FC0028E0D02C
:1014D0002046294617F03CFC0028DAD099F9003064
:1014E0008F4A039204210022022BCDE90467CDE943
:1014F0000645CDE908AB02910A9203D002A817F085
:101500002DFC50B917F0AEFD2223036005E002A8C0
:1015100017F024FC002800F09B800A9B1BB117F0F9
:10152000A1FD0A9B03609DED087B8DED007BDDE94D
:1015300000010DB0BDE8F08F2046294617F008FCE9
:101540000028A6D0002200232046294618F026FABB
:1015500000289ED0724A99F90030CDF828B00121B8
:10156000CDE90467CDE90645CDE90212002B74D020
:101570006C490020022BCDE9080172D117F072FDF1
:10158000212303600A9B002BCDD0C8E70022002353
:101590002046294618F0F8F900283FF47AAF624B4C
:1015A0005F49CDF828B000220120B8F1020FCDE943
:1015B00004670290CDE90645CDE908230391A6D141
:1015C000CDE9002365E73046394617F0C1FB002816
:1015D0003FF46CAF2046294617F0BAFB00283FF4D1
:1015E00065AFDDE900231046194618F0FFF999F9B7
:1015F00000A000286BD10323DFF824C10A902946FC
:10160000204602930022494BCDF80CC0CDE9064597
:10161000CDE9046717F050FF04460D46BAF1000FFC
:1016200025D1DFF814B14FF0604A00220023304684
:101630003946CDE908AB18F0B1F938BB02A817F06C
:101640008DFB00289ED117F00DFD2223036099E742
:1016500017F008FD212303605FE79FED2B7B8DEDE5
:10166000087B02A817F07AFB00288BD186E79FED54
:101670002A7B00220023304639468DED087B18F086
:101680008DF9A0B9BAF1020FDDD0D7E7204629467F
:1016900017F06CFB22462B4618F076F9A0B9244BC4
:1016A00099F900A04FF06042CDE90823EAE720460F
:1016B000294617F05BFB22462B4618F065F918B94E
:1016C000184B0022CDE9082399F900A0DAE701229E
:1016D000134BCDF828800292CDE90467CDE9064589
:1016E0000393BAF1000FB8D0002200231046194628
:1016F00018F00CF8BAF1020FCDE908013FF43EAF43
:10170000AFE700BFAFF30080000000000000000062
:10171000000000000000F03F000000000000F07F2B
:1017200084BA01000000F0FF0000F03F0000E03F3D
:10173000FFFFEFC7FB010020FFFFEF4700000000A5
:101740002DE9F84FC44E21F00043B34204460D4644
:101750000DDD03F1404303F58013034340F0B980EE
:10176000002940F3408100200021BDE8F88FBB4EE6
:10177000B34208DCBA4A934200F3B5809CA1D1E998
:101780000001BDE8F88F0029C0F2708102460B46C7
:101790000020B44917F0D8FC0022B34B17F08CFEA0
:1017A00004460D4616F0A4FC93A3D3E90023894612
:1017B00080462946204617F07FFE91A3D3E90023F7
:1017C00017F0C4FC22462B4617F076FE8EA3D3E911
:1017D000002317F0B9FC22462B4617F06DFE8CA3B0
:1017E000D3E9002317F0B2FC22462B4617F064FE23
:1017F00089A3D3E9002317F0A7FC22462B4617F054
:101800005BFE87A3D3E9002317F0A0FC22462B46FA
:1018100017F052FE84A3D3E9002382468B4620466C
:10182000294617F049FE82A3D3E9002317F08CFC68
:1018300022462B4617F040FE7FA3D3E9002317F082
:1018400085FC22462B4617F037FE7DA3D3E9002303
:1018500017F07AFC22462B4617F02EFE0022814B11
:1018600017F074FC02460B465046594617F04EFFDF
:1018700042464B4617F020FE002682468B463246F3
:101880004B463046494617F017FE02460B462046A7
:10189000294617F059FC324604460D464B46404651
:1018A000494617F053FC02460B462046294617F0DE
:1018B0002DFF02460B465046594617F047FC32466C
:1018C0004B4617F043FC02460B4617F03FFCBDE8C1
:1018D000F88F02460B4617F037FC02460B4617F00E
:1018E00015FFBDE8F88F02460B4617F0E5FD42A351
:1018F000D3E9002306460F4617F0DEFD40A3D3E9E7
:10190000002317F023FC32463B4617F0D5FD3EA3DB
:10191000D3E9002317F018FC32463B4617F0CCFD04
:101920003BA3D3E9002317F011FC32463B4617F0E6
:10193000C3FD39A3D3E9002317F006FC32463B462A
:1019400017F0BAFD36A3D3E9002317F0FFFB3246A8
:101950003B4617F0B1FD34A3D3E900238046894606
:101960003046394617F0A8FD31A3D3E9002317F01C
:10197000EBFB32463B4617F09FFD2FA3D3E9002334
:1019800017F0E4FB32463B4617F096FD2CA3D3E953
:10199000002317F0D9FB32463B4617F08DFD00229D
:1019A000304B17F0D3FB02460B464046494617F032
:1019B000ADFE22462B4617F07FFD02460B4622A1C4
:1019C000D1E9000117F0C0FB02460B46204629462C
:1019D00017F0BAFB02460B4605A1D1E9000117F04A
:1019E000B3FBBDE8F88F1AA1D1E9000179E700BF88
:1019F000182D4454FB21F93F09F7FD0DE13D023F4D
:101A000088B20175E0EF493F3B8F68B52882A43F5B
:101A10005544880E55C1C93F7D6FEB0312D6D43FA4
:101A2000555555555555C53F82922EB1C5B8B33F52
:101A300059018D1B6C06E63FC88A599CE52A004077
:101A40004B2D8A1C273A0340075C143326A6913C91
:101A5000182D4454FB210940FFFFEF3FFFFFDF3FFC
:101A60000000603C0000F03F0000E03F00225C4BC3
:101A700017F06CFB00225B4B17F01EFD40A3D3E96F
:101A8000002304460D4617F017FD3FA3D3E90023BA
:101A900017F05CFB22462B4617F00EFD3CA3D3E962
:101AA000002317F051FB22462B4617F005FD3AA301
:101AB000D3E9002317F04AFB22462B4617F0FCFC23
:101AC00037A3D3E9002317F03FFB22462B4617F03C
:101AD000F3FC35A3D3E9002317F038FB22462B464D
:101AE00017F0EAFC804689462046294616F000FB9E
:101AF0002FA3D3E9002306460F462046294617F0B8
:101B0000DBFC2DA3D3E9002317F01EFB22462B4656
:101B100017F0D2FC2AA3D3E9002317F017FB2246C3
:101B20002B4617F0C9FC28A3D3E9002317F00CFBC0
:101B300022462B4617F0C0FC0022294B17F006FB6B
:101B400002460B464046494617F0E0FD32463B460A
:101B500017F0B2FC1EA3D3E9002317F0F5FA3246C2
:101B60003B4617F0F3FA02460B4617F0EFFA02462F
:101B70000B4619A1D1E9000117F0E6FAB1E600BF62
:101B800009F7FD0DE13D023F88B20175E0EF493FE5
:101B90003B8F68B52882A43F5544880E55C1C93F84
:101BA0007D6FEB0312D6D43F555555555555C53F5E
:101BB00082922EB1C5B8B33F59018D1B6C06E63F2A
:101BC000C88A599CE52A00404B2D8A1C273A0340BD
:101BD000075C143326A6913C182D4454FB21094080
:101BE0000000F03F0000E03F414A91422DE9F843F8
:101BF00004460D4637DD3F4A91420B4608DD02F1AF
:101C0000795291423DDD024617F0A0FABDE8F88313
:101C100001F1404202F5801202432ED0B1F1804F13
:101C200037DC0022344B17F08FFA02460B4604468D
:101C30000D4617F08BFA224606460F462B462046E5
:101C4000294617F039FC02460B463046394617F054
:101C50007DFA16F04DFA22462B4617F077FABDE8CA
:101C6000F843FFF7C1B802460B4617F06DFA02467B
:101C70000B4617F04BFDBDE8F88300200021BDE8BE
:101C8000F88300F00DFE18A3D3E9002317F05EFAE5
:101C9000F1E7024617F010FC0022174B17F054FA38
:101CA00016F026FA2246804689462B4620462946CB
:101CB00017F04CFA224606460F462B464046494648
:101CC00017F044FA02460B4600200B4917F01EFDA0
:101CD0000B4602463946304617F036FABDE8F8435F
:101CE00000F0DEBDAFF30080EF39FAFE422EE63F92
:101CF000FFFFEF3FFFFFAF410000F03F000000009B
:101D00002DE9F04FAE4B21F000479F4287B00446CB
:101D10000D4611DD07F1404707F5801703463B43A9
:101D200021D002460B4617F00FFA02460B4617F079
:101D3000EDFC07B0BDE8F08FA24B9F420E4629DCB8
:101D4000B7F1795F80F2468181A3D3E9002317F0D0
:101D5000FDF900229C4B17F03FFED8B120462946E2
:101D600007B0BDE8F08F7CA3D3E9002317F0A4FBF4
:101D70007BA3D3E9002306460F462046294617F0E9
:101D80009BFB02460B463046394617F0DFF907B099
:101D9000BDE8F08F2046294615F00EFB02460B46A3
:101DA0000020894917F0D0F90022884B17F084FBF6
:101DB0006DA3D3E9002304460D4617F07DFB6CA309
:101DC000D3E9002317F0C2F922462B4617F074FB23
:101DD00069A3D3E9002317F0B7F922462B4617F081
:101DE0006BFB67A3D3E9002317F0B0F922462B461B
:101DF00017F062FB64A3D3E9002317F0A5F922468C
:101E00002B4617F059FB62A3D3E9002317F09EF984
:101E100022462B4617F050FB5FA3D3E90023CDE900
:101E200000012046294617F047FB5DA3D3E90023B4
:101E300017F08AF922462B4617F03EFB5AA3D3E946
:101E4000002317F083F922462B4617F035FB58A3E1
:101E5000D3E9002317F078F922462B4617F02CFB24
:101E6000594B002217F072F982468B4620462946CC
:101E7000CDE902AB16F03CF9554B9F4280468946AE
:101E800000F3198102460B4617F060F9DDE90223E1
:101E9000CDE90401DDE9000117F038FC02460B46EC
:101EA000DDE9040117F008FB4FF0000ACDE900015D
:101EB00052464B465046494617F0FEFA02460B463C
:101EC0002046294617F040F9524604460D464B4637
:101ED0004046494617F03AF902460B462046294645
:101EE00017F014FC02460B4617F030F902460B4679
:101EF0001BA1D1E9000117F027F902460B46DDE9E5
:101F0000000117F021F9524604460D464B46504653
:101F1000494617F01BF902460B4627A1D1E90001FB
:101F200017F012F902460B462046294617F00CF925
:101F300002460B4620A1D1E9000117F005F9002E59
:101F40003FF7F7AE01F100431946F2E6AFF3008028
:101F50009C7500883CE4377E182D4454FB21F93FE2
:101F6000075C143326A6913C09F7FD0DE13D023FC5
:101F700088B20175E0EF493F3B8F68B52882A43FE6
:101F80005544880E55C1C93F7D6FEB0312D6D43F2F
:101F9000555555555555C53F82922EB1C5B8B33FDD
:101FA00059018D1B6C06E63FC88A599CE52A004002
:101FB0004B2D8A1C273A0340182D4454FB21E93F3E
:101FC000FFFFEF3FFFFFDF3F0000F03F0000E03F7B
:101FD0003233EF3F02460B4617F06EFA4BA3D3E9BC
:101FE000002306460F4617F067FA4AA3D3E90023F9
:101FF00017F0ACF832463B4617F05EFA47A3D3E938
:10200000002317F0A1F832463B4617F055FA45A3D6
:10201000D3E9002317F09AF832463B4617F04CFA02
:1020200042A3D3E9002317F08FF832463B4617F05E
:1020300043FA40A3D3E9002317F088F832463B4621
:1020400017F03AFA3DA3D3E900238046894630468B
:10205000394617F031FA3BA3D3E9002317F074F89F
:1020600032463B4617F028FA38A3D3E9002317F08D
:102070006DF832463B4617F01FFA36A3D3E900232A
:1020800017F062F832463B4617F016FA00221E4B54
:1020900017F05CF802460B464046494617F036FBFF
:1020A00022462B4617F008FA22462B4617F04EF828
:1020B00007B0BDE8F08F52465B46DDE9000117F03E
:1020C00025FB42464B4617F0F7F942464B4617F0C0
:1020D0003DF802460B4617F039F807A3D3E9002371
:1020E00017F032F802460B4605A1D1E9000117F0BE
:1020F0002BF824E7AFF30080075C143326A6913C4D
:10210000182D4454FB21F93F0000F03F09F7FD0D65
:10211000E13D023F88B20175E0EF493F3B8F68B572
:102120002882A43F5544880E55C1C93F7D6FEB03FB
:1021300012D6D43F555555555555C53F82922EB1AF
:10214000C5B8B33F59018D1B6C06E63FC88A599C40
:10215000E52A00404B2D8A1C273A0340000000006E
:102160002DE9F84F1D465342134325F00049DFF88F
:10217000C8C149EAD3736345144606460F4626D8BC
:10218000C0F1000848EA000821F0004A4AEAD8787D
:10219000E04503468B461AD805F1404808F58018FB
:1021A00058EA0208AE4643D04FEAA57808F0020884
:1021B0005AEA030348EAD17811D1B8F1020F55D099
:1021C000B8F1030F09D14AA1D1E9000105E0324677
:1021D0003B462046294616F0B9FFBDE8F88F59EA7C
:1021E000020329D0E1452ED0E24525D0AAEB09090A
:1021F0004FEA2959B9F13C0F3CDC002D3EDA19F1C8
:102200003C0F3BDA00200021B8F1010F4ED0B8F1AD
:10221000020F3ED0B8F1000FDFD037A3D3E900237F
:1022200016F092FF36A3D3E9002316F08DFFD4E712
:10223000BDE8F84FFEF744BBBBF1000F12DB32A143
:10224000D1E90001C9E7CA4534D0B8F1020F0DD079
:10225000B8F1030FB7D0B8F1010F4FF0000036D03E
:102260000021BAE72AA1D1E90001B6E724A1D1E90A
:102270000001B2E724A1D1E90001C5E722462B46BF
:102280003046394617F042FA15F096F8FEF718FB7B
:10229000BAE719A3D3E9002316F056FF02460B460E
:1022A00017A1D1E9000116F04FFF96E701F10043B5
:1022B000194692E7B8F1020F14D0B8F1030F0DD010
:1022C000B8F1010F06D014A1D1E9000185E74FF064
:1022D000004182E712A1D1E900017EE712A1D1E914
:1022E00000017AE712A1D1E9000176E7AFF300809F
:1022F000182D4454FB2109C0075C143326A6A13CC9
:10230000182D4454FB210940182D4454FB21F93F5A
:10231000182D4454FB21F9BF182D4454FB21E93FEB
:10232000182D4454FB21E9BFD221337F7CD902C050
:10233000D221337F7CD902400000F07F00000000F2
:1023400043422DE9F047034321F000463C4A46EA68
:10235000D373934204460D462AD8964240D0394B57
:102360009E428A462EDD384B9E4235463FDD33463F
:102370000246314616F0EAFE224606460F462B4636
:1023800000202F4916F0E0FE02460B463046394643
:1023900017F0BCF9FEF728FD00222C4B17F08CF843
:1023A000BAF1000F0CDA01F100431946BDE8F087DD
:1023B00002460B4616F0C8FE02460B4617F0A6F979
:1023C000BDE8F0871CA3D3E9002316F0BFFE00226E
:1023D000002317F001FB48B120462946BDE8F087ED
:1023E0000022002317F092F9BDE8F0873546224617
:1023F0002B462046294616F0A9FE22462B460646C5
:102400000F4617F059F82246804689462B46002091
:102410000B4916F099FE02460B464046494617F016
:1024200075F932463B4616F091FEFEF7DDFC0022C0
:10243000064B17F041F8B3E79C7500883CE4377E03
:102440000000F03FFFFF2F3EFFFFDF3F0000E03FB7
:102450002DE9F8434E4B21F000449C4206460F46BE
:102460001BDC4C4B9C4222DD4B4B9C4254DD4B4BC6
:102470009C4246DD4A4B9C426FDD01339C4269D051
:1024800041A3D3E900231046194617F015F8064674
:102490000F4630463946BDE8F88302460B4617F032
:1024A0000BF806460F4630463946BDE8F88314F06F
:1024B00083FF02F04DFC00223A4B8046894616F01D
:1024C00045FEB4F1725F06460F46ECDB42464B46D2
:1024D0004046494616F0F0FF32463B4604460D465C
:1024E0003046394616F032FE02460B462046294653
:1024F00017F00CF900222B4B16F028FE06460F466B
:10250000D1E714F059FF00F053F80022264B16F0E3
:10251000D3FF06460F46C6E714F04EFF00F048F81A
:102520000022214B06460F4616F0C6FF32460446EF
:102530000D463B4600201C4917F0E8F802460B46C2
:102540002046294616F002FE06460F46304639461A
:10255000BDE8F883154B984292D83046394614F0BE
:102560002BFF0022104B16F0A7FF00F021F80022ED
:1025700004460D460C4B16F09FFF22462B4616F0E4
:102580009BFF06460F468EE79C7500883CE4377E2D
:10259000FFFFEF7F422ED63FFFFF3540412E8640A2
:1025A000CD3386400000F03F0000E03F7DF8B98F5A
:1025B0002DE9F047B04F21F00042BA4284B0044602
:1025C0000D464FEAD17610D9AC4FBA4240F28A801C
:1025D000C1F313030343024640F0F180002E7ED086
:1025E0000020002104B0BDE8F087A54B9A4200F21C
:1025F000B680A44B9A4240F2D1804FF0000A2246A6
:102600002B462046294616F057FF85A3D3E9002321
:1026100006460F4616F050FF83A3D3E9002316F0B9
:1026200093FD32463B4616F047FF81A3D3E90023D2
:1026300016F08CFD32463B4616F03EFF7EA3D3E9F2
:10264000002316F081FD32463B4616F035FF7CA391
:10265000D3E9002316F07AFD32463B4616F02CFFF4
:1026600002460B462046294616F06EFD02460B46F2
:1026700006460F462046294616F01EFF804689462C
:10268000BAF1000F00F0AB8032463B4600204FF01D
:10269000804116F059FD02460B464046494617F068
:1026A00035F802460B46DDE9020116F04DFDDDE985
:1026B000002316F049FD0B4602467349002016F030
:1026C00043FD6FF47F739A4580F2A3800AF57A7A0E
:1026D00001EB0A5100224FF0B87316F0EDFE04B082
:1026E000BDE8F08758A3D3E9002317F075F9002857
:1026F0006BD157A3D3E900232046294617F04EF9A2
:1027000000287FF46DAF614953A3D3E9002301EBA7
:10271000C6062046294616F0CFFED6E9002316F05D
:1027200015FD17F079F9824616F05CFE4CA3D3E94B
:10273000002306460F4616F0BFFE02460B46204613
:10274000294616F001FD48A3D3E90023CDE9000195
:102750003046394616F0B0FECDE9020115E04C4B8B
:102760009A42D0D84B4BF4002344D3E9002316F00F
:10277000EBFC494B234493ED007BCDE900018DED4B
:10278000027BC6F1010AAAEB060ADDE90223DDE9B4
:10279000000116F0D9FC04460D4630E734A3D3E916
:1027A000002316F0D3FC0022374B17F015F9A8B31D
:1027B000204629460022344B16F0C8FC8FE70B4612
:1027C00016F0C4FC04B0BDE8F08729A3D3E90023C8
:1027D0001046194616F070FE04B0BDE8F08730468A
:1027E000394600224FF0804316F0AEFC02460B46FD
:1027F0004046494616F08AFF22462B4616F0A4FCB6
:1028000002460B460020204916F09EFC04B0BDE8AD
:10281000F08701EB0A5104B0BDE8F0878246EEE68E
:10282000D0A4BE726937663EF16BD2C541BDBB3ED6
:102830002CDE25AF6A56113F93BDBE166CC1663FB4
:102840003E5555555555C53FEF39FAFE422E864047
:1028500051302DD5104987C0FE822B654715F73FB3
:102860000000E0FE422EE63F763C7935EF39EA3D46
:102870009C7500883CE4377E412E8640FFFFEF7F49
:10288000422ED63FFFFF2F3E0000F03FA0A70100E1
:10289000B1A2F03FB0A70100C0A7010000000000F6
:1028A0002DE9F04FB1F5801F85B006460F460B4667
:1028B00080F2D08021F00042024300F0DA8000294B
:1028C000C0F2E9800022D64B16F0F6FDD54A0B4641
:1028D000934206460F466FF0350E00F3C180C3F3F6
:1028E000130505F5152C0CF6647C0CF4801C8CF09B
:1028F0007F5282F440121C1542EA0507A4F2FF340D
:1029000074440022C84B3046394604EB1C5416F080
:102910001BFCAB1CC3F31303022B82468B464FF008
:10292000000240F3AF804FF0804316F00FFC0246E8
:102930000B465046594616F0E9FE064620460F461D
:1029400016F050FD3246CDE902013B46304639468D
:10295000CDE9006716F0B0FD02460B468046894679
:1029600016F0AAFD9AA3D3E9002306460F4616F0F7
:10297000A3FD99A3D3E9002316F0E8FB32463B46BA
:1029800016F09AFD96A3D3E9002316F0DFFB32463A
:102990003B4616F091FD94A3D3E9002316F0D6FB35
:1029A00042464B4616F088FD91A3D3E900238046AA
:1029B00089463046394616F07FFD8FA3D3E90023C0
:1029C00016F0C4FB32463B4616F076FD8CA3D3E9E5
:1029D000002316F0BBFB32463B4616F06DFD0B465E
:1029E00002464946404616F0B1FBA5F5C223C5F59F
:1029F000D725A3F27A4351351D43002D06460F46D5
:102A000040F387800022894B5046594616F054FD0A
:102A100052465B4616F050FD02460B4680468946FC
:102A20003046394616F092FBDDE9002316F044FDEE
:102A300006460F46002C40F0818002460B46404679
:102A4000494616F081FB02460B465046594616F0A1
:102A50007BFB0BE0734A93424FF0000E7FF73FAFD2
:102A600032463B463046394616F070FB05B0BDE8AD
:102A7000F08F0022002300206D4916F047FE05B0BC
:102A8000BDE8F08F002316F07FFF60B1002C7CD1F1
:102A900000200021EAE7024616F056FB0022002340
:102AA00016F034FEE2E758A3D3E900235046594616
:102AB00016F002FD02460B4600205C4916F044FB6E
:102AC000524606460F465B465046594616F0F4FC01
:102AD00002460B463046394616F0EEFC06460F46D7
:102AE0002CB3204616F07EFC49A3D3E90023804690
:102AF000894616F0E1FC48A3D3E9002304460D46BD
:102B00004046494616F0D8FC02460B463046394648
:102B10002CE002460B465046594616F015FBDDE9FF
:102B2000002316F0C9FC06460F46002C47D132465A
:102B30003B465046594616F007FB97E734A3D3E9C6
:102B40000023DDE9020116F0B7FC33A3D3E900232B
:102B500004460D46DDE9020116F0AEFC32463B4666
:102B600016F0F4FA02460B464046494616F0ECFAD7
:102B700052465B4616F0E8FA02460B4620462946C6
:102B800016F0E2FA05B0BDE8F08F204616F02AFCF8
:102B90001FA3D3E9002306460F4616F08DFC1EA3A3
:102BA000D3E9002304460D463046394616F084FC2E
:102BB00002460B462046294616F0C8FA56E7DDE9DC
:102BC000028913A3D3E900234046494691E700BF99
:102BD00044523EDF12F1C23FDE03CB966446C73F4C
:102BE000599322942449D23F935555555555E53F65
:102BF0009FC678D0099AC33FAF788E1DC571CC3F70
:102C000004FA97999999D93F555555555555D53F3A
:102C10000000E0FE422EE63F763C7935EF39EA3D92
:102C200000005043FFFFEF7F0000F03F0000E03F57
:102C3000000050C300000000B1F5801F2DE9F843EB
:102C400004460D460B4619DA21F00042024359D0E2
:102C500000295FDB00223A4B16F02EFC394A0D4664
:102C60002B46934204466FF035010CDD22462B467D
:102C70002046294616F06AFABDE8F883314A9342A5
:102C80004FF00001F2DC1815A0F2FF3008444FEAC3
:102C9000D0794844C3F3130816F0A4FBC9F57F7339
:102CA000033348EA035506460F4620462946FFF7F8
:102CB000F7FD1DA3D3E900238046894630463946F7
:102CC00016F0FAFB1AA3D3E9002304460D4640464A
:102CD000494616F0F1FB02460B462046294616F0FF
:102CE00035FA15A3D3E9002304460D46304639468C
:102CF00016F0E2FB02460B462046294616F026FA5D
:102D0000BDE8F8830022002300200F4916F0FEFCE6
:102D1000BDE8F883024616F017FA0022002316F0E9
:102D2000F5FCA9E7AFF30080362BF111F3FE593D16
:102D30000EE526157BCBDB3F00609F501344D33F4D
:102D400000005043FFFFEF7F000050C30000000071
:102D50002DE9F04F23F0004555EA020493B00DD061
:102D60006B4E21F00044B4420F4682460BDD04F165
:102D7000404404F5801454EA0A0350D16549002008
:102D800013B0BDE8F08F9B46944647D0B542EEDCC9
:102D90005F4EB5425DD0002F80468946CDE90023C5
:102DA0005BDB0026BCF1000F0ED1594B9D423FD09A
:102DB000584B9D4200F08880BBF1804F00F09C8012
:102DC000554B9B4500F0B8834046494614F0F4FA51
:102DD000BAF1000F06D1002C59D04E4B27F04042DB
:102DE0009A4254D0FF0F013F56EA070373D04B4B72
:102DF0009D4240F39B8003F104739D4240F33E8467
:102E0000474B9C4272DDBBF1000F72DD3EA3D3E95C
:102E100000231046194616F04FFBB1E728B1414890
:102E200013B0BDE8F04F15F09BBFA542F7DCAFE74C
:102E300004F1404303F5801353EA0A039ED0384B54
:102E40009C4240F38383BBF1000F52DBDDE90001BC
:102E500096E7BCF1000F9ED089E7334B9D4231DCF1
:102E6000A3F154739D429CDD2B15A3F2FF33142B69
:102E700040F3A583C3F134032CFA03F202FA03F3FF
:102E800063458ED102F00102C2F102068AE7BBF16E
:102E9000000F05DA02460B4600201E4916F036FCEC
:102EA000002FBFF66DAF04F1404404F5801454EADE
:102EB000060300F03F84012E7FF462AF01F100436E
:102EC00019465DE702266DE7BBF1000FC0F24883AB
:102ED0004046494654E742464B461046194616F0CE
:102EE00033F902460B4616F011FC49E7BBF1000F1F
:102EF0008CDB0020002143E742464B4640464946D2
:102F000016F0DAFA3CE700BF9C7500883CE4377E97
:102F10000000F07F0000F03F0000E03F0000E041D3
:102F2000FFFFEF3FECAF0100FFFF3F43B4F5801F11
:102F300080F261830022D24B16F0BEFA6FF0340C9F
:102F40000C462315CF4DC4F31302A3F2FF3342F016
:102F50007F546344AA420B9344F4401440F33F83EC
:102F6000C94B9A4240F304849FEDAF7B8DED087B03
:102F70008DED107B9FEDAE7B0B9B8DED067B0133C2
:102F80000B93A4F580140025DDE906232146824633
:102F900016F0DAF8A346DDE9062380468946504656
:102FA0002146CDE90CAB16F0D1F802460B460020C5
:102FB000B64916F0ABFB0A460146CDE90E121346A0
:102FC00049460246404616F077FA631043F0005334
:102FD00082468B4603F500238C46CDE904AB591994
:102FE000D3460023CDE902BC0293DDE902AB002009
:102FF00004460D4602460B465046594616F05CFA0A
:1030000002460B464046494616F09EF8DDE9062387
:10301000804689462046294616F096F802460B4619
:10302000DDE90C0116F090F852465B4616F044FAC2
:1030300002460B464046494616F086F8DDE90E2367
:1030400016F03AFADDE90445CDE9060122462B46A1
:103050002046294616F030FA77A3D3E90023044628
:103060000D4616F029FA76A3D3E9002316F06EF880
:1030700022462B4616F020FA73A3D3E9002316F05C
:1030800065F822462B4616F017FA71A3D3E9002300
:1030900016F05CF822462B4616F00EFA6EA3D3E922
:1030A000002316F053F822462B4616F005FA6CA3BF
:1030B000D3E9002316F04AF82246804689462B467B
:1030C0002046294616F0F8F902460B464046494686
:1030D00016F0F2F9524604460D465B46DDE904015E
:1030E00016F034F8DDE9062316F0E6F922462B4601
:1030F00016F02CF85246804689465B4650465946A3
:1031000016F0DAF90022624BCDE90C0116F01EF838
:1031100042464B4616F01AF802980D4604462246DF
:103120002B465046594616F0C7F9002282468B4678
:10313000574B2046294616F007F8DDE90C2316F018
:1031400003F802460B464046494615F0FDFFDDE90F
:10315000042316F0B1F92246804689462B46DDE964
:10316000060116F0A9F902460B464046494615F0FD
:10317000EDFF8046894602460B465046594615F0FB
:10318000E5FF029838A3D3E9002304460D4616F064
:1031900093F95246CDE904015B462046294615F0D5
:1031A000D3FF02460B464046494615F0CDFF30A3FB
:1031B000D3E9002316F080F92FA3D3E9002380463A
:1031C00089462046294616F077F902460B464046C6
:1031D000494615F0BBFFDDE9102315F0B7FF804627
:1031E0000B98894616F0FEF8424682468B464B46BF
:1031F000DDE9040115F0AAFFDDE9082315F0A6FFBB
:1032000052465B4615F0A2FF029852465B460446C2
:103210000D4615F099FFDDE9082315F095FFDDE96E
:10322000042337E0AFF3008000000000000000003E
:10323000000000000000F03FEF4E454A287ECA3FE4
:1032400065DBC9934A86CD3F01411DA96074D13F1A
:103250004D268F515555D53FFFAB6FDBB66DDB3F2C
:10326000033333333333E33F000000E009C7EE3F5D
:10327000FD033ADC09C7EE3FF5015B14E02F3EBECB
:10328000000040438E98030079B60B000000F03F29
:103290000000084015F058FF0B46024649464046DC
:1032A00015F052FF013E56EA070382468B4600F0B6
:1032B0005E819FEDD37B8DED047BDDE90012002361
:1032C0000E461746CDE902670293DDE9026708461C
:1032D0003B461146324615F037FF22462B4616F084
:1032E000EBF8DDE90023804689465046594616F042
:1032F000E3F802460B464046494615F027FF3246A2
:10330000804689463B4620462946CDE9008916F08D
:10331000D3F80B46024606460F464046494615F08E
:1033200015FFD14B994204460D468A4640F324814D
:1033300001F13F4303F5E003034340F0FF81B2A3F3
:10334000D3E90023DDE9000115F000FF3246804695
:1033500089463B462046294615F0F6FE02460B46B6
:103360004046494616F038FB002840F0E781A84661
:103370004FEA2853A3F2FE324FF480131341534413
:10338000C3F30A52B94DA2F2FF321541C3F313043D
:1033900023EA05010020C2F1140B44F48014BAF1B1
:1033A000000F02460B4644FA0BFB30463946B8BFC5
:1033B000CBF1000B15F0C8FE06460F463246DDE99C
:1033C00000013B4615F0C2FE4FEA0B5A0D460024A1
:1033D0008FA3D3E900232046294616F06DF8324624
:1033E000804689463B462046294615F0ADFE0246FA
:1033F0000B46DDE9000115F0A7FE87A3D3E9002302
:1034000016F05AF886A3D3E9002306460F46204655
:10341000294616F051F802460B463046394615F05B
:1034200095FE06460F4602460B464046494615F0B5
:103430008DFE42464B4604460D4615F085FE02467B
:103440000B463046394615F07FFE224680468946B7
:103450002B462046294616F02FF873A3D3E9002304
:1034600006460F4616F028F871A3D3E9002315F09D
:103470006BFE32463B4616F01FF86FA3D3E90023DC
:1034800015F064FE32463B4616F016F86CA3D3E9FD
:10349000002315F059FE32463B4616F00DF86AA39C
:1034A000D3E9002315F052FE32463B4616F004F8ED
:1034B00002460B462046294615F046FE06460F46B4
:1034C00002460B462046294615F0F6FF0022CDE9BC
:1034D00000014FF080433046394615F035FE024674
:1034E0000B46DDE9000116F011F9424606460F468B
:1034F0004B462046294615F0DFFF42464B4615F065
:1035000025FE02460B463046394615F01DFE224682
:103510002B4615F019FE02460B460020544915F0C3
:1035200013FE8A44BAF5801FC0F232815146DDE9AC
:10353000042315F0C1FF23E4002FFFF645AC4046FD
:10354000494613B0BDE8F04F14F0D2BDBBF1000FF7
:10355000BFF6CFACDDE90034184604F100410FE4BA
:1035600042464B460020424916F0D0F808E49FED51
:10357000387B8DED047BA0E63E4B21F0004898455A
:1035800040F3EA803C4B0B4403430AD132463B46AE
:1035900015F0DAFDDDE9002316F014FA00283FF4F7
:1035A000E7AEDDE904012CA3D3E9002315F084FF85
:1035B00029A3D3E9002315F07FFFFFF7E1BBBCF19E
:1035C000000F40F0D280C3F1140345FA03F202FA6F
:1035D00003F3AB4200F0E0806646FFF7E9BB9FEDE6
:1035E000207B8DED087B8DED107B9FED057B00250D
:1035F0008DED067BC8E44FF0000CA2E4AFF3008031
:10360000000000000000F03FFE822B654715973C4C
:1036100000000000432EE63FEF39FAFE422EE63F5F
:10362000396CA80C615C20BED0A4BE726937663EBE
:10363000F16BD2C541BDBB3E2CDE25AF6A56113FB2
:1036400093BDBE166CC1663F3E5555555555C53F99
:10365000000000000000F0BF59F3F8C21F6EA50182
:103660000000000000000000FFFF8F40FFFF0F0080
:103670000000F03FFFCB904000346F3F5A4B9C421C
:103680007FF734AC594B9C423FF7BDAB0022574B00
:1036900015F05AFD44A3D3E9002304460D4615F066
:1036A0000BFF43A3D3E9002382468B4620462946DD
:1036B00015F002FF0022CDE902014D4B20462946BC
:1036C00015F0FAFE02460B463BA1D1E9000115F0C8
:1036D0003BFD22462B4615F0EFFE02460B4600202E
:1036E000444915F031FD2246804689462B46204646
:1036F000294615F0E1FE02460B464046494615F0C4
:10370000DBFE2FA3D3E9002315F0D6FE02460B46BD
:10371000DDE9020115F018FD02460B468046894698
:103720005046594615F012FD002004460D465246FB
:103730005B46AFE502460B46FFF7CFBBDDE9040170
:1037400021A3D3E9002315F0B7FE1FA3D3E900237B
:1037500015F0B2FEFFF714BB264B98453FF708AEB5
:10376000DDE902239246934631E60026FFF72CBBA3
:103770009FED177B8DED087B9FED177B8DED107B0B
:103780009FED177B4FF480258DED067BFFF7FCBB8B
:103790005A4601F029FDCAE602F00102C2F1020612
:1037A000FFF706BBAFF30080000000604715F73F4E
:1037B00044DF5DF80BAE543E555555555555D53F34
:1037C000FE822B654715F73F9C7500883CE4377EE9
:1037D0000000004003B8E23F06D0CF43EBFD4C3E73
:1037E000000000000000F83FFEFFEF3F0000F03F48
:1037F0000000D03F0000E03F2DE9F047CA4B21F028
:1038000000479F4290B08046894640F38F80C74B67
:103810009F420C46924626DC0029B9A3D3E9002337
:1038200040F38F8015F090FCC14B9F4204460D463B
:1038300000F04781B4A3D3E9002315F085FC0246CC
:103840000B46CAE900232046294615F07DFCAEA3AD
:10385000D3E9002315F078FC0125CAE902012846C6
:1038600010B0BDE8F087B34B9F4240F38980B24B64
:103870009F4200F31C813D15A5F21645A7EB0553A9
:1038800019461F46064616F0C7F815F0ABFD8046F0
:10389000894642464B4630463946CDE90A8915F0FD
:1038A00053FC0022A54B15F007FE8946804616F012
:1038B000B3F815F097FD06460F4632463B464046A4
:1038C0004946CDE90C6715F03FFC00229B4B15F0F3
:1038D000F3FD00220023CDE90E0116F055F8002873
:1038E00000F06081002330463946002216F04CF883
:1038F000002814BF01230223914A019202212A4683
:1039000000910AA8514600F087FB002C054614DA06
:10391000DAF80420DAF80C3002F1004203F1004337
:103920004542CAF80420CAF80C3006E00020002105
:10393000C2E90089C2E902010025284610B0BDE8AD
:10394000F08715F003FC7A4B9F4204460D4600F0C9
:103950000B816DA3D3E9002315F0F8FB02460B465B
:10396000CAE900232946204615F0EEFB66A3D3E9F9
:10397000002315F0EBFB4FF0FF35CAE90201DCE74D
:1039800013F01AFD62A3D3E900238046894615F09F
:1039900093FD00226B4B15F0D9FB16F03DF8054660
:1039A00015F020FD56A3D3E90023CDE9060115F05B
:1039B00083FD02460B464046494615F0C5FB52A31F
:1039C000D3E9002380468946DDE90601CDE9028975
:1039D00015F072FD1F2D02460B46CDE9042340F37E
:1039E000B380DDE90423DDE9020115F0ADFB80467B
:1039F00089463F15C9F30A53FB1A102B40F3B180D7
:103A000045A3D3E90023DDE9060115F055FD804605
:103A1000894602460B46DDE9020115F095FB024698
:103A20000B46DDE90201CDE9082315F08DFB424686
:103A30004B4615F089FB3AA3D3E90023804689461B
:103A4000DDE9060115F038FD42464B4615F07CFBDA
:103A50000B46CDE904010246DDE9080115F074FBCF
:103A6000C1F30A53FF1A312F8046894600F39C8028
:103A70009DED087BCAE900898DED027B42464B46ED
:103A8000DDE9020115F060FBDDE9042315F05CFBC4
:103A9000002CCAE90201BFF650AF09F1004401F160
:103AA00000436D42CAE90084CAE9020345E70246C1
:103AB0000B4615F049FB0025CAE90201CAE90001DD
:103AC0003BE715A3D3E9002315F03EFB14A3D3E98C
:103AD00000230D46044615F037FB02460B46CAE9A3
:103AE00000232946204615F02FFB0DA3D3E9002320
:103AF00015F02AFB0125CAE902011EE7AFF3008099
:103B000000004054FB21F93F3163621A61B4D03D9B
:103B100083C8C96D305FE43F0000601A61B4D03DD6
:103B20007370032E8A19A33BFB21E93F7BD9024026
:103B3000FB21F93FFB213941FFFFEF7F000070417E
:103B400020BB01000000E03F4046494615F0FCFA6A
:103B5000394B6A1E804653F82230BB4289463FF4F7
:103B600048AFCAE9008989E72BA3D3E9002315F000
:103B7000EDFA2BA3D3E900230D46044615F0E6FA2F
:103B800002460B46CAE900232946204615F0DCFA16
:103B900023A3D3E9002315F0D9FA4FF0FF35CAE982
:103BA0000201CAE60323A7E61FA3D3E90023DDE948
:103BB000060115F081FC06460F4602460B46DDE97C
:103BC000080115F0C1FA8046894602460B46DDE938
:103BD0000801CDE9028915F0B7FA32463B4615F0E7
:103BE000B3FA13A3D3E9002306460F46DDE9060125
:103BF00015F062FC32463B4615F0A6FA02460B462B
:103C000040464946CDE9042315F09EFA8046894690
:103C1000A7E700BFAFF300800000601A61B4D03D99
:103C20007370032E8A19A33B0000002E8A19A33B50
:103C3000C14920259A837B39A0BA01000000000009
:103C4000574A2DE9F84F21F00048904506460F46A7
:103C50002CDC544B0029B4BF534D544D98454FF0C4
:103C6000000411DC524B984526DC4BA3D3E900231A
:103C700015F06CFA00224F4B15F0AEFE002840D034
:103C800030463946BDE8F88F4B4B984530DD4B4BFD
:103C9000984568DD0133984562D0304639463EA3E9
:103CA000D3E9002315F008FCBDE8F88F02460B4667
:103CB00015F04CFABDE8F88F13F07EFB01F048F8E0
:103CC0003F4B984506460F4623DD0022394B15F041
:103CD0003DFA02460B463046394615F017FD32468E
:103CE0003B4615F033FA22462B4615F0E5FBE1E79B
:103CF00013F062FBFEF75CFC22462B4615F0DCFB62
:103D0000D8E73046394613F057FB01F021F8064654
:103D10000F4632463B463046394615F017FA3246D2
:103D200082468B463B463046394615F0C5FB00229D
:103D3000804689461F4B3046394615F007FA024641
:103D40000B464046494615F0E1FC02460B465046FC
:103D5000594615F0F9F922462B4615F0ADFBA9E7B7
:103D6000184B984299D83046394613F025FB00226B
:103D70000E4B15F0A1FBFEF71BFC06460F46024654
:103D80000B462046294615F097FB32463B4615F078
:103D900093FB8FE7AFF300803374AC3C1F7BAC7FA9
:103DA000FFFFEF7FFFFF35400000E0BF0000E03F76
:103DB000FFFF2F3E0000F03F412E8640CD3386406E
:103DC000FFFFEF3F7DF8B98F2DE9F04F21F000485C
:103DD000B8F1795F85B006460F4692469B466BDA8E
:103DE00015F01AFE002800F0E18032463B463046CE
:103DF000394615F061FB74A3D3E9002304460D4650
:103E000015F05AFB72A3D3E9002315F09FF922465F
:103E10002B4615F051FB70A3D3E9002315F094F95C
:103E200022462B4615F048FB6DA3D3E9002315F07D
:103E30008DF922462B4615F03FFB6BA3D3E90023F7
:103E400015F082F922462B4615F036FB68A3D3E91C
:103E5000002315F07BF922462B4615F02DFBCDE90A
:103E600000010022664B2046294615F025FBDDE9BE
:103E70000023804689462046294615F01DFB524600
:103E800004460D465B463046394615F015FB0246A2
:103E90000B462046294615F057F902460B46404688
:103EA000494615F051F902460B460020554915F0D8
:103EB0004BF905B0BDE8F08F02460B4615F0FCFA51
:103EC00041A3D3E9002304460D4615F0F5FA40A3BB
:103ED000D3E9002315F03AF922462B4615F0ECFA07
:103EE0003DA3D3E9002315F02FF922462B4615F008
:103EF000E3FA3BA3D3E9002315F028F922462B4629
:103F000015F0DAFA38A3D3E9002315F01DF922469B
:103F10002B4615F0D1FA36A3D3E9002315F016F994
:103F20002B46224615F0C8FA374B9845CDE90001DB
:103F300097DD364B98453EDCA8F5001300220020A3
:103F400030499046994615F0FFF8CDE9020100226C
:103F50002B4B2046294615F0AFFA42464B4615F04A
:103F6000F3F8DDE90023804689462046294615F00E
:103F7000A3FA524604460D465B463046394615F0D4
:103F80009BFA02460B462046294615F0DDF802460C
:103F90000B464046494615F0D7F802460B46DDE988
:103FA000020115F0D1F805B0BDE8F08F15490020E9
:103FB00005B0BDE8F08F9FED107B4FF000088DED50
:103FC000027BDFF84C90C2E7D43888BEE9FAA8BD7E
:103FD000C4B1B4BD9EEE213EAD529C804F7E923E58
:103FE0009015CB19A001FA3E7751C1166CC1563F0E
:103FF0004C5555555555A53F000000000000E73FC2
:104000000000E03F0000F03F3233D33F0000E93FC3
:104010000000D23F000000002DE9F04FADF5197D02
:10402000BE4CA29EBE4D54F826600793D41E85FB5D
:104030000475E417C4EBA50424EAE4741D46631C6C
:10404000A3EB8303013D02EBC303059373190496AD
:104050000994019503900B91A4EB05071AD43B44F6
:10406000002400255E1C0DF18008DDF88C9208E02C
:1040700059F8270015F0B6F90137B742E8E8020110
:1040800008D0002FF4DA013720462946B742E8E885
:104090000201F6D1049B002B079B4FEAC303029356
:1040A0002ADB039A20A902EB030801EB0309049B16
:1040B00072AA02EBC30B0DF5E07A019B002B4FF0C7
:1040C00000064FF0000711DB039C4D4675E9022303
:1040D000F4E8020115F0F0F902460B463046394685
:1040E00015F034F8444506460F46EFD1EAE802677A
:1040F000DA4509F10809E0D1DDE902040499204418
:104100008B0082460BA8A3F10802C31808930CABDE
:1041100013440A938B4698AB03EBCB03BBF1000F20
:1041200053E9284529DD70AB03EBCB080DF13009CD
:1041300000227C4B2046294615F0BEF915F06CFC98
:1041400015F050F90022784B06460F4615F0B4F9E9
:1041500002460B462046294614F0F6FF15F05CFC9B
:1041600078E9022349F8040B3946304614F0EEFF93
:1041700070AB984504460D46DAD1DDF81490204620
:1041800029464A4601F030F800224FF07F5304469A
:104190000D4615F091F9FCF7A7FD0022634B15F0D1
:1041A0008BF902460B462046294614F0CDFF0D46FA
:1041B000044615F031FC804615F014F90B46024612
:1041C0002946204614F0C0FF4B46002B06460F46FA
:1041D00040F3E1800BF1FF320CA9C9F1180351F84B
:1041E000225045FA03F101FA03F30CA8EB1A40F848
:1041F0002230C9F11705884443FA05F5002D2CDD5E
:10420000BBF1000F08F1010840F381820C9C002CE7
:1042100040F0A780BBF1010F0AD00CA9012251F890
:10422000044F531C002C40F09E809B451A46F6D14B
:10423000059B002B0EDD012B00F0D980022B09D14C
:104240000BF1FF320CAB0CA953F82230C3F315036A
:1042500041F82230022D00F0AF80002200233046CA
:10426000394615F091FB002800F05382049B0BF1B6
:10427000FF394B4510DC0BF180430CAA013B089839
:1042800002EB8303002253F80419834242EA01023D
:10429000F9D1002A40F0B680049B0CAA013B52F8E9
:1042A0002330002B40F0A1800A9A012352F8041910
:1042B00001330029FAD05B440BF1010999450693BB
:1042C0004CDC099A079909EB020801EB0B0508F190
:1042D000804802EB030BA39B08F1FF3803EB88082F
:1042E00070AB03EBC909A39B20A903EB8B0301EB84
:1042F000C505029358F8040F15F074F80B460199A0
:104300000246002905F1080BC5E900234FF000061D
:104310004FF000071CDB039C0CE000BFC0BF010096
:10432000ABAAAA2A0000703E0000704100002040A5
:1043300075E90223F4E8020115F0BEF802460B46C7
:104340003046394614F002FF544506460F46EFD179
:10435000029B9845E9E802675D46CBD1DDF818B0CD
:10436000D9E6012300220CA9C4F180749B4541F8D1
:1043700022400EDD51F8232001EB8B0001EB83037B
:104380006FF07F4100E01A688A1A43F8042B8342D9
:10439000F9D101244CE706D10BF1FF330CAA52F8F6
:1043A0002350ED152AE700227B4B15F00BFB00286C
:1043B00040F0A381054650E732463B46002077494E
:1043C00014F0C2FE06460F46002C3FF446AF059A95
:1043D0007249002000F008FF02460B46304639467D
:1043E00014F0B2FE06460F4637E7012363E70BF1F0
:1043F000FF320CAB0CA953F82230C3F3160341F87B
:10440000223027E70CAB059A53F82930183ACDE94A
:10441000068505926BB909F18043013B0CA901EBBC
:10442000830353F8041909F1FF39183A0029F8D029
:104430000592059A5949002000F0D6FEB9F1000F07
:1044400004460D46C0F2C0814FEAC90370AA02EBD0
:10445000030808930CAB03EB8906DFF844B14FF077
:10446000000A08F10807043656F8040D14F0BAFFE4
:1044700022462B4615F020F85B4667E902015246BA
:104480002046294615F018F80CAB9E4204460D460E
:10449000EAD148AB03930193CDF8149009F10103DD
:1044A000DDF810900293C3464FF0000AB9F1000FF7
:1044B000C0F22A81DFF8EC805D4635A3D3E9002302
:1044C00000260027002403E0544510DCF8E802230E
:1044D000F5E8020114F0F0FF02460B46304639467B
:1044E00014F034FE0134A14506460F46ECDA019B78
:1044F000E3E802670193029B0AF1010A9A45ABF1D6
:10450000080BD3D1A29BDDF81490032B39D8DFE838
:1045100013F0D900060006004D0048AB0393B9F133
:10452000000F4FF000004FF0000109DB039D05EB89
:10453000C904083474E9022314F008FEA542F9D135
:10454000079B002B40F01E810B9BC3E900010B462B
:1045500003990246D1E9000114F0F6FDB9F1000F0C
:104560000CDD4AAD01240134F5E8022314F0EEFD20
:10457000A145F8DA079B002B40F014810B9BC3E99F
:104580000201069B03F007000DF5197DBDE8F08FD1
:1045900000000040FB21F93F0000E03F0000F03F39
:1045A0000000703EE8A7010048AB0393B9F1000F8B
:1045B00040F32781039ACDF810904FEAC903019385
:1045C000D318D3E900AB09F10053013B02EBC90852
:1045D0000293914678E9026752465B463046394677
:1045E00014F0B4FD04460D4602460B4630463946EB
:1045F00014F0AAFD52465B4614F0A8FDC145A24640
:10460000AB46C8E90201C8E90045E3D1DDF81090E6
:10461000B9F1010F40F3F580019B039A029913440D
:10462000C900D3E9006701F1080A019192440DF530
:10463000947B7AE9028932463B464046494614F06B
:1046400085FD04460D4602460B464046494614F099
:104650007BFD32463B4614F079FDD34526462F4676
:10466000CAE90201CAE90045E3D1019C039B103469
:10467000002000211C4403F1100574E9022314F00A
:1046800065FDA542F9D1039C079ED4E90023D4E936
:104690000245002E00F08A8003F1004701F100433B
:1046A0000B99C1E90403069B2646944605F1004494
:1046B00003F00700C1E900C7C1E902640DF5197DE7
:1046C000BDE8F08F089C039D0834002000212C4495
:1046D00074E9022314F03AFDA542F9D1079B13B106
:1046E00001F1004319460B9BC3E90001069B03F04F
:1046F00007000DF5197DBDE8F08FBBF1000F08F143
:10470000010874DD022581E500260027EFE600247C
:104710008EE5CDE90685059D304639466A4200F0B2
:1047200063FD0022384B06460F4615F04BF900B3E7
:104730000022364B3046394614F0BEFE15F06CF9B7
:10474000044614F04FFE00222F4B14F0B5FE0B462A
:1047500002463946304614F0F7FC15F05DF90BF1CE
:1047600001090CAB183543F82B00059543F8294097
:104770005FE63046394615F04FF90CABD94643F8A1
:104780002B0056E60B9C01F10043C4E900030B46E5
:1047900003990246D1E9000114F0D6FCB9F1000FEB
:1047A0003FF7DFAE01F100431946E7E60B9EC6E98D
:1047B0000023069BC6E9040103F00700C6E9024591
:1047C0000DF5197DBDE8F08FA29B032B3FF6D9AE06
:1047D00001A252F823F000BFE94700001B4500008A
:1047E0001B450000A94500000020002176E7324665
:1047F0003B460020064914F0A7FC022506460F465A
:104800002BE5002000213EE7000070410000703ED3
:104810000000F03F000000002DE9F04F21F00046BD
:10482000B6F1795F85B004460D469046994604DAA4
:1048300015F0F2F8002800F0858022462B4620462D
:10484000294614F039FE06460F4602460B4620461E
:10485000294614F031FE41A3D3E9002382468B465A
:104860003046394614F028FE3EA3D3E9002314F065
:104870006BFC32463B4614F01FFE3CA3D3E90023F9
:1048800014F064FC32463B4614F016FE39A3D3E91B
:10489000002314F059FC32463B4614F00DFE37A3BA
:1048A000D3E9002314F052FC0E9BCDE900019BB329
:1048B0000022294B4046494614F0FEFDDDE9002365
:1048C000CDE902015046594614F0F6FD02460B466A
:1048D000DDE9020114F038FC32463B4614F0ECFDF1
:1048E00042464B4614F030FC19A3D3E90023064698
:1048F0000F465046594614F0DFFD02460B4630463F
:10490000394614F023FC02460B462046294614F093
:104910001BFC05B0BDE8F08F02460B463046394619
:1049200014F0CAFD0AA3D3E9002314F00DFC52468B
:104930005B4614F0C1FD22462B4614F007FC05B07F
:10494000BDE8F08F2046294605B0BDE8F08F00BFD6
:10495000495555555555C53F0000E03F7CD5CF5AC8
:104960003AD9E53DEB9C2B8AE6E55A3E7DFEB157F0
:10497000E31DC73ED561C119A0012A3FA6F8101159
:104980001111813F000000002DE9F04FC04C21F0D3
:10499000004687B0A64282468B460F46CDE90023EB
:1049A0001ADC15F039F800283FD1109B524601332C
:1049B0001343334300F0B781109B012B00F0C081FB
:1049C0005B460020B34914F0A1FE04460D46204684
:1049D000294607B0BDE8F08FAF4B9E4225DD002988
:1049E00009DADDE90045224605F10043CDE900235F
:1049F0000BF100418B4652465B4685A1D1E900018F
:104A000014F0A2FBDDE9002304460D4682A1D1E9A2
:104A1000000114F099FB9FED827B22462B468DED21
:104A2000007B14F093FB82468B4652465B46504611
:104A3000594614F041FD02460B468046894614F063
:104A40003BFD424604460D464B465046594614F03F
:104A500033FD75A3D3E90023CDE9020120462946A1
:104A600014F02AFD72A3D3E9002314F06FFB224651
:104A70002B4614F021FD70A3D3E9002314F066FB4C
:104A800022462B4614F018FD6DA3D3E9002314F041
:104A90005DFB22462B4614F00FFD6BA3D3E90023E8
:104AA00014F054FB22462B4614F006FD68A3D3E90C
:104AB000002314F04BFB42464B4614F0FDFC66A36A
:104AC000D3E90023CDE904012046294614F0F4FC83
:104AD00063A3D3E9002314F039FB22462B4614F0DC
:104AE000EBFC61A3D3E9002314F030FB22462B46F4
:104AF00014F0E2FC5EA3D3E9002314F027FB224666
:104B00002B4614F0D9FC5CA3D3E9002314F01EFB60
:104B100022462B4614F0D0FC59A3D3E9002314F00D
:104B200015FB02460B46DDE9040114F00FFBDDE93D
:104B3000022314F0C1FCDDE9004522462B4614F0A7
:104B400005FB42464B4614F0B7FC22462B4614F0B8
:104B5000FDFA4DA3D3E9002304460D46DDE9020129
:104B600014F0AAFC22462B4614F0F0FA0B4602463B
:104B7000804689465046594614F0E8FA464B9E4214
:104B800004460D4600F38C80109B012B3BD002465F
:104B90000B4600203F4914F0B9FD002406460F469D
:104BA0002046294652465B46CDE90067CDE9020121
:104BB000009414F0C9FADDE900AB02460B4640460A
:104BC000494614F0C1FA52465B4614F075FC524651
:104BD00004460D465B46DDE9020114F06DFC00223F
:104BE0002E4B14F0B3FA02460B462046294614F029
:104BF000ADFA32463B4614F05FFC52465B4614F079
:104C0000A5FA04460D462046294607B0BDE8F08FB8
:104C1000182D4454FB21E93F075C143326A6813C40
:104C20000000000000000000D47ABF74702AFB3E30
:104C3000E9A7F0320FB8123F68108D1AF726303FFF
:104C40001583E0FEC8DB573F93846EE9E326823F7D
:104C5000FE41B31BBAA1AB3F735360DBCB75F3BE10
:104C6000A69237A0887E143F0165F2F2D844433FF4
:104C7000280356C9226D6D3F37D60684F464963FEB
:104C80007AFE10111111C13F635555555555D53F49
:104C9000FFFF2F3E0000F0BF2794E53F0000F03FEC
:104CA000109814F09FFB2246CDE900012B462046C8
:104CB000294614F001FCDDE90023CDE9020120467C
:104CC000294614F043FA02460B46DDE9020114F0CE
:104CD0001DFD42464B4614F037FA02460B4650463D
:104CE000594614F031FA02460B4614F02FFA0246E8
:104CF0000B46DDE9000114F027FA0446B81700F06E
:104D00000200C0F101000D4614F06CFB02460B4698
:104D10002046294614F0D0FB04460D46204629467D
:104D200007B0BDE8F08F5046594612F045FB0246E9
:104D30000B460020044914F0E9FC04460D4662E7E6
:104D400054465D465FE700BF0000F03F00000000F2
:104D50002DE9F04FCC4A21F00043934285B08246C2
:104D60008B460C4620D9C94A934200F2D780002CCA
:104D700080F2A481ACA3D3E900235046594614F035
:104D8000E5F90022002314F009FE002840F0D1804C
:104D9000A7A3D3E900235046594614F08DFB0246E1
:104DA0000B460020BA4994E1BA4A934200F2E580EA
:104DB000B94A934240F22E81002301930022B74B5F
:104DC0005046594614F078FB06460F4602460B46FD
:104DD0005046594614F070FB97A3D3E900230446CC
:104DE0000D4614F069FB96A3D3E9002314F0AEF945
:104DF00022462B4614F060FB93A3D3E9002314F062
:104E0000A3F922462B4614F057FB91A3D3E90023C4
:104E100014F09CF922462B4614F04EFB8EA3D3E9E6
:104E2000002314F091F922462B4614F045FB002292
:104E30009B4B14F08BF98046894602460B46304660
:104E4000394614F039FB02460B460020954914F010
:104E50007BF9064602460B460F464046494614F08B
:104E600073F93246804689463B465046594614F00F
:104E700023FB02460B4600208B4914F065F90246DD
:104E80000B464046494614F041FC22462B4614F09E
:104E900013FB019E02460B46002E4DD0DDE9026752
:104EA00032463B4614F050F952465B4614F004FB80
:104EB00032463B4614F048F92B46224614F044F99A
:104EC000019B013306460F4600F02381019B012B15
:104ED0007BD0019A531C392B4FEA025500F22881EE
:104EE000019A132A40F35581019BC3F57F74033463
:104EF0000022230514F02AF902460B465046594673
:104F000014F022F90022664B14F020F9824605EBDA
:104F1000010B5046594605B0BDE8F08F634A9342F5
:104F20001BD9C1F313030343024640F01281002949
:104F3000EFDA00205E490DE05046594614F0BCFA05
:104F400022462B4614F000F902460B4650465946BD
:104F500014F0FAF805B0BDE8F08F41A3D3E90023BF
:104F600014F03AFD00283FF402AF3FA3D3E9002339
:104F70001046194614F0A0FAECE74E4A934200F2AC
:104F8000EC8000293AA3D3E9002339DA14F0DEF8E3
:104F900039A7D7E900674FF0FF3380468946019370
:104FA00032463B464046494614F0CEF802460B4690
:104FB00082468B464046494614F0C6F832463B4688
:104FC00014F0C2F8CDE90201F8E600223A4B50464F
:104FD000594614F0E3FC002800F0CC8050465946B6
:104FE00000222E4B14F0B2F802460B4630463946EA
:104FF00014F0AAF800224FF0404314F05DFAA9E73C
:1050000014F0A2F801238046894601931CA7D7E932
:105010000067C5E714A3D3E9002314F097F802460C
:105020000B468FE7AFF3008059F3F8C21F6EA5015E
:10503000FE822B654715F73F2DC3096EB7FD8ABE6B
:105040003952E686CACFD03EB7DBAA9E19CE143FAE
:105050008555FE19A0015A3FF41011111111A13FFD
:10506000EF39FAFE422E86409C7500883CE4377E7C
:105070000000E0FE422EE63F763C7935EF39EABD8E
:10508000763C7935EF39EA3D79684340412E8640D8
:105090000000E0BF422ED63FFFFF8F3C0000E03F04
:1050A0000000F03F0000084000001840FFFFEF7FC5
:1050B0000000F0BFB1A2F03F0000D0BF44A3D3E98D
:1050C00000235046594614F0F7F902460B460020DB
:1050D000414914F03BF814F09FFC019014F082F960
:1050E00037A3D3E9002306460F4614F0E5F902463C
:1050F0000B465046594614F027F833A3D3E9002352
:10510000804689463046394614F0D6F906460F46A1
:1051100046E702460B465046594614F015F8002261
:105120002D4B14F0C9F900222B4B14F00DF811E7A8
:1051300052465B4614F008F802460B460020274909
:1051400014F002F86B1819460022244B13F0FCFFF0
:1051500000E70B4613F0FAFFFCE61DA3D3E900239A
:1051600014F0AAF9002C02460B464FF00000AFDA0B
:105170001B49AEE732463B465046594613F0E4FF22
:1051800002460B4613F0E2FF0022144B13F0DEFF41
:10519000E0E64FF4001343FA02F452465B4613F084
:1051A000D3FFC4F17F57002607F5401702460B4690
:1051B0003046394613F0C8FFA8E600BFAFF30080C1
:1051C0000000E0FE422EE63F763C7935EF39EA3DBD
:1051D000FE822B654715F73F0000E03F0000F03FDF
:1051E0000000E0BF00000000F8B5C1F30A53044618
:1051F0000D460E4617460BBB21F0004603463343CF
:105200001BD0354B002214F057F9344B9F42044613
:105210000D4635DBC1F30A530E46363B3B4440F2A4
:10522000FE72934232DC002B11DD26F0FF4626F49D
:10523000E00646EA035520462946F8BD40F2FF72D3
:105240009342EBD102460B4613F080FFF8BD13F1F9
:10525000350F28DA4CF250339F4222462B460ADDA6
:1052600019A1D1E9000113F0E1FE17A3D3E900234E
:1052700014F022F9F8BD16A1D1E9000113F0D6FE11
:1052800013A3D3E9002314F017F9F8BD22462B46E7
:105290000DA1D1E9000113F0C9FE0BA3D3E900234E
:1052A00014F00AF9F8BD26F0FF4626F4E00636337E
:1052B00046EA0355204629460022094B14F0FCF823
:1052C000F8BD00BFAFF300809C7500883CE4377EDA
:1052D00059F3F8C21F6EA50100005043B03CFFFF18
:1052E0000000903C10B5054C237833B9044B13B142
:1052F0000448AFF300800123237010BD1005002087
:105300000000000018C1010008B5034B1BB10349A0
:105310000348AFF3008008BD000000001405002022
:1053200018C10100154B002B08BF134B9D46A3F578
:10533000803A00218B460F461348144A121A08F08F
:1053400089FD0F4B002B00D098470E4B002B00D04F
:1053500098470020002104000D000D48002802D0CD
:105360000C48AFF3008013F097FE2000290005F0F1
:1053700029F913F07DFE00BF0000080000000220A4
:10538000000000000000000000040020AC0C002021
:10539000000000000000000070B504460E4600F05A
:1053A00047FA88B103681B6B05469847082C0CD058
:1053B000A4F10903012B14D93246214610230D20F4
:1053C000BDE8704004F0B0B870BD2B6828469B6AF9
:1053D00098470228F0DC2B6828465B6A042198472E
:1053E000EAE72B6828469B6A98470528E4DC2B6887
:1053F00028465B6A08219847DEE700BF38B52DEDE7
:10540000028B054600F014FA044640B103681B6B9A
:105410009847032D03D8DFE805F02F363D06BDEC95
:10542000028B002038BD20460CF0FEF807EE900AF3
:105430002046F8EEE78A0CF005F907EE900A2046C0
:10544000B8EEE78A0CF00CF968EE087A07EE100A5D
:10545000E8EEA87AB8EEC77AE7EE077AF5EE407A7A
:10546000F1EE10FAB1EEE78A1BD4FDEEC87ABDEC7E
:10547000028B17EE900A38BDBDEC028B2046BDE8CA
:1054800038400CF0D1B8BDEC028B2046BDE8384066
:105490000CF0D8B8BDEC028B2046BDE838400CF0CB
:1054A000DFB817EE900A12F0BDFCDEE738B504460F
:1054B00000F0BEF958B103681B6B0546984744B12C
:1054C000012C04D12846BDE83840FBF73DB9002047
:1054D00038BD2846BDE83840FBF716B910B504467C
:1054E00000F0A6F928B1036821465B6ABDE81040C8
:1054F000184710BD0048704716FCFFFF704700BFFB
:1055000010B5034B036004460BF08AFE204610BD25
:1055100090B5010010B5054B036004460BF080FE0A
:10552000204614F001FD204610BD00BF90B50100DB
:105530002DE9F041032184B00546512001F0DAFC49
:10554000DFF8E8C2AE4B044604F00F06C4F30317BD
:1055500014F4807408BF6346AA4831463A460AF0FC
:10556000E9FF221C18BF012231463B4628460EF0B7
:1055700039F80023AB60A4480AF0DCFF4FF0FF319C
:10558000032001F0B7FCC0B204F0C2FA4FF0FF31C3
:105590000446022001F0AEFCC0B204F0B9FA002CBF
:1055A0003BD0002839D00146204604F099F8064641
:1055B00000284DD04FF0FF31462001F09BFC3228EF
:1055C00004464ED04BDD382800F0B18068285FD10A
:1055D0004FF0FF31012001F08DFCC0B204F098FAC9
:1055E00080465C2014F0A9FC0523019342460094F8
:1055F00031462B4607460CF0F7FFAF603B68384654
:10560000DB6A9847A86803681B6B98477F480AF0D5
:1056100091FF284604B0BDE8F0817D480AF08AFF7A
:105620004FF0FF31192001F065FCC0B204F070FAB0
:105630004FF0FF310446182001F05CFCC0B204F0CA
:1056400067FA0146204604F04BF806460028B1D11F
:1056500070480AF06FFF284604B0BDE8F08130289A
:1056600016D14FF0FF31012001F044FCC0B204F02C
:105670004FFA8046502014F060FCA4B20746052380
:1056800001934246009431462B460CF057FDB4E797
:1056900001243268CDE900440023576AAB600F2231
:1056A0000DF10F0332213046B847002800F0858005
:1056B0003368CDE900440F225F6A30210DF10F03FA
:1056C0003046B84700284AD03368CDE900440D225F
:1056D0005F6A38210DF10F033046B847002872D0B9
:1056E0003268CDE900440DF10F03576A6821752235
:1056F0003046B847002845D1682147480AF01AFFCC
:105700004FF0FF31204601F0F5FBC0B204F000FA83
:1057100080465C2014F011FC05246823CDE9003498
:10572000424631462B4607460CF05EFF65E74FF0D8
:10573000FF31012001F0DEFBC0B204F0E9F9804640
:10574000502014F0FAFB05230746019342462B46EE
:10575000009431460CF028FE304B3B604DE7302181
:105760002D480AF0E7FE30244FF0FF31012001F010
:10577000C1FBC0B204F0CCF98046502014F0DDFB30
:1057800007467CE726480AF0D5FEAF68002F7FF475
:1057900035AF4FF0FF31032001F0ACFBC0B204F095
:1057A000B7F930B11F480AF0C5FE284604B0BDE87D
:1057B000F0811D480AF0BEFE4DE7322116480AF07E
:1057C000B9FE3224D0E7382113480AF0B3FE4FF077
:1057D000FF31204601F08EFBC0B204F099F98046FB
:1057E000502014F0AAFB052438230746CDE90034E5
:1057F00042462B4631460CF0D7FD084B3B60FCE699
:1058000070A8010080A80100A0A8010060A9010003
:10581000B0A80100C4A80100F0A8010038A8010048
:10582000DCA8010004A9010040A9010078A801003A
:1058300038B5114C23680BB1986838BD4FF0FF3173
:10584000012001F057FBC0B204F062F940B10C2016
:1058500014F073FB0546FFF76BFE2560A86838BDA2
:105860004FF0FF31032001F045FBC0B204F050F9C6
:105870000028ECD138BD00BF2C05002008B501F090
:105880006BFCFBF7D5FCBDE8084001F0C5B900BFD3
:1058900008B501F061FCFBF73BFDBDE8084001F0F5
:1058A000BBB900BF08B501F057FC11F0FBFDBDE826
:1058B000084001F0B1B900BF08B501F04DFC12F08D
:1058C000EDF9BDE8084001F0A7B900BF08B501F047
:1058D00043FCFBF7BDFCBDE8084001F09DB900BFEB
:1058E00008B501F039FC12F00FF8BDE8084001F0EE
:1058F00093B900BF08B501F02FFCFAF745FFBDE8EA
:10590000084001F089B900BF08B501F025FC11F08D
:1059100051FFBDE8084001F07FB900BF70B5049E9B
:1059200096420C4624DB15466BB9042A19D0022A8C
:1059300002D110F0010310D001462A46204607F09C
:10594000F7F8002070BD10440D4410F8013D01F837
:10595000013B8D42F9D1002070BD02880A801846B3
:1059600070BD10F00303E7D102680A60184670BDED
:105970000846002108F06EFA4FF0FF3070BD00BFFE
:105980000830704740B1002905DB43688B4202DDD7
:105990000844007A70470020704700BF30B10029EA
:1059A00004DB43688B42C4BF40180272704700BFDB
:1059B00040B1002905DB4368994202DA0844007AC5
:1059C00070470020704700BF830704D1030F0CBF4E
:1059D0000120002070470120704700BF30B100292E
:1059E00004DB43689942BCBF40180272704700BF95
:1059F000F8B5002B20DB00291EDB46688E421BDB3E
:105A00005468761AE51AB542A8BF3546002D13DB57
:105A1000824202F108070C4600F108062A4605D02A
:105A2000F918301907F084F80020F8BDF11838197A
:105A300014F0AAFA0020F8BD4FF0FF30F8BD00BF07
:105A40004068704710B4141E10DB4268A2420DDBA0
:105A500033EA230328BF1346121B08309A4220441E
:105A6000A8BF1A465DF8044B08F0F4B95DF8044B82
:105A7000704700BF10B443688B4200F10804184619
:105A8000A8BF084632EA220128BF19461B1A9942CC
:105A90002044A8BF19465DF8044B00F0B5BE00BF16
:105AA00070B5002BBCBF43689B1A002A0E4620DB52
:105AB00044689918A1421CDC91421ADBCBB136F044
:105AC000004116D05942B14214DAB34212DD083017
:105AD000002E00EB020515DB9C1B2246A919284667
