:1000000000000220E56C01000D6D01000F6D010084
:10001000116D0100136D0100156D0100000000005D
:10002000000000000000000000000000176D01004B
:10003000196D0100000000001B6D01001D6D010025
:100040001F6D0100E95C0100856B0100496B010037
:100050005D6B01001F6D0100E95501003173010066
:100060004D670100556701005D6701001F6D0100CC
:100070001F6D01001F6D01001F6D01001F6D01004C
:100080001F6D01001F6D01001F6D01001F6D01003C
:100090001F6D01001F6D01001F6D01001F6D01002C
:1000A0001F6D01001F6D0100656701006D67010094
:1000B0001F6D01001F6D0100000000000000000026
:1000C0001F6D01001F6D01001F6D0100716B0100AC
:1000D0001F6D01001F6D01001F6D01001F6D0100EC
:1000E000AD6B0100000000000000000000000000F7
:1000F000000000001F6D010000000000996B01006E
:1001000000000000000000000000000000000000EF
:1001100000000000000000000000000000000000DF
:1001200000000000000000000000000000000000CF
:1001300000000000000000000000000000000000BF
:1001400000000000000000000000000000000000AF
:10015000000000000000000000000000000000009F
:10016000000000000000000000000000000000008F
:10017000000000000000000000000000000000007F
:10018000000000000000000000000000000000006F
:10019000000000000000000000000000000000005F
:1001A000000000000000000000000000000000004F
:1001B000000000000000000000000000000000003F
:1001C000000000000000000000000000000000002F
:1001D000000000000000000000000000000000001F
:1001E000000000000000000000000000000000000F
:1001F00000000000000000000000000000000000FF
:100200002DE9F04F85B003910778A7F10903042B7E
:10021000044607F07F0200F10100F5D9202AF3D04F
:100220002B2F04BF677804462D2F75D09FED427B9E
:100230008DED007B4FF000084FF000099FB34FF0A9
:10024000000C25464FF0000ADFF8FCB0644619E0C8
:1002500019F09EFF80468946304619F02FFF42462E
:100260004B4619F0DFFD5246804689465B46DDE984
:1002700000013CB31AF0B6F8CDE90001A44615F828
:10028000017F7FB1A7F13006092E52465B464046FA
:100290004946DDD9CCB92E2F17D115F8017F01249D
:1002A000002FEFD12C4642464B46DDE9000119F004
:1002B0006FFF80468946039B404649461C6005B057
:1002C000BDE8F08F4FF0010CD9E72C46BCF1000FD0
:1002D00029D042464B46DDE9000119F059FF07F0ED
:1002E000DF07452F80468946E5D10399681C0A221D
:1002F00019F07CFD1449024600201AF0F9FA024672
:100300000B464046494619F043FF80468946404621
:10031000494605B0BDE8F08F9FED097B67788DED0C
:10032000007B013486E7DFF824904FF00008404658
:10033000494605B0BDE8F08F000000000000F03F26
:10034000000000000000F0BF000024400000F87F23
:100350002DE9F047002314460022804689461AF012
:1003600089F928B109F1004399462D2323700134FE
:1003700000220023404649461AF072F928B1302283
:10038000002322706370BDE8F0874046494618F0AC
:1003900071FA1AF0ADF973A3D3E900230746494671
:1003A00040461AF067F900284ED170A3D3E9002324
:1003B000404649461AF07CF9002845D10E2F07F136
:1003C000010540F3B980A7F10E06324600206249CC
:1003D0001AF08EFA02460B46404649461AF002F8D9
:1003E00000225E4B19F01EFD1AF0BEFA002DA7F197
:1003F0000F0E4FF0010C4DDD594FDFF878810122CF
:1004000045F6F3294FF02E0A494508BF40454FF005
:1004100030030AD3B0EB080061EB0901494508BF7E
:10042000404503F10103F5D2DBB2237050EA01032A
:1004300004F101084AD1954252DD0132102A4FD011
:10044000444677E90289DFE7002F33DB3A46002094
:1004500041491AF04DFA02460B464046494619F00A
:10046000C1FF3BA3D3E9002380468946012500262E
:100470004046494619F08CFE0022384B19F0D2FC58
:100480001AF072FA002DBC464FF0FF3E37464FF08F
:100490000006B1DC234630224FF02E0803F8022B71
:1004A00084F80180FC4345D01C4403F8012BA3428F
:1004B000FBD1A1E77A42002027491AF019FA024637
:1004C0000B464046494619F063FECAE7954202F1E1
:1004D000010204BF84F801A004F10208102AAFD180
:1004E0006EB14246302102F8011BC2F10103734490
:1004F0004344002BF7DC2EEAEE7301339844BCF141
:10050000010F12D0BCF1000F4FF0650388F80030E6
:10051000C5BF2B2388F8013008F1010108F1020161
:100520006046BDE8F04710F0C7BA002388F80030F5
:10053000BDE8F0871C465FE7C7F10E0200200649C0
:100540001AF0D6F93E4602460B46012790E700BF57
:100550000000901EC4BCD642000024400000E03FD2
:10056000D8B401008DEDB5A0F7C6B03E50EFE2D68D
:10057000E41A4B4400407A1070B54FF0FF3006F09B
:1005800057FA04466FF07F4006F052FA06462046BE
:1005900019F084FD00220C4B19F0FAFD0446304698
:1005A0000D4619F07BFD06A3D3E9002319F01AFFCD
:1005B00002460B462046294619F034FC70BD00BFA8
:1005C0000000E0DFFFFF6F430000F03D000000008F
:1005D0002DE9F04F1D461389AB4288BF536885B0A3
:1005E00004468CBF53F82500002090468A4606F04A
:1005F00093FE0022904B19F0CBFD1AF079F8B8F871
:1006000008206B1C9A4288BFD8F8042006468CBF8D
:1006100052F82300002006F07FFE0022864B19F0DE
:10062000B7FD1AF065F8B8F808300235AB4288BF5C
:10063000D8F8043007468CBF53F82500002006F098
:100640006BFE002EC4E9006740F3E280002F40F308
:10065000DF8071A3D3E90023002584F8285018F027
:100660002BF800220023804689461AF003F840B197
:100670004046494668A3D3E9002319F0D3FB8046DE
:10068000894667A3D3E90023404649461AF010F88B
:10069000C0B165A3D3E900234046494619F0F4FFF1
:1006A00080B101234046494684F8283060A3D3E94D
:1006B000002319F0B7FB58A3D3E9002317F0FCFF80
:1006C0008046894600225D4B4046494619F060FD50
:1006D00017F026FD01F1004300221946564B19F090
:1006E00057FD1AF005F849460546404617F0D4FC78
:1006F0000022514B19F04CFD19F0FAFFDAF80430E2
:100700004F49B3F80CB0B3F80AA0A56007FB0BF390
:1007100003EB010806FB0AF6019388FB05234FEA69
:10072000124C00960E444CEA034C06EA010383FB8C
:10073000009A06EB0C0E0EEA010ED346CA468EFB5B
:1007400000675246CDE90267120C42EA0B42DDE92E
:1007500002AB0CEA010C8CFB00674FEA16495646C7
:100760000A40360C46EA0B4649EA074982FB05ABCC
:100770005F46C144B0445646CDE90267039FE0603E
:10078000360C09EA010908EA010846EA074689FB2E
:1007900005AB334488FB0556CDE9025655462D0C72
:1007A00045EA0B45DDE902AB0B40AC4403EAE377D5
:1007B0000CEA010C554623EAE37367454FEA1545F9
:1007C00002EAE276A8BF674645EA0B45634522EA9E
:1007D000E272B8BF6346AE444E450EEA010EA8BFB2
:1007E0004E464A45B8BF4A467745A8BF7746734547
:1007F000B8BF73464645A8BF4646C4E905634245AF
:10080000B8BF424600980199206261622761E261A7
:10081000204605B0BDE8F08FEA2E4454FB21194074
:10082000F4D64354FB21F93F320D337F7CD912407B
:10083000EA2E4454FB2109400000F0400000E03F54
:100840000000FFFF000000002DE9F04F2DED028BAE
:10085000044683B0C06819F031FC8046206989469F
:1008600019F02CFC824660698B4619F027FC024681
:1008700001F1004306460F464046494617F0AEFEDA
:1008800019F07EFFE062054617F060FD01902846F2
:1008900017F010FD019B0546184619F021FC424651
:1008A0004B4619F075FC80462846894619F018FC1D
:1008B00032463B4619F06CFC02460B464046494620
:1008C00019F0AEFA02460B465046594617F086FE1E
:1008D00019F056FF002208EE100A00233046394670
:1008E00019F0E6FE28B3B5EEC08AF1EE10FA1CDD71
:1008F00011A7D7E9006718EE100A19F0F1FB0246BC
:100900000B463046394619F08BFA32463B4619F011
:1009100089FA19F035FFA062E38843F00203E3800F
:1009200003B0BDEC028BBDE8F08F05A7D7E90067E7
:10093000E1E784ED0A8AEFE7EA2E4454FB21F93F10
:10094000EA2E4454FB21F9BF494A21F00043934267
:100950002DE9704304460D4649DC464A93420E4653
:100960000EDC3FA3D3E9002319F05CFA0022424BCE
:1009700019F09EFE00284AD020462946BDE8708323
:100980003E4A934239DCB3F1804F40DD17F080FBE3
:100990002246804689462B462046294619F0F8FB18
:1009A0000022354B19F03EFA18F00EFA42464B463B
:1009B00019F038FA02460B4600202F4919F012FDB3
:1009C000424604460D464B464046494619F02AFA2F
:1009D00002460B462046294619F024FA02F040F858
:1009E000002E08DC01F100431946BDE87083024681
:1009F0000B4619F017FABDE8708317F049FB02F0B7
:100A00002FF819A3D3E9002319F00CFAE8E72246DE
:100A10002B462046294619F0BBFB804689462046D6
:100A2000294617F035FB002204460D46124B40467E
:100A3000494619F0F7F918F0C7F900220E4B19F0E2
:100A4000F1F902460B464046494619F0CBFC2246D6
:100A50002B4619F0E7F900F0A7FAC1E7AFF30080E1
:100A60009C7500883CE4377EEF39FAFE422EE63F63
:100A7000FFFFEF7FFFFF2F3E0000F03F0000B0417F
:100A80002DE9F84FBE4B21F000469E4204460D462C
:100A90008A460EDDBB4B9E4200F3B18000F0AC8075
:100AA000BAF1000F40F3EA8099A1D1E90001BDE855
:100AB000F88FB54B9E4200F3BA80A3F1DE739E42DD
:100AC00040F3A5804FF0FF3B22462B4620462946A7
:100AD00019F05EFB02460B468046894619F058FB2A
:100AE0008DA3D3E9002306460F4619F051FB8CA3D2
:100AF000D3E9002319F096F932463B4619F048FB3A
:100B000089A3D3E9002319F08DF932463B4619F049
:100B10003FFB87A3D3E9002319F084F932463B4613
:100B200019F036FB84A3D3E9002319F07BF9324690
:100B30003B4619F02DFB82A3D3E9002319F072F98B
:100B400042464B4619F024FB7FA3D3E9002380469D
:100B500089463046394619F01BFB7DA3D3E90023B3
:100B600019F05EF932463B4619F012FB7AA3D3E93D
:100B7000002319F055F932463B4619F009FB78A3DA
:100B8000D3E9002319F04CF932463B4619F000FB3B
:100B900075A3D3E9002319F043F932463B4619F017
:100BA000F7FA02460B464046494619F03BF9224601
:100BB0002B4619F0EDFABBF1FF3F02460B4661D020
:100BC000724B734E4FEACB0B5B44D3E9002319F011
:100BD00027F922462B4619F023F9B34402460B4667
:100BE000DBE9000119F01CF9BAF1000F0DDA01F18F
:100BF00000431946BDE8F88F00283FF451AF224664
:100C00002B462046294619F00DF9BDE8F88F58A368
:100C1000D3E9002319F006F900225E4B19F048FDD4
:100C200000283FF44FAF20462946BDE8F88F17F063
:100C30002FFA594B9E4204460D4629DCA3F550235A
:100C40009E424EDC02460B4619F0ECF80022514B56
:100C500019F0E6F8002206460F464FF08043204682
:100C6000294619F0DFF802460B463046394619F09E
:100C7000B9FB4FF0000B04460D4625E73EA1D1E934
:100C80000001C2E72046294619F0CAF8BDE8F88FEE
:100C9000424B9E421ADC0022414B19F0C1F800225F
:100CA00006460F463E4B2046294619F071FA0022AF
:100CB000384B19F0B7F802460B463046394619F062
:100CC00091FB4FF0020B04460D46FDE602460B4633
:100CD0000020344919F086FB4FF0030B04460D4603
:100CE000F2E600222B4B19F09BF8002206460F4635
:100CF000284B2046294619F095F802460B46304607
:100D0000394619F06FFB4FF0010B04460D46DBE648
:100D1000182D4454FB21F93F11DA22E33AAD903FFC
:100D2000EB0D76244B7BA93F513DD0A0660DB13F22
:100D30006E204CC5CD45B73FFF8300922449C23F8A
:100D40000D5555555555D53F2F6C6A2C44B4A2BF4F
:100D50009AFDDE522DDEAD3F6D9A74AFF2B0B33F17
:100D6000711623FEC671BC3FC4EB98999999C93F8F
:100D70009C7500883CE4377E182D4454FB21F9BF54
:100D8000FFFF0F440000F07FFFFFDB3F00B50100D5
:100D9000E0B401000000F03FFFFFF23FFF7F03409F
:100DA0000000F83F0000F0BF2DE9F041C1F30A5701
:100DB000A7F2FF35132D02460B460C468846064621
:100DC00020DC002D4ADB364F2F4101EA070C5CEA9C
:100DD000000C1CD030A3D3E9002319F023F8002223
:100DE000002319F065FC48B1002C04DD4FF480139A
:100DF00043FA05F5A84428EA0704002621463046B0
:100E0000BDE8F081332D06DDB5F5806F38D0104692
:100E10001946BDE8F081A7F213474FF0FF3C2CFACA
:100E200007F70742F3D01CA3D3E9002318F0FAFF19
:100E30000022002319F03CFC0028DFD0002C09DD43
:100E4000142D22D00123C5F1340503FA05F5AE199E
:100E500028BF984426EA07064446CFE70EA3D3E905
:100E6000002318F0DFFF0022002319F021FC0028E6
:100E7000C4D0002C0CDB264305D00026094CBDE76E
:100E800018F0D0FFC5E73446B8E704F10108E1E700
:100E900000264FF00044B1E79C7500883CE4377EA3
:100EA000FFFF0F000000F03F2DE9F041C1F30A57AA
:100EB000A7F2FF35132D02460B460C468846064620
:100EC0001DDC002D3CDB364F2F4101EA070C5CEAAC
:100ED000000C19D030A3D3E9002318F0A3FF00229F
:100EE000002319F0E5FBC8B3002C04DA4FF480139B
:100EF00043FA05F5A84428EA070400262EE0332D1E
:100F000006DDB5F5806F2DD010461946BDE8F0819D
:100F1000A7F213474FF0FF3C2CFA07F70742F3D034
:100F20001DA3D3E9002318F07DFF0022002319F050
:100F3000BFFB98B1002C21DB26EA070644460DE0F2
:100F400015A3D3E9002318F06DFF0022002319F048
:100F5000AFFB18B1002C08DB002634462146304692
:100F6000BDE8F08118F05EFFD0E724F000430D4AA1
:100F70001E43002E18BF14460026EFE7142D08D09C
:100F80000123C5F1340503FA05F5AE1928BF9844CD
:100F9000D2E704F10108CFE79C7500883CE4377E76
:100FA000FFFF0F000000F0BF2DE9F04FD84B994232
:100FB00087B08046894643DDD64B99420E4600F302
:100FC000F480D54B994240F32D819FEDBB7B8DED95
:100FD000047B4FEA215A0446AAF2FF3ACF4BC6F3EC
:100FE00013069E4246F07F5500F3128145F44015EA
:100FF000204629460022CA4B18F012FF0022044660
:101000000D46C84B19F0C4F822462B4619F0C0F81B
:10101000A046CDE90201A946CDE90001002E3AD152
:10102000002200232046294619F01AFB002800F070
:101030001B81BAF1000F40F0858100200021B8E04B
:10104000B94B21F000449C420A460FDD0022B74B09
:1010500019F006FB002800F0AF80002200230020DA
:10106000B34919F0BFF907B0BDE8F08FB14B9C420E
:1010700040F3AF80B04B1A449A4240F2D380002232
:10108000A84B19F085F842464B4619F081F8CDE996
:1010900000014FF0000A00224FF0804340464946CD
:1010A00018F0C0FE02460B464046494619F09AF930
:1010B00002460B4606460F4619F06AF880A3D3E9AC
:1010C000002304460D4619F063F87FA3D3E90023FB
:1010D00018F0A8FE22462B4619F05AF87CA3D3E953
:1010E000002318F09FFE22462B4619F051F87AA3F0
:1010F000D3E9002318F096FE22462B4619F048F853
:1011000077A3D3E9002318F08DFE22462B4619F071
:101110003FF875A3D3E9002318F084FE22462B463E
:1011200019F036F872A3D3E9002318F07BFE2246AB
:101130002B4619F02DF8DDE9002318F073FE324636
:101140003B4619F025F804460D46BAF1000F00F0B1
:10115000A880504618F0B2FF67A3D3E90023824667
:101160008B4619F015F866A3D3E9002306460F460F
:101170005046594619F00CF8DDE9042318F052FEE8
:1011800022462B4618F04EFE02460B46DDE90001D2
:1011900018F046FE42464B4618F042FE02460B4609
:1011A0003046394618F03CFE03E002460B4618F084
:1011B00039FE07B0BDE8F08F42464B4640464946EF
:1011C00018F02EFE02460B4619F00CF907B0BDE8E8
:1011D000F08F0022594B18F025FE0022002319F051
:1011E00067FA10B1564B9C4262DD42464B46404680
:1011F000494618F0CDFF00224A4B18F0C9FF0246BD
:101200000B464046494618F00BFE07B0BDE8F08F8C
:1012100045F40015C6F5801620462946B6100AF199
:10122000010AE7E600223E4B4046494618F0FAFD27
:101230004FEA215AAAF2FF3ABAF1000F04460D46CE
:101240000E4640F3BD8042464B4618F0E9FD02468B
:101250000B460020324918F0E3FD22462B4619F0D8
:10126000C1F8CDE90401B9E627A3D3E9002320465C
:10127000294618F08DFF02460B460020284918F039
:10128000CFFDDDE9022318F083FF06460F46BAF1D1
:10129000000F75D102460B462046294618F0C0FDC6
:1012A00087E702460B46DDE9000118F0B9FDA6E725
:1012B000404649467DE700BF0000000000000000F6
:1012C00044523EDF12F1C23F9FC678D0099AC33F15
:1012D000DE03CB966446C73FAF788E1DC571CC3F09
:1012E000599322942449D23F04FA97999999D93F66
:1012F000935555555555E53F0000E0FE422EE63F1B
:10130000763C7935EF39EA3D555555555555E53F0C
:101310007982DA3FFFFFEF7FFFFF3F439DA006008A
:101320000000F03F0000E03FFFFFEF3F0000F0BF94
:10133000000050C3FFFF1F3E3C412D4000005043C2
:10134000FFFF8F3C504618F0B9FE24A3D3E90023D9
:1013500006460F4618F01CFFDDE9042318F062FD75
:1013600020A3D3E9002304460D463046394618F041
:101370000FFF02460B462046294618F053FD18E79A
:10138000504618F09BFE17A3D3E9002382468B46F4
:1013900018F0FEFE11A3D3E900238046894650468B
:1013A000594618F0F5FEDDE9042318F03BFD02462E
:1013B0000B463046394618F033FD22462B4674E77B
:1013C0000022054B18F02CFD02460B4640464946CC
:1013D00018F026FD41E700BF0000F03F763C79356C
:1013E000EF39EA3D0000E0FE422EE63F000000003B
:1013F00008B517F0C1F904A3D3E9002318F0F2FFF0
:1014000008BD00BFAFF30080EF39FAFE422EE63F81
:101410002DE9F043DFF8B4808BB004460D4601F0AF
:10142000F7F898F90030013306460F462CD02246D3
:101430002B462046294619F045F9814620BB204617
:10144000294616F025FE1FA3D3E9002319F030F931
:10145000D0B1194A98F90030CDF820900321CDE998
:101460000445CDE90245CDE9001293B113490020AE
:10147000022BCDE9060111D118F060FC2223036094
:10148000089B9BB9DDE90667304639460BB0BDE8DD
:10149000F0830B4B4FF06042CDE90623684618F00D
:1014A000C9FA0028E8D0089B002BEBD018F046FCC6
:1014B000089B0360E6E700BF6CC801000000F07FF6
:1014C000FFFFEF477DF8B98FCE3386400F02002033
:1014D0002DE9F043DFF8E4808BB004460D4601F0BF
:1014E00047F998F90030013306460F4633D02046BD
:1014F000294618F099FA70B32CA3D3E900232046AB
:10150000294619F0D5F8814650BB2AA3D3E9002318
:101510002046294619F0AEF8E8B198F90030204A83
:10152000CDF82090002000210426022BCDE90445AF
:10153000CDE902450096CDE90601019229D0684621
:1015400018F078FA28B3089B1BB118F0F7FB089B3A
:101550000360DDE90667304639460BB0BDE8F0832D
:101560000F4A98F90030019203210022CDE9044589
:10157000CDE90245009108922BB90A4B4FF0604229
:10158000CDE90623DBE708490020022BCDE906015F
:10159000D5D118F0D3FB22230360D4E7AFF300804A
:1015A00074C80100FFFFEF470000F07FEF39FAFE3B
:1015B000422E864051302DD5104987C00F020020A1
:1015C0002DE9F04FDFF82C938DB006460F461446F8
:1015D0001D4601F09DFC99F90080B8F1FF3FCDE96F
:1015E000000136D022462B462046294619F06AF8DB
:1015F000834670BB32463B463046394619F062F8A6
:101600008246002840F0A28030463946002200235E
:1016100019F026F810B3002200232046294619F0BD
:101620001FF88346002867D09FEDA77B0122AC4BB3
:10163000CDF828A00292CDE90467CDE906458DEDED
:10164000087B0393B8F1000F41D09FEDA17B8DED96
:10165000007BDDE900010DB0BDE8F08FDDE90001A0
:1016600018F0E2F98046002800F08D804FF0000A63
:101670004FF0000BDDE9000152465B4618F0F0FF29
:101680000028E6D03046394618F0CEF90028E0D0E0
:101690002046294618F0C8F90028DAD099F9003018
:1016A0008F4A039204210022022BCDE90467CDE981
:1016B0000645CDE908AB02910A9203D002A818F0C2
:1016C000B9F950B918F03AFB2223036005E002A8EB
:1016D00018F0B0F9002800F09B800A9B1BB118F0AD
:1016E0002DFB0A9B03609DED087B8DED007BDDE902
:1016F00000010DB0BDE8F08F2046294618F094F99E
:101700000028A6D0002200232046294618F0B2FF68
:1017100000289ED0724A99F90030CDF828B00121F6
:10172000CDE90467CDE90645CDE90212002B74D05E
:101730006C490020022BCDE9080172D118F0FEFAA5
:10174000212303600A9B002BCDD0C8E70022002391
:101750002046294618F084FF00283FF47AAF624BF8
:101760005F49CDF828B000220120B8F1020FCDE981
:1017700004670290CDE90645CDE908230391A6D17F
:10178000CDE9002365E73046394618F04DF90028C9
:101790003FF46CAF2046294618F046F900283FF484
:1017A00065AFDDE900231046194618F08BFF99F963
:1017B00000A000286BD10323DFF824C10A9029463A
:1017C000204602930022494BCDF80CC0CDE90645D6
:1017D000CDE9046718F0DCFC04460D46BAF1000FB1
:1017E00025D1DFF814B14FF0604A002200233046C3
:1017F0003946CDE908AB18F03DFF38BB02A818F018
:1018000019F900289ED118F099FA2223036099E76C
:1018100018F094FA212303605FE79FED2B7B8DED99
:10182000087B02A818F006F900288BD186E79FED07
:101830002A7B00220023304639468DED087B18F0C4
:1018400019FFA0B9BAF1020FDDD0D7E7204629462B
:1018500018F0F8F822462B4618F002FFA0B9244BE6
:1018600099F900A04FF06042CDE90823EAE720464D
:10187000294618F0E7F822462B4618F0F1FE18B971
:10188000184B0022CDE9082399F900A0DAE70122DC
:10189000134BCDF828800292CDE90467CDE90645C7
:1018A0000393BAF1000FB8D0002200231046194666
:1018B00018F098FDBAF1020FCDE908013FF43EAFF0
:1018C000AFE700BFAFF300800000000000000000A1
:1018D000000000000000F03F000000000000F07F6A
:1018E0008CC801000000F0FF0000F03F0000E03F66
:1018F000FFFFEFC70F020020FFFFEF4700000000CF
:101900002DE9F84FC44E21F00043B34204460D4682
:101910000DDD03F1404303F58013034340F0B9802C
:10192000002940F3408100200021BDE8F88FBB4E24
:10193000B34208DCBA4A934200F3B5809CA1D1E9D6
:101940000001BDE8F88F0029C0F2708102460B4605
:101950000020B44918F064FA0022B34B18F018FCC8
:1019600004460D4617F030FA93A3D3E900238946C5
:1019700080462946204618F00BFC91A3D3E90023AA
:1019800018F050FA22462B4618F002FC8EA3D3E939
:10199000002318F045FA22462B4618F0F9FB8CA3D9
:1019A000D3E9002318F03EFA22462B4618F0F0FB4C
:1019B00089A3D3E9002318F033FA22462B4618F006
:1019C000E7FB87A3D3E9002318F02CFA22462B4625
:1019D00018F0DEFB84A3D3E9002382468B46204621
:1019E000294618F0D5FB82A3D3E9002318F018FA92
:1019F00022462B4618F0CCFB7FA3D3E9002318F036
:101A000011FA22462B4618F0C3FB7DA3D3E900232D
:101A100018F006FA22462B4618F0BAFB0022814B3A
:101A200018F000FA02460B465046594618F0DAFC08
:101A300042464B4618F0ACFB002682468B463246A7
:101A40004B463046494618F0A3FB02460B4620465B
:101A5000294618F0E5F9324604460D464B46404605
:101A6000494618F0DFF902460B462046294618F091
:101A7000B9FC02460B465046594618F0D3F9324697
:101A80004B4618F0CFF902460B4618F0CBF9BDE8EB
:101A9000F88F02460B4618F0C3F902460B4618F0C1
:101AA000A1FCBDE8F88F02460B4618F071FB42A37B
:101AB000D3E9002306460F4618F06AFB40A3D3E99A
:101AC000002318F0AFF932463B4618F061FB3EA305
:101AD000D3E9002318F0A4F932463B4618F058FB2E
:101AE0003BA3D3E9002318F09DF932463B4618F09A
:101AF0004FFB39A3D3E9002318F092F932463B4655
:101B000018F046FB36A3D3E9002318F08BF93246D0
:101B10003B4618F03DFB34A3D3E9002380468946B9
:101B20003046394618F034FB31A3D3E9002318F0CE
:101B300077F932463B4618F02BFB2FA3D3E900235D
:101B400018F070F932463B4618F022FB2CA3D3E97B
:101B5000002318F065F932463B4618F019FB0022C5
:101B6000304B18F05FF902460B464046494618F0E4
:101B700039FC22462B4618F00BFB02460B4622A1ED
:101B8000D1E9000118F04CF902460B4620462946DF
:101B900018F046F902460B4605A1D1E9000118F0FC
:101BA0003FF9BDE8F88F1AA1D1E9000179E700BF3C
:101BB000182D4454FB21F93F09F7FD0DE13D023F8B
:101BC00088B20175E0EF493F3B8F68B52882A43F9A
:101BD0005544880E55C1C93F7D6FEB0312D6D43FE3
:101BE000555555555555C53F82922EB1C5B8B33F91
:101BF00059018D1B6C06E63FC88A599CE52A0040B6
:101C00004B2D8A1C273A0340075C143326A6913CCF
:101C1000182D4454FB210940FFFFEF3FFFFFDF3F3A
:101C20000000603C0000F03F0000E03F00225C4B01
:101C300018F0F8F800225B4B18F0AAFA40A3D3E999
:101C4000002304460D4618F0A3FA3FA3D3E900236E
:101C500018F0E8F822462B4618F09AFA3CA3D3E98C
:101C6000002318F0DDF822462B4618F091FA3AA32B
:101C7000D3E9002318F0D6F822462B4618F088FA4C
:101C800037A3D3E9002318F0CBF822462B4618F0EF
:101C90007FFA35A3D3E9002318F0C4F822462B4677
:101CA00018F076FA804689462046294617F08CF8C7
:101CB0002FA3D3E9002306460F462046294618F0F5
:101CC00067FA2DA3D3E9002318F0AAF822462B4681
:101CD00018F05EFA2AA3D3E9002318F0A3F82246ED
:101CE0002B4618F055FA28A3D3E9002318F098F8EA
:101CF00022462B4618F04CFA0022294B18F092F895
:101D000002460B464046494618F06CFB32463B46BD
:101D100018F03EFA1EA3D3E9002318F081F83246EA
:101D20003B4618F07FF802460B4618F07BF8024657
:101D30000B4619A1D1E9000118F072F8B1E600BF15
:101D400009F7FD0DE13D023F88B20175E0EF493F23
:101D50003B8F68B52882A43F5544880E55C1C93FC2
:101D60007D6FEB0312D6D43F555555555555C53F9C
:101D700082922EB1C5B8B33F59018D1B6C06E63F68
:101D8000C88A599CE52A00404B2D8A1C273A0340FB
:101D9000075C143326A6913C182D4454FB210940BE
:101DA0000000F03F0000E03F414A91422DE9F84336
:101DB00004460D4637DD3F4A91420B4608DD02F1ED
:101DC000795291423DDD024618F02CF8BDE8F883C7
:101DD00001F1404202F5801202432ED0B1F1804F52
:101DE00037DC0022344B18F01BF802460B46044641
:101DF0000D4618F017F8224606460F462B46204699
:101E0000294618F0C5F902460B463046394618F007
:101E100009F816F0D9FF22462B4618F003F8BDE862
:101E2000F843FFF7C1B802460B4617F0F9FF024628
:101E30000B4618F0D7FABDE8F88300200021BDE872
:101E4000F88300F00DFE18A3D3E9002317F0EAFF92
:101E5000F1E7024618F09CF90022174B17F0E0FF5B
:101E600016F0B2FF2246804689462B462046294678
:101E700017F0D8FF224606460F462B4640464946F5
:101E800017F0D0FF02460B4600200B4918F0AAFAC3
:101E90000B4602463946304617F0C2FFBDE8F8430C
:101EA00000F0DEBDAFF30080EF39FAFE422EE63FD0
:101EB000FFFFEF3FFFFFAF410000F03F00000000D9
:101EC0002DE9F04FAE4B21F000479F4287B004460A
:101ED0000D4611DD07F1404707F5801703463B43E8
:101EE00021D002460B4617F09BFF02460B4618F026
:101EF00079FA07B0BDE8F08FA24B9F420E4629DC6D
:101F0000B7F1795F80F2468181A3D3E9002317F00E
:101F100089FF00229C4B18F0CBFBD8B12046294604
:101F200007B0BDE8F08F7CA3D3E9002318F030F9A7
:101F30007BA3D3E9002306460F462046294618F026
:101F400027F902460B463046394617F06BFF07B0BB
:101F5000BDE8F08F2046294616F09AF802460B4657
:101F60000020894917F05CFF0022884B18F010F917
:101F70006DA3D3E9002304460D4618F009F96CA3BC
:101F8000D3E9002317F04EFF22462B4618F000F944
:101F900069A3D3E9002317F043FF22462B4618F02C
:101FA000F7F867A3D3E9002317F03CFF22462B463E
:101FB00018F0EEF864A3D3E9002317F031FF2246AE
:101FC0002B4618F0E5F862A3D3E9002317F02AFFA7
:101FD00022462B4618F0DCF85FA3D3E90023CDE9B5
:101FE00000012046294618F0D3F85DA3D3E9002369
:101FF00017F016FF22462B4618F0CAF85AA3D3E969
:10200000002317F00FFF22462B4618F0C1F858A303
:10201000D3E9002317F004FF22462B4618F0B8F846
:10202000594B002217F0FEFE82468B462046294679
:10203000CDE902AB16F0C8FE554B9F42804689465B
:1020400000F3198102460B4617F0ECFEDDE902238E
:10205000CDE90401DDE9000118F0C4F902460B46A0
:10206000DDE9040118F094F84FF0000ACDE9000111
:1020700052464B465046494618F08AF802460B46EF
:102080002046294617F0CCFE524604460D464B46E4
:102090004046494617F0C6FE02460B4620462946F2
:1020A00018F0A0F902460B4617F0BCFE02460B469C
:1020B0001BA1D1E9000117F0B3FE02460B46DDE992
:1020C000000117F0ADFE524604460D464B46504601
:1020D000494617F0A7FE02460B4627A1D1E90001A9
:1020E00017F09EFE02460B462046294617F098FE42
:1020F00002460B4620A1D1E9000117F091FE002E07
:102100003FF7F7AE01F100431946F2E6AFF3008066
:102110009C7500883CE4377E182D4454FB21F93F20
:10212000075C143326A6913C09F7FD0DE13D023F03
:1021300088B20175E0EF493F3B8F68B52882A43F24
:102140005544880E55C1C93F7D6FEB0312D6D43F6D
:10215000555555555555C53F82922EB1C5B8B33F1B
:1021600059018D1B6C06E63FC88A599CE52A004040
:102170004B2D8A1C273A0340182D4454FB21E93F7C
:10218000FFFFEF3FFFFFDF3F0000F03F0000E03FB9
:102190003233EF3F02460B4617F0FAFF4BA3D3E969
:1021A000002306460F4617F0F3FF4AA3D3E90023A6
:1021B00017F038FE32463B4617F0EAFF47A3D3E953
:1021C000002317F02DFE32463B4617F0E1FF45A3F2
:1021D000D3E9002317F026FE32463B4617F0D8FF1E
:1021E00042A3D3E9002317F01BFE32463B4617F00B
:1021F000CFFF40A3D3E9002317F014FE32463B463D
:1022000017F0C6FF3DA3D3E9002380468946304638
:10221000394617F0BDFF3BA3D3E9002317F000FEBA
:1022200032463B4617F0B4FF38A3D3E9002317F03A
:10223000F9FD32463B4617F0ABFF36A3D3E9002346
:1022400017F0EEFD32463B4617F0A2FF00221E4B70
:1022500017F0E8FD02460B464046494618F0C2F822
:1022600022462B4617F094FF22462B4617F0DAFD44
:1022700007B0BDE8F08F52465B46DDE9000118F07B
:10228000B1F842464B4617F083FF42464B4617F0E3
:10229000C9FD02460B4617F0C5FD07A3D3E900238D
:1022A00017F0BEFD02460B4605A1D1E9000117F06B
:1022B000B7FD24E7AFF30080075C143326A6913CFA
:1022C000182D4454FB21F93F0000F03F09F7FD0DA4
:1022D000E13D023F88B20175E0EF493F3B8F68B5B1
:1022E0002882A43F5544880E55C1C93F7D6FEB033A
:1022F00012D6D43F555555555555C53F82922EB1EE
:10230000C5B8B33F59018D1B6C06E63FC88A599C7E
:10231000E52A00404B2D8A1C273A034000000000AC
:102320002DE9F84F1D465342134325F00049DFF8CD
:10233000C8C149EAD3736345144606460F4626D8FA
:10234000C0F1000848EA000821F0004A4AEAD878BB
:10235000E04503468B461AD805F1404808F5801839
:1023600058EA0208AE4643D04FEAA57808F00208C2
:102370005AEA030348EAD17811D1B8F1020F55D0D7
:10238000B8F1030F09D14AA1D1E9000105E03246B5
:102390003B462046294617F045FDBDE8F88F59EA2F
:1023A000020329D0E1452ED0E24525D0AAEB090948
:1023B0004FEA2959B9F13C0F3CDC002D3EDA19F106
:1023C0003C0F3BDA00200021B8F1010F4ED0B8F1EC
:1023D000020F3ED0B8F1000FDFD037A3D3E90023BE
:1023E00017F01EFD36A3D3E9002317F019FDD4E73B
:1023F000BDE8F84FFEF744BBBBF1000F12DB32A182
:10240000D1E90001C9E7CA4534D0B8F1020F0DD0B7
:10241000B8F1030FB7D0B8F1010F4FF0000036D07C
:102420000021BAE72AA1D1E90001B6E724A1D1E948
:102430000001B2E724A1D1E90001C5E722462B46FD
:102440003046394617F0CEFF15F022FEFEF718FB96
:10245000BAE719A3D3E9002317F0E2FC02460B46C2
:1024600017A1D1E9000117F0DBFC96E701F1004369
:10247000194692E7B8F1020F14D0B8F1030F0DD04E
:10248000B8F1010F06D014A1D1E9000185E74FF0A2
:10249000004182E712A1D1E900017EE712A1D1E952
:1024A00000017AE712A1D1E9000176E7AFF30080DD
:1024B000182D4454FB2109C0075C143326A6A13C07
:1024C000182D4454FB210940182D4454FB21F93F99
:1024D000182D4454FB21F9BF182D4454FB21E93F2A
:1024E000182D4454FB21E9BFD221337F7CD902C08F
:1024F000D221337F7CD902400000F07F0000000031
:1025000043422DE9F047034321F000463C4A46EAA6
:10251000D373934204460D462AD8964240D0394B95
:102520009E428A462EDD384B9E4235463FDD33467D
:102530000246314617F076FC224606460F462B46E9
:1025400000202F4917F06CFC02460B4630463946F6
:1025500017F048FFFEF728FD00222C4B17F018FE5D
:10256000BAF1000F0CDA01F100431946BDE8F0871B
:1025700002460B4617F054FC02460B4617F032FF9A
:10258000BDE8F0871CA3D3E9002317F04BFC002221
:10259000002318F08DF848B120462946BDE8F087A1
:1025A0000022002317F01EFFBDE8F08735462246C3
:1025B0002B462046294617F035FC22462B46064678
:1025C0000F4617F0E5FD2246804689462B4600203F
:1025D0000B4917F025FC02460B464046494617F0CA
:1025E00001FF32463B4617F01DFCFEF7DDFC0022E2
:1025F000064B17F0CDFDB3E79C7500883CE4377EB1
:102600000000F03FFFFF2F3EFFFFDF3F0000E03FF5
:102610002DE9F8434E4B21F000449C4206460F46FC
:102620001BDC4C4B9C4222DD4B4B9C4254DD4B4B04
:102630009C4246DD4A4B9C426FDD01339C4269D08F
:1026400041A3D3E900231046194617F0A1FD064621
:102650000F4630463946BDE8F88302460B4617F070
:1026600097FD06460F4630463946BDE8F88315F01B
:102670000FFD02F04DFC00223A4B8046894617F0D0
:10268000D1FBB4F1725F06460F46ECDB42464B4687
:102690004046494617F07CFD32463B4604460D460F
:1026A0003046394617F0BEFB02460B462046294607
:1026B00017F098FE00222B4B17F0B4FB06460F468E
:1026C000D1E715F0E5FC00F053F80022264B17F097
:1026D0005FFD06460F46C6E715F0DAFC00F048F845
:1026E0000022214B06460F4617F052FD32460446A3
:1026F0000D463B4600201C4917F074FE02460B466F
:102700002046294617F08EFB06460F4630463946CE
:10271000BDE8F883154B984292D83046394615F0FB
:10272000B7FC0022104B17F033FD00F021F8002217
:1027300004460D460C4B17F02BFD22462B4617F096
:1027400027FD06460F468EE79C7500883CE4377EE1
:10275000FFFFEF7F422ED63FFFFF3540412E8640E0
:10276000CD3386400000F03F0000E03F7DF8B98F98
:102770002DE9F047B04F21F00042BA4284B0044640
:102780000D464FEAD17610D9AC4FBA4240F28A805A
:10279000C1F313030343024640F0F180002E7ED0C4
:1027A0000020002104B0BDE8F087A54B9A4200F25A
:1027B000B680A44B9A4240F2D1804FF0000A2246E4
:1027C0002B462046294617F0E3FC85A3D3E90023D6
:1027D00006460F4617F0DCFC83A3D3E9002317F06D
:1027E0001FFB32463B4617F0D3FC81A3D3E90023FD
:1027F00017F018FB32463B4617F0CAFC7EA3D3E91C
:10280000002317F00DFB32463B4617F0C1FC7CA3BA
:10281000D3E9002317F006FB32463B4617F0B8FC1D
:1028200002460B462046294617F0FAFA02460B46A6
:1028300006460F462046294617F0AAFC80468946E0
:10284000BAF1000F00F0AB8032463B4600204FF05B
:10285000804117F0E5FA02460B464046494617F01C
:10286000C1FD02460B46DDE9020117F0D9FADDE9A8
:10287000002317F0D5FA0B4602467349002017F0E3
:10288000CFFA6FF47F739A4580F2A3800AF57A7AC3
:1028900001EB0A5100224FF0B87317F079FC04B035
:1028A000BDE8F08758A3D3E9002317F001FF002803
:1028B0006BD157A3D3E900232046294617F0DAFE4F
:1028C00000287FF46DAF614953A3D3E9002301EBE6
:1028D000C6062046294617F05BFCD6E9002317F010
:1028E000A1FA17F005FF824617F0E8FB4CA3D3E9E5
:1028F000002306460F4617F04BFC02460B462046C7
:10290000294617F08DFA48A3D3E90023CDE9000149
:102910003046394617F03CFCCDE9020115E04C4B3E
:102920009A42D0D84B4BF4002344D3E9002317F04C
:1029300077FA494B234493ED007BCDE900018DEDFF
:10294000027BC6F1010AAAEB060ADDE90223DDE9F2
:10295000000117F065FA04460D4630E734A3D3E9C9
:10296000002317F05FFA0022374B17F0A1FEA8B33F
:10297000204629460022344B17F054FA8FE70B46C5
:1029800017F050FA04B0BDE8F08729A3D3E900237B
:102990001046194617F0FCFB04B0BDE8F08730463E
:1029A000394600224FF0804317F03AFA02460B46B0
:1029B0004046494617F016FD22462B4617F030FADE
:1029C00002460B460020204917F02AFA04B0BDE861
:1029D000F08701EB0A5104B0BDE8F0878246EEE6CD
:1029E000D0A4BE726937663EF16BD2C541BDBB3E15
:1029F0002CDE25AF6A56113F93BDBE166CC1663FF3
:102A00003E5555555555C53FEF39FAFE422E864085
:102A100051302DD5104987C0FE822B654715F73FF1
:102A20000000E0FE422EE63F763C7935EF39EA3D84
:102A30009C7500883CE4377E412E8640FFFFEF7F87
:102A4000422ED63FFFFF2F3E0000F03F20B5010091
:102A5000B1A2F03F30B5010040B501000000000018
:102A60002DE9F04FB1F5801F85B006460F460B46A5
:102A700080F2D08021F00042024300F0DA80002989
:102A8000C0F2E9800022D64B17F082FBD54A0B46F4
:102A9000934206460F466FF0350E00F3C180C3F334
:102AA000130505F5152C0CF6647C0CF4801C8CF0D9
:102AB0007F5282F440121C1542EA0507A4F2FF344B
:102AC00074440022C84B3046394604EB1C5417F0BE
:102AD000A7F9AB1CC3F31303022B82468B464FF0BE
:102AE000000240F3AF804FF0804317F09BF902469D
:102AF0000B465046594617F075FC064620460F46D1
:102B000017F0DCFA3246CDE902013B463046394641
:102B1000CDE9006717F03CFB02460B46804689462C
:102B200017F036FB9AA3D3E9002306460F4617F0A9
:102B30002FFB99A3D3E9002317F074F932463B46E3
:102B400017F026FB96A3D3E9002317F06BF9324662
:102B50003B4617F01DFB94A3D3E9002317F062F95D
:102B600042464B4617F014FB91A3D3E9002380465D
:102B700089463046394617F00BFB8FA3D3E9002373
:102B800017F050F932463B4617F002FB8CA3D3E90D
:102B9000002317F047F932463B4617F0F9FA0B4687
:102BA00002464946404617F03DF9A5F5C223C5F552
:102BB000D725A3F27A4351351D43002D06460F4613
:102BC00040F387800022894B5046594617F0E0FABF
:102BD00052465B4617F0DCFA02460B4680468946B1
:102BE0003046394617F01EF9DDE9002317F0D0FA18
:102BF00006460F46002C40F0818002460B464046B8
:102C0000494617F00DF902460B465046594617F053
:102C100007F90BE0734A93424FF0000E7FF73FAF86
:102C200032463B463046394617F0FCF805B0BDE861
:102C3000F08F0022002300206D4917F0D3FB05B070
:102C4000BDE8F08F002317F00BFD60B1002C7CD1A4
:102C500000200021EAE7024617F0E2F800220023F4
:102C600017F0C0FBE2E758A3D3E9002350465946CA
:102C700017F08EFA02460B4600205C4917F0D0F898
:102C8000524606460F465B465046594617F080FAB4
:102C900002460B463046394617F07AFA06460F468A
:102CA0002CB3204617F00AFA49A3D3E90023804643
:102CB000894617F06DFA48A3D3E9002304460D4670
:102CC0004046494617F064FA02460B4630463946FC
:102CD0002CE002460B465046594617F0A1F8DDE9B4
:102CE000002317F055FA06460F46002C47D132460E
:102CF0003B465046594617F093F897E734A3D3E97B
:102D00000023DDE9020117F043FA33A3D3E90023DE
:102D100004460D46DDE9020117F03AFA32463B4619
:102D200017F080F802460B464046494617F078F8FF
:102D300052465B4617F074F802460B462046294679
:102D400017F06EF805B0BDE8F08F204617F0B6F921
:102D50001FA3D3E9002306460F4617F019FA1EA356
:102D6000D3E9002304460D463046394617F010FAE1
:102D700002460B462046294617F054F856E7DDE98F
:102D8000028913A3D3E900234046494691E700BFD7
:102D900044523EDF12F1C23FDE03CB966446C73F8A
:102DA000599322942449D23F935555555555E53FA3
:102DB0009FC678D0099AC33FAF788E1DC571CC3FAE
:102DC00004FA97999999D93F555555555555D53F79
:102DD0000000E0FE422EE63F763C7935EF39EA3DD1
:102DE00000005043FFFFEF7F0000F03F0000E03F96
:102DF000000050C300000000B1F5801F2DE9F8432A
:102E000004460D460B4619DA21F00042024359D020
:102E100000295FDB00223A4B17F0BAF9394A0D4618
:102E20002B46934204466FF035010CDD22462B46BB
:102E30002046294616F0F6FFBDE8F883314A934252
:102E40004FF00001F2DC1815A0F2FF3008444FEA01
:102E5000D0794844C3F3130817F030F9C9F57F73EC
:102E6000033348EA035506460F4620462946FFF736
:102E7000F7FD1DA3D3E90023804689463046394635
:102E800017F086F91AA3D3E9002304460D464046FD
:102E9000494617F07DF902460B462046294616F0B2
:102EA000C1FF15A3D3E9002304460D463046394639
:102EB00017F06EF902460B462046294616F0B2FF7F
:102EC000BDE8F8830022002300200F4917F08AFA9A
:102ED000BDE8F883024616F0A3FF0022002317F096
:102EE00081FAA9E7AFF30080362BF111F3FE593DCB
:102EF0000EE526157BCBDB3F00609F501344D33F8C
:102F000000005043FFFFEF7F000050C300000000AF
:102F10002DE9F04F23F0004555EA020493B00DD09F
:102F20006B4E21F00044B4420F4682460BDD04F1A3
:102F3000404404F5801454EA0A0350D16549002046
:102F400013B0BDE8F08F9B46944647D0B542EEDC07
:102F50005F4EB5425DD0002F80468946CDE9002303
:102F60005BDB0026BCF1000F0ED1594B9D423FD0D8
:102F7000584B9D4200F08880BBF1804F00F09C8050
:102F8000554B9B4500F0B8834046494615F080F804
:102F9000BAF1000F06D1002C59D04E4B27F0404219
:102FA0009A4254D0FF0F013F56EA070373D04B4BB0
:102FB0009D4240F39B8003F104739D4240F33E84A5
:102FC000474B9C4272DDBBF1000F72DD3EA3D3E99B
:102FD00000231046194617F0DBF8B1E728B1414845
:102FE00013B0BDE8F04F16F027BDA542F7DCAFE700
:102FF00004F1404303F5801353EA0A039ED0384B93
:103000009C4240F38383BBF1000F52DBDDE90001FA
:1030100096E7BCF1000F9ED089E7334B9D4231DC2F
:10302000A3F154739D429CDD2B15A3F2FF33142BA7
:1030300040F3A583C3F134032CFA03F202FA03F33D
:1030400063458ED102F00102C2F102068AE7BBF1AC
:10305000000F05DA02460B4600201E4917F0C2F9A0
:10306000002FBFF66DAF04F1404404F5801454EA1C
:10307000060300F03F84012E7FF462AF01F10043AC
:1030800019465DE702266DE7BBF1000FC0F24883E9
:103090004046494654E742464B461046194616F00C
:1030A000BFFE02460B4617F09DF949E7BBF1000F42
:1030B0008CDB0020002143E742464B464046494610
:1030C00017F066F83CE700BF9C7500883CE4377E4B
:1030D0000000F07F0000F03F0000E03F0000E04112
:1030E000FFFFEF3F48BD0100FFFF3F43B4F5801FE6
:1030F00080F261830022D24B17F04AF86FF0340C53
:103100000C462315CF4DC4F31302A3F2FF3342F054
:103110007F546344AA420B9344F4401440F33F832A
:10312000C94B9A4240F304849FEDAF7B8DED087B41
:103130008DED107B9FEDAE7B0B9B8DED067B013300
:103140000B93A4F580140025DDE906232146824671
:1031500016F066FEA346DDE9062380468946504602
:103160002146CDE90CAB16F05DFE02460B46002071
:10317000B64917F037F90A460146CDE90E12134653
:1031800049460246404617F003F8631043F00053E7
:1031900082468B4603F500238C46CDE904AB5919D2
:1031A000D3460023CDE902BC0293DDE902AB002047
:1031B00004460D4602460B465046594616F0E8FFB7
:1031C00002460B464046494616F02AFEDDE9062334
:1031D000804689462046294616F022FE02460B46C6
:1031E000DDE90C0116F01CFE52465B4616F0D0FFDE
:1031F00002460B464046494616F012FEDDE90E2314
:1032000016F0C6FFDDE90445CDE9060122462B464E
:103210002046294616F0BCFF77A3D3E900230446D5
:103220000D4616F0B5FF76A3D3E9002316F0FAFD9C
:1032300022462B4616F0ACFF73A3D3E9002316F009
:10324000F1FD22462B4616F0A3FF71A3D3E900231C
:1032500016F0E8FD22462B4616F09AFF6EA3D3E93E
:10326000002316F0DFFD22462B4616F091FF6CA3DB
:10327000D3E9002316F0D6FD2246804689462B4628
:103280002046294616F084FF02460B464046494632
:1032900016F07EFF524604460D465B46DDE904010A
:1032A00016F0C0FDDDE9062316F072FF22462B461C
:1032B00016F0B8FD5246804689465B465046594650
:1032C00016F066FF0022624BCDE90C0116F0AAFD54
:1032D00042464B4616F0A6FD02980D46044622468D
:1032E0002B465046594616F053FF002282468B4625
:1032F000574B2046294616F093FDDDE90C2316F0C6
:103300008FFD02460B464046494616F089FDDDE931
:10331000042316F03DFF2246804689462B46DDE910
:10332000060116F035FF02460B464046494616F0A8
:1033300079FD8046894602460B465046594616F0AE
:1033400071FD029838A3D3E9002304460D4616F018
:103350001FFF5246CDE904015B462046294616F080
:103360005FFD02460B464046494616F059FD30A324
:10337000D3E9002316F00CFF2FA3D3E900238046E6
:1033800089462046294616F003FF02460B46404672
:10339000494616F047FDDDE9102316F043FD80464F
:1033A0000B98894616F08AFE424682468B464B466B
:1033B000DDE9040116F036FDDDE9082316F032FDE3
:1033C00052465B4616F02EFD029852465B46044676
:1033D0000D4616F025FDDDE9082316F021FDDDE997
:1033E000042337E0AFF3008000000000000000007D
:1033F000000000000000F03FEF4E454A287ECA3F23
:1034000065DBC9934A86CD3F01411DA96074D13F58
:103410004D268F515555D53FFFAB6FDBB66DDB3F6A
:10342000033333333333E33F000000E009C7EE3F9B
:10343000FD033ADC09C7EE3FF5015B14E02F3EBE09
:10344000000040438E98030079B60B000000F03F67
:103450000000084016F0E4FC0B4602464946404690
:1034600016F0DEFC013E56EA070382468B4600F06A
:103470005E819FEDD37B8DED047BDDE9001200239F
:103480000E461746CDE902670293DDE9026708465A
:103490003B461146324616F0C3FC22462B4616F038
:1034A00077FEDDE90023804689465046594616F0EE
:1034B0006FFE02460B464046494616F0B3FC3246C4
:1034C000804689463B4620462946CDE9008916F0CC
:1034D0005FFE0B46024606460F464046494616F03A
:1034E000A1FCD14B994204460D468A4640F3248103
:1034F00001F13F4303F5E003034340F0FF81B2A332
:10350000D3E90023DDE9000116F08CFC3246804649
:1035100089463B462046294616F082FC02460B4669
:103520004046494617F0C4F8002840F0E781A84615
:103530004FEA2853A3F2FE324FF480131341534451
:10354000C3F30A52B94DA2F2FF321541C3F313047B
:1035500023EA05010020C2F1140B44F48014BAF1EF
:10356000000F02460B4644FA0BFB30463946B8BF03
:10357000CBF1000B16F054FC06460F463246DDE94F
:1035800000013B4616F04EFC4FEA0B5A0D46002454
:103590008FA3D3E900232046294616F0F9FD3246D1
:1035A000804689463B462046294616F039FC0246AD
:1035B0000B46DDE9000116F033FC87A3D3E90023B5
:1035C00016F0E6FD86A3D3E9002306460F46204603
:1035D000294616F0DDFD02460B463046394616F008
:1035E00021FC06460F4602460B464046494616F069
:1035F00019FC42464B4604460D4616F011FC0246A5
:103600000B463046394616F00BFC2246804689466A
:103610002B462046294616F0BBFD73A3D3E90023B1
:1036200006460F4616F0B4FD71A3D3E9002316F049
:10363000F7FB32463B4616F0ABFD6FA3D3E9002300
:1036400016F0F0FB32463B4616F0A2FD6CA3D3E920
:10365000002316F0E5FB32463B4616F099FD6AA3BF
:10366000D3E9002316F0DEFB32463B4616F090FD10
:1036700002460B462046294616F0D2FB06460F4668
:1036800002460B462046294616F082FD0022CDE96F
:1036900000014FF080433046394616F0C1FB024628
:1036A0000B46DDE9000116F09DFE424606460F4638
:1036B0004B462046294616F06BFD42464B4616F017
:1036C000B1FB02460B463046394616F0A9FB2246AE
:1036D0002B4616F0A5FB02460B460020544916F077
:1036E0009FFB8A44BAF5801FC0F232815146DDE962
:1036F000042316F04DFD23E4002FFFF645AC4046B1
:10370000494613B0BDE8F04F15F05EBBBBF1000FAA
:10371000BFF6CFACDDE90034184604F100410FE4F8
:1037200042464B460020424916F05CFE08E49FEDFD
:10373000387B8DED047BA0E63E4B21F00048984598
:1037400040F3EA803C4B0B4403430AD132463B46EC
:1037500016F066FBDDE9002316F0A0FF00283FF419
:10376000E7AEDDE904012CA3D3E9002316F010FD38
:1037700029A3D3E9002316F00BFDFFF7E1BBBCF151
:10378000000F40F0D280C3F1140345FA03F202FAAD
:1037900003F3AB4200F0E0806646FFF7E9BB9FED24
:1037A000207B8DED087B8DED107B9FED057B00254B
:1037B0008DED067BC8E44FF0000CA2E4AFF300806F
:1037C000000000000000F03FFE822B654715973C8B
:1037D00000000000432EE63FEF39FAFE422EE63F9E
:1037E000396CA80C615C20BED0A4BE726937663EFD
:1037F000F16BD2C541BDBB3E2CDE25AF6A56113FF1
:1038000093BDBE166CC1663F3E5555555555C53FD7
:10381000000000000000F0BF59F3F8C21F6EA501C0
:103820000000000000000000FFFF8F40FFFF0F00BE
:103830000000F03FFFCB904000346F3F5A4B9C425A
:103840007FF734AC594B9C423FF7BDAB0022574B3E
:1038500016F0E6FA44A3D3E9002304460D4616F019
:1038600097FC43A3D3E9002382468B462046294692
:1038700016F08EFC0022CDE902014D4B2046294670
:1038800016F086FC02460B463BA1D1E9000116F07A
:10389000C7FA22462B4616F07BFC02460B46002058
:1038A000444916F0BDFA2246804689462B462046FA
:1038B000294616F06DFC02460B464046494616F076
:1038C00067FC2FA3D3E9002316F062FC02460B46E7
:1038D000DDE9020116F0A4FA02460B46804689464D
:1038E0005046594616F09EFA002004460D465246B0
:1038F0005B46AFE502460B46FFF7CFBBDDE90401AF
:1039000021A3D3E9002316F043FC1FA3D3E900232E
:1039100016F03EFCFFF714BB264B98453FF708AE68
:10392000DDE902239246934631E60026FFF72CBBE1
:103930009FED177B8DED087B9FED177B8DED107B49
:103940009FED177B4FF480258DED067BFFF7FCBBC9
:103950005A4601F029FDCAE602F00102C2F1020650
:10396000FFF706BBAFF30080000000604715F73F8C
:1039700044DF5DF80BAE543E555555555555D53F72
:10398000FE822B654715F73F9C7500883CE4377E27
:103990000000004003B8E23F06D0CF43EBFD4C3EB1
:1039A000000000000000F83FFEFFEF3F0000F03F86
:1039B0000000D03F0000E03F2DE9F047CA4B21F066
:1039C00000479F4290B08046894640F38F80C74BA6
:1039D0009F420C46924626DC0029B9A3D3E9002376
:1039E00040F38F8016F01CFAC14B9F4204460D46EF
:1039F00000F04781B4A3D3E9002316F011FA024680
:103A00000B46CAE900232046294616F009FAAEA360
:103A1000D3E9002316F004FA0125CAE90201284679
:103A200010B0BDE8F087B34B9F4240F38980B24BA2
:103A30009F4200F31C813D15A5F21645A7EB0553E7
:103A400019461F46064616F053FE16F037FB804611
:103A5000894642464B4630463946CDE90A8916F03A
:103A6000DFF90022A54B16F093FB8946804616F03D
:103A70003FFE16F023FB06460F4632463B464046C5
:103A80004946CDE90C6716F0CBF900229B4B16F0A6
:103A90007FFB00220023CDE90E0116F0E1FD002896
:103AA00000F06081002330463946002216F0D8FD30
:103AB000002814BF01230223914A019202212A46C1
:103AC00000910AA8514600F087FB002C054614DA45
:103AD000DAF80420DAF80C3002F1004203F1004376
:103AE0004542CAF80420CAF80C3006E00020002144
:103AF000C2E90089C2E902010025284610B0BDE8EC
:103B0000F08716F08FF97A4B9F4204460D4600F07D
:103B10000B816DA3D3E9002316F084F902460B460E
:103B2000CAE900232946204616F07AF966A3D3E9AC
:103B3000002316F077F94FF0FF35CAE90201DCE700
:103B400014F0A6FA62A3D3E900238046894616F052
:103B50001FFB00226B4B16F065F916F0C9FD0546F8
:103B600016F0ACFA56A3D3E90023CDE9060116F00E
:103B70000FFB02460B464046494616F051F952A348
:103B8000D3E9002380468946DDE90601CDE90289B3
:103B900016F0FEFA1F2D02460B46CDE9042340F332
:103BA000B380DDE90423DDE9020116F039F980462E
:103BB00089463F15C9F30A53FB1A102B40F3B18015
:103BC00045A3D3E90023DDE9060116F0E1FA8046BA
:103BD000894602460B46DDE9020116F021F902464C
:103BE0000B46DDE90201CDE9082316F019F942463A
:103BF0004B4616F015F93AA3D3E9002380468946CF
:103C0000DDE9060116F0C4FA42464B4616F008F903
:103C10000B46CDE904010246DDE9080116F000F982
:103C2000C1F30A53FF1A312F8046894600F39C8066
:103C30009DED087BCAE900898DED027B42464B462B
:103C4000DDE9020116F0ECF8DDE9042316F0E8F8EE
:103C5000002CCAE90201BFF650AF09F1004401F19E
:103C600000436D42CAE90084CAE9020345E70246FF
:103C70000B4616F0D5F80025CAE90201CAE9000191
:103C80003BE715A3D3E9002316F0CAF814A3D3E940
:103C900000230D46044616F0C3F802460B46CAE957
:103CA00000232946204616F0BBF80DA3D3E90023D4
:103CB00016F0B6F80125CAE902011EE7AFF300804D
:103CC00000004054FB21F93F3163621A61B4D03DDA
:103CD00083C8C96D305FE43F0000601A61B4D03D15
:103CE0007370032E8A19A33BFB21E93F7BD9024065
:103CF000FB21F93FFB213941FFFFEF7F00007041BD
:103D000028C901000000E03F4046494616F088F807
:103D1000394B6A1E804653F82230BB4289463FF435
:103D200048AFCAE9008989E72BA3D3E9002316F03D
:103D300079F82BA3D3E900230D46044616F072F858
:103D400002460B46CAE900232946204616F068F8C9
:103D500023A3D3E9002316F065F84FF0FF35CAE935
:103D60000201CAE60323A7E61FA3D3E90023DDE986
:103D7000060116F00DFA06460F4602460B46DDE92F
:103D8000080116F04DF88046894602460B46DDE9EB
:103D90000801CDE9028916F043F832463B4616F099
:103DA0003FF813A3D3E9002306460F46DDE90601D9
:103DB00016F0EEF932463B4616F032F802460B4654
:103DC00040464946CDE9042316F02AF88046894644
:103DD000A7E700BFAFF300800000601A61B4D03DD8
:103DE0007370032E8A19A33B0000002E8A19A33B8F
:103DF000C14920259A837B39A8C801000000000032
:103E0000574A2DE9F84F21F00048904506460F46E5
:103E10002CDC544B0029B4BF534D544D98454FF002
:103E2000000411DC524B984526DC4BA3D3E9002358
:103E300015F0F8FF00224F4B16F03AFC002840D056
:103E400030463946BDE8F88F4B4B984530DD4B4B3B
:103E5000984568DD0133984562D0304639463EA327
:103E6000D3E9002316F094F9BDE8F88F02460B461B
:103E700015F0D8FFBDE8F88F14F00AF901F048F802
:103E80003F4B984506460F4623DD0022394B15F07F
:103E9000C9FF02460B463046394616F0A3FA3246B1
:103EA0003B4615F0BFFF22462B4616F071F9E1E7BD
:103EB00014F0EEF8FEF75CFC22462B4616F068F98B
:103EC000D8E73046394614F0E3F801F021F8064609
:103ED0000F4632463B463046394615F0A3FF324680
:103EE00082468B463B463046394616F051F9002251
:103EF000804689461F4B3046394615F093FF0246EF
:103F00000B464046494616F06DFA02460B465046AF
:103F1000594615F085FF22462B4616F039F9A9E7D8
:103F2000184B984299D83046394614F0B1F800221F
:103F30000E4B16F02DF9FEF71BFC06460F46024607
:103F40000B462046294616F023F932463B4616F02A
:103F50001FF98FE7AFF300803374AC3C1F7BAC7F5D
:103F6000FFFFEF7FFFFF35400000E0BF0000E03FB4
:103F7000FFFF2F3E0000F03F412E8640CD338640AC
:103F8000FFFFEF3F7DF8B98F2DE9F04F21F000489A
:103F9000B8F1795F85B006460F4692469B466BDACC
:103FA00016F0A6FB002800F0E18032463B46304682
:103FB000394616F0EDF874A3D3E9002304460D4604
:103FC00016F0E6F872A3D3E9002315F02BFF224682
:103FD0002B4616F0DDF870A3D3E9002315F020FF7F
:103FE00022462B4616F0D4F86DA3D3E9002315F032
:103FF00019FF22462B4616F0CBF86BA3D3E900231A
:1040000015F00EFF22462B4616F0C2F868A3D3E93E
:10401000002315F007FF22462B4616F0B9F8CDE92C
:1040200000010022664B2046294616F0B1F8DDE972
:104030000023804689462046294616F0A9F85246B4
:1040400004460D465B463046394616F0A1F8024656
:104050000B462046294615F0E3FE02460B46404635
:10406000494615F0DDFE02460B460020554915F085
:10407000D7FE05B0BDE8F08F02460B4616F088F873
:1040800041A3D3E9002304460D4616F081F840A36E
:10409000D3E9002315F0C6FE22462B4616F078F829
:1040A0003DA3D3E9002315F0BBFE22462B4616F0B4
:1040B0006FF83BA3D3E9002315F0B4FE22462B464C
:1040C00016F066F838A3D3E9002315F0A9FE2246BE
:1040D0002B4616F05DF836A3D3E9002315F0A2FEB7
:1040E0002B46224616F054F8374B9845CDE900018F
:1040F00097DD364B98453EDCA8F5001300220020E2
:1041000030499046994615F08BFECDE90201002218
:104110002B4B2046294616F03BF842464B4615F0FD
:104120007FFEDDE90023804689462046294616F0B9
:104130002FF8524604460D465B463046394616F087
:1041400027F802460B462046294615F069FE02462E
:104150000B464046494615F063FE02460B46DDE934
:10416000020115F05DFE05B0BDE8F08F1549002095
:1041700005B0BDE8F08F9FED107B4FF000088DED8E
:10418000027BDFF84C90C2E7D43888BEE9FAA8BDBC
:10419000C4B1B4BD9EEE213EAD529C804F7E923E96
:1041A0009015CB19A001FA3E7751C1166CC1563F4C
:1041B0004C5555555555A53F000000000000E73F00
:1041C0000000E03F0000F03F3233D33F0000E93F02
:1041D0000000D23F000000002DE9F04FADF5197D41
:1041E000BE4CA29EBE4D54F826600793D41E85FB9C
:1041F0000475E417C4EBA50424EAE4741D46631CAB
:10420000A3EB8303013D02EBC303059373190496EB
:104210000994019503900B91A4EB05071AD43B4434
:10422000002400255E1C0DF18008DDF88C9208E06A
:1042300059F8270015F042FF0137B742E8E80201BC
:1042400008D0002FF4DA013720462946B742E8E8C3
:104250000201F6D1049B002B079B4FEAC303029394
:104260002ADB039A20A902EB030801EB0309049B54
:1042700072AA02EBC30B0DF5E07A019B002B4FF005
:1042800000064FF0000711DB039C4D4675E9022341
:10429000F4E8020115F07CFF02460B463046394631
:1042A00015F0C0FD444506460F46EFD1EAE8026727
:1042B000DA4509F10809E0D1DDE902040499204456
:1042C0008B0082460BA8A3F10802C31808930CAB1D
:1042D00013440A938B4698AB03EBCB03BBF1000F5F
:1042E00053E9284529DD70AB03EBCB080DF130090C
:1042F00000227C4B2046294615F04AFF16F0F8F9BB
:1043000015F0DCFE0022784B06460F4615F040FF04
:1043100002460B462046294615F082FD16F0E8F9C4
:1043200078E9022349F8040B3946304615F07AFD46
:1043300070AB984504460D46DAD1DDF8149020465E
:1043400029464A4601F030F800224FF07F530446D8
:104350000D4615F01DFFFCF7A7FD0022634B15F07D
:1043600017FF02460B462046294615F059FD0D461B
:10437000044616F0BDF9804615F0A0FE0B46024635
:104380002946204615F04CFD4B46002B06460F46AD
:1043900040F3E1800BF1FF320CA9C9F1180351F889
:1043A000225045FA03F101FA03F30CA8EB1A40F886
:1043B0002230C9F11705884443FA05F5002D2CDD9C
:1043C000BBF1000F08F1010840F381820C9C002C26
:1043D00040F0A780BBF1010F0AD00CA9012251F8CF
:1043E000044F531C002C40F09E809B451A46F6D18A
:1043F000059B002B0EDD012B00F0D980022B09D18B
:104400000BF1FF320CAB0CA953F82230C3F31503A8
:1044100041F82230022D00F0AF8000220023304608
:10442000394616F01DF9002800F05382049B0BF169
:10443000FF394B4510DC0BF180430CAA013B089877
:1044400002EB8303002253F80419834242EA01027B
:10445000F9D1002A40F0B680049B0CAA013B52F827
:104460002330002B40F0A1800A9A012352F804194E
:1044700001330029FAD05B440BF1010999450693F9
:104480004CDC099A079909EB020801EB0B0508F1CE
:10449000804802EB030BA39B08F1FF3803EB88086D
:1044A00070AB03EBC909A39B20A903EB8B0301EBC2
:1044B000C505029358F8040F15F000FE0B4601994C
:1044C0000246002905F1080BC5E900234FF000065C
:1044D0004FF000071CDB039C0CE000BFC8CD0100BF
:1044E000ABAAAA2A0000703E0000704100002040E4
:1044F00075E90223F4E8020115F04AFE02460B4674
:104500003046394615F08EFC544506460F46EFD12D
:10451000029B9845E9E802675D46CBD1DDF818B00B
:10452000D9E6012300220CA9C4F180749B4541F80F
:1045300022400EDD51F8232001EB8B0001EB8303B9
:104540006FF07F4100E01A688A1A43F8042B834217
:10455000F9D101244CE706D10BF1FF330CAA52F834
:104560002350ED152AE700227B4B16F097F8002820
:1045700040F0A381054650E732463B46002077498C
:1045800015F04EFC06460F46002C3FF446AF059A48
:104590007249002000F008FF02460B4630463946BB
:1045A00015F03EFC06460F4637E7012363E70BF1A3
:1045B000FF320CAB0CA953F82230C3F3160341F8B9
:1045C000223027E70CAB059A53F82930183ACDE989
:1045D000068505926BB909F18043013B0CA901EBFB
:1045E000830353F8041909F1FF39183A0029F8D068
:1045F0000592059A5949002000F0D6FEB9F1000F46
:1046000004460D46C0F2C0814FEAC90370AA02EB0E
:10461000030808930CAB03EB8906DFF844B14FF0B5
:10462000000A08F10807043656F8040D15F046FD97
:1046300022462B4615F0ACFD5B4667E90201524667
:104640002046294615F0A4FD0CAB9E4204460D46BB
:10465000EAD148AB03930193CDF8149009F101031B
:10466000DDF810900293C3464FF0000AB9F1000F35
:10467000C0F22A81DFF8EC805D4635A3D3E9002340
:1046800000260027002403E0544510DCF8E802234C
:10469000F5E8020115F07CFD02460B46304639462E
:1046A00015F0C0FB0134A14506460F46ECDA019B2C
:1046B000E3E802670193029B0AF1010A9A45ABF114
:1046C000080BD3D1A29BDDF81490032B39D8DFE877
:1046D00013F0D900060006004D0048AB0393B9F172
:1046E000000F4FF000004FF0000109DB039D05EBC8
:1046F000C904083474E9022315F094FBA542F9D1EA
:10470000079B002B40F01E810B9BC3E900010B4669
:1047100003990246D1E9000115F082FBB9F1000FBF
:104720000CDD4AAD01240134F5E8022315F07AFBD3
:10473000A145F8DA079B002B40F014810B9BC3E9DD
:104740000201069B03F007000DF5197DBDE8F08F0F
:1047500000000040FB21F93F0000E03F0000F03F77
:104760000000703E68B5010048AB0393B9F1000F3B
:1047700040F32781039ACDF810904FEAC9030193C3
:10478000D318D3E900AB09F10053013B02EBC90890
:104790000293914678E9026752465B4630463946B5
:1047A00015F040FB04460D4602460B46304639469E
:1047B00015F036FB52465B4615F034FBC145A24668
:1047C000AB46C8E90201C8E90045E3D1DDF8109025
:1047D000B9F1010F40F3F580019B039A029913444C
:1047E000C900D3E9006701F1080A019192440DF56F
:1047F000947B7AE9028932463B464046494615F0A9
:1048000011FB04460D4602460B464046494615F04C
:1048100007FB32463B4615F005FBD34526462F469F
:10482000CAE90201CAE90045E3D1019C039B1034A7
:10483000002000211C4403F1100574E9022315F047
:10484000F1FAA542F9D1039C079ED4E90023D4E9EB
:104850000245002E00F08A8003F1004701F1004379
:104860000B99C1E90403069B2646944605F10044D2
:1048700003F00700C1E900C7C1E902640DF5197D25
:10488000BDE8F08F089C039D0834002000212C44D3
:1048900074E9022315F0C6FAA542F9D1079B13B1BA
:1048A00001F1004319460B9BC3E90001069B03F08D
:1048B00007000DF5197DBDE8F08FBBF1000F08F181
:1048C000010874DD022581E500260027EFE60024BB
:1048D0008EE5CDE90685059D304639466A4200F0F1
:1048E00063FD0022384B06460F4615F0D7FE00B395
:1048F0000022364B3046394615F04AFC15F0F8FEDA
:10490000044615F0DBFB00222F4B15F041FC0B4653
:1049100002463946304615F083FA15F0E9FE0BF1F0
:1049200001090CAB183543F82B00059543F82940D5
:104930005FE63046394615F0DBFE0CABD94643F84E
:104940002B0056E60B9C01F10043C4E900030B4623
:1049500003990246D1E9000115F062FAB9F1000F9E
:104960003FF7DFAE01F100431946E7E60B9EC6E9CB
:104970000023069BC6E9040103F00700C6E90245CF
:104980000DF5197DBDE8F08FA29B032B3FF6D9AE44
:1049900001A252F823F000BFA9490000DB46000045
:1049A000DB460000694700000020002176E7324620
:1049B0003B460020064915F033FA022506460F460D
:1049C0002BE5002000213EE7000070410000703E12
:1049D0000000F03F000000002DE9F04F21F00046FC
:1049E000B6F1795F85B004460D469046994604DAE3
:1049F00015F07EFE002800F0858022462B462046DA
:104A0000294615F0C5FB06460F4602460B462046D2
:104A1000294615F0BDFB41A3D3E9002382468B460E
:104A20003046394615F0B4FB3EA3D3E9002315F018
:104A3000F7F932463B4615F0ABFB3CA3D3E9002324
:104A400015F0F0F932463B4615F0A2FB39A3D3E945
:104A5000002315F0E5F932463B4615F099FB37A3E4
:104A6000D3E9002315F0DEF90E9BCDE900019BB3DD
:104A70000022294B4046494615F08AFBDDE9002318
:104A8000CDE902015046594615F082FB02460B461D
:104A9000DDE9020115F0C4F932463B4615F078FB1A
:104AA00042464B4615F0BCF919A3D3E9002306464C
:104AB0000F465046594615F06BFB02460B463046F2
:104AC000394615F0AFF902460B462046294615F047
:104AD000A7F905B0BDE8F08F02460B4630463946CF
:104AE00015F056FB0AA3D3E9002315F099F95246B5
:104AF0005B4615F04DFB22462B4615F093F905B0A9
:104B0000BDE8F08F2046294605B0BDE8F08F00BF14
:104B1000495555555555C53F0000E03F7CD5CF5A06
:104B20003AD9E53DEB9C2B8AE6E55A3E7DFEB1572E
:104B3000E31DC73ED561C119A0012A3FA6F8101197
:104B40001111813F000000002DE9F04FC04C21F011
:104B5000004687B0A64282468B460F46CDE9002329
:104B60001ADC15F0C5FD00283FD1109B52460133D9
:104B70001343334300F0B781109B012B00F0C08139
:104B80005B460020B34915F02DFC04460D46204637
:104B9000294607B0BDE8F08FAF4B9E4225DD0029C6
:104BA00009DADDE90045224605F10043CDE900239D
:104BB0000BF100418B4652465B4685A1D1E90001CD
:104BC00015F02EF9DDE9002304460D4682A1D1E956
:104BD000000115F025F99FED827B22462B468DEDD5
:104BE000007B15F01FF982468B4652465B465046C5
:104BF000594615F0CDFA02460B468046894615F017
:104C0000C7FA424604460D464B465046594615F0F3
:104C1000BFFA75A3D3E90023CDE902012046294656
:104C200015F0B6FA72A3D3E9002315F0FBF822467B
:104C30002B4615F0ADFA70A3D3E9002315F0F2F876
:104C400022462B4615F0A4FA6DA3D3E9002315F0F4
:104C5000E9F822462B4615F09BFA6BA3D3E9002313
:104C600015F0E0F822462B4615F092FA68A3D3E936
:104C7000002315F0D7F842464B4615F089FA66A393
:104C8000D3E90023CDE904012046294615F080FA36
:104C900063A3D3E9002315F0C5F822462B4615F08F
:104CA00077FA61A3D3E9002315F0BCF822462B461E
:104CB00015F06EFA5EA3D3E9002315F0B3F822468F
:104CC0002B4615F065FA5CA3D3E9002315F0AAF88A
:104CD00022462B4615F05CFA59A3D3E9002315F0C0
:104CE000A1F802460B46DDE9040115F09BF8DDE969
:104CF000022315F04DFADDE9004522462B4615F05A
:104D000091F842464B4615F043FA22462B4615F0E1
:104D100089F84DA3D3E9002304460D46DDE90201DD
:104D200015F036FA22462B4615F07CF80B46024663
:104D3000804689465046594615F074F8464B9E42C7
:104D400004460D4600F38C80109B012B3BD002469D
:104D50000B4600203F4915F045FB002406460F4650
:104D60002046294652465B46CDE90067CDE902015F
:104D7000009415F055F8DDE900AB02460B464046BD
:104D8000494615F04DF852465B4615F001FA524679
:104D900004460D465B46DDE9020115F0F9F90022F3
:104DA0002E4B15F03FF802460B462046294615F0DB
:104DB00039F832463B4615F0EBF952465B4615F0A2
:104DC00031F804460D462046294607B0BDE8F08F6D
:104DD000182D4454FB21E93F075C143326A6813C7F
:104DE0000000000000000000D47ABF74702AFB3E6F
:104DF000E9A7F0320FB8123F68108D1AF726303F3E
:104E00001583E0FEC8DB573F93846EE9E326823FBB
:104E1000FE41B31BBAA1AB3F735360DBCB75F3BE4E
:104E2000A69237A0887E143F0165F2F2D844433F32
:104E3000280356C9226D6D3F37D60684F464963F29
:104E40007AFE10111111C13F635555555555D53F87
:104E5000FFFF2F3E0000F0BF2794E53F0000F03F2A
:104E6000109815F02BF92246CDE900012B4620467B
:104E7000294615F08DF9DDE90023CDE90201204630
:104E8000294614F0CFFF02460B46DDE9020115F07A
:104E9000A9FA42464B4614F0C3FF02460B46504661
:104EA000594614F0BDFF02460B4614F0BBFF024604
:104EB0000B46DDE9000114F0B3FF0446B81700F01B
:104EC0000200C0F101000D4615F0F8F802460B464D
:104ED0002046294615F05CF904460D462046294631
:104EE00007B0BDE8F08F5046594613F0D1F802469E
:104EF0000B460020044915F075FA04460D4662E79A
:104F000054465D465FE700BF0000F03F0000000030
:104F10002DE9F04FCC4A21F00043934285B0824600
:104F20008B460C4620D9C94A934200F2D780002C08
:104F300080F2A481ACA3D3E900235046594614F073
:104F400071FF0022002315F095FB002840F0D1806E
:104F5000A7A3D3E900235046594615F019F9024694
:104F60000B460020BA4994E1BA4A934200F2E58028
:104F7000B94A934240F22E81002301930022B74B9D
:104F80005046594615F004F906460F4602460B46B0
:104F90005046594615F0FCF897A3D3E90023044680
:104FA0000D4615F0F5F896A3D3E9002314F03AFF67
:104FB00022462B4615F0ECF893A3D3E9002314F016
:104FC0002FFF22462B4615F0E3F891A3D3E90023E7
:104FD00014F028FF22462B4615F0DAF88EA3D3E909
:104FE000002314F01DFF22462B4615F0D1F80022B5
:104FF0009B4B14F017FF8046894602460B4630460D
:10500000394615F0C5F802460B460020954914F0C4
:1050100007FF064602460B460F464046494614F037
:10502000FFFE3246804689463B465046594615F0BB
:10503000AFF802460B4600208B4914F0F1FE024601
:105040000B464046494615F0CDF922462B4615F051
:105050009FF8019E02460B46002E4DD0DDE9026707
:1050600032463B4614F0DCFE52465B4615F090F8A3
:1050700032463B4614F0D4FE2B46224614F0D0FEB6
:10508000019B013306460F4600F02381019B012B53
:105090007BD0019A531C392B4FEA025500F228812C
:1050A000019A132A40F35581019BC3F57F740334A1
:1050B0000022230514F0B6FE02460B465046594620
:1050C00014F0AEFE0022664B14F0ACFE824605EBF7
:1050D000010B5046594605B0BDE8F08F634A934234
:1050E0001BD9C1F313030343024640F01281002988
:1050F000EFDA00205E490DE05046594615F048F8B9
:1051000022462B4614F08CFE02460B46504659466A
:1051100014F086FE05B0BDE8F08F41A3D3E900236B
:1051200015F0C6FA00283FF402AF3FA3D3E90023ED
:105130001046194615F02CF8ECE74E4A934200F25F
:10514000EC8000293AA3D3E9002339DA14F06AFE8F
:1051500039A7D7E900674FF0FF33804689460193AE
:1051600032463B464046494614F05AFE02460B463C
:1051700082468B464046494614F052FE32463B4634
:1051800014F04EFECDE90201F8E600223A4B5046FB
:10519000594615F06FFA002800F0CC805046594669
:1051A00000222E4B14F03EFE02460B463046394696
:1051B00014F036FE00224FF0404314F0E9FFA9E757
:1051C00014F02EFE01238046894601931CA7D7E9DF
:1051D0000067C5E714A3D3E9002314F023FE0246B9
:1051E0000B468FE7AFF3008059F3F8C21F6EA5019D
:1051F000FE822B654715F73F2DC3096EB7FD8ABEAA
:105200003952E686CACFD03EB7DBAA9E19CE143FEC
:105210008555FE19A0015A3FF41011111111A13F3B
:10522000EF39FAFE422E86409C7500883CE4377EBA
:105230000000E0FE422EE63F763C7935EF39EABDCC
:10524000763C7935EF39EA3D79684340412E864016
:105250000000E0BF422ED63FFFFF8F3C0000E03F42
:105260000000F03F0000084000001840FFFFEF7F03
:105270000000F0BFB1A2F03F0000D0BF44A3D3E9CB
:1052800000235046594614F083FF02460B46002087
:10529000414914F0C7FD15F02BFA019014F00EFFF0
:1052A00037A3D3E9002306460F4614F071FF0246E8
:1052B0000B465046594614F0B3FD33A3D3E90023FF
:1052C000804689463046394614F062FF06460F464E
:1052D00046E702460B465046594614F0A1FD00220F
:1052E0002D4B14F055FF00222B4B14F099FD11E7C4
:1052F00052465B4614F094FD02460B4600202749B7
:1053000014F08EFD6B1819460022244B14F088FD12
:1053100000E70B4614F086FDFCE61DA3D3E900234D
:1053200014F036FF002C02460B464FF00000AFDAB7
:105330001B49AEE732463B465046594614F070FDD5
:1053400002460B4614F06EFD0022144B14F06AFD69
:10535000E0E64FF4001343FA02F452465B4614F0C1
:105360005FFDC4F17F57002607F5401702460B4644
:105370003046394614F054FDA8E600BFAFF3008074
:105380000000E0FE422EE63F763C7935EF39EA3DFB
:10539000FE822B654715F73F0000E03F0000F03F1D
:1053A0000000E0BF00000000F8B5C1F30A53044656
:1053B0000D460E4617460BBB21F00046034633430D
:1053C0001BD0354B002214F0E3FE344B9F420446C1
:1053D0000D4635DBC1F30A530E46363B3B4440F2E3
:1053E000FE72934232DC002B11DD26F0FF4626F4DC
:1053F000E00646EA035520462946F8BD40F2FF7212
:105400009342EBD102460B4614F00CFDF8BD13F1AC
:10541000350F28DA4CF250339F4222462B460ADDE4
:1054200019A1D1E9000114F06DFC17A3D3E9002301
:1054300014F0AEFEF8BD16A1D1E9000114F062FC33
:1054400013A3D3E9002314F0A3FEF8BD22462B4694
:105450000DA1D1E9000114F055FC0BA3D3E9002301
:1054600014F096FEF8BD26F0FF4626F4E00636332B
:1054700046EA0355204629460022094B14F088FECF
:10548000F8BD00BFAFF300809C7500883CE4377E18
:1054900059F3F8C21F6EA50100005043B03CFFFF56
:1054A0000000903C10B5054C237833B9044B13B180
:1054B0000448AFF300800123237010BD10050020C5
:1054C0000000000020CF010008B5034B1BB10349C9
:1054D0000348AFF3008008BD000000001405002061
:1054E00020CF0100154B002B08BF134B9D46A3F5A1
:1054F000803A00218B460F461348144A121A09F0CD
:1055000013FA0F4B002B00D098470E4B002B00D006
:1055100098470020002104000D000D48002802D00B
:105520000C48AFF3008014F023FC2000290005F0A4
:1055300003F914F009FC00BF00000800000002207D
:10554000000000000000000000040020B00C00205B
:10555000000000000000000070B504460E4600F098
:1055600047FA88B103681B6B05469847082C0CD096
:10557000A4F10903012B14D93246214610230D2032
:10558000BDE8704004F0B0B870BD2B6828469B6A37
:1055900098470228F0DC2B6828465B6A042198476C
:1055A000EAE72B6828469B6A98470528E4DC2B68C5
:1055B00028465B6A08219847DEE700BF38B52DED25
:1055C000028B054600F014FA044640B103681B6BD9
:1055D0009847032D03D8DFE805F02F363D06BDECD4
:1055E000028B002038BD20460CF07CFD07EE900AAF
:1055F0002046F8EEE78A0CF07DFD07EE900A204683
:10560000B8EEE78A0CF07EFD68EE087A07EE100A25
:10561000E8EEA87AB8EEC77AE7EE077AF5EE407AB8
:10562000F1EE10FAB1EEE78A1BD4FDEEC87ABDECBC
:10563000028B17EE900A38BDBDEC028B2046BDE808
:1056400038400CF04FBDBDEC028B2046BDE8384021
:105650000CF050BDBDEC028B2046BDE838400CF08C
:1056600051BD17EE900A13F049FADEE738B504464B
:1056700000F0BEF958B103681B6B0546984744B16A
:10568000012C04D12846BDE838400CF075BD00203F
:1056900038BD2846BDE838400CF04ABD10B5044678
:1056A00000F0A6F928B1036821465B6ABDE8104006
:1056B000184710BD0048704716FCFFFF704700BF39
:1056C00010B5034B036004460CF06CFD204610BD82
:1056D0002CC3010010B5054B036004460CF062FDBD
:1056E000204615F0DDFA204610BD00BF2CC3010096
:1056F0002DE9F041032184B00546512001F0DAFC88
:10570000DFF8E8C2AE4B044604F00F06C4F30317FB
:1057100014F4807408BF6346AA4831463A460BF039
:105720009DFC221C18BF012231463B4628460EF044
:10573000AFFB0023AB60A4480BF090FC4FF0FF31AF
:10574000032001F0B7FCC0B204F088FA4FF0FF313B
:105750000446022001F0AEFCC0B204F07FFA002C37
:105760003BD0002839D00146204604F099F806467F
:1057700000284DD04FF0FF31462001F09BFC32282D
:1057800004464ED04BDD382800F0B18068285FD148
:105790004FF0FF31012001F08DFCC0B204F05EFA41
:1057A00080465C2015F085FA05230193424600945B
:1057B00031462B4607460DF025FCAF603B68384666
:1057C000DB6A9847A86803681B6B98477F480BF013
:1057D00045FC284604B0BDE8F0817D480BF03EFC56
:1057E0004FF0FF31192001F065FCC0B204F036FA29
:1057F0004FF0FF310446182001F05CFCC0B204F009
:105800002DFA0146204604F04BF806460028B1D197
:1058100070480BF023FC284604B0BDE8F081302826
:1058200016D14FF0FF31012001F044FCC0B204F06A
:1058300015FA8046502015F03CFAA4B2074605231D
:1058400001934246009431462B460DF085F9B4E7AA
:1058500001243268CDE900440023D76AAB600F22EF
:105860000DF10F0332213046B847002800F0858043
:105870003368CDE900440F22DF6A30210DF10F03B8
:105880003046B84700284AD03368CDE900440D229D
:10589000DF6A38210DF10F033046B847002872D077
:1058A0003268CDE900440DF10F03D76A68217522F3
:1058B0003046B847002845D1682147480BF0CEFB59
:1058C0004FF0FF31204601F0F5FBC0B204F0C6F9FD
:1058D00080465C2015F0EDF905246823CDE90034FD
:1058E000424631462B4607460DF08CFB65E74FF0EC
:1058F000FF31012001F0DEFBC0B204F0AFF98046B9
:10590000502015F0D6F905230746019342462B4651
:10591000009431460DF056FA304B3B604DE7302194
:105920002D480BF09BFB30244FF0FF31012001F09C
:10593000C1FBC0B204F092F98046502015F0B9F9CD
:1059400007467CE726480BF089FBAF68002F7FF401
:1059500035AF4FF0FF31032001F0ACFBC0B204F0D3
:105960007DF930B11F480BF079FB284604B0BDE843
:10597000F0811D480BF072FB4DE7322116480BF009
:105980006DFB3224D0E7382113480BF067FB4FF052
:10599000FF31204601F08EFBC0B204F05FF9804673
:1059A000502015F086F9052438230746CDE9003448
:1059B00042462B4631460DF005FA084B3B60FCE6AB
:1059C000F0B5010000B6010020B60100E0B601000C
:1059D00030B6010044B6010070B60100B8B5010050
:1059E0005CB6010084B60100C0B60100F8B5010044
:1059F00038B5114C23680BB1986838BD4FF0FF31B2
:105A0000012001F057FBC0B204F028F940B10C208E
:105A100015F04FF90546FFF76BFE2560A86838BD05
:105A20004FF0FF31032001F045FBC0B204F016F93E
:105A30000028ECD138BD00BF2C05002008B501F0CE
:105A40006BFCFBF7D5FCBDE8084001F0C5B900BF11
:105A500008B501F061FCFBF73BFDBDE8084001F033
:105A6000BBB900BF08B501F057FC12F087FBBDE8D9
:105A7000084001F0B1B900BF08B501F04DFC12F0CB
:105A800079FFBDE8084001F0A7B900BF08B501F0F3
:105A900043FCFBF7BDFCBDE8084001F09DB900BF29
:105AA00008B501F039FC12F09BFDBDE8084001F09B
:105AB00093B900BF08B501F02FFCFAF745FFBDE828
:105AC000084001F089B900BF08B501F025FC12F0CB
:105AD000DDFCBDE8084001F07FB900BF70B5049E51
