:100000000000022061780100897801008B780100EE
:100010008D7801008F7801009178010000000000C8
:1000200000000000000000000000000093780100C4
:100030009578010000000000977801009978010090
:100040009B7801009D68010001770100C5760100E1
:10005000D97601009B7801009D610100AD7E010011
:10006000C9720100D1720100D97201009B780100B0
:100070009B7801009B7801009B7801009B78010030
:100080009B7801009B7801009B7801009B78010020
:100090009B7801009B7801009B7801009B78010010
:1000A0009B7801009B780100E1720100E972010078
:1000B0009B7801009B780100000000000000000018
:1000C0009B7801009B7801009B780100ED76010090
:1000D0009B7801009B7801009B7801009B780100D0
:1000E000297701000000000000000000000000006F
:1000F000000000009B78010000000000157701005F
:1001000000000000000000000000000000000000EF
:1001100000000000000000000000000000000000DF
:1001200000000000000000000000000000000000CF
:1001300000000000000000000000000000000000BF
:1001400000000000000000000000000000000000AF
:10015000000000000000000000000000000000009F
:10016000000000000000000000000000000000008F
:10017000000000000000000000000000000000007F
:10018000000000000000000000000000000000006F
:10019000000000000000000000000000000000005F
:1001A000000000000000000000000000000000004F
:1001B000000000000000000000000000000000003F
:1001C000000000000000000000000000000000002F
:1001D000000000000000000000000000000000001F
:1001E000000000000000000000000000000000000F
:1001F00000000000000000000000000000000000FF
:100200002DE9F04F85B003910778A7F10903042B7E
:10021000044607F07F0200F10100F5D9202AF3D04F
:100220002B2F04BF677804462D2F75D09FED427B9E
:100230008DED007B4FF000084FF000099FB34FF0A9
:10024000000C25464FF0000ADFF8FCB0644619E0C8
:100250001AF05CFD8046894630461AF0EDFC4246B5
:100260004B461AF09DFB5246804689465B46DDE9C7
:1002700000013CB31AF074FECDE90001A44615F864
:10028000017F7FB1A7F13006092E52465B464046FA
:100290004946DDD9CCB92E2F17D115F8017F01249D
:1002A000002FEFD12C4642464B46DDE900011AF003
:1002B0002DFD80468946039B404649461C6005B09B
:1002C000BDE8F08F4FF0010CD9E72C46BCF1000FD0
:1002D00029D042464B46DDE900011AF017FD07F030
:1002E000DF07452F80468946E5D10399681C0A221D
:1002F0001AF03AFB1449024600201BF0B7F80246F8
:100300000B46404649461AF001FD80468946404664
:10031000494605B0BDE8F08F9FED097B67788DED0C
:10032000007B013486E7DFF824904FF00008404658
:10033000494605B0BDE8F08F000000000000F03F26
:10034000000000000000F0BF000024400000F87F23
:100350002DE9F047002314460022804689461AF012
:1003600047FF28B109F1004399462D23237001343A
:1003700000220023404649461AF030FF28B13022BF
:10038000002322706370BDE8F0874046494619F0AB
:100390002FF81AF06BFF73A3D3E9002307464946F1
:1003A00040461AF025FF00284ED170A3D3E9002360
:1003B000404649461AF03AFF002845D10E2F07F172
:1003C000010540F3B980A7F10E06324600206249CC
:1003D0001BF04CF802460B46404649461AF0C0FD59
:1003E00000225E4B1AF0DCFA1BF07CF8002DA7F11E
:1003F0000F0E4FF0010C4DDD594FDFF878810122CF
:1004000045F6F3294FF02E0A494508BF40454FF005
:1004100030030AD3B0EB080061EB0901494508BF7E
:10042000404503F10103F5D2DBB2237050EA01032A
:1004300004F101084AD1954252DD0132102A4FD011
:10044000444677E90289DFE7002F33DB3A46002094
:1004500041491BF00BF802460B46404649461AF04C
:100460007FFD3BA3D3E90023804689460125002672
:10047000404649461AF04AFC0022384B1AF090FADE
:100480001BF030F8002DBC464FF0FF3E37464FF0D2
:100490000006B1DC234630224FF02E0803F8022B71
:1004A00084F80180FC4345D01C4403F8012BA3428F
:1004B000FBD1A1E77A42002027491AF0D7FF024674
:1004C0000B46404649461AF021FCCAE7954202F124
:1004D000010204BF84F801A004F10208102AAFD180
:1004E0006EB14246302102F8011BC2F10103734490
:1004F0004344002BF7DC2EEAEE7301339844BCF141
:10050000010F12D0BCF1000F4FF0650388F80030E6
:10051000C5BF2B2388F8013008F1010108F1020161
:100520006046BDE8F04710F017BF002388F80030A0
:10053000BDE8F0871C465FE7C7F10E0200200649C0
:100540001AF094FF3E4602460B46012790E700BF93
:100550000000901EC4BCD642000024400000E03FD2
:1005600090C001008DEDB5A0F7C6B03E50EFE2D6C9
:10057000E41A4B4400407A1070B54FF0FF3006F09B
:10058000F5FB04466FF07F4006F0F0FB0646204680
:100590001AF042FB00220C4B1AF0B8FB044630461E
:1005A0000D461AF039FB06A3D3E900231AF0D8FC54
:1005B00002460B46204629461AF0F2F970BD00BFEC
:1005C0000000E0DFFFFF6F430000F03D000000008F
:1005D0002DE9F04F1D461389AB4288BF536885B0A3
:1005E00004468CBF53F82500002090468A4607F049
:1005F00031F80022904B1AF089FB1AF037FEB8F858
:1006000008206B1C9A4288BFD8F8042006468CBF8D
:1006100052F82300002007F01DF80022864B1AF044
:1006200075FB1AF023FEB8F808300235AB4288BFDC
:10063000D8F8043007468CBF53F82500002007F097
:1006400009F8002EC4E9006740F3E280002F40F370
:10065000DF8071A3D3E90023002584F8285018F027
:10066000E9FD00220023804689461AF0C1FD40B111
:100670004046494668A3D3E900231AF091F9804621
:10068000894667A3D3E90023404649461AF0CEFDC8
:10069000C0B165A3D3E90023404649461AF0B2FD34
:1006A00080B101234046494684F8283060A3D3E94D
:1006B00000231AF075F958A3D3E9002318F0BAFD06
:1006C0008046894600225D4B404649461AF01EFB93
:1006D00018F0E4FA01F1004300221946564B1AF0D3
:1006E00015FB1AF0C3FD49460546404618F092FA3C
:1006F0000022514B1AF00AFB1AF0B8FDDAF8043068
:100700004F49B3F80CB0B3F80AA0A56007FB0BF390
:1007100003EB010806FB0AF6019388FB05234FEA69
:10072000124C00960E444CEA034C06EA010383FB8C
:10073000009A06EB0C0E0EEA010ED346CA468EFB5B
:1007400000675246CDE90267120C42EA0B42DDE92E
:1007500002AB0CEA010C8CFB00674FEA16495646C7
:100760000A40360C46EA0B4649EA074982FB05ABCC
:100770005F46C144B0445646CDE90267039FE0603E
:10078000360C09EA010908EA010846EA074689FB2E
:1007900005AB334488FB0556CDE9025655462D0C72
:1007A00045EA0B45DDE902AB0B40AC4403EAE377D5
:1007B0000CEA010C554623EAE37367454FEA1545F9
:1007C00002EAE276A8BF674645EA0B45634522EA9E
:1007D000E272B8BF6346AE444E450EEA010EA8BFB2
:1007E0004E464A45B8BF4A467745A8BF7746734547
:1007F000B8BF73464645A8BF4646C4E905634245AF
:10080000B8BF424600980199206261622761E261A7
:10081000204605B0BDE8F08FEA2E4454FB21194074
:10082000F4D64354FB21F93F320D337F7CD912407B
:10083000EA2E4454FB2109400000F0400000E03F54
:100840000000FFFF000000002DE9F04F2DED028BAE
:10085000044683B0C0681AF0EFF9804620698946E3
:100860001AF0EAF9824660698B461AF0E5F9024609
:1008700001F1004306460F464046494618F06CFC1D
:100880001AF03CFDE062054618F01EFB0190284678
:1008900018F0CEFA019B054618461AF0DFF94246D9
:1008A0004B461AF033FA8046284689461AF0D6F9A4
:1008B00032463B461AF02AFA02460B464046494663
:1008C0001AF06CF802460B465046594618F044FCA4
:1008D0001AF014FD002208EE100A002330463946B3
:1008E0001AF0A4FC28B3B5EEC08AF1EE10FA1CDDB4
:1008F00011A7D7E9006718EE100A1AF0AFF90246FF
:100900000B46304639461AF049F832463B461AF053
:1009100047F81AF0F3FCA062E38843F00203E38097
:1009200003B0BDEC028BBDE8F08F05A7D7E90067E7
:10093000E1E784ED0A8AEFE7EA2E4454FB21F93F10
:10094000EA2E4454FB21F9BF494A21F00043934267
:100950002DE9704304460D4649DC464A93420E4653
:100960000EDC3FA3D3E900231AF01AF80022424B11
:100970001AF05CFC00284AD020462946BDE8708366
:100980003E4A934239DCB3F1804F40DD18F03EF926
:100990002246804689462B46204629461AF0B6F95B
:1009A0000022354B19F0FCFF18F0CCFF42464B46B5
:1009B00019F0F6FF02460B4600202F491AF0D0FA34
:1009C000424604460D464B464046494619F0E8FF6C
:1009D00002460B462046294619F0E2FF02F040F895
:1009E000002E08DC01F100431946BDE87083024681
:1009F0000B4619F0D5FFBDE8708318F007F902F037
:100A00002FF819A3D3E9002319F0CAFFE8E722461B
:100A10002B46204629461AF079F980468946204619
:100A2000294618F0F3F8002204460D46124B4046C2
:100A3000494619F0B5FF18F085FF00220E4B19F05A
:100A4000AFFF02460B46404649461AF089FA224655
:100A50002B4619F0A5FF00F0A7FAC1E7AFF300801D
:100A60009C7500883CE4377EEF39FAFE422EE63F63
:100A7000FFFFEF7FFFFF2F3E0000F03F0000B0417F
:100A80002DE9F84FBE4B21F000469E4204460D462C
:100A90008A460EDDBB4B9E4200F3B18000F0AC8075
:100AA000BAF1000F40F3EA8099A1D1E90001BDE855
:100AB000F88FB54B9E4200F3BA80A3F1DE739E42DD
:100AC00040F3A5804FF0FF3B22462B4620462946A7
:100AD0001AF01CF902460B46804689461AF016F9B0
:100AE0008DA3D3E9002306460F461AF00FF98CA315
:100AF000D3E9002319F054FF32463B461AF006F9B9
:100B000089A3D3E9002319F04BFF32463B461AF084
:100B1000FDF887A3D3E9002319F042FF32463B4694
:100B20001AF0F4F884A3D3E9002319F039FF324610
:100B30003B461AF0EBF882A3D3E9002319F030FF0B
:100B400042464B461AF0E2F87FA3D3E900238046E1
:100B50008946304639461AF0D9F87DA3D3E90023F7
:100B600019F01CFF32463B461AF0D0F87AA3D3E9BD
:100B7000002319F013FF32463B461AF0C7F878A35A
:100B8000D3E9002319F00AFF32463B461AF0BEF8BB
:100B900075A3D3E9002319F001FF32463B461AF052
:100BA000B5F802460B464046494619F0F9FE224682
:100BB0002B461AF0ABF8BBF1FF3F02460B4661D063
:100BC000724B734E4FEACB0B5B44D3E9002319F011
:100BD000E5FE22462B4619F0E1FEB34402460B46E1
:100BE000DBE9000119F0DAFEBAF1000F0DDA01F1CC
:100BF00000431946BDE8F88F00283FF451AF224664
:100C00002B462046294619F0CBFEBDE8F88F58A3A5
:100C1000D3E9002319F0C4FE00225E4B1AF006FB54
:100C200000283FF44FAF20462946BDE8F88F17F063
:100C3000EDFF594B9E4204460D4629DCA3F5502397
:100C40009E424EDC02460B4619F0AAFE0022514B92
:100C500019F0A4FE002206460F464FF080432046BE
:100C6000294619F09DFE02460B46304639461AF0D9
:100C700077F94FF0000B04460D4625E73EA1D1E978
:100C80000001C2E72046294619F088FEBDE8F88F2A
:100C9000424B9E421ADC0022414B19F07FFE00229B
:100CA00006460F463E4B204629461AF02FF80022F2
:100CB000384B19F075FE02460B46304639461AF09D
:100CC0004FF94FF0020B04460D46FDE602460B4677
:100CD000002034491AF044F94FF0030B04460D4646
:100CE000F2E600222B4B19F059FE002206460F4671
:100CF000284B2046294619F053FE02460B46304643
:100D000039461AF02DF94FF0010B04460D46DBE68B
:100D1000182D4454FB21F93F11DA22E33AAD903FFC
:100D2000EB0D76244B7BA93F513DD0A0660DB13F22
:100D30006E204CC5CD45B73FFF8300922449C23F8A
:100D40000D5555555555D53F2F6C6A2C44B4A2BF4F
:100D50009AFDDE522DDEAD3F6D9A74AFF2B0B33F17
:100D6000711623FEC671BC3FC4EB98999999C93F8F
:100D70009C7500883CE4377E182D4454FB21F9BF54
:100D8000FFFF0F440000F07FFFFFDB3FB8C0010012
:100D900098C001000000F03FFFFFF23FFF7F0340DB
:100DA0000000F83F0000F0BF2DE9F041C1F30A5701
:100DB000A7F2FF35132D02460B460C468846064621
:100DC00020DC002D4ADB364F2F4101EA070C5CEA9C
:100DD000000C1CD030A3D3E9002319F0E1FD002260
:100DE00000231AF023FA48B1002C04DD4FF48013DD
:100DF00043FA05F5A84428EA0704002621463046B0
:100E0000BDE8F081332D06DDB5F5806F38D0104692
:100E10001946BDE8F081A7F213474FF0FF3C2CFACA
:100E200007F70742F3D01CA3D3E9002319F0B8FD5C
:100E3000002200231AF0FAF90028DFD0002C09DD87
:100E4000142D22D00123C5F1340503FA05F5AE199E
:100E500028BF984426EA07064446CFE70EA3D3E905
:100E6000002319F09DFD002200231AF0DFF900286D
:100E7000C4D0002C0CDB264305D00026094CBDE76E
:100E800019F08EFDC5E73446B8E704F10108E1E743
:100E900000264FF00044B1E79C7500883CE4377EA3
:100EA000FFFF0F000000F03F2DE9F041C1F30A57AA
:100EB000A7F2FF35132D02460B460C468846064620
:100EC0001DDC002D3CDB364F2F4101EA070C5CEAAC
:100ED000000C19D030A3D3E9002319F061FD0022E2
:100EE00000231AF0A3F9C8B3002C04DA4FF48013DE
:100EF00043FA05F5A84428EA070400262EE0332D1E
:100F000006DDB5F5806F2DD010461946BDE8F0819D
:100F1000A7F213474FF0FF3C2CFA07F70742F3D034
:100F20001DA3D3E9002319F03BFD002200231AF092
:100F30007DF998B1002C21DB26EA070644460DE036
:100F400015A3D3E9002319F02BFD002200231AF08A
:100F50006DF918B1002C08DB0026344621463046D6
:100F6000BDE8F08119F01CFDD0E724F000430D4AE4
:100F70001E43002E18BF14460026EFE7142D08D09C
:100F80000123C5F1340503FA05F5AE1928BF9844CD
:100F9000D2E704F10108CFE79C7500883CE4377E76
:100FA000FFFF0F000000F0BF2DE9F04FD84B994232
:100FB00087B08046894643DDD64B99420E4600F302
:100FC000F480D54B994240F32D819FEDBB7B8DED95
:100FD000047B4FEA215A0446AAF2FF3ACF4BC6F3EC
:100FE00013069E4246F07F5500F3128145F44015EA
:100FF000204629460022CA4B19F0D0FC00220446A4
:101000000D46C84B19F082FE22462B4619F07EFE93
:10101000A046CDE90201A946CDE90001002E3AD152
:1010200000220023204629461AF0D8F8002800F0B4
:101030001B81BAF1000F40F0858100200021B8E04B
:10104000B94B21F000449C420A460FDD0022B74B09
:101050001AF0C4F8002800F0AF800022002300201E
:10106000B34919F07DFF07B0BDE8F08FB14B9C424A
:1010700040F3AF80B04B1A449A4240F2D380002232
:10108000A84B19F043FE42464B4619F03FFECDE90E
:1010900000014FF0000A00224FF0804340464946CD
:1010A00019F07EFC02460B464046494619F058FFAF
:1010B00002460B4606460F4619F028FE80A3D3E9E8
:1010C000002304460D4619F021FE7FA3D3E9002337
:1010D00019F066FC22462B4619F018FE7CA3D3E9D2
:1010E000002319F05DFC22462B4619F00FFE7AA36F
:1010F000D3E9002319F054FC22462B4619F006FED2
:1011000077A3D3E9002319F04BFC22462B4619F0B4
:10111000FDFD75A3D3E9002319F042FC22462B46BE
:1011200019F0F4FD72A3D3E9002319F039FC22462B
:101130002B4619F0EBFDDDE9002319F031FC3246B6
:101140003B4619F0E3FD04460D46BAF1000F00F0EE
:10115000A880504619F070FD67A3D3E900238246AA
:101160008B4619F0D3FD66A3D3E9002306460F464C
:101170005046594619F0CAFDDDE9042319F010FC68
:1011800022462B4619F00CFC02460B46DDE9000115
:1011900019F004FC42464B4619F000FC02460B468F
:1011A0003046394619F0FAFB03E002460B4619F0C7
:1011B000F7FB07B0BDE8F08F42464B464046494634
:1011C00019F0ECFB02460B4619F0CAFE07B0BDE869
:1011D000F08F0022594B19F0E3FB002200231AF094
:1011E00025F810B1564B9C4262DD42464B464046C4
:1011F000494619F08BFD00224A4B19F087FD024643
:101200000B464046494619F0C9FB07B0BDE8F08FD0
:1012100045F40015C6F5801620462946B6100AF199
:10122000010AE7E600223E4B4046494619F0B8FB6A
:101230004FEA215AAAF2FF3ABAF1000F04460D46CE
:101240000E4640F3BD8042464B4619F0A7FB0246CE
:101250000B460020324919F0A1FB22462B4619F01B
:101260007FFECDE90401B9E627A3D3E90023204698
:10127000294619F04BFD02460B460020284919F07B
:101280008DFBDDE9022319F041FD06460F46BAF158
:10129000000F75D102460B462046294619F07EFB09
:1012A00087E702460B46DDE9000119F077FBA6E768
:1012B000404649467DE700BF0000000000000000F6
:1012C00044523EDF12F1C23F9FC678D0099AC33F15
:1012D000DE03CB966446C73FAF788E1DC571CC3F09
:1012E000599322942449D23F04FA97999999D93F66
:1012F000935555555555E53F0000E0FE422EE63F1B
:10130000763C7935EF39EA3D555555555555E53F0C
:101310007982DA3FFFFFEF7FFFFF3F439DA006008A
:101320000000F03F0000E03FFFFFEF3F0000F0BF94
:10133000000050C3FFFF1F3E3C412D4000005043C2
:10134000FFFF8F3C504619F077FC24A3D3E900231C
:1013500006460F4619F0DAFCDDE9042319F020FBFC
:1013600020A3D3E9002304460D463046394619F040
:10137000CDFC02460B462046294619F011FB18E722
:10138000504619F059FC17A3D3E9002382468B4637
:1013900019F0BCFC11A3D3E90023804689465046CE
:1013A000594619F0B3FCDDE9042319F0F9FA0246B5
:1013B0000B463046394619F0F1FA22462B4674E7BF
:1013C0000022054B19F0EAFA02460B464046494610
:1013D00019F0E4FA41E700BF0000F03F763C7935B0
:1013E000EF39EA3D0000E0FE422EE63F000000003B
:1013F00008B517F07FFF04A3D3E9002319F0B0FD6F
:1014000008BD00BFAFF30080EF39FAFE422EE63F81
:101410002DE9F043DFF8B4808BB004460D4601F0AF
:10142000F7F898F90030013306460F462CD02246D3
:101430002B462046294619F003FF814620BB204653
:10144000294617F0E3FB1FA3D3E9002319F0EEFEB2
:10145000D0B1194A98F90030CDF820900321CDE998
:101460000445CDE90245CDE9001293B113490020AE
:10147000022BCDE9060111D119F01EFA22230360D7
:10148000089B9BB9DDE90667304639460BB0BDE8DD
:10149000F0830B4B4FF06042CDE90623684619F00C
:1014A00087F80028E8D0089B002BEBD019F004FA4D
:1014B000089B0360E6E700BFDCD601000000F07F78
:1014C000FFFFEF477DF8B98FCE3386403B02002007
:1014D0002DE9F043DFF8E4808BB004460D4601F0BF
:1014E00047F998F90030013306460F4633D02046BD
:1014F000294619F057F870B32CA3D3E900232046EE
:10150000294619F093FE814650BB2AA3D3E9002354
:101510002046294619F06CFEE8B198F90030204ABF
:10152000CDF82090002000210426022BCDE90445AF
:10153000CDE902450096CDE90601019229D0684621
:1015400019F036F828B3089B1BB119F0B5F9089BC0
:101550000360DDE90667304639460BB0BDE8F0832D
:101560000F4A98F90030019203210022CDE9044589
:10157000CDE90245009108922BB90A4B4FF0604229
:10158000CDE90623DBE708490020022BCDE906015F
:10159000D5D119F091F922230360D4E7AFF300808D
:1015A000E4D60100FFFFEF470000F07FEF39FAFEBD
:1015B000422E864051302DD5104987C03B02002075
:1015C0002DE9F04FDFF82C938DB006460F461446F8
:1015D0001D4601F09DFC99F90080B8F1FF3FCDE96F
:1015E000000136D022462B462046294619F028FE17
:1015F000834670BB32463B463046394619F020FEE2
:101600008246002840F0A28030463946002200235E
:1016100019F0E4FD10B3002200232046294619F0FA
:10162000DDFD8346002867D09FEDA77B0122AC4BF0
:10163000CDF828A00292CDE90467CDE906458DEDED
:10164000087B0393B8F1000F41D09FEDA17B8DED96
:10165000007BDDE900010DB0BDE8F08FDDE90001A0
:1016600018F0A0FF8046002800F08D804FF0000A9F
:101670004FF0000BDDE9000152465B4619F0AEFD6C
:101680000028E6D03046394618F08CFF0028E0D01C
:101690002046294618F086FF0028DAD099F9003054
:1016A0008F4A039204210022022BCDE90467CDE981
:1016B0000645CDE908AB02910A9203D002A818F0C2
:1016C00077FF50B919F0F8F82223036005E002A86B
:1016D00018F06EFF002800F09B800A9B1BB119F0E8
:1016E000EBF80A9B03609DED087B8DED007BDDE947
:1016F00000010DB0BDE8F08F2046294618F052FFDA
:101700000028A6D0002200232046294619F070FDAB
:1017100000289ED0724A99F90030CDF828B00121F6
:10172000CDE90467CDE90645CDE90212002B74D05E
:101730006C490020022BCDE9080172D119F0BCF8E8
:10174000212303600A9B002BCDD0C8E70022002391
:101750002046294619F042FD00283FF47AAF624B3B
:101760005F49CDF828B000220120B8F1020FCDE981
:1017700004670290CDE90645CDE908230391A6D17F
:10178000CDE9002365E73046394618F00BFF002805
:101790003FF46CAF2046294618F004FF00283FF4C0
:1017A00065AFDDE900231046194619F049FD99F9A6
:1017B00000A000286BD10323DFF824C10A9029463A
:1017C000204602930022494BCDF80CC0CDE90645D6
:1017D000CDE9046719F09AFA04460D46BAF1000FF4
:1017E00025D1DFF814B14FF0604A002200233046C3
:1017F0003946CDE908AB19F0FBFC38BB02A818F05C
:10180000D7FE00289ED119F057F82223036099E7EC
:1018100019F052F8212303605FE79FED2B7B8DEDDC
:10182000087B02A818F0C4FE00288BD186E79FED44
:101830002A7B00220023304639468DED087B19F0C3
:10184000D7FCA0B9BAF1020FDDD0D7E72046294670
:1018500018F0B6FE22462B4619F0C0FCA0B9244B66
:1018600099F900A04FF06042CDE90823EAE720464D
:10187000294618F0A5FE22462B4619F0AFFC18B9F0
:10188000184B0022CDE9082399F900A0DAE70122DC
:10189000134BCDF828800292CDE90467CDE90645C7
:1018A0000393BAF1000FB8D0002200231046194666
:1018B00019F056FBBAF1020FCDE908013FF43EAF33
:1018C000AFE700BFAFF300800000000000000000A1
:1018D000000000000000F03F000000000000F07F6A
:1018E000FCD601000000F0FF0000F03F0000E03FE8
:1018F000FFFFEFC73B020020FFFFEF4700000000A3
:101900002DE9F84FC44E21F00043B34204460D4682
:101910000DDD03F1404303F58013034340F0B9802C
:10192000002940F3408100200021BDE8F88FBB4E24
:10193000B34208DCBA4A934200F3B5809CA1D1E9D6
:101940000001BDE8F88F0029C0F2708102460B4605
:101950000020B44919F022F80022B34B19F0D6F94F
:1019600004460D4617F0EEFF93A3D3E90023894602
:1019700080462946204619F0C9F991A3D3E90023EE
:1019800019F00EF822462B4619F0C0F98EA3D3E9C0
:10199000002319F003F822462B4619F0B7F98CA35F
:1019A000D3E9002318F0FCFF22462B4619F0AEF9CC
:1019B00089A3D3E9002318F0F1FF22462B4619F042
:1019C000A5F987A3D3E9002318F0EAFF22462B46A6
:1019D00019F09CF984A3D3E9002382468B46204664
:1019E000294619F093F982A3D3E9002318F0D6FF12
:1019F00022462B4619F08AF97FA3D3E9002318F079
:101A0000CFFF22462B4619F081F97DA3D3E90023AD
:101A100018F0C4FF22462B4619F078F90022814BBA
:101A200018F0BEFF02460B465046594619F098FA88
:101A300042464B4619F06AF9002682468B463246EA
:101A40004B463046494619F061F902460B4620469E
:101A5000294618F0A3FF324604460D464B46404641
:101A6000494618F09DFF02460B462046294619F0CC
:101A700077FA02460B465046594618F091FF324617
:101A80004B4618F08DFF02460B4618F089FFBDE863
:101A9000F88F02460B4618F081FF02460B4619F0FC
:101AA0005FFABDE8F88F02460B4619F02FF942A302
:101AB000D3E9002306460F4619F028F940A3D3E9DD
:101AC000002318F06DFF32463B4619F01FF93EA384
:101AD000D3E9002318F062FF32463B4619F016F9AD
:101AE0003BA3D3E9002318F05BFF32463B4619F0D5
:101AF0000DF939A3D3E9002318F050FF32463B46D5
:101B000019F004F936A3D3E9002318F049FF32464F
:101B10003B4619F0FBF834A3D3E9002380468946FD
:101B20003046394619F0F2F831A3D3E9002318F012
:101B300035FF32463B4619F0E9F82FA3D3E90023DD
:101B400018F02EFF32463B4619F0E0F82CA3D3E9FB
:101B5000002318F023FF32463B4619F0D7F8002245
:101B6000304B18F01DFF02460B464046494619F01F
:101B7000F7F922462B4619F0C9F802460B4622A176
:101B8000D1E9000118F00AFF02460B46204629461B
:101B900018F004FF02460B4605A1D1E9000118F038
:101BA000FDFEBDE8F88F1AA1D1E9000179E700BF79
:101BB000182D4454FB21F93F09F7FD0DE13D023F8B
:101BC00088B20175E0EF493F3B8F68B52882A43F9A
:101BD0005544880E55C1C93F7D6FEB0312D6D43FE3
:101BE000555555555555C53F82922EB1C5B8B33F91
:101BF00059018D1B6C06E63FC88A599CE52A0040B6
:101C00004B2D8A1C273A0340075C143326A6913CCF
:101C1000182D4454FB210940FFFFEF3FFFFFDF3F3A
:101C20000000603C0000F03F0000E03F00225C4B01
:101C300018F0B6FE00225B4B19F068F840A3D3E918
:101C4000002304460D4619F061F83FA3D3E90023B1
:101C500018F0A6FE22462B4619F058F83CA3D3E90B
:101C6000002318F09BFE22462B4619F04FF83AA3AA
:101C7000D3E9002318F094FE22462B4619F046F8CB
:101C800037A3D3E9002318F089FE22462B4619F02A
:101C90003DF835A3D3E9002318F082FE22462B46F7
:101CA00019F034F8804689462046294617F04AFE46
:101CB0002FA3D3E9002306460F462046294619F0F4
:101CC00025F82DA3D3E9002318F068FE22462B4601
:101CD00019F01CF82AA3D3E9002318F061FE22466C
:101CE0002B4619F013F828A3D3E9002318F056FE69
:101CF00022462B4619F00AF80022294B18F050FE14
:101D000002460B464046494619F02AF932463B4600
:101D100018F0FCFF1EA3D3E9002318F03FFE324663
:101D20003B4618F03DFE02460B4618F039FE0246CF
:101D30000B4619A1D1E9000118F030FEB1E600BF51
:101D400009F7FD0DE13D023F88B20175E0EF493F23
:101D50003B8F68B52882A43F5544880E55C1C93FC2
:101D60007D6FEB0312D6D43F555555555555C53F9C
:101D700082922EB1C5B8B33F59018D1B6C06E63F68
:101D8000C88A599CE52A00404B2D8A1C273A0340FB
:101D9000075C143326A6913C182D4454FB210940BE
:101DA0000000F03F0000E03F414A91422DE9F84336
:101DB00004460D4637DD3F4A91420B4608DD02F1ED
:101DC000795291423DDD024618F0EAFDBDE8F88304
:101DD00001F1404202F5801202432ED0B1F1804F52
:101DE00037DC0022344B18F0D9FD02460B4604467E
:101DF0000D4618F0D5FD224606460F462B462046D6
:101E0000294618F083FF02460B463046394618F043
:101E1000C7FD17F097FD22462B4618F0C1FDBDE81F
:101E2000F843FFF7C1B802460B4618F0B7FD02466B
:101E30000B4619F095F8BDE8F88300200021BDE8B5
:101E4000F88300F00DFE18A3D3E9002318F0A8FDD5
:101E5000F1E7024618F05AFF0022174B18F09EFDDA
:101E600017F070FD2246804689462B4620462946BB
:101E700018F096FD224606460F462B464046494638
:101E800018F08EFD02460B4600200B4919F068F849
:101E90000B4602463946304618F080FDBDE8F8434F
:101EA00000F0DEBDAFF30080EF39FAFE422EE63FD0
:101EB000FFFFEF3FFFFFAF410000F03F00000000D9
:101EC0002DE9F04FAE4B21F000479F4287B004460A
:101ED0000D4611DD07F1404707F5801703463B43E8
:101EE00021D002460B4618F059FD02460B4619F068
:101EF00037F807B0BDE8F08FA24B9F420E4629DCB1
:101F0000B7F1795F80F2468181A3D3E9002318F00D
:101F100047FD00229C4B19F089F9D8B1204629468B
:101F200007B0BDE8F08F7CA3D3E9002318F0EEFEE4
:101F30007BA3D3E9002306460F462046294618F026
:101F4000E5FE02460B463046394618F029FD07B03B
:101F5000BDE8F08F2046294616F058FE02460B4693
:101F60000020894918F01AFD0022884B18F0CEFE97
:101F70006DA3D3E9002304460D4618F0C7FE6CA3F9
:101F8000D3E9002318F00CFD22462B4618F0BEFEC4
:101F900069A3D3E9002318F001FD22462B4618F06F
:101FA000B5FE67A3D3E9002318F0FAFC22462B46BE
:101FB00018F0ACFE64A3D3E9002318F0EFFC22462E
:101FC0002B4618F0A3FE62A3D3E9002318F0E8FC27
:101FD00022462B4618F09AFE5FA3D3E90023CDE9F1
:101FE00000012046294618F091FE5DA3D3E90023A5
:101FF00018F0D4FC22462B4618F088FE5AA3D3E9E9
:10200000002318F0CDFC22462B4618F07FFE58A383
:10201000D3E9002318F0C2FC22462B4618F076FEC6
:10202000594B002218F0BCFC82468B4620462946BC
:10203000CDE902AB17F086FC554B9F42804689469E
:1020400000F3198102460B4618F0AAFCDDE90223D1
:10205000CDE90401DDE9000118F082FF02460B46DC
:10206000DDE9040118F052FE4FF0000ACDE900014D
:1020700052464B465046494618F048FE02460B462B
:102080002046294618F08AFC524604460D464B4627
:102090004046494618F084FC02460B462046294635
:1020A00018F05EFF02460B4618F07AFC02460B461B
:1020B0001BA1D1E9000118F071FC02460B46DDE9D5
:1020C000000118F06BFC524604460D464B46504644
:1020D000494618F065FC02460B4627A1D1E90001EC
:1020E00018F05CFC02460B462046294618F056FCC8
:1020F00002460B4620A1D1E9000118F04FFC002E4A
:102100003FF7F7AE01F100431946F2E6AFF3008066
:102110009C7500883CE4377E182D4454FB21F93F20
:10212000075C143326A6913C09F7FD0DE13D023F03
:1021300088B20175E0EF493F3B8F68B52882A43F24
:102140005544880E55C1C93F7D6FEB0312D6D43F6D
:10215000555555555555C53F82922EB1C5B8B33F1B
:1021600059018D1B6C06E63FC88A599CE52A004040
:102170004B2D8A1C273A0340182D4454FB21E93F7C
:10218000FFFFEF3FFFFFDF3F0000F03F0000E03FB9
:102190003233EF3F02460B4618F0B8FD4BA3D3E9AC
:1021A000002306460F4618F0B1FD4AA3D3E90023E9
:1021B00018F0F6FB32463B4618F0A8FD47A3D3E9DA
:1021C000002318F0EBFB32463B4618F09FFD45A379
:1021D000D3E9002318F0E4FB32463B4618F096FDA5
:1021E00042A3D3E9002318F0D9FB32463B4618F04E
:1021F0008DFD40A3D3E9002318F0D2FB32463B46C5
:1022000018F084FD3DA3D3E900238046894630467B
:10221000394618F07BFD3BA3D3E9002318F0BEFB41
:1022200032463B4618F072FD38A3D3E9002318F07C
:10223000B7FB32463B4618F069FD36A3D3E90023CD
:1022400018F0ACFB32463B4618F060FD00221E4BF6
:1022500018F0A6FB02460B464046494618F080FEA1
:1022600022462B4618F052FD22462B4618F098FBCA
:1022700007B0BDE8F08F52465B46DDE9000118F07B
:102280006FFE42464B4618F041FD42464B4618F061
:1022900087FB02460B4618F083FB07A3D3E9002314
:1022A00018F07CFB02460B4605A1D1E9000118F0AD
:1022B00075FB24E7AFF30080075C143326A6913C3E
:1022C000182D4454FB21F93F0000F03F09F7FD0DA4
:1022D000E13D023F88B20175E0EF493F3B8F68B5B1
:1022E0002882A43F5544880E55C1C93F7D6FEB033A
:1022F00012D6D43F555555555555C53F82922EB1EE
:10230000C5B8B33F59018D1B6C06E63FC88A599C7E
:10231000E52A00404B2D8A1C273A034000000000AC
:102320002DE9F84F1D465342134325F00049DFF8CD
:10233000C8C149EAD3736345144606460F4626D8FA
:10234000C0F1000848EA000821F0004A4AEAD878BB
:10235000E04503468B461AD805F1404808F5801839
:1023600058EA0208AE4643D04FEAA57808F00208C2
:102370005AEA030348EAD17811D1B8F1020F55D0D7
:10238000B8F1030F09D14AA1D1E9000105E03246B5
:102390003B462046294618F003FBBDE8F88F59EA72
:1023A000020329D0E1452ED0E24525D0AAEB090948
:1023B0004FEA2959B9F13C0F3CDC002D3EDA19F106
:1023C0003C0F3BDA00200021B8F1010F4ED0B8F1EC
:1023D000020F3ED0B8F1000FDFD037A3D3E90023BE
:1023E00018F0DCFA36A3D3E9002318F0D7FAD4E7C3
:1023F000BDE8F84FFEF744BBBBF1000F12DB32A182
:10240000D1E90001C9E7CA4534D0B8F1020F0DD0B7
:10241000B8F1030FB7D0B8F1010F4FF0000036D07C
:102420000021BAE72AA1D1E90001B6E724A1D1E948
:102430000001B2E724A1D1E90001C5E722462B46FD
:102440003046394618F08CFD16F0E0FBFEF718FB1D
:10245000BAE719A3D3E9002318F0A0FA02460B4605
:1024600017A1D1E9000118F099FA96E701F10043AC
:10247000194692E7B8F1020F14D0B8F1030F0DD04E
:10248000B8F1010F06D014A1D1E9000185E74FF0A2
:10249000004182E712A1D1E900017EE712A1D1E952
:1024A00000017AE712A1D1E9000176E7AFF30080DD
:1024B000182D4454FB2109C0075C143326A6A13C07
:1024C000182D4454FB210940182D4454FB21F93F99
:1024D000182D4454FB21F9BF182D4454FB21E93F2A
:1024E000182D4454FB21E9BFD221337F7CD902C08F
:1024F000D221337F7CD902400000F07F0000000031
:1025000043422DE9F047034321F000463C4A46EAA6
:10251000D373934204460D462AD8964240D0394B95
:102520009E428A462EDD384B9E4235463FDD33467D
:102530000246314618F034FA224606460F462B462C
:1025400000202F4918F02AFA02460B463046394639
:1025500018F006FDFEF728FD00222C4B18F0D6FBE4
:10256000BAF1000F0CDA01F100431946BDE8F0871B
:1025700002460B4618F012FA02460B4618F0F0FC21
:10258000BDE8F0871CA3D3E9002318F009FA002264
:10259000002318F04BFE48B120462946BDE8F087DD
:1025A0000022002318F0DCFCBDE8F0873546224607
:1025B0002B462046294618F0F3F922462B460646BC
:1025C0000F4618F0A3FB2246804689462B46002082
:1025D0000B4918F0E3F902460B464046494618F00D
:1025E000BFFC32463B4618F0DBF9FEF7DDFC00226B
:1025F000064B18F08BFBB3E79C7500883CE4377EF4
:102600000000F03FFFFF2F3EFFFFDF3F0000E03FF5
:102610002DE9F8434E4B21F000449C4206460F46FC
:102620001BDC4C4B9C4222DD4B4B9C4254DD4B4B04
:102630009C4246DD4A4B9C426FDD01339C4269D08F
:1026400041A3D3E900231046194618F05FFB064664
:102650000F4630463946BDE8F88302460B4618F06F
:1026600055FB06460F4630463946BDE8F88316F05E
:10267000CDFA02F04DFC00223A4B8046894618F014
:102680008FF9B4F1725F06460F46ECDB42464B46CB
:102690004046494618F03AFB32463B4604460D4652
:1026A0003046394618F07CF902460B46204629464A
:1026B00018F056FC00222B4B18F072F906460F4614
:1026C000D1E716F0A3FA00F053F80022264B18F0D9
:1026D0001DFB06460F46C6E716F098FA00F048F8CC
:1026E0000022214B06460F4618F010FB32460446E6
:1026F0000D463B4600201C4918F032FC02460B46B2
:102700002046294618F04CF906460F463046394611
:10271000BDE8F883154B984292D83046394616F0FA
:1027200075FA0022104B18F0F1FA00F021F800229F
:1027300004460D460C4B18F0E9FA22462B4618F0D9
:10274000E5FA06460F468EE79C7500883CE4377E26
:10275000FFFFEF7F422ED63FFFFF3540412E8640E0
:10276000CD3386400000F03F0000E03F7DF8B98F98
:102770002DE9F047B04F21F00042BA4284B0044640
:102780000D464FEAD17610D9AC4FBA4240F28A805A
:10279000C1F313030343024640F0F180002E7ED0C4
:1027A0000020002104B0BDE8F087A54B9A4200F25A
:1027B000B680A44B9A4240F2D1804FF0000A2246E4
:1027C0002B462046294618F0A1FA85A3D3E9002319
:1027D00006460F4618F09AFA83A3D3E9002318F0AF
:1027E000DDF832463B4618F091FA81A3D3E9002385
:1027F00018F0D6F832463B4618F088FA7EA3D3E9A3
:10280000002318F0CBF832463B4618F07FFA7CA341
:10281000D3E9002318F0C4F832463B4618F076FAA4
:1028200002460B462046294618F0B8F802460B46E9
:1028300006460F462046294618F068FA8046894623
:10284000BAF1000F00F0AB8032463B4600204FF05B
:10285000804118F0A3F802460B464046494618F05E
:102860007FFB02460B46DDE9020118F097F8DDE92F
:10287000002318F093F80B4602467349002018F025
:102880008DF86FF47F739A4580F2A3800AF57A7A07
:1028900001EB0A5100224FF0B87318F037FA04B078
:1028A000BDE8F08758A3D3E9002318F0BFFC002847
:1028B0006BD157A3D3E900232046294618F098FC92
:1028C00000287FF46DAF614953A3D3E9002301EBE6
:1028D000C6062046294618F019FAD6E9002318F052
:1028E0005FF818F0C3FC824618F0A6F94CA3D3E9B0
:1028F000002306460F4618F009FA02460B4620460A
:10290000294618F04BF848A3D3E90023CDE900018C
:102910003046394618F0FAF9CDE9020115E04C4B82
:102920009A42D0D84B4BF4002344D3E9002318F04B
:1029300035F8494B234493ED007BCDE900018DED43
:10294000027BC6F1010AAAEB060ADDE90223DDE9F2
:10295000000118F023F804460D4630E734A3D3E90C
:10296000002318F01DF80022374B18F05FFCA8B3C5
:10297000204629460022344B18F012F88FE70B4608
:1029800018F00EF804B0BDE8F08729A3D3E90023BE
:102990001046194618F0BAF904B0BDE8F087304681
:1029A000394600224FF0804317F0F8FF02460B46ED
:1029B0004046494618F0D4FA22462B4617F0EEFF5F
:1029C00002460B460020204917F0E8FF04B0BDE89E
:1029D000F08701EB0A5104B0BDE8F0878246EEE6CD
:1029E000D0A4BE726937663EF16BD2C541BDBB3E15
:1029F0002CDE25AF6A56113F93BDBE166CC1663FF3
:102A00003E5555555555C53FEF39FAFE422E864085
:102A100051302DD5104987C0FE822B654715F73FF1
:102A20000000E0FE422EE63F763C7935EF39EA3D84
:102A30009C7500883CE4377E412E8640FFFFEF7F87
:102A4000422ED63FFFFF2F3E0000F03FD8C00100CE
:102A5000B1A2F03FE8C00100F8C001000000000092
:102A60002DE9F04FB1F5801F85B006460F460B46A5
:102A700080F2D08021F00042024300F0DA80002989
:102A8000C0F2E9800022D64B18F040F9D54A0B4637
:102A9000934206460F466FF0350E00F3C180C3F334
:102AA000130505F5152C0CF6647C0CF4801C8CF0D9
:102AB0007F5282F440121C1542EA0507A4F2FF344B
:102AC00074440022C84B3046394604EB1C5417F0BE
:102AD00065FFAB1CC3F31303022B82468B464FF0FA
:102AE000000240F3AF804FF0804317F059FF0246D9
:102AF0000B465046594618F033FA064620460F4614
:102B000018F09AF83246CDE902013B463046394684
:102B1000CDE9006718F0FAF802460B468046894670
:102B200018F0F4F89AA3D3E9002306460F4618F0EC
:102B3000EDF899A3D3E9002317F032FF32463B4664
:102B400018F0E4F896A3D3E9002317F029FF3246E2
:102B50003B4618F0DBF894A3D3E9002317F020FFDD
:102B600042464B4618F0D2F891A3D3E900238046A1
:102B700089463046394618F0C9F88FA3D3E90023B7
:102B800017F00EFF32463B4618F0C0F88CA3D3E98D
:102B9000002317F005FF32463B4618F0B7F80B4606
:102BA00002464946404617F0FBFEA5F5C223C5F58F
:102BB000D725A3F27A4351351D43002D06460F4613
:102BC00040F387800022894B5046594618F09EF802
:102BD00052465B4618F09AF802460B4680468946F4
:102BE0003046394617F0DCFEDDE9002318F08EF898
:102BF00006460F46002C40F0818002460B464046B8
:102C0000494617F0CBFE02460B465046594617F090
:102C1000C5FE0BE0734A93424FF0000E7FF73FAFC3
:102C200032463B463046394617F0BAFE05B0BDE89D
:102C3000F08F0022002300206D4918F091F905B0B3
:102C4000BDE8F08F002318F0C9FA60B1002C7CD1E8
:102C500000200021EAE7024617F0A0FE0022002330
:102C600018F07EF9E2E758A3D3E90023504659460D
:102C700018F04CF802460B4600205C4917F08EFE17
:102C8000524606460F465B465046594618F03EF8F7
:102C900002460B463046394618F038F806460F46CD
:102CA0002CB3204617F0C8FF49A3D3E90023804680
:102CB000894618F02BF848A3D3E9002304460D46B3
:102CC0004046494618F022F802460B46304639463F
:102CD0002CE002460B465046594617F05FFEDDE9F0
:102CE000002318F013F806460F46002C47D1324651
:102CF0003B465046594617F051FE97E734A3D3E9B7
:102D00000023DDE9020118F001F833A3D3E9002321
:102D100004460D46DDE9020117F0F8FF32463B4656
:102D200017F03EFE02460B464046494617F036FE77
:102D300052465B4617F032FE02460B4620462946B5
:102D400017F02CFE05B0BDE8F08F204617F074FF99
:102D50001FA3D3E9002306460F4617F0D7FF1EA393
:102D6000D3E9002304460D463046394617F0CEFF1E
:102D700002460B462046294617F012FE56E7DDE9CB
:102D8000028913A3D3E900234046494691E700BFD7
:102D900044523EDF12F1C23FDE03CB966446C73F8A
:102DA000599322942449D23F935555555555E53FA3
:102DB0009FC678D0099AC33FAF788E1DC571CC3FAE
:102DC00004FA97999999D93F555555555555D53F79
:102DD0000000E0FE422EE63F763C7935EF39EA3DD1
:102DE00000005043FFFFEF7F0000F03F0000E03F96
:102DF000000050C300000000B1F5801F2DE9F8432A
:102E000004460D460B4619DA21F00042024359D020
:102E100000295FDB00223A4B17F078FF394A0D4654
:102E20002B46934204466FF035010CDD22462B46BB
:102E30002046294617F0B4FDBDE8F883314A934295
:102E40004FF00001F2DC1815A0F2FF3008444FEA01
:102E5000D0794844C3F3130817F0EEFEC9F57F7329
:102E6000033348EA035506460F4620462946FFF736
:102E7000F7FD1DA3D3E90023804689463046394635
:102E800017F044FF1AA3D3E9002304460D46404639
:102E9000494617F03BFF02460B462046294617F0ED
:102EA0007FFD15A3D3E9002304460D46304639467D
:102EB00017F02CFF02460B462046294617F070FDFE
:102EC000BDE8F8830022002300200F4918F048F8DD
:102ED000BDE8F883024617F061FD0022002318F0D8
:102EE0003FF8A9E7AFF30080362BF111F3FE593D0F
:102EF0000EE526157BCBDB3F00609F501344D33F8C
:102F000000005043FFFFEF7F000050C300000000AF
:102F10002DE9F04F23F0004555EA020493B00DD09F
:102F20006B4E21F00044B4420F4682460BDD04F1A3
:102F3000404404F5801454EA0A0350D16549002046
:102F400013B0BDE8F08F9B46944647D0B542EEDC07
:102F50005F4EB5425DD0002F80468946CDE9002303
:102F60005BDB0026BCF1000F0ED1594B9D423FD0D8
:102F7000584B9D4200F08880BBF1804F00F09C8050
:102F8000554B9B4500F0B8834046494615F03EFE40
:102F9000BAF1000F06D1002C59D04E4B27F0404219
:102FA0009A4254D0FF0F013F56EA070373D04B4BB0
:102FB0009D4240F39B8003F104739D4240F33E84A5
:102FC000474B9C4272DDBBF1000F72DD3EA3D3E99B
:102FD00000231046194617F099FEB1E728B1414881
:102FE00013B0BDE8F04F17F0E5BAA542F7DCAFE744
:102FF00004F1404303F5801353EA0A039ED0384B93
:103000009C4240F38383BBF1000F52DBDDE90001FA
:1030100096E7BCF1000F9ED089E7334B9D4231DC2F
:10302000A3F154739D429CDD2B15A3F2FF33142BA7
:1030300040F3A583C3F134032CFA03F202FA03F33D
:1030400063458ED102F00102C2F102068AE7BBF1AC
:10305000000F05DA02460B4600201E4917F080FFDC
:10306000002FBFF66DAF04F1404404F5801454EA1C
:10307000060300F03F84012E7FF462AF01F10043AC
:1030800019465DE702266DE7BBF1000FC0F24883E9
:103090004046494654E742464B461046194617F00B
:1030A0007DFC02460B4617F05BFF49E7BBF1000FC2
:1030B0008CDB0020002143E742464B464046494610
:1030C00017F024FE3CE700BF9C7500883CE4377E87
:1030D0000000F07F0000F03F0000E03F0000E04112
:1030E000FFFFEF3F50C90100FFFF3F43B4F5801FD2
:1030F00080F261830022D24B17F008FE6FF0340C8F
:103100000C462315CF4DC4F31302A3F2FF3342F054
:103110007F546344AA420B9344F4401440F33F832A
:10312000C94B9A4240F304849FEDAF7B8DED087B41
:103130008DED107B9FEDAE7B0B9B8DED067B013300
:103140000B93A4F580140025DDE906232146824671
:1031500017F024FCA346DDE9062380468946504645
:103160002146CDE90CAB17F01BFC02460B460020B4
:10317000B64917F0F5FE0A460146CDE90E12134690
:1031800049460246404617F0C1FD631043F0005324
:1031900082468B4603F500238C46CDE904AB5919D2
:1031A000D3460023CDE902BC0293DDE902AB002047
:1031B00004460D4602460B465046594617F0A6FDFA
:1031C00002460B464046494617F0E8FBDDE9062378
:1031D000804689462046294617F0E0FB02460B460A
:1031E000DDE90C0117F0DAFB52465B4617F08EFD65
:1031F00002460B464046494617F0D0FBDDE90E2358
:1032000017F084FDDDE90445CDE9060122462B4691
:103210002046294617F07AFD77A3D3E90023044618
:103220000D4617F073FD76A3D3E9002317F0B8FB22
:1032300022462B4617F06AFD73A3D3E9002317F04B
:10324000AFFB22462B4617F061FD71A3D3E90023A3
:1032500017F0A6FB22462B4617F058FD6EA3D3E9C4
:10326000002317F09DFB22462B4617F04FFD6CA361
:10327000D3E9002317F094FB2246804689462B466B
:103280002046294617F042FD02460B464046494675
:1032900017F03CFD524604460D465B46DDE904014D
:1032A00017F07EFBDDE9062317F030FD22462B46A2
:1032B00017F076FB5246804689465B465046594693
:1032C00017F024FD0022624BCDE90C0117F068FBDA
:1032D00042464B4617F064FB02980D4604462246D0
:1032E0002B465046594617F011FD002282468B4668
:1032F000574B2046294617F051FBDDE90C2317F008
:103300004DFB02460B464046494617F047FBDDE9B8
:10331000042317F0FBFC2246804689462B46DDE954
:10332000060117F0F3FC02460B464046494617F0EB
:1033300037FB8046894602460B465046594617F0F1
:103340002FFB029838A3D3E9002304460D4617F05B
:10335000DDFC5246CDE904015B462046294617F0C4
:103360001DFB02460B464046494617F017FB30A3AB
:10337000D3E9002317F0CAFC2FA3D3E9002380462A
:1033800089462046294617F0C1FC02460B464046B6
:10339000494617F005FBDDE9102317F001FB8046D5
:1033A0000B98894617F048FC424682468B464B46AE
:1033B000DDE9040117F0F4FADDE9082317F0F0FA6B
:1033C00052465B4617F0ECFA029852465B460446BA
:1033D0000D4617F0E3FADDE9082317F0DFFADDE91F
:1033E000042337E0AFF3008000000000000000007D
:1033F000000000000000F03FEF4E454A287ECA3F23
:1034000065DBC9934A86CD3F01411DA96074D13F58
:103410004D268F515555D53FFFAB6FDBB66DDB3F6A
:10342000033333333333E33F000000E009C7EE3F9B
:10343000FD033ADC09C7EE3FF5015B14E02F3EBE09
:10344000000040438E98030079B60B000000F03F67
:103450000000084017F0A2FA0B46024649464046D3
:1034600017F09CFA013E56EA070382468B4600F0AD
:103470005E819FEDD37B8DED047BDDE9001200239F
:103480000E461746CDE902670293DDE9026708465A
:103490003B461146324617F081FA22462B4617F07A
:1034A00035FCDDE90023804689465046594617F031
:1034B0002DFC02460B464046494617F071FA32464B
:1034C000804689463B4620462946CDE9008917F0CB
:1034D0001DFC0B46024606460F464046494617F07D
:1034E0005FFAD14B994204460D468A4640F3248147
:1034F00001F13F4303F5E003034340F0FF81B2A332
:10350000D3E90023DDE9000117F04AFA324680468C
:1035100089463B462046294617F040FA02460B46AC
:103520004046494617F082FE002840F0E781A84651
:103530004FEA2853A3F2FE324FF480131341534451
:10354000C3F30A52B94DA2F2FF321541C3F313047B
:1035500023EA05010020C2F1140B44F48014BAF1EF
:10356000000F02460B4644FA0BFB30463946B8BF03
:10357000CBF1000B17F012FA06460F463246DDE992
:1035800000013B4617F00CFA4FEA0B5A0D46002497
:103590008FA3D3E900232046294617F0B7FB324614
:1035A000804689463B462046294617F0F7F90246F1
:1035B0000B46DDE9000117F0F1F987A3D3E90023F9
:1035C00017F0A4FB86A3D3E9002306460F46204646
:1035D000294617F09BFB02460B463046394617F04A
:1035E000DFF906460F4602460B464046494617F0AD
:1035F000D7F942464B4604460D4617F0CFF902462E
:103600000B463046394617F0C9F9224680468946AE
:103610002B462046294617F079FB73A3D3E90023F4
:1036200006460F4617F072FB71A3D3E9002317F08B
:10363000B5F932463B4617F069FB6FA3D3E9002387
:1036400017F0AEF932463B4617F060FB6CA3D3E9A6
:10365000002317F0A3F932463B4617F057FB6AA345
:10366000D3E9002317F09CF932463B4617F04EFB96
:1036700002460B462046294617F090F906460F46AB
:1036800002460B462046294617F040FB0022CDE9B2
:1036900000014FF080433046394617F07FF902466B
:1036A0000B46DDE9000117F05BFC424606460F467B
:1036B0004B462046294617F029FB42464B4617F059
:1036C0006FF902460B463046394617F067F9224635
:1036D0002B4617F063F902460B460020544917F0B9
:1036E0005DF98A44BAF5801FC0F232815146DDE9A6
:1036F000042317F00BFB23E4002FFFF645AC4046F4
:10370000494613B0BDE8F04F16F01CB9BBF1000FED
:10371000BFF6CFACDDE90034184604F100410FE4F8
:1037200042464B460020424917F01AFC08E49FED40
:10373000387B8DED047BA0E63E4B21F00048984598
:1037400040F3EA803C4B0B4403430AD132463B46EC
:1037500017F024F9DDE9002317F05EFD00283FF49F
:10376000E7AEDDE904012CA3D3E9002317F0CEFA7C
:1037700029A3D3E9002317F0C9FAFFF7E1BBBCF195
:10378000000F40F0D280C3F1140345FA03F202FAAD
:1037900003F3AB4200F0E0806646FFF7E9BB9FED24
:1037A000207B8DED087B8DED107B9FED057B00254B
:1037B0008DED067BC8E44FF0000CA2E4AFF300806F
:1037C000000000000000F03FFE822B654715973C8B
:1037D00000000000432EE63FEF39FAFE422EE63F9E
:1037E000396CA80C615C20BED0A4BE726937663EFD
:1037F000F16BD2C541BDBB3E2CDE25AF6A56113FF1
:1038000093BDBE166CC1663F3E5555555555C53FD7
:10381000000000000000F0BF59F3F8C21F6EA501C0
:103820000000000000000000FFFF8F40FFFF0F00BE
:103830000000F03FFFCB904000346F3F5A4B9C425A
:103840007FF734AC594B9C423FF7BDAB0022574B3E
:1038500017F0A4F844A3D3E9002304460D4617F05B
:1038600055FA43A3D3E9002382468B4620462946D6
:1038700017F04CFA0022CDE902014D4B20462946B3
:1038800017F044FA02460B463BA1D1E9000117F0BC
:1038900085F822462B4617F039FA02460B460020DF
:1038A000444917F07BF82246804689462B4620463D
:1038B000294617F02BFA02460B464046494617F0B8
:1038C00025FA2FA3D3E9002317F020FA02460B466E
:1038D000DDE9020117F062F802460B468046894690
:1038E0005046594617F05CF8002004460D465246F3
:1038F0005B46AFE502460B46FFF7CFBBDDE90401AF
:1039000021A3D3E9002317F001FA1FA3D3E9002371
:1039100017F0FCF9FFF714BB264B98453FF708AEAC
:10392000DDE902239246934631E60026FFF72CBBE1
:103930009FED177B8DED087B9FED177B8DED107B49
:103940009FED177B4FF480258DED067BFFF7FCBBC9
:103950005A4601F029FDCAE602F00102C2F1020650
:10396000FFF706BBAFF30080000000604715F73F8C
:1039700044DF5DF80BAE543E555555555555D53F72
:10398000FE822B654715F73F9C7500883CE4377E27
:103990000000004003B8E23F06D0CF43EBFD4C3EB1
:1039A000000000000000F83FFEFFEF3F0000F03F86
:1039B0000000D03F0000E03F2DE9F047CA4B21F066
:1039C00000479F4290B08046894640F38F80C74BA6
:1039D0009F420C46924626DC0029B9A3D3E9002376
:1039E00040F38F8016F0DAFFC14B9F4204460D462C
:1039F00000F04781B4A3D3E9002316F0CFFF0246BD
:103A00000B46CAE900232046294616F0C7FFAEA39D
:103A1000D3E9002316F0C2FF0125CAE902012846B6
:103A200010B0BDE8F087B34B9F4240F38980B24BA2
:103A30009F4200F31C813D15A5F21645A7EB0553E7
:103A400019461F46064617F011FC17F0F5F8804698
:103A5000894642464B4630463946CDE90A8916F03A
:103A60009DFF0022A54B17F051F98946804617F0BB
:103A7000FDFB17F0E1F806460F4632463B4640464E
:103A80004946CDE90C6716F089FF00229B4B17F0E1
:103A90003DF900220023CDE90E0117F09FFB00281D
:103AA00000F06081002330463946002217F096FB73
:103AB000002814BF01230223914A019202212A46C1
:103AC00000910AA8514600F087FB002C054614DA45
:103AD000DAF80420DAF80C3002F1004203F1004376
:103AE0004542CAF80420CAF80C3006E00020002144
:103AF000C2E90089C2E902010025284610B0BDE8EC
:103B0000F08716F04DFF7A4B9F4204460D4600F0B9
:103B10000B816DA3D3E9002316F042FF02460B464A
:103B2000CAE900232946204616F038FF66A3D3E9E8
:103B3000002316F035FF4FF0FF35CAE90201DCE73C
:103B400015F064F862A3D3E900238046894617F094
:103B5000DDF800226B4B16F023FF17F087FB0546BC
:103B600017F06AF856A3D3E90023CDE9060117F050
:103B7000CDF802460B464046494616F00FFF52A3C9
:103B8000D3E9002380468946DDE90601CDE90289B3
:103B900017F0BCF81F2D02460B46CDE9042340F375
:103BA000B380DDE90423DDE9020116F0F7FE80466B
:103BB00089463F15C9F30A53FB1A102B40F3B18015
:103BC00045A3D3E90023DDE9060117F09FF88046FD
:103BD000894602460B46DDE9020116F0DFFE024689
:103BE0000B46DDE90201CDE9082316F0D7FE424677
:103BF0004B4616F0D3FE3AA3D3E90023804689460C
:103C0000DDE9060117F082F842464B4616F0C6FE83
:103C10000B46CDE904010246DDE9080116F0BEFEBF
:103C2000C1F30A53FF1A312F8046894600F39C8066
:103C30009DED087BCAE900898DED027B42464B462B
:103C4000DDE9020116F0AAFEDDE9042316F0A6FE66
:103C5000002CCAE90201BFF650AF09F1004401F19E
:103C600000436D42CAE90084CAE9020345E70246FF
:103C70000B4616F093FE0025CAE90201CAE90001CD
:103C80003BE715A3D3E9002316F088FE14A3D3E97C
:103C900000230D46044616F081FE02460B46CAE993
:103CA00000232946204616F079FE0DA3D3E9002310
:103CB00016F074FE0125CAE902011EE7AFF3008089
:103CC00000004054FB21F93F3163621A61B4D03DDA
:103CD00083C8C96D305FE43F0000601A61B4D03D15
:103CE0007370032E8A19A33BFB21E93F7BD9024065
:103CF000FB21F93FFB213941FFFFEF7F00007041BD
:103D000098D701000000E03F4046494616F046FEC5
:103D1000394B6A1E804653F82230BB4289463FF435
:103D200048AFCAE9008989E72BA3D3E9002316F03D
:103D300037FE2BA3D3E900230D46044616F030FED0
:103D400002460B46CAE900232946204616F026FE05
:103D500023A3D3E9002316F023FE4FF0FF35CAE971
:103D60000201CAE60323A7E61FA3D3E90023DDE986
:103D7000060116F0CBFF06460F4602460B46DDE96C
:103D8000080116F00BFE8046894602460B46DDE927
:103D90000801CDE9028916F001FE32463B4616F0D5
:103DA000FDFD13A3D3E9002306460F46DDE9060116
:103DB00016F0ACFF32463B4616F0F0FD02460B46CD
:103DC00040464946CDE9042316F0E8FD8046894681
:103DD000A7E700BFAFF300800000601A61B4D03DD8
:103DE0007370032E8A19A33B0000002E8A19A33B8F
:103DF000C14920259A837B3918D7010000000000B3
:103E0000574A2DE9F84F21F00048904506460F46E5
:103E10002CDC544B0029B4BF534D544D98454FF002
:103E2000000411DC524B984526DC4BA3D3E9002358
:103E300016F0B6FD00224F4B17F0F8F9002840D0DD
:103E400030463946BDE8F88F4B4B984530DD4B4B3B
:103E5000984568DD0133984562D0304639463EA327
:103E6000D3E9002316F052FFBDE8F88F02460B4657
:103E700016F096FDBDE8F88F14F0C8FE01F048F882
:103E80003F4B984506460F4623DD0022394B16F07E
:103E900087FD02460B463046394617F061F8324638
:103EA0003B4616F07DFD22462B4616F02FFFE1E73C
:103EB00014F0ACFEFEF75CFC22462B4616F026FF03
:103EC000D8E73046394614F0A1FE01F021F8064645
:103ED0000F4632463B463046394616F061FD3246C3
:103EE00082468B463B463046394616F00FFF00228D
:103EF000804689461F4B3046394616F051FD024632
:103F00000B464046494617F02BF802460B465046F2
:103F1000594616F043FD22462B4616F0F7FEA9E758
:103F2000184B984299D83046394614F06FFE00225B
:103F30000E4B16F0EBFEFEF71BFC06460F46024644
:103F40000B462046294616F0E1FE32463B4616F067
:103F5000DDFE8FE7AFF300803374AC3C1F7BAC7F9A
:103F6000FFFFEF7FFFFF35400000E0BF0000E03FB4
:103F7000FFFF2F3E0000F03F412E8640CD338640AC
:103F8000FFFFEF3F7DF8B98F2DE9F04F21F000489A
:103F9000B8F1795F85B006460F4692469B466BDACC
:103FA00017F064F9002800F0E18032463B463046C5
:103FB000394616F0ABFE74A3D3E9002304460D4640
:103FC00016F0A4FE72A3D3E9002316F0E9FC224602
:103FD0002B4616F09BFE70A3D3E9002316F0DEFCFF
:103FE00022462B4616F092FE6DA3D3E9002316F06D
:103FF000D7FC22462B4616F089FE6BA3D3E900239B
:1040000016F0CCFC22462B4616F080FE68A3D3E9BE
:10401000002316F0C5FC22462B4616F077FECDE9AC
:1040200000010022664B2046294616F06FFEDDE9AE
:104030000023804689462046294616F067FE5246F0
:1040400004460D465B463046394616F05FFE024692
:104050000B462046294616F0A1FC02460B46404678
:10406000494616F09BFC02460B460020554916F0C7
:1040700095FC05B0BDE8F08F02460B4616F046FEF3
:1040800041A3D3E9002304460D4616F03FFE40A3AA
:10409000D3E9002316F084FC22462B4616F036FEA8
:1040A0003DA3D3E9002316F079FC22462B4616F0F7
:1040B0002DFE3BA3D3E9002316F072FC22462B46CB
:1040C00016F024FE38A3D3E9002316F067FC22463D
:1040D0002B4616F01BFE36A3D3E9002316F060FC36
:1040E0002B46224616F012FE374B9845CDE90001CB
:1040F00097DD364B98453EDCA8F5001300220020E2
:1041000030499046994616F049FCCDE9020100225B
:104110002B4B2046294616F0F9FD42464B4616F039
:104120003DFCDDE90023804689462046294616F0FD
:10413000EDFD524604460D465B463046394616F0C4
:10414000E5FD02460B462046294616F027FC0246AE
:104150000B464046494616F021FC02460B46DDE977
:10416000020116F01BFC05B0BDE8F08F15490020D8
:1041700005B0BDE8F08F9FED107B4FF000088DED8E
:10418000027BDFF84C90C2E7D43888BEE9FAA8BDBC
:10419000C4B1B4BD9EEE213EAD529C804F7E923E96
:1041A0009015CB19A001FA3E7751C1166CC1563F4C
:1041B0004C5555555555A53F000000000000E73F00
:1041C0000000E03F0000F03F3233D33F0000E93F02
:1041D0000000D23F000000002DE9F04FADF5197D41
:1041E000BE4CA29EBE4D54F826600793D41E85FB9C
:1041F0000475E417C4EBA50424EAE4741D46631CAB
:10420000A3EB8303013D02EBC303059373190496EB
:104210000994019503900B91A4EB05071AD43B4434
:10422000002400255E1C0DF18008DDF88C9208E06A
:1042300059F8270016F000FD0137B742E8E80201FF
:1042400008D0002FF4DA013720462946B742E8E8C3
:104250000201F6D1049B002B079B4FEAC303029394
:104260002ADB039A20A902EB030801EB0309049B54
:1042700072AA02EBC30B0DF5E07A019B002B4FF005
:1042800000064FF0000711DB039C4D4675E9022341
:10429000F4E8020116F03AFD02460B463046394674
:1042A00016F07EFB444506460F46EFD1EAE802676A
:1042B000DA4509F10809E0D1DDE902040499204456
:1042C0008B0082460BA8A3F10802C31808930CAB1D
:1042D00013440A938B4698AB03EBCB03BBF1000F5F
:1042E00053E9284529DD70AB03EBCB080DF130090C
:1042F00000227C4B2046294616F008FD16F0B6FF3A
:1043000016F09AFC0022784B06460F4616F0FEFC8B
:1043100002460B462046294616F040FB16F0A6FF43
:1043200078E9022349F8040B3946304616F038FB89
:1043300070AB984504460D46DAD1DDF8149020465E
:1043400029464A4601F030F800224FF07F530446D8
:104350000D4616F0DBFCFCF7A7FD0022634B16F0C0
:10436000D5FC02460B462046294616F017FB0D46A3
:10437000044616F07BFF804616F05EFC0B460246B4
:104380002946204616F00AFB4B46002B06460F46F0
:1043900040F3E1800BF1FF320CA9C9F1180351F889
:1043A000225045FA03F101FA03F30CA8EB1A40F886
:1043B0002230C9F11705884443FA05F5002D2CDD9C
:1043C000BBF1000F08F1010840F381820C9C002C26
:1043D00040F0A780BBF1010F0AD00CA9012251F8CF
:1043E000044F531C002C40F09E809B451A46F6D18A
:1043F000059B002B0EDD012B00F0D980022B09D18B
:104400000BF1FF320CAB0CA953F82230C3F31503A8
:1044100041F82230022D00F0AF8000220023304608
:10442000394616F0DBFE002800F05382049B0BF1A6
:10443000FF394B4510DC0BF180430CAA013B089877
:1044400002EB8303002253F80419834242EA01027B
:10445000F9D1002A40F0B680049B0CAA013B52F827
:104460002330002B40F0A1800A9A012352F804194E
:1044700001330029FAD05B440BF1010999450693F9
:104480004CDC099A079909EB020801EB0B0508F1CE
:10449000804802EB030BA39B08F1FF3803EB88086D
:1044A00070AB03EBC909A39B20A903EB8B0301EBC2
:1044B000C505029358F8040F16F0BEFB0B46019990
:1044C0000246002905F1080BC5E900234FF000065C
:1044D0004FF000071CDB039C0CE000BF38DC010040
:1044E000ABAAAA2A0000703E0000704100002040E4
:1044F00075E90223F4E8020116F008FC02460B46B7
:104500003046394616F04CFA544506460F46EFD170
:10451000029B9845E9E802675D46CBD1DDF818B00B
:10452000D9E6012300220CA9C4F180749B4541F80F
:1045300022400EDD51F8232001EB8B0001EB8303B9
:104540006FF07F4100E01A688A1A43F8042B834217
:10455000F9D101244CE706D10BF1FF330CAA52F834
:104560002350ED152AE700227B4B16F055FE00285C
:1045700040F0A381054650E732463B46002077498C
:1045800016F00CFA06460F46002C3FF446AF059A8B
:104590007249002000F008FF02460B4630463946BB
:1045A00016F0FCF906460F4637E7012363E70BF1E7
:1045B000FF320CAB0CA953F82230C3F3160341F8B9
:1045C000223027E70CAB059A53F82930183ACDE989
:1045D000068505926BB909F18043013B0CA901EBFB
:1045E000830353F8041909F1FF39183A0029F8D068
:1045F0000592059A5949002000F0D6FEB9F1000F46
:1046000004460D46C0F2C0814FEAC90370AA02EB0E
:10461000030808930CAB03EB8906DFF844B14FF0B5
:10462000000A08F10807043656F8040D16F004FBDA
:1046300022462B4616F06AFB5B4667E902015246AA
:104640002046294616F062FB0CAB9E4204460D46FE
:10465000EAD148AB03930193CDF8149009F101031B
:10466000DDF810900293C3464FF0000AB9F1000F35
:10467000C0F22A81DFF8EC805D4635A3D3E9002340
:1046800000260027002403E0544510DCF8E802234C
:10469000F5E8020116F03AFB02460B463046394671
:1046A00016F07EF90134A14506460F46ECDA019B6F
:1046B000E3E802670193029B0AF1010A9A45ABF114
:1046C000080BD3D1A29BDDF81490032B39D8DFE877
:1046D00013F0D900060006004D0048AB0393B9F172
:1046E000000F4FF000004FF0000109DB039D05EBC8
:1046F000C904083474E9022316F052F9A542F9D12D
:10470000079B002B40F01E810B9BC3E900010B4669
:1047100003990246D1E9000116F040F9B9F1000F02
:104720000CDD4AAD01240134F5E8022316F038F916
:10473000A145F8DA079B002B40F014810B9BC3E9DD
:104740000201069B03F007000DF5197DBDE8F08F0F
:1047500000000040FB21F93F0000E03F0000F03F77
:104760000000703E20C1010048AB0393B9F1000F77
:1047700040F32781039ACDF810904FEAC9030193C3
:10478000D318D3E900AB09F10053013B02EBC90890
:104790000293914678E9026752465B4630463946B5
:1047A00016F0FEF804460D4602460B4630463946E2
:1047B00016F0F4F852465B4616F0F2F8C145A246F0
:1047C000AB46C8E90201C8E90045E3D1DDF8109025
:1047D000B9F1010F40F3F580019B039A029913444C
:1047E000C900D3E9006701F1080A019192440DF56F
:1047F000947B7AE9028932463B464046494616F0A8
:10480000CFF804460D4602460B464046494616F090
:10481000C5F832463B4616F0C3F8D34526462F4628
:10482000CAE90201CAE90045E3D1019C039B1034A7
:10483000002000211C4403F1100574E9022316F046
:10484000AFF8A542F9D1039C079ED4E90023D4E92F
:104850000245002E00F08A8003F1004701F1004379
:104860000B99C1E90403069B2646944605F10044D2
:1048700003F00700C1E900C7C1E902640DF5197D25
:10488000BDE8F08F089C039D0834002000212C44D3
:1048900074E9022316F084F8A542F9D1079B13B1FD
:1048A00001F1004319460B9BC3E90001069B03F08D
:1048B00007000DF5197DBDE8F08FBBF1000F08F181
:1048C000010874DD022581E500260027EFE60024BB
:1048D0008EE5CDE90685059D304639466A4200F0F1
:1048E00063FD0022384B06460F4616F095FC00B3D8
:1048F0000022364B3046394616F008FA16F0B6FC60
:10490000044616F099F900222F4B16F0FFF90B46DA
:1049100002463946304616F041F816F0A7FC0BF176
:1049200001090CAB183543F82B00059543F82940D5
:104930005FE63046394616F099FC0CABD94643F891
:104940002B0056E60B9C01F10043C4E900030B4623
:1049500003990246D1E9000116F020F8B9F1000FE1
:104960003FF7DFAE01F100431946E7E60B9EC6E9CB
:104970000023069BC6E9040103F00700C6E90245CF
:104980000DF5197DBDE8F08FA29B032B3FF6D9AE44
:1049900001A252F823F000BFA9490000DB46000045
:1049A000DB460000694700000020002176E7324620
:1049B0003B460020064915F0F1FF022506460F464A
:1049C0002BE5002000213EE7000070410000703E12
:1049D0000000F03F000000002DE9F04F21F00046FC
:1049E000B6F1795F85B004460D469046994604DAE3
:1049F00016F03CFC002800F0858022462B4620461D
:104A0000294616F083F906460F4602460B46204615
:104A1000294616F07BF941A3D3E9002382468B4651
:104A20003046394616F072F93EA3D3E9002315F05B
:104A3000B5FF32463B4616F069F93CA3D3E90023A3
:104A400015F0AEFF32463B4616F060F939A3D3E9C4
:104A5000002315F0A3FF32463B4616F057F937A363
:104A6000D3E9002315F09CFF0E9BCDE900019BB319
:104A70000022294B4046494616F048F9DDE900235B
:104A8000CDE902015046594616F040F902460B4660
:104A9000DDE9020115F082FF32463B4616F036F999
:104AA00042464B4615F07AFF19A3D3E90023064688
:104AB0000F465046594616F029F902460B46304635
:104AC000394615F06DFF02460B462046294615F083
:104AD00065FF05B0BDE8F08F02460B46304639460B
:104AE00016F014F90AA3D3E9002315F057FF524634
:104AF0005B4616F00BF922462B4615F051FF05B028
:104B0000BDE8F08F2046294605B0BDE8F08F00BF14
:104B1000495555555555C53F0000E03F7CD5CF5A06
:104B20003AD9E53DEB9C2B8AE6E55A3E7DFEB1572E
:104B3000E31DC73ED561C119A0012A3FA6F8101197
:104B40001111813F000000002DE9F04FC04C21F011
:104B5000004687B0A64282468B460F46CDE9002329
:104B60001ADC16F083FB00283FD1109B524601331C
:104B70001343334300F0B781109B012B00F0C08139
:104B80005B460020B34916F0EBF904460D4620467B
:104B9000294607B0BDE8F08FAF4B9E4225DD0029C6
:104BA00009DADDE90045224605F10043CDE900239D
:104BB0000BF100418B4652465B4685A1D1E90001CD
:104BC00015F0ECFEDDE9002304460D4682A1D1E993
:104BD000000115F0E3FE9FED827B22462B468DED12
:104BE000007B15F0DDFE82468B4652465B46504602
:104BF000594616F08BF802460B468046894616F059
:104C000085F8424604460D464B465046594616F036
:104C10007DF875A3D3E90023CDE90201204629469A
:104C200016F074F872A3D3E9002315F0B9FE2246FA
:104C30002B4616F06BF870A3D3E9002315F0B0FEF5
:104C400022462B4616F062F86DA3D3E9002315F037
:104C5000A7FE22462B4616F059F86BA3D3E9002392
:104C600015F09EFE22462B4616F050F868A3D3E9B5
:104C7000002315F095FE42464B4616F047F866A312
:104C8000D3E90023CDE904012046294616F03EF879
:104C900063A3D3E9002315F083FE22462B4616F0CA
:104CA00035F861A3D3E9002315F07AFE22462B469E
:104CB00016F02CF85EA3D3E9002315F071FE22460E
:104CC0002B4616F023F85CA3D3E9002315F068FE09
:104CD00022462B4616F01AF859A3D3E9002315F003
:104CE0005FFE02460B46DDE9040115F059FEDDE9E1
:104CF000022316F00BF8DDE9004522462B4615F09D
:104D00004FFE42464B4616F001F822462B4615F060
:104D100047FE4DA3D3E9002304460D46DDE9020119
:104D200015F0F4FF22462B4615F03AFE0B460246DC
:104D3000804689465046594615F032FE464B9E4203
:104D400004460D4600F38C80109B012B3BD002469D
:104D50000B4600203F4916F003F9002406460F4693
:104D60002046294652465B46CDE90067CDE902015F
:104D7000009415F013FEDDE900AB02460B464046F9
:104D8000494615F00BFE52465B4615F0BFFF5246F2
:104D900004460D465B46DDE9020115F0B7FF00222F
:104DA0002E4B15F0FDFD02460B462046294615F018
:104DB000F7FD32463B4615F0A9FF52465B4615F01B
:104DC000EFFD04460D462046294607B0BDE8F08FAA
:104DD000182D4454FB21E93F075C143326A6813C7F
:104DE0000000000000000000D47ABF74702AFB3E6F
:104DF000E9A7F0320FB8123F68108D1AF726303F3E
:104E00001583E0FEC8DB573F93846EE9E326823FBB
:104E1000FE41B31BBAA1AB3F735360DBCB75F3BE4E
:104E2000A69237A0887E143F0165F2F2D844433F32
:104E3000280356C9226D6D3F37D60684F464963F29
:104E40007AFE10111111C13F635555555555D53F87
:104E5000FFFF2F3E0000F0BF2794E53F0000F03F2A
:104E6000109815F0E9FE2246CDE900012B462046B8
:104E7000294615F04BFFDDE90023CDE9020120466C
:104E8000294615F08DFD02460B46DDE9020116F0BC
:104E900067F842464B4615F081FD02460B465046E8
:104EA000594615F07BFD02460B4615F079FD02468A
:104EB0000B46DDE9000115F071FD0446B81700F05E
:104EC0000200C0F101000D4615F0B6FE02460B4689
:104ED0002046294615F01AFF04460D46204629466D
:104EE00007B0BDE8F08F5046594613F08FFE0246DA
:104EF0000B460020044916F033F804460D4662E7DD
:104F000054465D465FE700BF0000F03F0000000030
:104F10002DE9F04FCC4A21F00043934285B0824600
:104F20008B460C4620D9C94A934200F2D780002C08
:104F300080F2A481ACA3D3E900235046594615F072
:104F40002FFD0022002316F053F9002840F0D180F5
:104F5000A7A3D3E900235046594615F0D7FE0246D1
:104F60000B460020BA4994E1BA4A934200F2E58028
:104F7000B94A934240F22E81002301930022B74B9D
:104F80005046594615F0C2FE06460F4602460B46ED
:104F90005046594615F0BAFE97A3D3E900230446BC
:104FA0000D4615F0B3FE96A3D3E9002315F0F8FCE7
:104FB00022462B4615F0AAFE93A3D3E9002315F051
:104FC000EDFC22462B4615F0A1FE91A3D3E9002368
:104FD00015F0E6FC22462B4615F098FE8EA3D3E989
:104FE000002315F0DBFC22462B4615F08FFE002235
:104FF0009B4B15F0D5FC8046894602460B46304651
:10500000394615F083FE02460B460020954915F0FF
:10501000C5FC064602460B460F464046494615F07B
:10502000BDFC3246804689463B465046594615F0FF
:105030006DFE02460B4600208B4915F0AFFC024680
:105040000B464046494615F08BFF22462B4615F08D
:105050005DFE019E02460B46002E4DD0DDE9026743
:1050600032463B4615F09AFC52465B4615F04EFE22
:1050700032463B4615F092FC2B46224615F08EFC3C
:10508000019B013306460F4600F02381019B012B53
:105090007BD0019A531C392B4FEA025500F228812C
:1050A000019A132A40F35581019BC3F57F740334A1
:1050B0000022230515F074FC02460B465046594663
:1050C00015F06CFC0022664B15F06AFC824605EB7D
:1050D000010B5046594605B0BDE8F08F634A934234
:1050E0001BD9C1F313030343024640F01281002988
:1050F000EFDA00205E490DE05046594615F006FEF5
:1051000022462B4615F04AFC02460B4650465946AD
:1051100015F044FC05B0BDE8F08F41A3D3E90023AE
:1051200016F084F800283FF402AF3FA3D3E9002330
:105130001046194615F0EAFDECE74E4A934200F29C
:10514000EC8000293AA3D3E9002339DA15F028FCD2
:1051500039A7D7E900674FF0FF33804689460193AE
:1051600032463B464046494615F018FC02460B467F
:1051700082468B464046494615F010FC32463B4677
:1051800015F00CFCCDE90201F8E600223A4B50463E
:10519000594616F02DF8002800F0CC8050465946AC
:1051A00000222E4B15F0FCFB02460B4630463946DA
:1051B00015F0F4FB00224FF0404315F0A7FDA9E7DE
:1051C00015F0ECFB01238046894601931CA7D7E923
:1051D0000067C5E714A3D3E9002315F0E1FB0246FD
:1051E0000B468FE7AFF3008059F3F8C21F6EA5019D
:1051F000FE822B654715F73F2DC3096EB7FD8ABEAA
:105200003952E686CACFD03EB7DBAA9E19CE143FEC
:105210008555FE19A0015A3FF41011111111A13F3B
:10522000EF39FAFE422E86409C7500883CE4377EBA
:105230000000E0FE422EE63F763C7935EF39EABDCC
:10524000763C7935EF39EA3D79684340412E864016
:105250000000E0BF422ED63FFFFF8F3C0000E03F42
:105260000000F03F0000084000001840FFFFEF7F03
:105270000000F0BFB1A2F03F0000D0BF44A3D3E9CB
:1052800000235046594615F041FD02460B460020CA
:10529000414915F085FB15F0E9FF019015F0CCFCB4
:1052A00037A3D3E9002306460F4615F02FFD02462B
:1052B0000B465046594615F071FB33A3D3E9002342
:1052C000804689463046394615F020FD06460F4691
:1052D00046E702460B465046594615F05FFB002252
:1052E0002D4B15F013FD00222B4B15F057FB11E74A
:1052F00052465B4615F052FB02460B4600202749FA
:1053000015F04CFB6B1819460022244B15F046FB98
:1053100000E70B4615F044FBFCE61DA3D3E9002390
:1053200015F0F4FC002C02460B464FF00000AFDAFB
:105330001B49AEE732463B465046594615F02EFB18
:1053400002460B4615F02CFB0022144B15F028FBEF
:10535000E0E64FF4001343FA02F452465B4615F0C0
:105360001DFBC4F17F57002607F5401702460B4688
:105370003046394615F012FBA8E600BFAFF30080B7
:105380000000E0FE422EE63F763C7935EF39EA3DFB
:10539000FE822B654715F73F0000E03F0000F03F1D
:1053A0000000E0BF00000000F8B5C1F30A53044656
:1053B0000D460E4617460BBB21F00046034633430D
:1053C0001BD0354B002215F0A1FC344B9F42044604
:1053D0000D4635DBC1F30A530E46363B3B4440F2E3
:1053E000FE72934232DC002B11DD26F0FF4626F4DC
:1053F000E00646EA035520462946F8BD40F2FF7212
:105400009342EBD102460B4615F0CAFAF8BD13F1F0
:10541000350F28DA4CF250339F4222462B460ADDE4
:1054200019A1D1E9000115F02BFA17A3D3E9002344
:1054300015F06CFCF8BD16A1D1E9000115F020FAB9
:1054400013A3D3E9002315F061FCF8BD22462B46D7
:105450000DA1D1E9000115F013FA0BA3D3E9002344
:1054600015F054FCF8BD26F0FF4626F4E00636336E
:1054700046EA0355204629460022094B15F046FC12
:10548000F8BD00BFAFF300809C7500883CE4377E18
:1054900059F3F8C21F6EA50100005043B03CFFFF56
:1054A0000000903C10B5054C237833B9044B13B180
:1054B0000448AFF300800123237010BD10050020C5
:1054C0000000000090DD010008B5034B1BB103494B
:1054D0000348AFF3008008BD000000001405002061
:1054E00090DD0100154B002B08BF134B9D46A3F523
:1054F000803A00218B460F461348144A121A09F0CD
:10550000B1FB0F4B002B00D098470E4B002B00D067
:1055100098470020002104000D000D48002802D00B
:105520000C48AFF3008015F0E1F92000290005F0E8
:10553000A1FA15F0C7F900BF000008000000022022
:10554000000000000000000000040020100E0020F9
:10555000000000000000000038B5064CA4F17805FA
:10556000236E04F160005B6E183C9847AC42F7D1A3
:1055700038BD00BFAC05002038B5064CA4F1780555
:10558000236E04F160005B6E183C9847AC42F7D183
:1055900038BD00BF3405002010B5044B0360002364
:1055A0000446C3800CF012F8204610BDF0CC010078
:1055B00030B5144C2368DA0783B015D5124C236834
:1055C000DB070ED40125114A1149009541F27B7386
:1055D00010480BF04BFD104A10490E48256016F09C
:1055E00021F90C4803B030BD1B220D49084811F0C9
:1055F0007FFE0123084A0B490548236016F012F983
:10560000DCE700BF2C0500203005002068C1010048
:10561000240600203C06002010000020F10D0100AF
:1056200000B001409955000008B50021CC2001F0E0
:10563000DFFE28B115F0F0FABDE8084001F06ABDC0
:1056400000200249BDE8084001F064BD000020418F
:1056500070B501F0C5FE15F0DFFA04460D465F2077
:105660004FF4004101F0C4FE00210646602001F025
:10567000BFFE00B9304615F0CFFA02460B46204671
:10568000294615F08DF904460D460BF0D7FA58B1AE
:105690000BF0D0FA15F0C0FA02460B462046294618
:1056A00015F07EF904460D4620462946BDE87040B7
:1056B00001F030BD08B50021CD2001F099FE28B1E0
:1056C00015F0AAFABDE8084001F024BD00204FF013
:1056D0008241BDE8084001F01DBD00BF08B502F0E1
:1056E00045FE68B14368172B0ADDD0E904208242E9
:1056F00006D3101A15F090FABDE8084001F00ABD73
:1057000000200021BDE8084001F004BD08B50021DB
:10571000D62001F06DFE0028D8BF402008BD00BF94
:105720000120704770B50D460446FFF741FF24B2D3
:105730002DB200F110062A46214630460FF05EF9E0
:105740002A4600280CBFFF23002321463046BDE82F
:1057500070400FF03DB900BF70B50D4616460446C7
:10576000FFF726FF002E14BFFF2300232AB221B229
:105770001030BDE870400FF02BB900BF70B5FF2AA4
:10578000A8BFFF220E4614460546FFF711FF24EA84
:10579000E47332B229B2DBB21030BDE870400FF0D2
:1057A00017B900BF10B5064B036000230446C38041
:1057B0000BF00CFF204616F031F8204610BD00BF5C
:1057C000F0CC010070B52E4D2E4E2F4C28460323F1
:1057D000152241F2717110F0ABFB05F118000323A3
:1057E000162241F2727110F0A3FB05F13000032381
:1057F0000F2241F2737110F09BFB05F14800032367
:10580000182241F2747110F093FB032305F160003C
:10581000132241F2757110F08BFB32461B490020B8
:1058200016F000F8204603231C2241F2767110F096
:105830007FFB04F1180003230B2241F2777110F073
:1058400077FB04F1300003231F2241F2787110F03E
:105850006FFB04F148000323252241F2797110F017
:1058600067FB04F160001E2241F27A71032310F0FD
:105870005FFB324606490020BDE8704015F0D2BFFC
:10588000AC05002010000020340500205955000010
:105890007955000070B504460E4600F047FA88B10D
:1058A00003681B6B05469847082C0CD0A4F109032C
:1058B000012B14D93246214610230D20BDE870403B
:1058C00004F0B0B870BD2B6828469B6A9847022840
:1058D000F0DC2B6828465B6A04219847EAE72B68CE
:1058E00028469B6A98470528E4DC2B6828465B6AB3
:1058F00008219847DEE700BF38B52DED028B05463D
:1059000000F014FA044640B103681B6B9847032D5E
:1059100003D8DFE805F02F363D06BDEC028B0020F2
:1059200038BD20460DF02EF807EE900A2046F8EE1E
:10593000E78A0DF02FF807EE900A2046B8EEE78AC6
:105940000DF030F868EE087A07EE100AE8EEA87A53
:10595000B8EEC77AE7EE077AF5EE407AF1EE10FA84
:10596000B1EEE78A1BD4FDEEC87ABDEC028B17EED0
:10597000900A38BDBDEC028B2046BDE838400DF0E2
:1059800001B8BDEC028B2046BDE838400DF002B8EE
:10599000BDEC028B2046BDE838400DF003B817EE91
:1059A000900A13F069FEDEE738B5044600F0BEF950
:1059B00058B103681B6B0546984744B1012C04D1CC
:1059C0002846BDE838400DF027B8002038BD2846ED
:1059D000BDE838400CF0FCBF10B5044600F0A6F955
:1059E00028B1036821465B6ABDE81040184710BD26
:1059F0000048704716FCFFFF704700BF10B5034B0F
:105A0000036004460DF01EF8204610BDB4CF01001F
:105A100010B5054B036004460DF014F8204615F050
:105A2000FDFE204610BD00BFB4CF01002DE9F041BE
:105A3000032184B00546512001F0DAFCDFF8E8C20A
:105A4000AE4B044604F00F06C4F3031714F480743D
:105A500008BF6346AA4831463A460BF04FFF221C66
:105A600018BF012231463B4628460EF0CBFE0023EC
:105A7000AB60A4480BF042FF4FF0FF31032001F070
:105A8000B7FCC0B204F088FA4FF0FF3104460220A0
:105A900001F0AEFCC0B204F07FFA002C3BD000282D
:105AA00039D00146204604F099F8064600284DD02A
:105AB0004FF0FF31462001F09BFC322804464ED0C7
:105AC0004BDD382800F0B18068285FD14FF0FF31FE
:105AD000012001F08DFCC0B204F05EFA80465C202B
